{
  "contractName": "RideKoin",
  "abi": [
    {
      "inputs": [
        {
          "internalType": "uint256",
          "name": "initialPrice",
          "type": "uint256"
        }
      ],
      "stateMutability": "nonpayable",
      "type": "constructor"
    },
    {
      "inputs": [
        {
          "internalType": "address",
          "name": "spender",
          "type": "address"
        },
        {
          "internalType": "uint256",
          "name": "allowance",
          "type": "uint256"
        },
        {
          "internalType": "uint256",
          "name": "needed",
          "type": "uint256"
        }
      ],
      "name": "ERC20InsufficientAllowance",
      "type": "error"
    },
    {
      "inputs": [
        {
          "internalType": "address",
          "name": "sender",
          "type": "address"
        },
        {
          "internalType": "uint256",
          "name": "balance",
          "type": "uint256"
        },
        {
          "internalType": "uint256",
          "name": "needed",
          "type": "uint256"
        }
      ],
      "name": "ERC20InsufficientBalance",
      "type": "error"
    },
    {
      "inputs": [
        {
          "internalType": "address",
          "name": "approver",
          "type": "address"
        }
      ],
      "name": "ERC20InvalidApprover",
      "type": "error"
    },
    {
      "inputs": [
        {
          "internalType": "address",
          "name": "receiver",
          "type": "address"
        }
      ],
      "name": "ERC20InvalidReceiver",
      "type": "error"
    },
    {
      "inputs": [
        {
          "internalType": "address",
          "name": "sender",
          "type": "address"
        }
      ],
      "name": "ERC20InvalidSender",
      "type": "error"
    },
    {
      "inputs": [
        {
          "internalType": "address",
          "name": "spender",
          "type": "address"
        }
      ],
      "name": "ERC20InvalidSpender",
      "type": "error"
    },
    {
      "inputs": [
        {
          "internalType": "address",
          "name": "owner",
          "type": "address"
        }
      ],
      "name": "OwnableInvalidOwner",
      "type": "error"
    },
    {
      "inputs": [
        {
          "internalType": "address",
          "name": "account",
          "type": "address"
        }
      ],
      "name": "OwnableUnauthorizedAccount",
      "type": "error"
    },
    {
      "anonymous": false,
      "inputs": [
        {
          "indexed": true,
          "internalType": "address",
          "name": "owner",
          "type": "address"
        },
        {
          "indexed": true,
          "internalType": "address",
          "name": "spender",
          "type": "address"
        },
        {
          "indexed": false,
          "internalType": "uint256",
          "name": "value",
          "type": "uint256"
        }
      ],
      "name": "Approval",
      "type": "event"
    },
    {
      "anonymous": false,
      "inputs": [
        {
          "indexed": true,
          "internalType": "address",
          "name": "previousOwner",
          "type": "address"
        },
        {
          "indexed": true,
          "internalType": "address",
          "name": "newOwner",
          "type": "address"
        }
      ],
      "name": "OwnershipTransferred",
      "type": "event"
    },
    {
      "anonymous": false,
      "inputs": [
        {
          "indexed": true,
          "internalType": "address",
          "name": "from",
          "type": "address"
        },
        {
          "indexed": true,
          "internalType": "address",
          "name": "to",
          "type": "address"
        },
        {
          "indexed": false,
          "internalType": "uint256",
          "name": "value",
          "type": "uint256"
        }
      ],
      "name": "Transfer",
      "type": "event"
    },
    {
      "inputs": [
        {
          "internalType": "address",
          "name": "owner",
          "type": "address"
        },
        {
          "internalType": "address",
          "name": "spender",
          "type": "address"
        }
      ],
      "name": "allowance",
      "outputs": [
        {
          "internalType": "uint256",
          "name": "",
          "type": "uint256"
        }
      ],
      "stateMutability": "view",
      "type": "function"
    },
    {
      "inputs": [
        {
          "internalType": "address",
          "name": "spender",
          "type": "address"
        },
        {
          "internalType": "uint256",
          "name": "value",
          "type": "uint256"
        }
      ],
      "name": "approve",
      "outputs": [
        {
          "internalType": "bool",
          "name": "",
          "type": "bool"
        }
      ],
      "stateMutability": "nonpayable",
      "type": "function"
    },
    {
      "inputs": [],
      "name": "decimals",
      "outputs": [
        {
          "internalType": "uint8",
          "name": "",
          "type": "uint8"
        }
      ],
      "stateMutability": "view",
      "type": "function"
    },
    {
      "inputs": [],
      "name": "name",
      "outputs": [
        {
          "internalType": "string",
          "name": "",
          "type": "string"
        }
      ],
      "stateMutability": "view",
      "type": "function"
    },
    {
      "inputs": [],
      "name": "owner",
      "outputs": [
        {
          "internalType": "address",
          "name": "",
          "type": "address"
        }
      ],
      "stateMutability": "view",
      "type": "function"
    },
    {
      "inputs": [],
      "name": "renounceOwnership",
      "outputs": [],
      "stateMutability": "nonpayable",
      "type": "function"
    },
    {
      "inputs": [],
      "name": "symbol",
      "outputs": [
        {
          "internalType": "string",
          "name": "",
          "type": "string"
        }
      ],
      "stateMutability": "view",
      "type": "function"
    },
    {
      "inputs": [],
      "name": "tokenPrice",
      "outputs": [
        {
          "internalType": "uint256",
          "name": "",
          "type": "uint256"
        }
      ],
      "stateMutability": "view",
      "type": "function"
    },
    {
      "inputs": [],
      "name": "totalSupply",
      "outputs": [
        {
          "internalType": "uint256",
          "name": "",
          "type": "uint256"
        }
      ],
      "stateMutability": "view",
      "type": "function"
    },
    {
      "inputs": [
        {
          "internalType": "address",
          "name": "to",
          "type": "address"
        },
        {
          "internalType": "uint256",
          "name": "value",
          "type": "uint256"
        }
      ],
      "name": "transfer",
      "outputs": [
        {
          "internalType": "bool",
          "name": "",
          "type": "bool"
        }
      ],
      "stateMutability": "nonpayable",
      "type": "function"
    },
    {
      "inputs": [
        {
          "internalType": "address",
          "name": "from",
          "type": "address"
        },
        {
          "internalType": "address",
          "name": "to",
          "type": "address"
        },
        {
          "internalType": "uint256",
          "name": "value",
          "type": "uint256"
        }
      ],
      "name": "transferFrom",
      "outputs": [
        {
          "internalType": "bool",
          "name": "",
          "type": "bool"
        }
      ],
      "stateMutability": "nonpayable",
      "type": "function"
    },
    {
      "inputs": [
        {
          "internalType": "address",
          "name": "newOwner",
          "type": "address"
        }
      ],
      "name": "transferOwnership",
      "outputs": [],
      "stateMutability": "nonpayable",
      "type": "function"
    },
    {
      "inputs": [
        {
          "internalType": "address",
          "name": "to",
          "type": "address"
        },
        {
          "internalType": "uint256",
          "name": "amount",
          "type": "uint256"
        }
      ],
      "name": "mint",
      "outputs": [],
      "stateMutability": "nonpayable",
      "type": "function"
    },
    {
      "inputs": [
        {
          "internalType": "address",
          "name": "user",
          "type": "address"
        }
      ],
      "name": "balanceOf",
      "outputs": [
        {
          "internalType": "uint256",
          "name": "",
          "type": "uint256"
        }
      ],
      "stateMutability": "view",
      "type": "function"
    },
    {
      "inputs": [
        {
          "internalType": "address",
          "name": "user",
          "type": "address"
        }
      ],
      "name": "_balanceOf",
      "outputs": [
        {
          "internalType": "uint256",
          "name": "",
          "type": "uint256"
        }
      ],
      "stateMutability": "view",
      "type": "function"
    },
    {
      "inputs": [
        {
          "internalType": "address",
          "name": "user",
          "type": "address"
        }
      ],
      "name": "getEtherBalance",
      "outputs": [
        {
          "internalType": "uint256",
          "name": "",
          "type": "uint256"
        }
      ],
      "stateMutability": "view",
      "type": "function"
    },
    {
      "inputs": [
        {
          "internalType": "uint256",
          "name": "newPrice",
          "type": "uint256"
        }
      ],
      "name": "setTokenPrice",
      "outputs": [],
      "stateMutability": "nonpayable",
      "type": "function"
    },
    {
      "inputs": [
        {
          "internalType": "uint256",
          "name": "tokenAmount",
          "type": "uint256"
        }
      ],
      "name": "buyToken",
      "outputs": [],
      "stateMutability": "payable",
      "type": "function"
    },
    {
      "inputs": [
        {
          "internalType": "uint256",
          "name": "tokenAmount",
          "type": "uint256"
        }
      ],
      "name": "sellToken",
      "outputs": [],
      "stateMutability": "nonpayable",
      "type": "function"
    },
    {
      "inputs": [
        {
          "internalType": "address",
          "name": "user",
          "type": "address"
        },
        {
          "internalType": "uint256",
          "name": "amount",
          "type": "uint256"
        }
      ],
      "name": "burnFrom",
      "outputs": [],
      "stateMutability": "nonpayable",
      "type": "function"
    },
    {
      "inputs": [],
      "name": "withdraw",
      "outputs": [],
      "stateMutability": "nonpayable",
      "type": "function"
    },
    {
      "inputs": [
        {
          "internalType": "address",
          "name": "spender",
          "type": "address"
        },
        {
          "internalType": "uint256",
          "name": "amount",
          "type": "uint256"
        }
      ],
      "name": "approveAddress",
      "outputs": [],
      "stateMutability": "payable",
      "type": "function"
    }
  ],
  "bytecode": "0x608060405234801562000010575f80fd5b506040516200256f3803806200256f833981810160405281019062000036919062000551565b336040518060400160405280600881526020017f526964654b6f696e0000000000000000000000000000000000000000000000008152506040518060400160405280600381526020017f52444b00000000000000000000000000000000000000000000000000000000008152508160039081620000b49190620007dc565b508060049081620000c69190620007dc565b5050505f73ffffffffffffffffffffffffffffffffffffffff168173ffffffffffffffffffffffffffffffffffffffff16036200013c575f6040517f1e4fbdf700000000000000000000000000000000000000000000000000000000815260040162000133919062000903565b60405180910390fd5b6200014d816200019c60201b60201c565b506200018e33620001636200025f60201b60201c565b600a62000171919062000aa7565b63042c1d8062000182919062000af7565b6200026760201b60201c565b806006819055505062000be2565b5f60055f9054906101000a900473ffffffffffffffffffffffffffffffffffffffff1690508160055f6101000a81548173ffffffffffffffffffffffffffffffffffffffff021916908373ffffffffffffffffffffffffffffffffffffffff1602179055508173ffffffffffffffffffffffffffffffffffffffff168173ffffffffffffffffffffffffffffffffffffffff167f8be0079c531659141344cd1fd0a4f28419497f9722a3daafe3b4186f6b6457e060405160405180910390a35050565b5f6012905090565b5f73ffffffffffffffffffffffffffffffffffffffff168273ffffffffffffffffffffffffffffffffffffffff1603620002da575f6040517fec442f05000000000000000000000000000000000000000000000000000000008152600401620002d1919062000903565b60405180910390fd5b620002ed5f8383620002f160201b60201c565b5050565b5f73ffffffffffffffffffffffffffffffffffffffff168373ffffffffffffffffffffffffffffffffffffffff160362000345578060025f82825462000338919062000b41565b9250508190555062000416565b5f805f8573ffffffffffffffffffffffffffffffffffffffff1673ffffffffffffffffffffffffffffffffffffffff1681526020019081526020015f2054905081811015620003d1578381836040517fe450d38c000000000000000000000000000000000000000000000000000000008152600401620003c89392919062000b8c565b60405180910390fd5b8181035f808673ffffffffffffffffffffffffffffffffffffffff1673ffffffffffffffffffffffffffffffffffffffff1681526020019081526020015f2081905550505b5f73ffffffffffffffffffffffffffffffffffffffff168273ffffffffffffffffffffffffffffffffffffffff16036200045f578060025f8282540392505081905550620004a9565b805f808473ffffffffffffffffffffffffffffffffffffffff1673ffffffffffffffffffffffffffffffffffffffff1681526020019081526020015f205f82825401925050819055505b8173ffffffffffffffffffffffffffffffffffffffff168373ffffffffffffffffffffffffffffffffffffffff167fddf252ad1be2c89b69c2b068fc378daa952ba7f163c4a11628f55a4df523b3ef8360405162000508919062000bc7565b60405180910390a3505050565b5f80fd5b5f819050919050565b6200052d8162000519565b811462000538575f80fd5b50565b5f815190506200054b8162000522565b92915050565b5f6020828403121562000569576200056862000515565b5b5f62000578848285016200053b565b91505092915050565b5f81519050919050565b7f4e487b71000000000000000000000000000000000000000000000000000000005f52604160045260245ffd5b7f4e487b71000000000000000000000000000000000000000000000000000000005f52602260045260245ffd5b5f6002820490506001821680620005fd57607f821691505b602082108103620006135762000612620005b8565b5b50919050565b5f819050815f5260205f209050919050565b5f6020601f8301049050919050565b5f82821b905092915050565b5f60088302620006777fffffffffffffffffffffffffffffffffffffffffffffffffffffffffffffffff826200063a565b6200068386836200063a565b95508019841693508086168417925050509392505050565b5f819050919050565b5f620006c4620006be620006b88462000519565b6200069b565b62000519565b9050919050565b5f819050919050565b620006df83620006a4565b620006f7620006ee82620006cb565b84845462000646565b825550505050565b5f90565b6200070d620006ff565b6200071a818484620006d4565b505050565b5b818110156200074157620007355f8262000703565b60018101905062000720565b5050565b601f82111562000790576200075a8162000619565b62000765846200062b565b8101602085101562000775578190505b6200078d62000784856200062b565b8301826200071f565b50505b505050565b5f82821c905092915050565b5f620007b25f198460080262000795565b1980831691505092915050565b5f620007cc8383620007a1565b9150826002028217905092915050565b620007e78262000581565b67ffffffffffffffff8111156200080357620008026200058b565b5b6200080f8254620005e5565b6200081c82828562000745565b5f60209050601f83116001811462000852575f84156200083d578287015190505b620008498582620007bf565b865550620008b8565b601f198416620008628662000619565b5f5b828110156200088b5784890151825560018201915060208501945060208101905062000864565b86831015620008ab5784890151620008a7601f891682620007a1565b8355505b6001600288020188555050505b505050505050565b5f73ffffffffffffffffffffffffffffffffffffffff82169050919050565b5f620008eb82620008c0565b9050919050565b620008fd81620008df565b82525050565b5f602082019050620009185f830184620008f2565b92915050565b7f4e487b71000000000000000000000000000000000000000000000000000000005f52601160045260245ffd5b5f8160011c9050919050565b5f808291508390505b6001851115620009a85780860481111562000980576200097f6200091e565b5b6001851615620009905780820291505b8081029050620009a0856200094b565b945062000960565b94509492505050565b5f82620009c2576001905062000a94565b81620009d1575f905062000a94565b8160018114620009ea5760028114620009f55762000a2b565b600191505062000a94565b60ff84111562000a0a5762000a096200091e565b5b8360020a91508482111562000a245762000a236200091e565b5b5062000a94565b5060208310610133831016604e8410600b841016171562000a655782820a90508381111562000a5f5762000a5e6200091e565b5b62000a94565b62000a74848484600162000957565b9250905081840481111562000a8e5762000a8d6200091e565b5b81810290505b9392505050565b5f60ff82169050919050565b5f62000ab38262000519565b915062000ac08362000a9b565b925062000aef7fffffffffffffffffffffffffffffffffffffffffffffffffffffffffffffffff8484620009b1565b905092915050565b5f62000b038262000519565b915062000b108362000519565b925082820262000b208162000519565b9150828204841483151762000b3a5762000b396200091e565b5b5092915050565b5f62000b4d8262000519565b915062000b5a8362000519565b925082820190508082111562000b755762000b746200091e565b5b92915050565b62000b868162000519565b82525050565b5f60608201905062000ba15f830186620008f2565b62000bb0602083018562000b7b565b62000bbf604083018462000b7b565b949350505050565b5f60208201905062000bdc5f83018462000b7b565b92915050565b61197f8062000bf05f395ff3fe608060405260043610610134575f3560e01c8063715018a6116100aa57806395d89b411161006e57806395d89b41146103c2578063a9059cbb146103ec578063cca3e83214610428578063dc45d08e14610464578063dd62ed3e146104a0578063f2fde38b146104dc57610134565b8063715018a61461031457806379cc67901461032a5780637ff9b596146103525780638b9a0c891461037c5780638da5cb5b1461039857610134565b80632d296bf1116100fc5780632d296bf11461022c578063313ce567146102485780633ccfd60b1461027257806340c10f19146102885780636a61e5fc146102b057806370a08231146102d857610134565b806306fdde0314610138578063095ea7b31461016257806318160ddd1461019e5780632397e4d7146101c857806323b872dd146101f0575b5f80fd5b348015610143575f80fd5b5061014c610504565b6040516101599190611408565b60405180910390f35b34801561016d575f80fd5b50610188600480360381019061018391906114b9565b610594565b6040516101959190611511565b60405180910390f35b3480156101a9575f80fd5b506101b26105b6565b6040516101bf9190611539565b60405180910390f35b3480156101d3575f80fd5b506101ee60048036038101906101e99190611552565b6105bf565b005b3480156101fb575f80fd5b506102166004803603810190610211919061157d565b61062a565b6040516102239190611511565b60405180910390f35b61024660048036038101906102419190611552565b610658565b005b348015610253575f80fd5b5061025c6106c1565b60405161026991906115e8565b60405180910390f35b34801561027d575f80fd5b506102866106c9565b005b348015610293575f80fd5b506102ae60048036038101906102a991906114b9565b61071e565b005b3480156102bb575f80fd5b506102d660048036038101906102d19190611552565b610734565b005b3480156102e3575f80fd5b506102fe60048036038101906102f99190611601565b610746565b60405161030b9190611539565b60405180910390f35b34801561031f575f80fd5b50610328610804565b005b348015610335575f80fd5b50610350600480360381019061034b91906114b9565b610817565b005b34801561035d575f80fd5b50610366610893565b6040516103739190611539565b60405180910390f35b610396600480360381019061039191906114b9565b610899565b005b3480156103a3575f80fd5b506103ac6108b0565b6040516103b9919061163b565b60405180910390f35b3480156103cd575f80fd5b506103d66108d8565b6040516103e39190611408565b60405180910390f35b3480156103f7575f80fd5b50610412600480360381019061040d91906114b9565b610968565b60405161041f9190611511565b60405180910390f35b348015610433575f80fd5b5061044e60048036038101906104499190611601565b61098a565b60405161045b9190611539565b60405180910390f35b34801561046f575f80fd5b5061048a60048036038101906104859190611601565b61099b565b6040516104979190611539565b60405180910390f35b3480156104ab575f80fd5b506104c660048036038101906104c19190611654565b610a68565b6040516104d39190611539565b60405180910390f35b3480156104e7575f80fd5b5061050260048036038101906104fd9190611601565b610aea565b005b606060038054610513906116bf565b80601f016020809104026020016040519081016040528092919081815260200182805461053f906116bf565b801561058a5780601f106105615761010080835404028352916020019161058a565b820191905f5260205f20905b81548152906001019060200180831161056d57829003601f168201915b5050505050905090565b5f8061059e610b6e565b90506105ab818585610b75565b600191505092915050565b5f600254905090565b5f600654826105ce919061171c565b90506105e2336105dc6108b0565b84610b87565b3373ffffffffffffffffffffffffffffffffffffffff166108fc8290811502906040515f60405180830381858888f19350505050158015610625573d5f803e3d5ffd5b505050565b5f80610634610b6e565b9050610641858285610c77565b61064c858585610b87565b60019150509392505050565b5f60065482610667919061171c565b90508034146106ab576040517f08c379a00000000000000000000000000000000000000000000000000000000081526004016106a2906117cd565b60405180910390fd5b6106bd6106b66108b0565b3384610b87565b5050565b5f6012905090565b6106d1610d09565b6106d96108b0565b73ffffffffffffffffffffffffffffffffffffffff166108fc4790811502906040515f60405180830381858888f1935050505015801561071b573d5f803e3d5ffd5b50565b610726610d09565b6107308282610d90565b5050565b61073c610d09565b8060068190555050565b5f813373ffffffffffffffffffffffffffffffffffffffff168173ffffffffffffffffffffffffffffffffffffffff1614806107b457503373ffffffffffffffffffffffffffffffffffffffff1661079c6108b0565b73ffffffffffffffffffffffffffffffffffffffff16145b6107f3576040517f08c379a00000000000000000000000000000000000000000000000000000000081526004016107ea90611835565b60405180910390fd5b6107fc83610e0f565b915050919050565b61080c610d09565b6108155f610e54565b565b3373ffffffffffffffffffffffffffffffffffffffff168273ffffffffffffffffffffffffffffffffffffffff1614610885576040517f08c379a000000000000000000000000000000000000000000000000000000000815260040161087c906118c3565b60405180910390fd5b61088f8282610f17565b5050565b60065481565b6108a1610d09565b6108ac338383610b75565b5050565b5f60055f9054906101000a900473ffffffffffffffffffffffffffffffffffffffff16905090565b6060600480546108e7906116bf565b80601f0160208091040260200160405190810160405280929190818152602001828054610913906116bf565b801561095e5780601f106109355761010080835404028352916020019161095e565b820191905f5260205f20905b81548152906001019060200180831161094157829003601f168201915b5050505050905090565b5f80610972610b6e565b905061097f818585610b87565b600191505092915050565b5f61099482610e0f565b9050919050565b5f813373ffffffffffffffffffffffffffffffffffffffff168173ffffffffffffffffffffffffffffffffffffffff161480610a0957503373ffffffffffffffffffffffffffffffffffffffff166109f16108b0565b73ffffffffffffffffffffffffffffffffffffffff16145b610a48576040517f08c379a0000000000000000000000000000000000000000000000000000000008152600401610a3f90611835565b60405180910390fd5b8273ffffffffffffffffffffffffffffffffffffffff1631915050919050565b5f60015f8473ffffffffffffffffffffffffffffffffffffffff1673ffffffffffffffffffffffffffffffffffffffff1681526020019081526020015f205f8373ffffffffffffffffffffffffffffffffffffffff1673ffffffffffffffffffffffffffffffffffffffff1681526020019081526020015f2054905092915050565b610af2610d09565b5f73ffffffffffffffffffffffffffffffffffffffff168173ffffffffffffffffffffffffffffffffffffffff1603610b62575f6040517f1e4fbdf7000000000000000000000000000000000000000000000000000000008152600401610b59919061163b565b60405180910390fd5b610b6b81610e54565b50565b5f33905090565b610b828383836001610f96565b505050565b5f73ffffffffffffffffffffffffffffffffffffffff168373ffffffffffffffffffffffffffffffffffffffff1603610bf7575f6040517f96c6fd1e000000000000000000000000000000000000000000000000000000008152600401610bee919061163b565b60405180910390fd5b5f73ffffffffffffffffffffffffffffffffffffffff168273ffffffffffffffffffffffffffffffffffffffff1603610c67575f6040517fec442f05000000000000000000000000000000000000000000000000000000008152600401610c5e919061163b565b60405180910390fd5b610c72838383611165565b505050565b5f610c828484610a68565b90507fffffffffffffffffffffffffffffffffffffffffffffffffffffffffffffffff8114610d035781811015610cf4578281836040517ffb8f41b2000000000000000000000000000000000000000000000000000000008152600401610ceb939291906118e1565b60405180910390fd5b610d0284848484035f610f96565b5b50505050565b610d11610b6e565b73ffffffffffffffffffffffffffffffffffffffff16610d2f6108b0565b73ffffffffffffffffffffffffffffffffffffffff1614610d8e57610d52610b6e565b6040517f118cdaa7000000000000000000000000000000000000000000000000000000008152600401610d85919061163b565b60405180910390fd5b565b5f73ffffffffffffffffffffffffffffffffffffffff168273ffffffffffffffffffffffffffffffffffffffff1603610e00575f6040517fec442f05000000000000000000000000000000000000000000000000000000008152600401610df7919061163b565b60405180910390fd5b610e0b5f8383611165565b5050565b5f805f8373ffffffffffffffffffffffffffffffffffffffff1673ffffffffffffffffffffffffffffffffffffffff1681526020019081526020015f20549050919050565b5f60055f9054906101000a900473ffffffffffffffffffffffffffffffffffffffff1690508160055f6101000a81548173ffffffffffffffffffffffffffffffffffffffff021916908373ffffffffffffffffffffffffffffffffffffffff1602179055508173ffffffffffffffffffffffffffffffffffffffff168173ffffffffffffffffffffffffffffffffffffffff167f8be0079c531659141344cd1fd0a4f28419497f9722a3daafe3b4186f6b6457e060405160405180910390a35050565b5f73ffffffffffffffffffffffffffffffffffffffff168273ffffffffffffffffffffffffffffffffffffffff1603610f87575f6040517f96c6fd1e000000000000000000000000000000000000000000000000000000008152600401610f7e919061163b565b60405180910390fd5b610f92825f83611165565b5050565b5f73ffffffffffffffffffffffffffffffffffffffff168473ffffffffffffffffffffffffffffffffffffffff1603611006575f6040517fe602df05000000000000000000000000000000000000000000000000000000008152600401610ffd919061163b565b60405180910390fd5b5f73ffffffffffffffffffffffffffffffffffffffff168373ffffffffffffffffffffffffffffffffffffffff1603611076575f6040517f94280d6200000000000000000000000000000000000000000000000000000000815260040161106d919061163b565b60405180910390fd5b8160015f8673ffffffffffffffffffffffffffffffffffffffff1673ffffffffffffffffffffffffffffffffffffffff1681526020019081526020015f205f8573ffffffffffffffffffffffffffffffffffffffff1673ffffffffffffffffffffffffffffffffffffffff1681526020019081526020015f2081905550801561115f578273ffffffffffffffffffffffffffffffffffffffff168473ffffffffffffffffffffffffffffffffffffffff167f8c5be1e5ebec7d5bd14f71427d1e84f3dd0314c0f7b2291e5b200ac8c7c3b925846040516111569190611539565b60405180910390a35b50505050565b5f73ffffffffffffffffffffffffffffffffffffffff168373ffffffffffffffffffffffffffffffffffffffff16036111b5578060025f8282546111a99190611916565b92505081905550611283565b5f805f8573ffffffffffffffffffffffffffffffffffffffff1673ffffffffffffffffffffffffffffffffffffffff1681526020019081526020015f205490508181101561123e578381836040517fe450d38c000000000000000000000000000000000000000000000000000000008152600401611235939291906118e1565b60405180910390fd5b8181035f808673ffffffffffffffffffffffffffffffffffffffff1673ffffffffffffffffffffffffffffffffffffffff1681526020019081526020015f2081905550505b5f73ffffffffffffffffffffffffffffffffffffffff168273ffffffffffffffffffffffffffffffffffffffff16036112ca578060025f8282540392505081905550611314565b805f808473ffffffffffffffffffffffffffffffffffffffff1673ffffffffffffffffffffffffffffffffffffffff1681526020019081526020015f205f82825401925050819055505b8173ffffffffffffffffffffffffffffffffffffffff168373ffffffffffffffffffffffffffffffffffffffff167fddf252ad1be2c89b69c2b068fc378daa952ba7f163c4a11628f55a4df523b3ef836040516113719190611539565b60405180910390a3505050565b5f81519050919050565b5f82825260208201905092915050565b5f5b838110156113b557808201518184015260208101905061139a565b5f8484015250505050565b5f601f19601f8301169050919050565b5f6113da8261137e565b6113e48185611388565b93506113f4818560208601611398565b6113fd816113c0565b840191505092915050565b5f6020820190508181035f83015261142081846113d0565b905092915050565b5f80fd5b5f73ffffffffffffffffffffffffffffffffffffffff82169050919050565b5f6114558261142c565b9050919050565b6114658161144b565b811461146f575f80fd5b50565b5f813590506114808161145c565b92915050565b5f819050919050565b61149881611486565b81146114a2575f80fd5b50565b5f813590506114b38161148f565b92915050565b5f80604083850312156114cf576114ce611428565b5b5f6114dc85828601611472565b92505060206114ed858286016114a5565b9150509250929050565b5f8115159050919050565b61150b816114f7565b82525050565b5f6020820190506115245f830184611502565b92915050565b61153381611486565b82525050565b5f60208201905061154c5f83018461152a565b92915050565b5f6020828403121561156757611566611428565b5b5f611574848285016114a5565b91505092915050565b5f805f6060848603121561159457611593611428565b5b5f6115a186828701611472565b93505060206115b286828701611472565b92505060406115c3868287016114a5565b9150509250925092565b5f60ff82169050919050565b6115e2816115cd565b82525050565b5f6020820190506115fb5f8301846115d9565b92915050565b5f6020828403121561161657611615611428565b5b5f61162384828501611472565b91505092915050565b6116358161144b565b82525050565b5f60208201905061164e5f83018461162c565b92915050565b5f806040838503121561166a57611669611428565b5b5f61167785828601611472565b925050602061168885828601611472565b9150509250929050565b7f4e487b71000000000000000000000000000000000000000000000000000000005f52602260045260245ffd5b5f60028204905060018216806116d657607f821691505b6020821081036116e9576116e8611692565b5b50919050565b7f4e487b71000000000000000000000000000000000000000000000000000000005f52601160045260245ffd5b5f61172682611486565b915061173183611486565b925082820261173f81611486565b91508282048414831517611756576117556116ef565b5b5092915050565b7f45746865722073656e7420646f65736e2774206d6174636820746865207265715f8201527f756972656420616d6f756e7420666f7220746f6b656e73000000000000000000602082015250565b5f6117b7603783611388565b91506117c28261175d565b604082019050919050565b5f6020820190508181035f8301526117e4816117ab565b9050919050565b7f4e6f7420656e6f756768205065726d697373696f6e73000000000000000000005f82015250565b5f61181f601683611388565b915061182a826117eb565b602082019050919050565b5f6020820190508181035f83015261184c81611813565b9050919050565b7f596f752074686520757365722063616e206275726e206869732f68657220746f5f8201527f6b656e7300000000000000000000000000000000000000000000000000000000602082015250565b5f6118ad602483611388565b91506118b882611853565b604082019050919050565b5f6020820190508181035f8301526118da816118a1565b9050919050565b5f6060820190506118f45f83018661162c565b611901602083018561152a565b61190e604083018461152a565b949350505050565b5f61192082611486565b915061192b83611486565b9250828201905080821115611943576119426116ef565b5b9291505056fea2646970667358221220d6b35e926edbdd4dbc5c8deac6620b2af9faa16797544e427a840e4fef988b7c64736f6c63430008150033",
  "immutableReferences": {},
  "source": "// SPDX-License-Identifier: MIT\r\npragma solidity ^0.8.21;\r\n\r\nimport \"@openzeppelin/contracts/token/ERC20/ERC20.sol\";\r\nimport \"@openzeppelin/contracts/access/Ownable.sol\";\r\n\r\ncontract RideKoin is ERC20, Ownable {\r\n    uint256 public tokenPrice; \r\n\r\n    constructor(uint256 initialPrice)\r\n        ERC20(\"RideKoin\", \"RDK\")\r\n        Ownable(msg.sender)\r\n    {\r\n        _mint(msg.sender, 70000000 * 10 ** decimals());\r\n        tokenPrice = initialPrice;\r\n    }\r\n\r\n    function mint(address to, uint256 amount) public onlyOwner {\r\n        _mint(to, amount);\r\n    }\r\n\r\n    modifier onlyOwnerOrAccountHolder(address user) {\r\n        require(user == msg.sender || owner() == msg.sender, \"Not enough Permissions\");\r\n        _;\r\n    }\r\n\r\n    function balanceOf(address user) public view override onlyOwnerOrAccountHolder(user) returns (uint256) {\r\n        return super.balanceOf(user);\r\n    }\r\n\r\n    function _balanceOf(address user) external view returns (uint256) {\r\n        return super.balanceOf(user);\r\n    } // <-- tHis is for use in ERC1155\r\n\r\n    function getEtherBalance(address user) public view onlyOwnerOrAccountHolder(user) returns (uint256) {\r\n        return user.balance;\r\n    }\r\n\r\n    function setTokenPrice(uint256 newPrice) external onlyOwner {\r\n        tokenPrice = newPrice;\r\n    }\r\n\r\n    function buyToken(uint256 tokenAmount) public payable {\r\n        uint256 requiredEther = tokenAmount * tokenPrice;\r\n        require(msg.value == requiredEther, \"Ether sent doesn't match the required amount for tokens\");\r\n        _transfer(owner(), msg.sender, tokenAmount); // Transfer RideKoin tokens from owner to buyer\r\n    }\r\n\r\n\r\n     function sellToken(uint256 tokenAmount) public {\r\n        uint256 etherAmount = tokenAmount * tokenPrice;\r\n        // require(address(owner).balance >= etherAmount, \"Contract does not have enough ether to buy the tokens\");\r\n        _transfer(msg.sender, owner(), tokenAmount); \r\n        payable(msg.sender).transfer(etherAmount);   \r\n    }\r\n\r\n    function burnFrom(address user, uint256 amount) public {\r\n        require(user == msg.sender, \"You the user can burn his/her tokens\");\r\n        _burn(user, amount);\r\n    }\r\n\r\n\r\n    function withdraw() external onlyOwner {\r\n        payable(owner()).transfer(address(this).balance);\r\n    }\r\n\r\n    function approveAddress(address spender, uint256 amount) public payable  onlyOwner {\r\n        _approve(msg.sender, spender, amount);\r\n    }\r\n\r\n}\r\n\r\n\r\n",
  "sourcePath": "C:\\Users\\dashu\\OneDrive\\Documents\\UB\\BLOCKCHAIN\\practice\\election\\DRSA-contract\\contracts\\RideKoin.sol",
  "compiler": {
    "name": "solc",
    "version": "0.8.21+commit.d9974bed.Emscripten.clang"
  },
  "schemaVersion": "3.4.16",
  "updatedAt": "2023-11-17T01:25:42.261Z",
  "devdoc": {
    "errors": {
      "ERC20InsufficientAllowance(address,uint256,uint256)": [
        {
          "details": "Indicates a failure with the `spender`s `allowance`. Used in transfers.",
          "params": {
            "allowance": "Amount of tokens a `spender` is allowed to operate with.",
            "needed": "Minimum amount required to perform a transfer.",
            "spender": "Address that may be allowed to operate on tokens without being their owner."
          }
        }
      ],
      "ERC20InsufficientBalance(address,uint256,uint256)": [
        {
          "details": "Indicates an error related to the current `balance` of a `sender`. Used in transfers.",
          "params": {
            "balance": "Current balance for the interacting account.",
            "needed": "Minimum amount required to perform a transfer.",
            "sender": "Address whose tokens are being transferred."
          }
        }
      ],
      "ERC20InvalidApprover(address)": [
        {
          "details": "Indicates a failure with the `approver` of a token to be approved. Used in approvals.",
          "params": {
            "approver": "Address initiating an approval operation."
          }
        }
      ],
      "ERC20InvalidReceiver(address)": [
        {
          "details": "Indicates a failure with the token `receiver`. Used in transfers.",
          "params": {
            "receiver": "Address to which tokens are being transferred."
          }
        }
      ],
      "ERC20InvalidSender(address)": [
        {
          "details": "Indicates a failure with the token `sender`. Used in transfers.",
          "params": {
            "sender": "Address whose tokens are being transferred."
          }
        }
      ],
      "ERC20InvalidSpender(address)": [
        {
          "details": "Indicates a failure with the `spender` to be approved. Used in approvals.",
          "params": {
            "spender": "Address that may be allowed to operate on tokens without being their owner."
          }
        }
      ],
      "OwnableInvalidOwner(address)": [
        {
          "details": "The owner is not a valid owner account. (eg. `address(0)`)"
        }
      ],
      "OwnableUnauthorizedAccount(address)": [
        {
          "details": "The caller account is not authorized to perform an operation."
        }
      ]
    },
    "events": {
      "Approval(address,address,uint256)": {
        "details": "Emitted when the allowance of a `spender` for an `owner` is set by a call to {approve}. `value` is the new allowance."
      },
      "Transfer(address,address,uint256)": {
        "details": "Emitted when `value` tokens are moved from one account (`from`) to another (`to`). Note that `value` may be zero."
      }
    },
    "kind": "dev",
    "methods": {
      "allowance(address,address)": {
        "details": "See {IERC20-allowance}."
      },
      "approve(address,uint256)": {
        "details": "See {IERC20-approve}. NOTE: If `value` is the maximum `uint256`, the allowance is not updated on `transferFrom`. This is semantically equivalent to an infinite approval. Requirements: - `spender` cannot be the zero address."
      },
      "decimals()": {
        "details": "Returns the number of decimals used to get its user representation. For example, if `decimals` equals `2`, a balance of `505` tokens should be displayed to a user as `5.05` (`505 / 10 ** 2`). Tokens usually opt for a value of 18, imitating the relationship between Ether and Wei. This is the default value returned by this function, unless it's overridden. NOTE: This information is only used for _display_ purposes: it in no way affects any of the arithmetic of the contract, including {IERC20-balanceOf} and {IERC20-transfer}."
      },
      "name()": {
        "details": "Returns the name of the token."
      },
      "owner()": {
        "details": "Returns the address of the current owner."
      },
      "renounceOwnership()": {
        "details": "Leaves the contract without owner. It will not be possible to call `onlyOwner` functions. Can only be called by the current owner. NOTE: Renouncing ownership will leave the contract without an owner, thereby disabling any functionality that is only available to the owner."
      },
      "symbol()": {
        "details": "Returns the symbol of the token, usually a shorter version of the name."
      },
      "totalSupply()": {
        "details": "See {IERC20-totalSupply}."
      },
      "transfer(address,uint256)": {
        "details": "See {IERC20-transfer}. Requirements: - `to` cannot be the zero address. - the caller must have a balance of at least `value`."
      },
      "transferFrom(address,address,uint256)": {
        "details": "See {IERC20-transferFrom}. Emits an {Approval} event indicating the updated allowance. This is not required by the EIP. See the note at the beginning of {ERC20}. NOTE: Does not update the allowance if the current allowance is the maximum `uint256`. Requirements: - `from` and `to` cannot be the zero address. - `from` must have a balance of at least `value`. - the caller must have allowance for ``from``'s tokens of at least `value`."
      },
      "transferOwnership(address)": {
        "details": "Transfers ownership of the contract to a new account (`newOwner`). Can only be called by the current owner."
      }
    },
    "version": 1
  },
  "userdoc": {
    "kind": "user",
    "methods": {},
    "version": 1
  }
}