{
  "contractName": "RideKoin",
  "abi": [
    {
      "inputs": [
        {
          "internalType": "uint256",
          "name": "initialPrice",
          "type": "uint256"
        }
      ],
      "stateMutability": "nonpayable",
      "type": "constructor"
    },
    {
      "inputs": [
        {
          "internalType": "address",
          "name": "spender",
          "type": "address"
        },
        {
          "internalType": "uint256",
          "name": "allowance",
          "type": "uint256"
        },
        {
          "internalType": "uint256",
          "name": "needed",
          "type": "uint256"
        }
      ],
      "name": "ERC20InsufficientAllowance",
      "type": "error"
    },
    {
      "inputs": [
        {
          "internalType": "address",
          "name": "sender",
          "type": "address"
        },
        {
          "internalType": "uint256",
          "name": "balance",
          "type": "uint256"
        },
        {
          "internalType": "uint256",
          "name": "needed",
          "type": "uint256"
        }
      ],
      "name": "ERC20InsufficientBalance",
      "type": "error"
    },
    {
      "inputs": [
        {
          "internalType": "address",
          "name": "approver",
          "type": "address"
        }
      ],
      "name": "ERC20InvalidApprover",
      "type": "error"
    },
    {
      "inputs": [
        {
          "internalType": "address",
          "name": "receiver",
          "type": "address"
        }
      ],
      "name": "ERC20InvalidReceiver",
      "type": "error"
    },
    {
      "inputs": [
        {
          "internalType": "address",
          "name": "sender",
          "type": "address"
        }
      ],
      "name": "ERC20InvalidSender",
      "type": "error"
    },
    {
      "inputs": [
        {
          "internalType": "address",
          "name": "spender",
          "type": "address"
        }
      ],
      "name": "ERC20InvalidSpender",
      "type": "error"
    },
    {
      "inputs": [
        {
          "internalType": "address",
          "name": "owner",
          "type": "address"
        }
      ],
      "name": "OwnableInvalidOwner",
      "type": "error"
    },
    {
      "inputs": [
        {
          "internalType": "address",
          "name": "account",
          "type": "address"
        }
      ],
      "name": "OwnableUnauthorizedAccount",
      "type": "error"
    },
    {
      "anonymous": false,
      "inputs": [
        {
          "indexed": true,
          "internalType": "address",
          "name": "owner",
          "type": "address"
        },
        {
          "indexed": true,
          "internalType": "address",
          "name": "spender",
          "type": "address"
        },
        {
          "indexed": false,
          "internalType": "uint256",
          "name": "value",
          "type": "uint256"
        }
      ],
      "name": "Approval",
      "type": "event"
    },
    {
      "anonymous": false,
      "inputs": [
        {
          "indexed": true,
          "internalType": "address",
          "name": "previousOwner",
          "type": "address"
        },
        {
          "indexed": true,
          "internalType": "address",
          "name": "newOwner",
          "type": "address"
        }
      ],
      "name": "OwnershipTransferred",
      "type": "event"
    },
    {
      "anonymous": false,
      "inputs": [
        {
          "indexed": true,
          "internalType": "address",
          "name": "from",
          "type": "address"
        },
        {
          "indexed": true,
          "internalType": "address",
          "name": "to",
          "type": "address"
        },
        {
          "indexed": false,
          "internalType": "uint256",
          "name": "value",
          "type": "uint256"
        }
      ],
      "name": "Transfer",
      "type": "event"
    },
    {
      "inputs": [
        {
          "internalType": "address",
          "name": "owner",
          "type": "address"
        },
        {
          "internalType": "address",
          "name": "spender",
          "type": "address"
        }
      ],
      "name": "allowance",
      "outputs": [
        {
          "internalType": "uint256",
          "name": "",
          "type": "uint256"
        }
      ],
      "stateMutability": "view",
      "type": "function",
      "constant": true
    },
    {
      "inputs": [
        {
          "internalType": "address",
          "name": "spender",
          "type": "address"
        },
        {
          "internalType": "uint256",
          "name": "value",
          "type": "uint256"
        }
      ],
      "name": "approve",
      "outputs": [
        {
          "internalType": "bool",
          "name": "",
          "type": "bool"
        }
      ],
      "stateMutability": "nonpayable",
      "type": "function"
    },
    {
      "inputs": [
        {
          "internalType": "address",
          "name": "account",
          "type": "address"
        }
      ],
      "name": "balanceOf",
      "outputs": [
        {
          "internalType": "uint256",
          "name": "",
          "type": "uint256"
        }
      ],
      "stateMutability": "view",
      "type": "function",
      "constant": true
    },
    {
      "inputs": [],
      "name": "decimals",
      "outputs": [
        {
          "internalType": "uint8",
          "name": "",
          "type": "uint8"
        }
      ],
      "stateMutability": "view",
      "type": "function",
      "constant": true
    },
    {
      "inputs": [],
      "name": "name",
      "outputs": [
        {
          "internalType": "string",
          "name": "",
          "type": "string"
        }
      ],
      "stateMutability": "view",
      "type": "function",
      "constant": true
    },
    {
      "inputs": [],
      "name": "owner",
      "outputs": [
        {
          "internalType": "address",
          "name": "",
          "type": "address"
        }
      ],
      "stateMutability": "view",
      "type": "function",
      "constant": true
    },
    {
      "inputs": [],
      "name": "renounceOwnership",
      "outputs": [],
      "stateMutability": "nonpayable",
      "type": "function"
    },
    {
      "inputs": [],
      "name": "symbol",
      "outputs": [
        {
          "internalType": "string",
          "name": "",
          "type": "string"
        }
      ],
      "stateMutability": "view",
      "type": "function",
      "constant": true
    },
    {
      "inputs": [],
      "name": "tokenPrice",
      "outputs": [
        {
          "internalType": "uint256",
          "name": "",
          "type": "uint256"
        }
      ],
      "stateMutability": "view",
      "type": "function",
      "constant": true
    },
    {
      "inputs": [],
      "name": "totalSupply",
      "outputs": [
        {
          "internalType": "uint256",
          "name": "",
          "type": "uint256"
        }
      ],
      "stateMutability": "view",
      "type": "function",
      "constant": true
    },
    {
      "inputs": [
        {
          "internalType": "address",
          "name": "to",
          "type": "address"
        },
        {
          "internalType": "uint256",
          "name": "value",
          "type": "uint256"
        }
      ],
      "name": "transfer",
      "outputs": [
        {
          "internalType": "bool",
          "name": "",
          "type": "bool"
        }
      ],
      "stateMutability": "nonpayable",
      "type": "function"
    },
    {
      "inputs": [
        {
          "internalType": "address",
          "name": "from",
          "type": "address"
        },
        {
          "internalType": "address",
          "name": "to",
          "type": "address"
        },
        {
          "internalType": "uint256",
          "name": "value",
          "type": "uint256"
        }
      ],
      "name": "transferFrom",
      "outputs": [
        {
          "internalType": "bool",
          "name": "",
          "type": "bool"
        }
      ],
      "stateMutability": "nonpayable",
      "type": "function"
    },
    {
      "inputs": [
        {
          "internalType": "address",
          "name": "newOwner",
          "type": "address"
        }
      ],
      "name": "transferOwnership",
      "outputs": [],
      "stateMutability": "nonpayable",
      "type": "function"
    },
    {
      "inputs": [
        {
          "internalType": "address",
          "name": "to",
          "type": "address"
        },
        {
          "internalType": "uint256",
          "name": "amount",
          "type": "uint256"
        }
      ],
      "name": "mint",
      "outputs": [],
      "stateMutability": "nonpayable",
      "type": "function"
    },
    {
      "inputs": [
        {
          "internalType": "address",
          "name": "user",
          "type": "address"
        }
      ],
      "name": "_balanceOf",
      "outputs": [
        {
          "internalType": "uint256",
          "name": "",
          "type": "uint256"
        }
      ],
      "stateMutability": "view",
      "type": "function",
      "constant": true
    },
    {
      "inputs": [
        {
          "internalType": "address",
          "name": "user",
          "type": "address"
        }
      ],
      "name": "getEtherBalance",
      "outputs": [
        {
          "internalType": "uint256",
          "name": "",
          "type": "uint256"
        }
      ],
      "stateMutability": "view",
      "type": "function",
      "constant": true
    },
    {
      "inputs": [
        {
          "internalType": "uint256",
          "name": "newPrice",
          "type": "uint256"
        }
      ],
      "name": "setTokenPrice",
      "outputs": [],
      "stateMutability": "nonpayable",
      "type": "function"
    },
    {
      "inputs": [
        {
          "internalType": "uint256",
          "name": "tokenAmount",
          "type": "uint256"
        }
      ],
      "name": "buyToken",
      "outputs": [],
      "stateMutability": "payable",
      "type": "function",
      "payable": true
    },
    {
      "inputs": [
        {
          "internalType": "uint256",
          "name": "tokenAmount",
          "type": "uint256"
        }
      ],
      "name": "sellToken",
      "outputs": [],
      "stateMutability": "nonpayable",
      "type": "function"
    },
    {
      "inputs": [
        {
          "internalType": "address",
          "name": "user",
          "type": "address"
        },
        {
          "internalType": "uint256",
          "name": "amount",
          "type": "uint256"
        }
      ],
      "name": "burnFrom",
      "outputs": [],
      "stateMutability": "nonpayable",
      "type": "function"
    },
    {
      "inputs": [],
      "name": "withdraw",
      "outputs": [],
      "stateMutability": "nonpayable",
      "type": "function"
    },
    {
      "inputs": [
        {
          "internalType": "address",
          "name": "spender",
          "type": "address"
        },
        {
          "internalType": "uint256",
          "name": "amount",
          "type": "uint256"
        }
      ],
      "name": "approveAddress",
      "outputs": [],
      "stateMutability": "payable",
      "type": "function",
      "payable": true
    },
    {
      "inputs": [
        {
          "internalType": "address",
          "name": "from",
          "type": "address"
        },
        {
          "internalType": "address",
          "name": "to",
          "type": "address"
        },
        {
          "internalType": "uint256",
          "name": "val",
          "type": "uint256"
        }
      ],
      "name": "transferRidekoins",
      "outputs": [],
      "stateMutability": "nonpayable",
      "type": "function"
    }
  ],
  "bytecode": "0x60806040523480156200001157600080fd5b50604051620025d1380380620025d183398181016040528101906200003791906200056b565b336040518060400160405280600881526020017f526964654b6f696e0000000000000000000000000000000000000000000000008152506040518060400160405280600381526020017f52444b00000000000000000000000000000000000000000000000000000000008152508160039081620000b591906200080d565b508060049081620000c791906200080d565b505050600073ffffffffffffffffffffffffffffffffffffffff168173ffffffffffffffffffffffffffffffffffffffff16036200013f5760006040517f1e4fbdf700000000000000000000000000000000000000000000000000000000815260040162000136919062000939565b60405180910390fd5b62000150816200019f60201b60201c565b506200019133620001666200026560201b60201c565b600a62000174919062000ae6565b63042c1d8062000185919062000b37565b6200026e60201b60201c565b806006819055505062000c28565b6000600560009054906101000a900473ffffffffffffffffffffffffffffffffffffffff16905081600560006101000a81548173ffffffffffffffffffffffffffffffffffffffff021916908373ffffffffffffffffffffffffffffffffffffffff1602179055508173ffffffffffffffffffffffffffffffffffffffff168173ffffffffffffffffffffffffffffffffffffffff167f8be0079c531659141344cd1fd0a4f28419497f9722a3daafe3b4186f6b6457e060405160405180910390a35050565b60006012905090565b600073ffffffffffffffffffffffffffffffffffffffff168273ffffffffffffffffffffffffffffffffffffffff1603620002e35760006040517fec442f05000000000000000000000000000000000000000000000000000000008152600401620002da919062000939565b60405180910390fd5b620002f760008383620002fb60201b60201c565b5050565b600073ffffffffffffffffffffffffffffffffffffffff168373ffffffffffffffffffffffffffffffffffffffff16036200035157806002600082825462000344919062000b82565b9250508190555062000427565b60008060008573ffffffffffffffffffffffffffffffffffffffff1673ffffffffffffffffffffffffffffffffffffffff16815260200190815260200160002054905081811015620003e0578381836040517fe450d38c000000000000000000000000000000000000000000000000000000008152600401620003d79392919062000bce565b60405180910390fd5b8181036000808673ffffffffffffffffffffffffffffffffffffffff1673ffffffffffffffffffffffffffffffffffffffff16815260200190815260200160002081905550505b600073ffffffffffffffffffffffffffffffffffffffff168273ffffffffffffffffffffffffffffffffffffffff1603620004725780600260008282540392505081905550620004bf565b806000808473ffffffffffffffffffffffffffffffffffffffff1673ffffffffffffffffffffffffffffffffffffffff168152602001908152602001600020600082825401925050819055505b8173ffffffffffffffffffffffffffffffffffffffff168373ffffffffffffffffffffffffffffffffffffffff167fddf252ad1be2c89b69c2b068fc378daa952ba7f163c4a11628f55a4df523b3ef836040516200051e919062000c0b565b60405180910390a3505050565b600080fd5b6000819050919050565b620005458162000530565b81146200055157600080fd5b50565b60008151905062000565816200053a565b92915050565b6000602082840312156200058457620005836200052b565b5b6000620005948482850162000554565b91505092915050565b600081519050919050565b7f4e487b7100000000000000000000000000000000000000000000000000000000600052604160045260246000fd5b7f4e487b7100000000000000000000000000000000000000000000000000000000600052602260045260246000fd5b600060028204905060018216806200061f57607f821691505b602082108103620006355762000634620005d7565b5b50919050565b60008190508160005260206000209050919050565b60006020601f8301049050919050565b600082821b905092915050565b6000600883026200069f7fffffffffffffffffffffffffffffffffffffffffffffffffffffffffffffffff8262000660565b620006ab868362000660565b95508019841693508086168417925050509392505050565b6000819050919050565b6000620006ee620006e8620006e28462000530565b620006c3565b62000530565b9050919050565b6000819050919050565b6200070a83620006cd565b620007226200071982620006f5565b8484546200066d565b825550505050565b600090565b620007396200072a565b62000746818484620006ff565b505050565b5b818110156200076e57620007626000826200072f565b6001810190506200074c565b5050565b601f821115620007bd5762000787816200063b565b620007928462000650565b81016020851015620007a2578190505b620007ba620007b18562000650565b8301826200074b565b50505b505050565b600082821c905092915050565b6000620007e260001984600802620007c2565b1980831691505092915050565b6000620007fd8383620007cf565b9150826002028217905092915050565b62000818826200059d565b67ffffffffffffffff811115620008345762000833620005a8565b5b62000840825462000606565b6200084d82828562000772565b600060209050601f83116001811462000885576000841562000870578287015190505b6200087c8582620007ef565b865550620008ec565b601f19841662000895866200063b565b60005b82811015620008bf5784890151825560018201915060208501945060208101905062000898565b86831015620008df5784890151620008db601f891682620007cf565b8355505b6001600288020188555050505b505050505050565b600073ffffffffffffffffffffffffffffffffffffffff82169050919050565b60006200092182620008f4565b9050919050565b620009338162000914565b82525050565b600060208201905062000950600083018462000928565b92915050565b7f4e487b7100000000000000000000000000000000000000000000000000000000600052601160045260246000fd5b60008160011c9050919050565b6000808291508390505b6001851115620009e457808604811115620009bc57620009bb62000956565b5b6001851615620009cc5780820291505b8081029050620009dc8562000985565b94506200099c565b94509492505050565b600082620009ff576001905062000ad2565b8162000a0f576000905062000ad2565b816001811462000a28576002811462000a335762000a69565b600191505062000ad2565b60ff84111562000a485762000a4762000956565b5b8360020a91508482111562000a625762000a6162000956565b5b5062000ad2565b5060208310610133831016604e8410600b841016171562000aa35782820a90508381111562000a9d5762000a9c62000956565b5b62000ad2565b62000ab2848484600162000992565b9250905081840481111562000acc5762000acb62000956565b5b81810290505b9392505050565b600060ff82169050919050565b600062000af38262000530565b915062000b008362000ad9565b925062000b2f7fffffffffffffffffffffffffffffffffffffffffffffffffffffffffffffffff8484620009ed565b905092915050565b600062000b448262000530565b915062000b518362000530565b925082820262000b618162000530565b9150828204841483151762000b7b5762000b7a62000956565b5b5092915050565b600062000b8f8262000530565b915062000b9c8362000530565b925082820190508082111562000bb75762000bb662000956565b5b92915050565b62000bc88162000530565b82525050565b600060608201905062000be5600083018662000928565b62000bf4602083018562000bbd565b62000c03604083018462000bbd565b949350505050565b600060208201905062000c22600083018462000bbd565b92915050565b6119998062000c386000396000f3fe6080604052600436106101405760003560e01c806370a08231116100b657806395d89b411161006f57806395d89b4114610406578063a9059cbb14610431578063cca3e8321461046e578063dc45d08e146104ab578063dd62ed3e146104e8578063f2fde38b1461052557610140565b806370a0823114610317578063715018a61461035457806379cc67901461036b5780637ff9b596146103945780638b9a0c89146103bf5780638da5cb5b146103db57610140565b80632d296bf1116101085780632d296bf11461023e5780632e7840451461025a578063313ce567146102835780633ccfd60b146102ae57806340c10f19146102c55780636a61e5fc146102ee57610140565b806306fdde0314610145578063095ea7b31461017057806318160ddd146101ad5780632397e4d7146101d857806323b872dd14610201575b600080fd5b34801561015157600080fd5b5061015a61054e565b60405161016791906113ee565b60405180910390f35b34801561017c57600080fd5b50610197600480360381019061019291906114a9565b6105e0565b6040516101a49190611504565b60405180910390f35b3480156101b957600080fd5b506101c2610603565b6040516101cf919061152e565b60405180910390f35b3480156101e457600080fd5b506101ff60048036038101906101fa9190611549565b61060d565b005b34801561020d57600080fd5b5061022860048036038101906102239190611576565b61067c565b6040516102359190611504565b60405180910390f35b61025860048036038101906102539190611549565b6106ab565b005b34801561026657600080fd5b50610281600480360381019061027c9190611576565b610715565b005b34801561028f57600080fd5b50610298610725565b6040516102a591906115e5565b60405180910390f35b3480156102ba57600080fd5b506102c361072e565b005b3480156102d157600080fd5b506102ec60048036038101906102e791906114a9565b610786565b005b3480156102fa57600080fd5b5061031560048036038101906103109190611549565b61079c565b005b34801561032357600080fd5b5061033e60048036038101906103399190611600565b6107ae565b60405161034b919061152e565b60405180910390f35b34801561036057600080fd5b506103696107f6565b005b34801561037757600080fd5b50610392600480360381019061038d91906114a9565b61080a565b005b3480156103a057600080fd5b506103a9610886565b6040516103b6919061152e565b60405180910390f35b6103d960048036038101906103d491906114a9565b61088c565b005b3480156103e757600080fd5b506103f06108a3565b6040516103fd919061163c565b60405180910390f35b34801561041257600080fd5b5061041b6108cd565b60405161042891906113ee565b60405180910390f35b34801561043d57600080fd5b50610458600480360381019061045391906114a9565b61095f565b6040516104659190611504565b60405180910390f35b34801561047a57600080fd5b5061049560048036038101906104909190611600565b610982565b6040516104a2919061152e565b60405180910390f35b3480156104b757600080fd5b506104d260048036038101906104cd9190611600565b610994565b6040516104df919061152e565b60405180910390f35b3480156104f457600080fd5b5061050f600480360381019061050a9190611657565b610a62565b60405161051c919061152e565b60405180910390f35b34801561053157600080fd5b5061054c60048036038101906105479190611600565b610ae9565b005b60606003805461055d906116c6565b80601f0160208091040260200160405190810160405280929190818152602001828054610589906116c6565b80156105d65780601f106105ab576101008083540402835291602001916105d6565b820191906000526020600020905b8154815290600101906020018083116105b957829003601f168201915b5050505050905090565b6000806105eb610b6f565b90506105f8818585610b77565b600191505092915050565b6000600254905090565b60006006548261061d9190611726565b90506106313361062b6108a3565b84610b89565b3373ffffffffffffffffffffffffffffffffffffffff166108fc829081150290604051600060405180830381858888f19350505050158015610677573d6000803e3d6000fd5b505050565b600080610687610b6f565b9050610694858285610c7d565b61069f858585610b89565b60019150509392505050565b6000600654826106bb9190611726565b90508034146106ff576040517f08c379a00000000000000000000000000000000000000000000000000000000081526004016106f6906117da565b60405180910390fd5b61071161070a6108a3565b3384610b89565b5050565b610720838383610b89565b505050565b60006012905090565b610736610d11565b61073e6108a3565b73ffffffffffffffffffffffffffffffffffffffff166108fc479081150290604051600060405180830381858888f19350505050158015610783573d6000803e3d6000fd5b50565b61078e610d11565b6107988282610d98565b5050565b6107a4610d11565b8060068190555050565b60008060008373ffffffffffffffffffffffffffffffffffffffff1673ffffffffffffffffffffffffffffffffffffffff168152602001908152602001600020549050919050565b6107fe610d11565b6108086000610e1a565b565b3373ffffffffffffffffffffffffffffffffffffffff168273ffffffffffffffffffffffffffffffffffffffff1614610878576040517f08c379a000000000000000000000000000000000000000000000000000000000815260040161086f9061186c565b60405180910390fd5b6108828282610ee0565b5050565b60065481565b610894610d11565b61089f338383610b77565b5050565b6000600560009054906101000a900473ffffffffffffffffffffffffffffffffffffffff16905090565b6060600480546108dc906116c6565b80601f0160208091040260200160405190810160405280929190818152602001828054610908906116c6565b80156109555780601f1061092a57610100808354040283529160200191610955565b820191906000526020600020905b81548152906001019060200180831161093857829003601f168201915b5050505050905090565b60008061096a610b6f565b9050610977818585610b89565b600191505092915050565b600061098d826107ae565b9050919050565b6000813373ffffffffffffffffffffffffffffffffffffffff168173ffffffffffffffffffffffffffffffffffffffff161480610a0357503373ffffffffffffffffffffffffffffffffffffffff166109eb6108a3565b73ffffffffffffffffffffffffffffffffffffffff16145b610a42576040517f08c379a0000000000000000000000000000000000000000000000000000000008152600401610a39906118d8565b60405180910390fd5b8273ffffffffffffffffffffffffffffffffffffffff1631915050919050565b6000600160008473ffffffffffffffffffffffffffffffffffffffff1673ffffffffffffffffffffffffffffffffffffffff16815260200190815260200160002060008373ffffffffffffffffffffffffffffffffffffffff1673ffffffffffffffffffffffffffffffffffffffff16815260200190815260200160002054905092915050565b610af1610d11565b600073ffffffffffffffffffffffffffffffffffffffff168173ffffffffffffffffffffffffffffffffffffffff1603610b635760006040517f1e4fbdf7000000000000000000000000000000000000000000000000000000008152600401610b5a919061163c565b60405180910390fd5b610b6c81610e1a565b50565b600033905090565b610b848383836001610f62565b505050565b600073ffffffffffffffffffffffffffffffffffffffff168373ffffffffffffffffffffffffffffffffffffffff1603610bfb5760006040517f96c6fd1e000000000000000000000000000000000000000000000000000000008152600401610bf2919061163c565b60405180910390fd5b600073ffffffffffffffffffffffffffffffffffffffff168273ffffffffffffffffffffffffffffffffffffffff1603610c6d5760006040517fec442f05000000000000000000000000000000000000000000000000000000008152600401610c64919061163c565b60405180910390fd5b610c78838383611139565b505050565b6000610c898484610a62565b90507fffffffffffffffffffffffffffffffffffffffffffffffffffffffffffffffff8114610d0b5781811015610cfb578281836040517ffb8f41b2000000000000000000000000000000000000000000000000000000008152600401610cf2939291906118f8565b60405180910390fd5b610d0a84848484036000610f62565b5b50505050565b610d19610b6f565b73ffffffffffffffffffffffffffffffffffffffff16610d376108a3565b73ffffffffffffffffffffffffffffffffffffffff1614610d9657610d5a610b6f565b6040517f118cdaa7000000000000000000000000000000000000000000000000000000008152600401610d8d919061163c565b60405180910390fd5b565b600073ffffffffffffffffffffffffffffffffffffffff168273ffffffffffffffffffffffffffffffffffffffff1603610e0a5760006040517fec442f05000000000000000000000000000000000000000000000000000000008152600401610e01919061163c565b60405180910390fd5b610e1660008383611139565b5050565b6000600560009054906101000a900473ffffffffffffffffffffffffffffffffffffffff16905081600560006101000a81548173ffffffffffffffffffffffffffffffffffffffff021916908373ffffffffffffffffffffffffffffffffffffffff1602179055508173ffffffffffffffffffffffffffffffffffffffff168173ffffffffffffffffffffffffffffffffffffffff167f8be0079c531659141344cd1fd0a4f28419497f9722a3daafe3b4186f6b6457e060405160405180910390a35050565b600073ffffffffffffffffffffffffffffffffffffffff168273ffffffffffffffffffffffffffffffffffffffff1603610f525760006040517f96c6fd1e000000000000000000000000000000000000000000000000000000008152600401610f49919061163c565b60405180910390fd5b610f5e82600083611139565b5050565b600073ffffffffffffffffffffffffffffffffffffffff168473ffffffffffffffffffffffffffffffffffffffff1603610fd45760006040517fe602df05000000000000000000000000000000000000000000000000000000008152600401610fcb919061163c565b60405180910390fd5b600073ffffffffffffffffffffffffffffffffffffffff168373ffffffffffffffffffffffffffffffffffffffff16036110465760006040517f94280d6200000000000000000000000000000000000000000000000000000000815260040161103d919061163c565b60405180910390fd5b81600160008673ffffffffffffffffffffffffffffffffffffffff1673ffffffffffffffffffffffffffffffffffffffff16815260200190815260200160002060008573ffffffffffffffffffffffffffffffffffffffff1673ffffffffffffffffffffffffffffffffffffffff168152602001908152602001600020819055508015611133578273ffffffffffffffffffffffffffffffffffffffff168473ffffffffffffffffffffffffffffffffffffffff167f8c5be1e5ebec7d5bd14f71427d1e84f3dd0314c0f7b2291e5b200ac8c7c3b9258460405161112a919061152e565b60405180910390a35b50505050565b600073ffffffffffffffffffffffffffffffffffffffff168373ffffffffffffffffffffffffffffffffffffffff160361118b57806002600082825461117f919061192f565b9250508190555061125e565b60008060008573ffffffffffffffffffffffffffffffffffffffff1673ffffffffffffffffffffffffffffffffffffffff16815260200190815260200160002054905081811015611217578381836040517fe450d38c00000000000000000000000000000000000000000000000000000000815260040161120e939291906118f8565b60405180910390fd5b8181036000808673ffffffffffffffffffffffffffffffffffffffff1673ffffffffffffffffffffffffffffffffffffffff16815260200190815260200160002081905550505b600073ffffffffffffffffffffffffffffffffffffffff168273ffffffffffffffffffffffffffffffffffffffff16036112a757806002600082825403925050819055506112f4565b806000808473ffffffffffffffffffffffffffffffffffffffff1673ffffffffffffffffffffffffffffffffffffffff168152602001908152602001600020600082825401925050819055505b8173ffffffffffffffffffffffffffffffffffffffff168373ffffffffffffffffffffffffffffffffffffffff167fddf252ad1be2c89b69c2b068fc378daa952ba7f163c4a11628f55a4df523b3ef83604051611351919061152e565b60405180910390a3505050565b600081519050919050565b600082825260208201905092915050565b60005b8381101561139857808201518184015260208101905061137d565b60008484015250505050565b6000601f19601f8301169050919050565b60006113c08261135e565b6113ca8185611369565b93506113da81856020860161137a565b6113e3816113a4565b840191505092915050565b6000602082019050818103600083015261140881846113b5565b905092915050565b600080fd5b600073ffffffffffffffffffffffffffffffffffffffff82169050919050565b600061144082611415565b9050919050565b61145081611435565b811461145b57600080fd5b50565b60008135905061146d81611447565b92915050565b6000819050919050565b61148681611473565b811461149157600080fd5b50565b6000813590506114a38161147d565b92915050565b600080604083850312156114c0576114bf611410565b5b60006114ce8582860161145e565b92505060206114df85828601611494565b9150509250929050565b60008115159050919050565b6114fe816114e9565b82525050565b600060208201905061151960008301846114f5565b92915050565b61152881611473565b82525050565b6000602082019050611543600083018461151f565b92915050565b60006020828403121561155f5761155e611410565b5b600061156d84828501611494565b91505092915050565b60008060006060848603121561158f5761158e611410565b5b600061159d8682870161145e565b93505060206115ae8682870161145e565b92505060406115bf86828701611494565b9150509250925092565b600060ff82169050919050565b6115df816115c9565b82525050565b60006020820190506115fa60008301846115d6565b92915050565b60006020828403121561161657611615611410565b5b60006116248482850161145e565b91505092915050565b61163681611435565b82525050565b6000602082019050611651600083018461162d565b92915050565b6000806040838503121561166e5761166d611410565b5b600061167c8582860161145e565b925050602061168d8582860161145e565b9150509250929050565b7f4e487b7100000000000000000000000000000000000000000000000000000000600052602260045260246000fd5b600060028204905060018216806116de57607f821691505b6020821081036116f1576116f0611697565b5b50919050565b7f4e487b7100000000000000000000000000000000000000000000000000000000600052601160045260246000fd5b600061173182611473565b915061173c83611473565b925082820261174a81611473565b91508282048414831517611761576117606116f7565b5b5092915050565b7f45746865722073656e7420646f65736e2774206d61746368207468652072657160008201527f756972656420616d6f756e7420666f7220746f6b656e73000000000000000000602082015250565b60006117c4603783611369565b91506117cf82611768565b604082019050919050565b600060208201905081810360008301526117f3816117b7565b9050919050565b7f596f752074686520757365722063616e206275726e206869732f68657220746f60008201527f6b656e7300000000000000000000000000000000000000000000000000000000602082015250565b6000611856602483611369565b9150611861826117fa565b604082019050919050565b6000602082019050818103600083015261188581611849565b9050919050565b7f4e6f7420656e6f756768205065726d697373696f6e7300000000000000000000600082015250565b60006118c2601683611369565b91506118cd8261188c565b602082019050919050565b600060208201905081810360008301526118f1816118b5565b9050919050565b600060608201905061190d600083018661162d565b61191a602083018561151f565b611927604083018461151f565b949350505050565b600061193a82611473565b915061194583611473565b925082820190508082111561195d5761195c6116f7565b5b9291505056fea26469706673582212202c376eb7cfc8a614f7772e15e05a4031d35b02db86a2f8aaa342baeb91f1a9aa64736f6c63430008140033",
  "immutableReferences": {},
  "source": "// SPDX-License-Identifier: MIT\npragma solidity ^0.8.20;\n\n\nimport \"@openzeppelin/contracts/token/ERC20/ERC20.sol\";\nimport \"@openzeppelin/contracts/access/Ownable.sol\";\n\ncontract RideKoin is ERC20, Ownable {\n    uint256 public tokenPrice; \n\n    constructor(uint256 initialPrice)\n        ERC20(\"RideKoin\", \"RDK\")\n        Ownable(msg.sender)\n    {\n        _mint(msg.sender, 70000000 * 10 ** decimals());\n        tokenPrice = initialPrice;\n    }\n\n    function mint(address to, uint256 amount) public onlyOwner {\n        _mint(to, amount);\n    }\n\n    modifier onlyOwnerOrAccountHolder(address user) {\n        require(user == msg.sender || owner() == msg.sender, \"Not enough Permissions\");\n        _;\n    }\n\n\n    function _balanceOf(address user) external view returns (uint256) {\n        return super.balanceOf(user);\n    } // <-- tHis is for use in ERC1155\n\n    function getEtherBalance(address user) public view onlyOwnerOrAccountHolder(user) returns (uint256) {\n        return user.balance;\n    }\n\n    function setTokenPrice(uint256 newPrice) external onlyOwner {\n        tokenPrice = newPrice;\n    }\n\n    function buyToken(uint256 tokenAmount) public payable {\n        uint256 requiredEther = tokenAmount * tokenPrice;\n        require(msg.value == requiredEther, \"Ether sent doesn't match the required amount for tokens\");\n        _transfer(owner(), msg.sender, tokenAmount); // Transfer RideKoin tokens from owner to buyer\n    }\n\n\n     function sellToken(uint256 tokenAmount) public {\n        uint256 etherAmount = tokenAmount * tokenPrice;\n        // require(address(owner).balance >= etherAmount, \"Contract does not have enough ether to buy the tokens\");\n        _transfer(msg.sender, owner(), tokenAmount); \n        payable(msg.sender).transfer(etherAmount);   \n    }\n\n    function burnFrom(address user, uint256 amount) public {\n        require(user == msg.sender, \"You the user can burn his/her tokens\");\n        _burn(user, amount);\n    }\n\n    function withdraw() external onlyOwner {\n        payable(owner()).transfer(address(this).balance);\n    }\n\n    function approveAddress(address spender, uint256 amount) public payable  onlyOwner {\n        _approve(msg.sender, spender, amount);\n    }\n    \n    function transferRidekoins(address from, address to, uint256 val) public {\n       \n\n    _transfer(from, to, val);}\n\n}\n\n\n",
  "sourcePath": "/Users/atishs/Downloads/ashutos2_atishkum_blockchain_phase3/decentralized_cab_booking/DRSA-contract/contracts/RideKoin.sol",
  "compiler": {
    "name": "solc",
    "version": "0.8.20+commit.a1b79de6.Emscripten.clang"
  },
  "schemaVersion": "3.4.16",
  "updatedAt": "2023-12-04T05:14:37.959Z",
  "networkType": "ethereum",
  "devdoc": {
    "errors": {
      "ERC20InsufficientAllowance(address,uint256,uint256)": [
        {
          "details": "Indicates a failure with the `spender`s `allowance`. Used in transfers.",
          "params": {
            "allowance": "Amount of tokens a `spender` is allowed to operate with.",
            "needed": "Minimum amount required to perform a transfer.",
            "spender": "Address that may be allowed to operate on tokens without being their owner."
          }
        }
      ],
      "ERC20InsufficientBalance(address,uint256,uint256)": [
        {
          "details": "Indicates an error related to the current `balance` of a `sender`. Used in transfers.",
          "params": {
            "balance": "Current balance for the interacting account.",
            "needed": "Minimum amount required to perform a transfer.",
            "sender": "Address whose tokens are being transferred."
          }
        }
      ],
      "ERC20InvalidApprover(address)": [
        {
          "details": "Indicates a failure with the `approver` of a token to be approved. Used in approvals.",
          "params": {
            "approver": "Address initiating an approval operation."
          }
        }
      ],
      "ERC20InvalidReceiver(address)": [
        {
          "details": "Indicates a failure with the token `receiver`. Used in transfers.",
          "params": {
            "receiver": "Address to which tokens are being transferred."
          }
        }
      ],
      "ERC20InvalidSender(address)": [
        {
          "details": "Indicates a failure with the token `sender`. Used in transfers.",
          "params": {
            "sender": "Address whose tokens are being transferred."
          }
        }
      ],
      "ERC20InvalidSpender(address)": [
        {
          "details": "Indicates a failure with the `spender` to be approved. Used in approvals.",
          "params": {
            "spender": "Address that may be allowed to operate on tokens without being their owner."
          }
        }
      ],
      "OwnableInvalidOwner(address)": [
        {
          "details": "The owner is not a valid owner account. (eg. `address(0)`)"
        }
      ],
      "OwnableUnauthorizedAccount(address)": [
        {
          "details": "The caller account is not authorized to perform an operation."
        }
      ]
    },
    "events": {
      "Approval(address,address,uint256)": {
        "details": "Emitted when the allowance of a `spender` for an `owner` is set by a call to {approve}. `value` is the new allowance."
      },
      "Transfer(address,address,uint256)": {
        "details": "Emitted when `value` tokens are moved from one account (`from`) to another (`to`). Note that `value` may be zero."
      }
    },
    "kind": "dev",
    "methods": {
      "allowance(address,address)": {
        "details": "See {IERC20-allowance}."
      },
      "approve(address,uint256)": {
        "details": "See {IERC20-approve}. NOTE: If `value` is the maximum `uint256`, the allowance is not updated on `transferFrom`. This is semantically equivalent to an infinite approval. Requirements: - `spender` cannot be the zero address."
      },
      "balanceOf(address)": {
        "details": "See {IERC20-balanceOf}."
      },
      "decimals()": {
        "details": "Returns the number of decimals used to get its user representation. For example, if `decimals` equals `2`, a balance of `505` tokens should be displayed to a user as `5.05` (`505 / 10 ** 2`). Tokens usually opt for a value of 18, imitating the relationship between Ether and Wei. This is the default value returned by this function, unless it's overridden. NOTE: This information is only used for _display_ purposes: it in no way affects any of the arithmetic of the contract, including {IERC20-balanceOf} and {IERC20-transfer}."
      },
      "name()": {
        "details": "Returns the name of the token."
      },
      "owner()": {
        "details": "Returns the address of the current owner."
      },
      "renounceOwnership()": {
        "details": "Leaves the contract without owner. It will not be possible to call `onlyOwner` functions. Can only be called by the current owner. NOTE: Renouncing ownership will leave the contract without an owner, thereby disabling any functionality that is only available to the owner."
      },
      "symbol()": {
        "details": "Returns the symbol of the token, usually a shorter version of the name."
      },
      "totalSupply()": {
        "details": "See {IERC20-totalSupply}."
      },
      "transfer(address,uint256)": {
        "details": "See {IERC20-transfer}. Requirements: - `to` cannot be the zero address. - the caller must have a balance of at least `value`."
      },
      "transferFrom(address,address,uint256)": {
        "details": "See {IERC20-transferFrom}. Emits an {Approval} event indicating the updated allowance. This is not required by the EIP. See the note at the beginning of {ERC20}. NOTE: Does not update the allowance if the current allowance is the maximum `uint256`. Requirements: - `from` and `to` cannot be the zero address. - `from` must have a balance of at least `value`. - the caller must have allowance for ``from``'s tokens of at least `value`."
      },
      "transferOwnership(address)": {
        "details": "Transfers ownership of the contract to a new account (`newOwner`). Can only be called by the current owner."
      }
    },
    "version": 1
  },
  "userdoc": {
    "kind": "user",
    "methods": {},
    "version": 1
  }
}