{
  "contractName": "RideKoin",
  "abi": [
    {
      "inputs": [
        {
          "internalType": "uint256",
          "name": "initialPrice",
          "type": "uint256"
        }
      ],
      "stateMutability": "nonpayable",
      "type": "constructor"
    },
    {
      "inputs": [
        {
          "internalType": "address",
          "name": "spender",
          "type": "address"
        },
        {
          "internalType": "uint256",
          "name": "allowance",
          "type": "uint256"
        },
        {
          "internalType": "uint256",
          "name": "needed",
          "type": "uint256"
        }
      ],
      "name": "ERC20InsufficientAllowance",
      "type": "error"
    },
    {
      "inputs": [
        {
          "internalType": "address",
          "name": "sender",
          "type": "address"
        },
        {
          "internalType": "uint256",
          "name": "balance",
          "type": "uint256"
        },
        {
          "internalType": "uint256",
          "name": "needed",
          "type": "uint256"
        }
      ],
      "name": "ERC20InsufficientBalance",
      "type": "error"
    },
    {
      "inputs": [
        {
          "internalType": "address",
          "name": "approver",
          "type": "address"
        }
      ],
      "name": "ERC20InvalidApprover",
      "type": "error"
    },
    {
      "inputs": [
        {
          "internalType": "address",
          "name": "receiver",
          "type": "address"
        }
      ],
      "name": "ERC20InvalidReceiver",
      "type": "error"
    },
    {
      "inputs": [
        {
          "internalType": "address",
          "name": "sender",
          "type": "address"
        }
      ],
      "name": "ERC20InvalidSender",
      "type": "error"
    },
    {
      "inputs": [
        {
          "internalType": "address",
          "name": "spender",
          "type": "address"
        }
      ],
      "name": "ERC20InvalidSpender",
      "type": "error"
    },
    {
      "inputs": [
        {
          "internalType": "address",
          "name": "owner",
          "type": "address"
        }
      ],
      "name": "OwnableInvalidOwner",
      "type": "error"
    },
    {
      "inputs": [
        {
          "internalType": "address",
          "name": "account",
          "type": "address"
        }
      ],
      "name": "OwnableUnauthorizedAccount",
      "type": "error"
    },
    {
      "anonymous": false,
      "inputs": [
        {
          "indexed": true,
          "internalType": "address",
          "name": "owner",
          "type": "address"
        },
        {
          "indexed": true,
          "internalType": "address",
          "name": "spender",
          "type": "address"
        },
        {
          "indexed": false,
          "internalType": "uint256",
          "name": "value",
          "type": "uint256"
        }
      ],
      "name": "Approval",
      "type": "event"
    },
    {
      "anonymous": false,
      "inputs": [
        {
          "indexed": true,
          "internalType": "address",
          "name": "previousOwner",
          "type": "address"
        },
        {
          "indexed": true,
          "internalType": "address",
          "name": "newOwner",
          "type": "address"
        }
      ],
      "name": "OwnershipTransferred",
      "type": "event"
    },
    {
      "anonymous": false,
      "inputs": [
        {
          "indexed": true,
          "internalType": "address",
          "name": "from",
          "type": "address"
        },
        {
          "indexed": true,
          "internalType": "address",
          "name": "to",
          "type": "address"
        },
        {
          "indexed": false,
          "internalType": "uint256",
          "name": "value",
          "type": "uint256"
        }
      ],
      "name": "Transfer",
      "type": "event"
    },
    {
      "inputs": [
        {
          "internalType": "address",
          "name": "owner",
          "type": "address"
        },
        {
          "internalType": "address",
          "name": "spender",
          "type": "address"
        }
      ],
      "name": "allowance",
      "outputs": [
        {
          "internalType": "uint256",
          "name": "",
          "type": "uint256"
        }
      ],
      "stateMutability": "view",
      "type": "function"
    },
    {
      "inputs": [
        {
          "internalType": "address",
          "name": "spender",
          "type": "address"
        },
        {
          "internalType": "uint256",
          "name": "value",
          "type": "uint256"
        }
      ],
      "name": "approve",
      "outputs": [
        {
          "internalType": "bool",
          "name": "",
          "type": "bool"
        }
      ],
      "stateMutability": "nonpayable",
      "type": "function"
    },
    {
      "inputs": [],
      "name": "decimals",
      "outputs": [
        {
          "internalType": "uint8",
          "name": "",
          "type": "uint8"
        }
      ],
      "stateMutability": "view",
      "type": "function"
    },
    {
      "inputs": [],
      "name": "name",
      "outputs": [
        {
          "internalType": "string",
          "name": "",
          "type": "string"
        }
      ],
      "stateMutability": "view",
      "type": "function"
    },
    {
      "inputs": [],
      "name": "owner",
      "outputs": [
        {
          "internalType": "address",
          "name": "",
          "type": "address"
        }
      ],
      "stateMutability": "view",
      "type": "function"
    },
    {
      "inputs": [],
      "name": "renounceOwnership",
      "outputs": [],
      "stateMutability": "nonpayable",
      "type": "function"
    },
    {
      "inputs": [],
      "name": "symbol",
      "outputs": [
        {
          "internalType": "string",
          "name": "",
          "type": "string"
        }
      ],
      "stateMutability": "view",
      "type": "function"
    },
    {
      "inputs": [],
      "name": "tokenPrice",
      "outputs": [
        {
          "internalType": "uint256",
          "name": "",
          "type": "uint256"
        }
      ],
      "stateMutability": "view",
      "type": "function"
    },
    {
      "inputs": [],
      "name": "totalSupply",
      "outputs": [
        {
          "internalType": "uint256",
          "name": "",
          "type": "uint256"
        }
      ],
      "stateMutability": "view",
      "type": "function"
    },
    {
      "inputs": [
        {
          "internalType": "address",
          "name": "to",
          "type": "address"
        },
        {
          "internalType": "uint256",
          "name": "value",
          "type": "uint256"
        }
      ],
      "name": "transfer",
      "outputs": [
        {
          "internalType": "bool",
          "name": "",
          "type": "bool"
        }
      ],
      "stateMutability": "nonpayable",
      "type": "function"
    },
    {
      "inputs": [
        {
          "internalType": "address",
          "name": "from",
          "type": "address"
        },
        {
          "internalType": "address",
          "name": "to",
          "type": "address"
        },
        {
          "internalType": "uint256",
          "name": "value",
          "type": "uint256"
        }
      ],
      "name": "transferFrom",
      "outputs": [
        {
          "internalType": "bool",
          "name": "",
          "type": "bool"
        }
      ],
      "stateMutability": "nonpayable",
      "type": "function"
    },
    {
      "inputs": [
        {
          "internalType": "address",
          "name": "newOwner",
          "type": "address"
        }
      ],
      "name": "transferOwnership",
      "outputs": [],
      "stateMutability": "nonpayable",
      "type": "function"
    },
    {
      "inputs": [
        {
          "internalType": "address",
          "name": "to",
          "type": "address"
        },
        {
          "internalType": "uint256",
          "name": "amount",
          "type": "uint256"
        }
      ],
      "name": "mint",
      "outputs": [],
      "stateMutability": "nonpayable",
      "type": "function"
    },
    {
      "inputs": [
        {
          "internalType": "address",
          "name": "user",
          "type": "address"
        }
      ],
      "name": "balanceOf",
      "outputs": [
        {
          "internalType": "uint256",
          "name": "",
          "type": "uint256"
        }
      ],
      "stateMutability": "view",
      "type": "function"
    },
    {
      "inputs": [
        {
          "internalType": "address",
          "name": "user",
          "type": "address"
        }
      ],
      "name": "_balanceOf",
      "outputs": [
        {
          "internalType": "uint256",
          "name": "",
          "type": "uint256"
        }
      ],
      "stateMutability": "view",
      "type": "function"
    },
    {
      "inputs": [
        {
          "internalType": "address",
          "name": "user",
          "type": "address"
        }
      ],
      "name": "getEtherBalance",
      "outputs": [
        {
          "internalType": "uint256",
          "name": "",
          "type": "uint256"
        }
      ],
      "stateMutability": "view",
      "type": "function"
    },
    {
      "inputs": [
        {
          "internalType": "uint256",
          "name": "newPrice",
          "type": "uint256"
        }
      ],
      "name": "setTokenPrice",
      "outputs": [],
      "stateMutability": "nonpayable",
      "type": "function"
    },
    {
      "inputs": [
        {
          "internalType": "uint256",
          "name": "tokenAmount",
          "type": "uint256"
        }
      ],
      "name": "buyToken",
      "outputs": [],
      "stateMutability": "payable",
      "type": "function"
    },
    {
      "inputs": [
        {
          "internalType": "uint256",
          "name": "tokenAmount",
          "type": "uint256"
        }
      ],
      "name": "sellToken",
      "outputs": [],
      "stateMutability": "nonpayable",
      "type": "function"
    },
    {
      "inputs": [
        {
          "internalType": "address",
          "name": "user",
          "type": "address"
        },
        {
          "internalType": "uint256",
          "name": "amount",
          "type": "uint256"
        }
      ],
      "name": "burnFrom",
      "outputs": [],
      "stateMutability": "nonpayable",
      "type": "function"
    },
    {
      "inputs": [],
      "name": "withdraw",
      "outputs": [],
      "stateMutability": "nonpayable",
      "type": "function"
    },
    {
      "inputs": [
        {
          "internalType": "address",
          "name": "spender",
          "type": "address"
        },
        {
          "internalType": "uint256",
          "name": "amount",
          "type": "uint256"
        }
      ],
      "name": "approveAddress",
      "outputs": [],
      "stateMutability": "payable",
      "type": "function"
    },
    {
      "inputs": [
        {
          "internalType": "address",
          "name": "from",
          "type": "address"
        },
        {
          "internalType": "address",
          "name": "to",
          "type": "address"
        },
        {
          "internalType": "uint256",
          "name": "val",
          "type": "uint256"
        }
      ],
      "name": "transferRidekoins",
      "outputs": [],
      "stateMutability": "nonpayable",
      "type": "function"
    }
  ],
  "bytecode": "0x60806040523480156200001157600080fd5b50604051620026903803806200269083398181016040528101906200003791906200056b565b336040518060400160405280600881526020017f526964654b6f696e0000000000000000000000000000000000000000000000008152506040518060400160405280600381526020017f52444b00000000000000000000000000000000000000000000000000000000008152508160039081620000b591906200080d565b508060049081620000c791906200080d565b505050600073ffffffffffffffffffffffffffffffffffffffff168173ffffffffffffffffffffffffffffffffffffffff16036200013f5760006040517f1e4fbdf700000000000000000000000000000000000000000000000000000000815260040162000136919062000939565b60405180910390fd5b62000150816200019f60201b60201c565b506200019133620001666200026560201b60201c565b600a62000174919062000ae6565b63042c1d8062000185919062000b37565b6200026e60201b60201c565b806006819055505062000c28565b6000600560009054906101000a900473ffffffffffffffffffffffffffffffffffffffff16905081600560006101000a81548173ffffffffffffffffffffffffffffffffffffffff021916908373ffffffffffffffffffffffffffffffffffffffff1602179055508173ffffffffffffffffffffffffffffffffffffffff168173ffffffffffffffffffffffffffffffffffffffff167f8be0079c531659141344cd1fd0a4f28419497f9722a3daafe3b4186f6b6457e060405160405180910390a35050565b60006012905090565b600073ffffffffffffffffffffffffffffffffffffffff168273ffffffffffffffffffffffffffffffffffffffff1603620002e35760006040517fec442f05000000000000000000000000000000000000000000000000000000008152600401620002da919062000939565b60405180910390fd5b620002f760008383620002fb60201b60201c565b5050565b600073ffffffffffffffffffffffffffffffffffffffff168373ffffffffffffffffffffffffffffffffffffffff16036200035157806002600082825462000344919062000b82565b9250508190555062000427565b60008060008573ffffffffffffffffffffffffffffffffffffffff1673ffffffffffffffffffffffffffffffffffffffff16815260200190815260200160002054905081811015620003e0578381836040517fe450d38c000000000000000000000000000000000000000000000000000000008152600401620003d79392919062000bce565b60405180910390fd5b8181036000808673ffffffffffffffffffffffffffffffffffffffff1673ffffffffffffffffffffffffffffffffffffffff16815260200190815260200160002081905550505b600073ffffffffffffffffffffffffffffffffffffffff168273ffffffffffffffffffffffffffffffffffffffff1603620004725780600260008282540392505081905550620004bf565b806000808473ffffffffffffffffffffffffffffffffffffffff1673ffffffffffffffffffffffffffffffffffffffff168152602001908152602001600020600082825401925050819055505b8173ffffffffffffffffffffffffffffffffffffffff168373ffffffffffffffffffffffffffffffffffffffff167fddf252ad1be2c89b69c2b068fc378daa952ba7f163c4a11628f55a4df523b3ef836040516200051e919062000c0b565b60405180910390a3505050565b600080fd5b6000819050919050565b620005458162000530565b81146200055157600080fd5b50565b60008151905062000565816200053a565b92915050565b6000602082840312156200058457620005836200052b565b5b6000620005948482850162000554565b91505092915050565b600081519050919050565b7f4e487b7100000000000000000000000000000000000000000000000000000000600052604160045260246000fd5b7f4e487b7100000000000000000000000000000000000000000000000000000000600052602260045260246000fd5b600060028204905060018216806200061f57607f821691505b602082108103620006355762000634620005d7565b5b50919050565b60008190508160005260206000209050919050565b60006020601f8301049050919050565b600082821b905092915050565b6000600883026200069f7fffffffffffffffffffffffffffffffffffffffffffffffffffffffffffffffff8262000660565b620006ab868362000660565b95508019841693508086168417925050509392505050565b6000819050919050565b6000620006ee620006e8620006e28462000530565b620006c3565b62000530565b9050919050565b6000819050919050565b6200070a83620006cd565b620007226200071982620006f5565b8484546200066d565b825550505050565b600090565b620007396200072a565b62000746818484620006ff565b505050565b5b818110156200076e57620007626000826200072f565b6001810190506200074c565b5050565b601f821115620007bd5762000787816200063b565b620007928462000650565b81016020851015620007a2578190505b620007ba620007b18562000650565b8301826200074b565b50505b505050565b600082821c905092915050565b6000620007e260001984600802620007c2565b1980831691505092915050565b6000620007fd8383620007cf565b9150826002028217905092915050565b62000818826200059d565b67ffffffffffffffff811115620008345762000833620005a8565b5b62000840825462000606565b6200084d82828562000772565b600060209050601f83116001811462000885576000841562000870578287015190505b6200087c8582620007ef565b865550620008ec565b601f19841662000895866200063b565b60005b82811015620008bf5784890151825560018201915060208501945060208101905062000898565b86831015620008df5784890151620008db601f891682620007cf565b8355505b6001600288020188555050505b505050505050565b600073ffffffffffffffffffffffffffffffffffffffff82169050919050565b60006200092182620008f4565b9050919050565b620009338162000914565b82525050565b600060208201905062000950600083018462000928565b92915050565b7f4e487b7100000000000000000000000000000000000000000000000000000000600052601160045260246000fd5b60008160011c9050919050565b6000808291508390505b6001851115620009e457808604811115620009bc57620009bb62000956565b5b6001851615620009cc5780820291505b8081029050620009dc8562000985565b94506200099c565b94509492505050565b600082620009ff576001905062000ad2565b8162000a0f576000905062000ad2565b816001811462000a28576002811462000a335762000a69565b600191505062000ad2565b60ff84111562000a485762000a4762000956565b5b8360020a91508482111562000a625762000a6162000956565b5b5062000ad2565b5060208310610133831016604e8410600b841016171562000aa35782820a90508381111562000a9d5762000a9c62000956565b5b62000ad2565b62000ab2848484600162000992565b9250905081840481111562000acc5762000acb62000956565b5b81810290505b9392505050565b600060ff82169050919050565b600062000af38262000530565b915062000b008362000ad9565b925062000b2f7fffffffffffffffffffffffffffffffffffffffffffffffffffffffffffffffff8484620009ed565b905092915050565b600062000b448262000530565b915062000b518362000530565b925082820262000b618162000530565b9150828204841483151762000b7b5762000b7a62000956565b5b5092915050565b600062000b8f8262000530565b915062000b9c8362000530565b925082820190508082111562000bb75762000bb662000956565b5b92915050565b62000bc88162000530565b82525050565b600060608201905062000be5600083018662000928565b62000bf4602083018562000bbd565b62000c03604083018462000bbd565b949350505050565b600060208201905062000c22600083018462000bbd565b92915050565b611a588062000c386000396000f3fe6080604052600436106101405760003560e01c806370a08231116100b657806395d89b411161006f57806395d89b4114610406578063a9059cbb14610431578063cca3e8321461046e578063dc45d08e146104ab578063dd62ed3e146104e8578063f2fde38b1461052557610140565b806370a0823114610317578063715018a61461035457806379cc67901461036b5780637ff9b596146103945780638b9a0c89146103bf5780638da5cb5b146103db57610140565b80632d296bf1116101085780632d296bf11461023e5780632e7840451461025a578063313ce567146102835780633ccfd60b146102ae57806340c10f19146102c55780636a61e5fc146102ee57610140565b806306fdde0314610145578063095ea7b31461017057806318160ddd146101ad5780632397e4d7146101d857806323b872dd14610201575b600080fd5b34801561015157600080fd5b5061015a61054e565b60405161016791906114ad565b60405180910390f35b34801561017c57600080fd5b5061019760048036038101906101929190611568565b6105e0565b6040516101a491906115c3565b60405180910390f35b3480156101b957600080fd5b506101c2610603565b6040516101cf91906115ed565b60405180910390f35b3480156101e457600080fd5b506101ff60048036038101906101fa9190611608565b61060d565b005b34801561020d57600080fd5b5061022860048036038101906102239190611635565b61067c565b60405161023591906115c3565b60405180910390f35b61025860048036038101906102539190611608565b6106ab565b005b34801561026657600080fd5b50610281600480360381019061027c9190611635565b610715565b005b34801561028f57600080fd5b50610298610725565b6040516102a591906116a4565b60405180910390f35b3480156102ba57600080fd5b506102c361072e565b005b3480156102d157600080fd5b506102ec60048036038101906102e79190611568565b610786565b005b3480156102fa57600080fd5b5061031560048036038101906103109190611608565b61079c565b005b34801561032357600080fd5b5061033e600480360381019061033991906116bf565b6107ae565b60405161034b91906115ed565b60405180910390f35b34801561036057600080fd5b5061036961086d565b005b34801561037757600080fd5b50610392600480360381019061038d9190611568565b610881565b005b3480156103a057600080fd5b506103a96108fd565b6040516103b691906115ed565b60405180910390f35b6103d960048036038101906103d49190611568565b610903565b005b3480156103e757600080fd5b506103f061091a565b6040516103fd91906116fb565b60405180910390f35b34801561041257600080fd5b5061041b610944565b60405161042891906114ad565b60405180910390f35b34801561043d57600080fd5b5061045860048036038101906104539190611568565b6109d6565b60405161046591906115c3565b60405180910390f35b34801561047a57600080fd5b50610495600480360381019061049091906116bf565b6109f9565b6040516104a291906115ed565b60405180910390f35b3480156104b757600080fd5b506104d260048036038101906104cd91906116bf565b610a0b565b6040516104df91906115ed565b60405180910390f35b3480156104f457600080fd5b5061050f600480360381019061050a9190611716565b610ad9565b60405161051c91906115ed565b60405180910390f35b34801561053157600080fd5b5061054c600480360381019061054791906116bf565b610b60565b005b60606003805461055d90611785565b80601f016020809104026020016040519081016040528092919081815260200182805461058990611785565b80156105d65780601f106105ab576101008083540402835291602001916105d6565b820191906000526020600020905b8154815290600101906020018083116105b957829003601f168201915b5050505050905090565b6000806105eb610be6565b90506105f8818585610bee565b600191505092915050565b6000600254905090565b60006006548261061d91906117e5565b90506106313361062b61091a565b84610c00565b3373ffffffffffffffffffffffffffffffffffffffff166108fc829081150290604051600060405180830381858888f19350505050158015610677573d6000803e3d6000fd5b505050565b600080610687610be6565b9050610694858285610cf4565b61069f858585610c00565b60019150509392505050565b6000600654826106bb91906117e5565b90508034146106ff576040517f08c379a00000000000000000000000000000000000000000000000000000000081526004016106f690611899565b60405180910390fd5b61071161070a61091a565b3384610c00565b5050565b610720838383610c00565b505050565b60006012905090565b610736610d88565b61073e61091a565b73ffffffffffffffffffffffffffffffffffffffff166108fc479081150290604051600060405180830381858888f19350505050158015610783573d6000803e3d6000fd5b50565b61078e610d88565b6107988282610e0f565b5050565b6107a4610d88565b8060068190555050565b6000813373ffffffffffffffffffffffffffffffffffffffff168173ffffffffffffffffffffffffffffffffffffffff16148061081d57503373ffffffffffffffffffffffffffffffffffffffff1661080561091a565b73ffffffffffffffffffffffffffffffffffffffff16145b61085c576040517f08c379a000000000000000000000000000000000000000000000000000000000815260040161085390611905565b60405180910390fd5b61086583610e91565b915050919050565b610875610d88565b61087f6000610ed9565b565b3373ffffffffffffffffffffffffffffffffffffffff168273ffffffffffffffffffffffffffffffffffffffff16146108ef576040517f08c379a00000000000000000000000000000000000000000000000000000000081526004016108e690611997565b60405180910390fd5b6108f98282610f9f565b5050565b60065481565b61090b610d88565b610916338383610bee565b5050565b6000600560009054906101000a900473ffffffffffffffffffffffffffffffffffffffff16905090565b60606004805461095390611785565b80601f016020809104026020016040519081016040528092919081815260200182805461097f90611785565b80156109cc5780601f106109a1576101008083540402835291602001916109cc565b820191906000526020600020905b8154815290600101906020018083116109af57829003601f168201915b5050505050905090565b6000806109e1610be6565b90506109ee818585610c00565b600191505092915050565b6000610a0482610e91565b9050919050565b6000813373ffffffffffffffffffffffffffffffffffffffff168173ffffffffffffffffffffffffffffffffffffffff161480610a7a57503373ffffffffffffffffffffffffffffffffffffffff16610a6261091a565b73ffffffffffffffffffffffffffffffffffffffff16145b610ab9576040517f08c379a0000000000000000000000000000000000000000000000000000000008152600401610ab090611905565b60405180910390fd5b8273ffffffffffffffffffffffffffffffffffffffff1631915050919050565b6000600160008473ffffffffffffffffffffffffffffffffffffffff1673ffffffffffffffffffffffffffffffffffffffff16815260200190815260200160002060008373ffffffffffffffffffffffffffffffffffffffff1673ffffffffffffffffffffffffffffffffffffffff16815260200190815260200160002054905092915050565b610b68610d88565b600073ffffffffffffffffffffffffffffffffffffffff168173ffffffffffffffffffffffffffffffffffffffff1603610bda5760006040517f1e4fbdf7000000000000000000000000000000000000000000000000000000008152600401610bd191906116fb565b60405180910390fd5b610be381610ed9565b50565b600033905090565b610bfb8383836001611021565b505050565b600073ffffffffffffffffffffffffffffffffffffffff168373ffffffffffffffffffffffffffffffffffffffff1603610c725760006040517f96c6fd1e000000000000000000000000000000000000000000000000000000008152600401610c6991906116fb565b60405180910390fd5b600073ffffffffffffffffffffffffffffffffffffffff168273ffffffffffffffffffffffffffffffffffffffff1603610ce45760006040517fec442f05000000000000000000000000000000000000000000000000000000008152600401610cdb91906116fb565b60405180910390fd5b610cef8383836111f8565b505050565b6000610d008484610ad9565b90507fffffffffffffffffffffffffffffffffffffffffffffffffffffffffffffffff8114610d825781811015610d72578281836040517ffb8f41b2000000000000000000000000000000000000000000000000000000008152600401610d69939291906119b7565b60405180910390fd5b610d8184848484036000611021565b5b50505050565b610d90610be6565b73ffffffffffffffffffffffffffffffffffffffff16610dae61091a565b73ffffffffffffffffffffffffffffffffffffffff1614610e0d57610dd1610be6565b6040517f118cdaa7000000000000000000000000000000000000000000000000000000008152600401610e0491906116fb565b60405180910390fd5b565b600073ffffffffffffffffffffffffffffffffffffffff168273ffffffffffffffffffffffffffffffffffffffff1603610e815760006040517fec442f05000000000000000000000000000000000000000000000000000000008152600401610e7891906116fb565b60405180910390fd5b610e8d600083836111f8565b5050565b60008060008373ffffffffffffffffffffffffffffffffffffffff1673ffffffffffffffffffffffffffffffffffffffff168152602001908152602001600020549050919050565b6000600560009054906101000a900473ffffffffffffffffffffffffffffffffffffffff16905081600560006101000a81548173ffffffffffffffffffffffffffffffffffffffff021916908373ffffffffffffffffffffffffffffffffffffffff1602179055508173ffffffffffffffffffffffffffffffffffffffff168173ffffffffffffffffffffffffffffffffffffffff167f8be0079c531659141344cd1fd0a4f28419497f9722a3daafe3b4186f6b6457e060405160405180910390a35050565b600073ffffffffffffffffffffffffffffffffffffffff168273ffffffffffffffffffffffffffffffffffffffff16036110115760006040517f96c6fd1e00000000000000000000000000000000000000000000000000000000815260040161100891906116fb565b60405180910390fd5b61101d826000836111f8565b5050565b600073ffffffffffffffffffffffffffffffffffffffff168473ffffffffffffffffffffffffffffffffffffffff16036110935760006040517fe602df0500000000000000000000000000000000000000000000000000000000815260040161108a91906116fb565b60405180910390fd5b600073ffffffffffffffffffffffffffffffffffffffff168373ffffffffffffffffffffffffffffffffffffffff16036111055760006040517f94280d620000000000000000000000000000000000000000000000000000000081526004016110fc91906116fb565b60405180910390fd5b81600160008673ffffffffffffffffffffffffffffffffffffffff1673ffffffffffffffffffffffffffffffffffffffff16815260200190815260200160002060008573ffffffffffffffffffffffffffffffffffffffff1673ffffffffffffffffffffffffffffffffffffffff1681526020019081526020016000208190555080156111f2578273ffffffffffffffffffffffffffffffffffffffff168473ffffffffffffffffffffffffffffffffffffffff167f8c5be1e5ebec7d5bd14f71427d1e84f3dd0314c0f7b2291e5b200ac8c7c3b925846040516111e991906115ed565b60405180910390a35b50505050565b600073ffffffffffffffffffffffffffffffffffffffff168373ffffffffffffffffffffffffffffffffffffffff160361124a57806002600082825461123e91906119ee565b9250508190555061131d565b60008060008573ffffffffffffffffffffffffffffffffffffffff1673ffffffffffffffffffffffffffffffffffffffff168152602001908152602001600020549050818110156112d6578381836040517fe450d38c0000000000000000000000000000000000000000000000000000000081526004016112cd939291906119b7565b60405180910390fd5b8181036000808673ffffffffffffffffffffffffffffffffffffffff1673ffffffffffffffffffffffffffffffffffffffff16815260200190815260200160002081905550505b600073ffffffffffffffffffffffffffffffffffffffff168273ffffffffffffffffffffffffffffffffffffffff160361136657806002600082825403925050819055506113b3565b806000808473ffffffffffffffffffffffffffffffffffffffff1673ffffffffffffffffffffffffffffffffffffffff168152602001908152602001600020600082825401925050819055505b8173ffffffffffffffffffffffffffffffffffffffff168373ffffffffffffffffffffffffffffffffffffffff167fddf252ad1be2c89b69c2b068fc378daa952ba7f163c4a11628f55a4df523b3ef8360405161141091906115ed565b60405180910390a3505050565b600081519050919050565b600082825260208201905092915050565b60005b8381101561145757808201518184015260208101905061143c565b60008484015250505050565b6000601f19601f8301169050919050565b600061147f8261141d565b6114898185611428565b9350611499818560208601611439565b6114a281611463565b840191505092915050565b600060208201905081810360008301526114c78184611474565b905092915050565b600080fd5b600073ffffffffffffffffffffffffffffffffffffffff82169050919050565b60006114ff826114d4565b9050919050565b61150f816114f4565b811461151a57600080fd5b50565b60008135905061152c81611506565b92915050565b6000819050919050565b61154581611532565b811461155057600080fd5b50565b6000813590506115628161153c565b92915050565b6000806040838503121561157f5761157e6114cf565b5b600061158d8582860161151d565b925050602061159e85828601611553565b9150509250929050565b60008115159050919050565b6115bd816115a8565b82525050565b60006020820190506115d860008301846115b4565b92915050565b6115e781611532565b82525050565b600060208201905061160260008301846115de565b92915050565b60006020828403121561161e5761161d6114cf565b5b600061162c84828501611553565b91505092915050565b60008060006060848603121561164e5761164d6114cf565b5b600061165c8682870161151d565b935050602061166d8682870161151d565b925050604061167e86828701611553565b9150509250925092565b600060ff82169050919050565b61169e81611688565b82525050565b60006020820190506116b96000830184611695565b92915050565b6000602082840312156116d5576116d46114cf565b5b60006116e38482850161151d565b91505092915050565b6116f5816114f4565b82525050565b600060208201905061171060008301846116ec565b92915050565b6000806040838503121561172d5761172c6114cf565b5b600061173b8582860161151d565b925050602061174c8582860161151d565b9150509250929050565b7f4e487b7100000000000000000000000000000000000000000000000000000000600052602260045260246000fd5b6000600282049050600182168061179d57607f821691505b6020821081036117b0576117af611756565b5b50919050565b7f4e487b7100000000000000000000000000000000000000000000000000000000600052601160045260246000fd5b60006117f082611532565b91506117fb83611532565b925082820261180981611532565b915082820484148315176118205761181f6117b6565b5b5092915050565b7f45746865722073656e7420646f65736e2774206d61746368207468652072657160008201527f756972656420616d6f756e7420666f7220746f6b656e73000000000000000000602082015250565b6000611883603783611428565b915061188e82611827565b604082019050919050565b600060208201905081810360008301526118b281611876565b9050919050565b7f4e6f7420656e6f756768205065726d697373696f6e7300000000000000000000600082015250565b60006118ef601683611428565b91506118fa826118b9565b602082019050919050565b6000602082019050818103600083015261191e816118e2565b9050919050565b7f596f752074686520757365722063616e206275726e206869732f68657220746f60008201527f6b656e7300000000000000000000000000000000000000000000000000000000602082015250565b6000611981602483611428565b915061198c82611925565b604082019050919050565b600060208201905081810360008301526119b081611974565b9050919050565b60006060820190506119cc60008301866116ec565b6119d960208301856115de565b6119e660408301846115de565b949350505050565b60006119f982611532565b9150611a0483611532565b9250828201905080821115611a1c57611a1b6117b6565b5b9291505056fea26469706673582212203ff6449e05f7aff9e07fca27a8f9bd0a88083bc3f79ce7422f8afad9ea0c984f64736f6c63430008140033",
  "immutableReferences": {},
  "source": "// SPDX-License-Identifier: MIT\r\npragma solidity ^0.8.20;\r\n\r\n\r\nimport \"@openzeppelin/contracts/token/ERC20/ERC20.sol\";\r\nimport \"@openzeppelin/contracts/access/Ownable.sol\";\r\n\r\ncontract RideKoin is ERC20, Ownable {\r\n    uint256 public tokenPrice; \r\n\r\n    constructor(uint256 initialPrice)\r\n        ERC20(\"RideKoin\", \"RDK\")\r\n        Ownable(msg.sender)\r\n    {\r\n        _mint(msg.sender, 70000000 * 10 ** decimals());\r\n        tokenPrice = initialPrice;\r\n    }\r\n\r\n    function mint(address to, uint256 amount) public onlyOwner {\r\n        _mint(to, amount);\r\n    }\r\n\r\n    modifier onlyOwnerOrAccountHolder(address user) {\r\n        require(user == msg.sender || owner() == msg.sender, \"Not enough Permissions\");\r\n        _;\r\n    }\r\n\r\n    function balanceOf(address user) public view override onlyOwnerOrAccountHolder(user) returns (uint256) {\r\n        return super.balanceOf(user);\r\n    }\r\n\r\n    function _balanceOf(address user) external view returns (uint256) {\r\n        return super.balanceOf(user);\r\n    } // <-- tHis is for use in ERC1155\r\n\r\n    function getEtherBalance(address user) public view onlyOwnerOrAccountHolder(user) returns (uint256) {\r\n        return user.balance;\r\n    }\r\n\r\n    function setTokenPrice(uint256 newPrice) external onlyOwner {\r\n        tokenPrice = newPrice;\r\n    }\r\n\r\n    function buyToken(uint256 tokenAmount) public payable {\r\n        uint256 requiredEther = tokenAmount * tokenPrice;\r\n        require(msg.value == requiredEther, \"Ether sent doesn't match the required amount for tokens\");\r\n        _transfer(owner(), msg.sender, tokenAmount); // Transfer RideKoin tokens from owner to buyer\r\n    }\r\n\r\n\r\n     function sellToken(uint256 tokenAmount) public {\r\n        uint256 etherAmount = tokenAmount * tokenPrice;\r\n        // require(address(owner).balance >= etherAmount, \"Contract does not have enough ether to buy the tokens\");\r\n        _transfer(msg.sender, owner(), tokenAmount); \r\n        payable(msg.sender).transfer(etherAmount);   \r\n    }\r\n\r\n    function burnFrom(address user, uint256 amount) public {\r\n        require(user == msg.sender, \"You the user can burn his/her tokens\");\r\n        _burn(user, amount);\r\n    }\r\n\r\n\r\n    function withdraw() external onlyOwner {\r\n        payable(owner()).transfer(address(this).balance);\r\n    }\r\n\r\n    function approveAddress(address spender, uint256 amount) public payable  onlyOwner {\r\n        _approve(msg.sender, spender, amount);\r\n    }\r\n    \r\n    function transferRidekoins(address from, address to, uint256 val) public {\r\n       \r\n\r\n    _transfer(from, to, val);}\r\n\r\n}\r\n\r\n\r\n",
  "sourcePath": "C:\\Users\\dashu\\OneDrive\\Documents\\UB\\BLOCKCHAIN\\project\\blockchain_final_project\\decentralized_cab_booking\\DRSA-contract\\contracts\\RideKoin.sol",
  "compiler": {
    "name": "solc",
    "version": "0.8.20+commit.a1b79de6.Emscripten.clang"
  },
  "schemaVersion": "3.4.16",
  "updatedAt": "2023-12-02T07:41:19.850Z",
  "devdoc": {
    "errors": {
      "ERC20InsufficientAllowance(address,uint256,uint256)": [
        {
          "details": "Indicates a failure with the `spender`s `allowance`. Used in transfers.",
          "params": {
            "allowance": "Amount of tokens a `spender` is allowed to operate with.",
            "needed": "Minimum amount required to perform a transfer.",
            "spender": "Address that may be allowed to operate on tokens without being their owner."
          }
        }
      ],
      "ERC20InsufficientBalance(address,uint256,uint256)": [
        {
          "details": "Indicates an error related to the current `balance` of a `sender`. Used in transfers.",
          "params": {
            "balance": "Current balance for the interacting account.",
            "needed": "Minimum amount required to perform a transfer.",
            "sender": "Address whose tokens are being transferred."
          }
        }
      ],
      "ERC20InvalidApprover(address)": [
        {
          "details": "Indicates a failure with the `approver` of a token to be approved. Used in approvals.",
          "params": {
            "approver": "Address initiating an approval operation."
          }
        }
      ],
      "ERC20InvalidReceiver(address)": [
        {
          "details": "Indicates a failure with the token `receiver`. Used in transfers.",
          "params": {
            "receiver": "Address to which tokens are being transferred."
          }
        }
      ],
      "ERC20InvalidSender(address)": [
        {
          "details": "Indicates a failure with the token `sender`. Used in transfers.",
          "params": {
            "sender": "Address whose tokens are being transferred."
          }
        }
      ],
      "ERC20InvalidSpender(address)": [
        {
          "details": "Indicates a failure with the `spender` to be approved. Used in approvals.",
          "params": {
            "spender": "Address that may be allowed to operate on tokens without being their owner."
          }
        }
      ],
      "OwnableInvalidOwner(address)": [
        {
          "details": "The owner is not a valid owner account. (eg. `address(0)`)"
        }
      ],
      "OwnableUnauthorizedAccount(address)": [
        {
          "details": "The caller account is not authorized to perform an operation."
        }
      ]
    },
    "events": {
      "Approval(address,address,uint256)": {
        "details": "Emitted when the allowance of a `spender` for an `owner` is set by a call to {approve}. `value` is the new allowance."
      },
      "Transfer(address,address,uint256)": {
        "details": "Emitted when `value` tokens are moved from one account (`from`) to another (`to`). Note that `value` may be zero."
      }
    },
    "kind": "dev",
    "methods": {
      "allowance(address,address)": {
        "details": "See {IERC20-allowance}."
      },
      "approve(address,uint256)": {
        "details": "See {IERC20-approve}. NOTE: If `value` is the maximum `uint256`, the allowance is not updated on `transferFrom`. This is semantically equivalent to an infinite approval. Requirements: - `spender` cannot be the zero address."
      },
      "decimals()": {
        "details": "Returns the number of decimals used to get its user representation. For example, if `decimals` equals `2`, a balance of `505` tokens should be displayed to a user as `5.05` (`505 / 10 ** 2`). Tokens usually opt for a value of 18, imitating the relationship between Ether and Wei. This is the default value returned by this function, unless it's overridden. NOTE: This information is only used for _display_ purposes: it in no way affects any of the arithmetic of the contract, including {IERC20-balanceOf} and {IERC20-transfer}."
      },
      "name()": {
        "details": "Returns the name of the token."
      },
      "owner()": {
        "details": "Returns the address of the current owner."
      },
      "renounceOwnership()": {
        "details": "Leaves the contract without owner. It will not be possible to call `onlyOwner` functions. Can only be called by the current owner. NOTE: Renouncing ownership will leave the contract without an owner, thereby disabling any functionality that is only available to the owner."
      },
      "symbol()": {
        "details": "Returns the symbol of the token, usually a shorter version of the name."
      },
      "totalSupply()": {
        "details": "See {IERC20-totalSupply}."
      },
      "transfer(address,uint256)": {
        "details": "See {IERC20-transfer}. Requirements: - `to` cannot be the zero address. - the caller must have a balance of at least `value`."
      },
      "transferFrom(address,address,uint256)": {
        "details": "See {IERC20-transferFrom}. Emits an {Approval} event indicating the updated allowance. This is not required by the EIP. See the note at the beginning of {ERC20}. NOTE: Does not update the allowance if the current allowance is the maximum `uint256`. Requirements: - `from` and `to` cannot be the zero address. - `from` must have a balance of at least `value`. - the caller must have allowance for ``from``'s tokens of at least `value`."
      },
      "transferOwnership(address)": {
        "details": "Transfers ownership of the contract to a new account (`newOwner`). Can only be called by the current owner."
      }
    },
    "version": 1
  },
  "userdoc": {
    "kind": "user",
    "methods": {},
    "version": 1
  }
}