{
  "contractName": "RydeAsset",
  "abi": [
    {
      "inputs": [
        {
          "internalType": "address",
          "name": "_rideKoinContractAddress",
          "type": "address"
        },
        {
          "internalType": "address",
          "name": "_xclusiveRydePassContractAddress",
          "type": "address"
        }
      ],
      "stateMutability": "nonpayable",
      "type": "constructor"
    },
    {
      "inputs": [
        {
          "internalType": "address",
          "name": "sender",
          "type": "address"
        },
        {
          "internalType": "uint256",
          "name": "balance",
          "type": "uint256"
        },
        {
          "internalType": "uint256",
          "name": "needed",
          "type": "uint256"
        },
        {
          "internalType": "uint256",
          "name": "tokenId",
          "type": "uint256"
        }
      ],
      "name": "ERC1155InsufficientBalance",
      "type": "error"
    },
    {
      "inputs": [
        {
          "internalType": "address",
          "name": "approver",
          "type": "address"
        }
      ],
      "name": "ERC1155InvalidApprover",
      "type": "error"
    },
    {
      "inputs": [
        {
          "internalType": "uint256",
          "name": "idsLength",
          "type": "uint256"
        },
        {
          "internalType": "uint256",
          "name": "valuesLength",
          "type": "uint256"
        }
      ],
      "name": "ERC1155InvalidArrayLength",
      "type": "error"
    },
    {
      "inputs": [
        {
          "internalType": "address",
          "name": "operator",
          "type": "address"
        }
      ],
      "name": "ERC1155InvalidOperator",
      "type": "error"
    },
    {
      "inputs": [
        {
          "internalType": "address",
          "name": "receiver",
          "type": "address"
        }
      ],
      "name": "ERC1155InvalidReceiver",
      "type": "error"
    },
    {
      "inputs": [
        {
          "internalType": "address",
          "name": "sender",
          "type": "address"
        }
      ],
      "name": "ERC1155InvalidSender",
      "type": "error"
    },
    {
      "inputs": [
        {
          "internalType": "address",
          "name": "operator",
          "type": "address"
        },
        {
          "internalType": "address",
          "name": "owner",
          "type": "address"
        }
      ],
      "name": "ERC1155MissingApprovalForAll",
      "type": "error"
    },
    {
      "inputs": [
        {
          "internalType": "address",
          "name": "owner",
          "type": "address"
        }
      ],
      "name": "OwnableInvalidOwner",
      "type": "error"
    },
    {
      "inputs": [
        {
          "internalType": "address",
          "name": "account",
          "type": "address"
        }
      ],
      "name": "OwnableUnauthorizedAccount",
      "type": "error"
    },
    {
      "anonymous": false,
      "inputs": [
        {
          "indexed": true,
          "internalType": "address",
          "name": "account",
          "type": "address"
        },
        {
          "indexed": true,
          "internalType": "address",
          "name": "operator",
          "type": "address"
        },
        {
          "indexed": false,
          "internalType": "bool",
          "name": "approved",
          "type": "bool"
        }
      ],
      "name": "ApprovalForAll",
      "type": "event"
    },
    {
      "anonymous": false,
      "inputs": [
        {
          "indexed": true,
          "internalType": "address",
          "name": "previousOwner",
          "type": "address"
        },
        {
          "indexed": true,
          "internalType": "address",
          "name": "newOwner",
          "type": "address"
        }
      ],
      "name": "OwnershipTransferred",
      "type": "event"
    },
    {
      "anonymous": false,
      "inputs": [
        {
          "indexed": false,
          "internalType": "uint256",
          "name": "requestId",
          "type": "uint256"
        },
        {
          "indexed": false,
          "internalType": "address",
          "name": "rider",
          "type": "address"
        },
        {
          "indexed": false,
          "internalType": "string",
          "name": "fromLocation",
          "type": "string"
        },
        {
          "indexed": false,
          "internalType": "string",
          "name": "toLocation",
          "type": "string"
        }
      ],
      "name": "RideRequested",
      "type": "event"
    },
    {
      "anonymous": false,
      "inputs": [
        {
          "indexed": true,
          "internalType": "address",
          "name": "operator",
          "type": "address"
        },
        {
          "indexed": true,
          "internalType": "address",
          "name": "from",
          "type": "address"
        },
        {
          "indexed": true,
          "internalType": "address",
          "name": "to",
          "type": "address"
        },
        {
          "indexed": false,
          "internalType": "uint256[]",
          "name": "ids",
          "type": "uint256[]"
        },
        {
          "indexed": false,
          "internalType": "uint256[]",
          "name": "values",
          "type": "uint256[]"
        }
      ],
      "name": "TransferBatch",
      "type": "event"
    },
    {
      "anonymous": false,
      "inputs": [
        {
          "indexed": true,
          "internalType": "address",
          "name": "operator",
          "type": "address"
        },
        {
          "indexed": true,
          "internalType": "address",
          "name": "from",
          "type": "address"
        },
        {
          "indexed": true,
          "internalType": "address",
          "name": "to",
          "type": "address"
        },
        {
          "indexed": false,
          "internalType": "uint256",
          "name": "id",
          "type": "uint256"
        },
        {
          "indexed": false,
          "internalType": "uint256",
          "name": "value",
          "type": "uint256"
        }
      ],
      "name": "TransferSingle",
      "type": "event"
    },
    {
      "anonymous": false,
      "inputs": [
        {
          "indexed": false,
          "internalType": "string",
          "name": "value",
          "type": "string"
        },
        {
          "indexed": true,
          "internalType": "uint256",
          "name": "id",
          "type": "uint256"
        }
      ],
      "name": "URI",
      "type": "event"
    },
    {
      "inputs": [],
      "name": "MINT_PRICE",
      "outputs": [
        {
          "internalType": "uint256",
          "name": "",
          "type": "uint256"
        }
      ],
      "stateMutability": "view",
      "type": "function"
    },
    {
      "inputs": [
        {
          "internalType": "address",
          "name": "account",
          "type": "address"
        },
        {
          "internalType": "uint256",
          "name": "id",
          "type": "uint256"
        }
      ],
      "name": "balanceOf",
      "outputs": [
        {
          "internalType": "uint256",
          "name": "",
          "type": "uint256"
        }
      ],
      "stateMutability": "view",
      "type": "function"
    },
    {
      "inputs": [
        {
          "internalType": "address[]",
          "name": "accounts",
          "type": "address[]"
        },
        {
          "internalType": "uint256[]",
          "name": "ids",
          "type": "uint256[]"
        }
      ],
      "name": "balanceOfBatch",
      "outputs": [
        {
          "internalType": "uint256[]",
          "name": "",
          "type": "uint256[]"
        }
      ],
      "stateMutability": "view",
      "type": "function"
    },
    {
      "inputs": [
        {
          "internalType": "address",
          "name": "account",
          "type": "address"
        },
        {
          "internalType": "address",
          "name": "operator",
          "type": "address"
        }
      ],
      "name": "isApprovedForAll",
      "outputs": [
        {
          "internalType": "bool",
          "name": "",
          "type": "bool"
        }
      ],
      "stateMutability": "view",
      "type": "function"
    },
    {
      "inputs": [],
      "name": "owner",
      "outputs": [
        {
          "internalType": "address",
          "name": "",
          "type": "address"
        }
      ],
      "stateMutability": "view",
      "type": "function"
    },
    {
      "inputs": [],
      "name": "renounceOwnership",
      "outputs": [],
      "stateMutability": "nonpayable",
      "type": "function"
    },
    {
      "inputs": [],
      "name": "rideKoinContract",
      "outputs": [
        {
          "internalType": "contract RideKoin",
          "name": "",
          "type": "address"
        }
      ],
      "stateMutability": "view",
      "type": "function"
    },
    {
      "inputs": [
        {
          "internalType": "uint256",
          "name": "",
          "type": "uint256"
        }
      ],
      "name": "rideRequests",
      "outputs": [
        {
          "internalType": "address",
          "name": "rider",
          "type": "address"
        },
        {
          "internalType": "string",
          "name": "fromLocation",
          "type": "string"
        },
        {
          "internalType": "string",
          "name": "toLocation",
          "type": "string"
        }
      ],
      "stateMutability": "view",
      "type": "function"
    },
    {
      "inputs": [
        {
          "internalType": "address",
          "name": "from",
          "type": "address"
        },
        {
          "internalType": "address",
          "name": "to",
          "type": "address"
        },
        {
          "internalType": "uint256[]",
          "name": "ids",
          "type": "uint256[]"
        },
        {
          "internalType": "uint256[]",
          "name": "values",
          "type": "uint256[]"
        },
        {
          "internalType": "bytes",
          "name": "data",
          "type": "bytes"
        }
      ],
      "name": "safeBatchTransferFrom",
      "outputs": [],
      "stateMutability": "nonpayable",
      "type": "function"
    },
    {
      "inputs": [
        {
          "internalType": "address",
          "name": "from",
          "type": "address"
        },
        {
          "internalType": "address",
          "name": "to",
          "type": "address"
        },
        {
          "internalType": "uint256",
          "name": "id",
          "type": "uint256"
        },
        {
          "internalType": "uint256",
          "name": "value",
          "type": "uint256"
        },
        {
          "internalType": "bytes",
          "name": "data",
          "type": "bytes"
        }
      ],
      "name": "safeTransferFrom",
      "outputs": [],
      "stateMutability": "nonpayable",
      "type": "function"
    },
    {
      "inputs": [
        {
          "internalType": "address",
          "name": "operator",
          "type": "address"
        },
        {
          "internalType": "bool",
          "name": "approved",
          "type": "bool"
        }
      ],
      "name": "setApprovalForAll",
      "outputs": [],
      "stateMutability": "nonpayable",
      "type": "function"
    },
    {
      "inputs": [
        {
          "internalType": "uint256",
          "name": "",
          "type": "uint256"
        }
      ],
      "name": "specialTokenDetails",
      "outputs": [
        {
          "internalType": "uint256",
          "name": "rydeKoinAmount",
          "type": "uint256"
        },
        {
          "internalType": "uint256",
          "name": "xclusiveRydePassID",
          "type": "uint256"
        }
      ],
      "stateMutability": "view",
      "type": "function"
    },
    {
      "inputs": [
        {
          "internalType": "uint256",
          "name": "",
          "type": "uint256"
        }
      ],
      "name": "specialTokenValues",
      "outputs": [
        {
          "internalType": "uint256",
          "name": "",
          "type": "uint256"
        }
      ],
      "stateMutability": "view",
      "type": "function"
    },
    {
      "inputs": [
        {
          "internalType": "bytes4",
          "name": "interfaceId",
          "type": "bytes4"
        }
      ],
      "name": "supportsInterface",
      "outputs": [
        {
          "internalType": "bool",
          "name": "",
          "type": "bool"
        }
      ],
      "stateMutability": "view",
      "type": "function"
    },
    {
      "inputs": [
        {
          "internalType": "uint256",
          "name": "",
          "type": "uint256"
        }
      ],
      "name": "tokenDescriptions",
      "outputs": [
        {
          "internalType": "string",
          "name": "",
          "type": "string"
        }
      ],
      "stateMutability": "view",
      "type": "function"
    },
    {
      "inputs": [
        {
          "internalType": "address",
          "name": "newOwner",
          "type": "address"
        }
      ],
      "name": "transferOwnership",
      "outputs": [],
      "stateMutability": "nonpayable",
      "type": "function"
    },
    {
      "inputs": [
        {
          "internalType": "uint256",
          "name": "",
          "type": "uint256"
        }
      ],
      "name": "uri",
      "outputs": [
        {
          "internalType": "string",
          "name": "",
          "type": "string"
        }
      ],
      "stateMutability": "view",
      "type": "function"
    },
    {
      "inputs": [
        {
          "internalType": "address",
          "name": "",
          "type": "address"
        }
      ],
      "name": "userRoles",
      "outputs": [
        {
          "internalType": "enum RydeAsset.UserRole",
          "name": "",
          "type": "uint8"
        }
      ],
      "stateMutability": "view",
      "type": "function"
    },
    {
      "inputs": [
        {
          "internalType": "uint256",
          "name": "",
          "type": "uint256"
        }
      ],
      "name": "xclusivePassPrices",
      "outputs": [
        {
          "internalType": "uint256",
          "name": "",
          "type": "uint256"
        }
      ],
      "stateMutability": "view",
      "type": "function"
    },
    {
      "inputs": [],
      "name": "xclusiveRydePassContract",
      "outputs": [
        {
          "internalType": "contract XclusiveRydePass",
          "name": "",
          "type": "address"
        }
      ],
      "stateMutability": "view",
      "type": "function"
    },
    {
      "inputs": [],
      "name": "registerAsDriver",
      "outputs": [],
      "stateMutability": "nonpayable",
      "type": "function"
    },
    {
      "inputs": [],
      "name": "registerAsRider",
      "outputs": [],
      "stateMutability": "nonpayable",
      "type": "function"
    },
    {
      "inputs": [
        {
          "internalType": "address",
          "name": "a",
          "type": "address"
        }
      ],
      "name": "getUserRole",
      "outputs": [
        {
          "internalType": "enum RydeAsset.UserRole",
          "name": "",
          "type": "uint8"
        }
      ],
      "stateMutability": "view",
      "type": "function"
    },
    {
      "inputs": [
        {
          "internalType": "address",
          "name": "to",
          "type": "address"
        }
      ],
      "name": "mintXclusiveRydePass",
      "outputs": [],
      "stateMutability": "payable",
      "type": "function"
    },
    {
      "inputs": [
        {
          "internalType": "address",
          "name": "from",
          "type": "address"
        },
        {
          "internalType": "address",
          "name": "to",
          "type": "address"
        },
        {
          "internalType": "uint256",
          "name": "value",
          "type": "uint256"
        }
      ],
      "name": "transferRideKoins",
      "outputs": [],
      "stateMutability": "nonpayable",
      "type": "function"
    },
    {
      "inputs": [
        {
          "internalType": "address",
          "name": "from",
          "type": "address"
        },
        {
          "internalType": "address",
          "name": "to",
          "type": "address"
        },
        {
          "internalType": "uint256",
          "name": "tokenId",
          "type": "uint256"
        }
      ],
      "name": "transferXclusiveRydePass",
      "outputs": [],
      "stateMutability": "nonpayable",
      "type": "function"
    },
    {
      "inputs": [
        {
          "internalType": "address",
          "name": "owner",
          "type": "address"
        }
      ],
      "name": "getTokens",
      "outputs": [
        {
          "internalType": "uint256[]",
          "name": "",
          "type": "uint256[]"
        }
      ],
      "stateMutability": "view",
      "type": "function"
    },
    {
      "inputs": [
        {
          "internalType": "uint256",
          "name": "tokenAmount",
          "type": "uint256"
        }
      ],
      "name": "buyRideKoin",
      "outputs": [],
      "stateMutability": "payable",
      "type": "function"
    },
    {
      "inputs": [
        {
          "internalType": "uint256",
          "name": "tokenAmount",
          "type": "uint256"
        }
      ],
      "name": "sellRideKoin",
      "outputs": [],
      "stateMutability": "nonpayable",
      "type": "function"
    },
    {
      "inputs": [],
      "name": "withdrawFundsFromRideKoin",
      "outputs": [],
      "stateMutability": "nonpayable",
      "type": "function"
    },
    {
      "inputs": [
        {
          "internalType": "address",
          "name": "user",
          "type": "address"
        }
      ],
      "name": "getRideKoinBalance",
      "outputs": [
        {
          "internalType": "uint256",
          "name": "",
          "type": "uint256"
        }
      ],
      "stateMutability": "view",
      "type": "function"
    },
    {
      "inputs": [
        {
          "internalType": "address",
          "name": "user",
          "type": "address"
        }
      ],
      "name": "getXclusiveRydePassCount",
      "outputs": [
        {
          "internalType": "uint256",
          "name": "",
          "type": "uint256"
        }
      ],
      "stateMutability": "view",
      "type": "function"
    },
    {
      "inputs": [
        {
          "internalType": "uint256",
          "name": "tokenId",
          "type": "uint256"
        }
      ],
      "name": "getTokenDescription",
      "outputs": [
        {
          "internalType": "string",
          "name": "",
          "type": "string"
        }
      ],
      "stateMutability": "view",
      "type": "function"
    },
    {
      "inputs": [
        {
          "internalType": "uint256",
          "name": "rydeKoinAmount",
          "type": "uint256"
        },
        {
          "internalType": "uint256",
          "name": "xclusiveRydePassID",
          "type": "uint256"
        }
      ],
      "name": "createSpecialToken",
      "outputs": [],
      "stateMutability": "payable",
      "type": "function"
    },
    {
      "inputs": [
        {
          "internalType": "address",
          "name": "account",
          "type": "address"
        }
      ],
      "name": "viewOwnedSpecialTokens",
      "outputs": [
        {
          "internalType": "uint256[]",
          "name": "",
          "type": "uint256[]"
        }
      ],
      "stateMutability": "view",
      "type": "function"
    },
    {
      "inputs": [
        {
          "internalType": "uint256",
          "name": "specialTokenID",
          "type": "uint256"
        }
      ],
      "name": "returnSpecialToken",
      "outputs": [],
      "stateMutability": "nonpayable",
      "type": "function"
    },
    {
      "inputs": [
        {
          "internalType": "uint256",
          "name": "xclusiveRydePassID",
          "type": "uint256"
        },
        {
          "internalType": "uint256",
          "name": "price",
          "type": "uint256"
        }
      ],
      "name": "setXclusivePassPrice",
      "outputs": [],
      "stateMutability": "nonpayable",
      "type": "function"
    },
    {
      "inputs": [
        {
          "internalType": "address[]",
          "name": "to",
          "type": "address[]"
        }
      ],
      "name": "mintBatchXclusiveRydePass",
      "outputs": [],
      "stateMutability": "payable",
      "type": "function"
    },
    {
      "inputs": [
        {
          "internalType": "address",
          "name": "from",
          "type": "address"
        },
        {
          "internalType": "address[]",
          "name": "to",
          "type": "address[]"
        },
        {
          "internalType": "uint256[]",
          "name": "tokenId",
          "type": "uint256[]"
        }
      ],
      "name": "transferBatch",
      "outputs": [],
      "stateMutability": "nonpayable",
      "type": "function"
    },
    {
      "inputs": [
        {
          "internalType": "address",
          "name": "from",
          "type": "address"
        },
        {
          "internalType": "address[]",
          "name": "to",
          "type": "address[]"
        },
        {
          "internalType": "uint256[]",
          "name": "tokenId",
          "type": "uint256[]"
        }
      ],
      "name": "transferBatchXclusiveRydePass",
      "outputs": [],
      "stateMutability": "nonpayable",
      "type": "function"
    },
    {
      "inputs": [
        {
          "internalType": "string",
          "name": "fromLocation",
          "type": "string"
        },
        {
          "internalType": "string",
          "name": "toLocation",
          "type": "string"
        }
      ],
      "name": "createRideRequest",
      "outputs": [],
      "stateMutability": "nonpayable",
      "type": "function"
    },
    {
      "inputs": [],
      "name": "viewRideRequests",
      "outputs": [
        {
          "components": [
            {
              "internalType": "address",
              "name": "rider",
              "type": "address"
            },
            {
              "internalType": "string",
              "name": "fromLocation",
              "type": "string"
            },
            {
              "internalType": "string",
              "name": "toLocation",
              "type": "string"
            }
          ],
          "internalType": "struct RydeAsset.RideRequest[]",
          "name": "",
          "type": "tuple[]"
        }
      ],
      "stateMutability": "view",
      "type": "function"
    }
  ],
  "bytecode": "0x6080604052600a60045560026007556000600a553480156200002057600080fd5b5060405162005aae38038062005aae8339818101604052810190620000469190620002e5565b336040518060400160405280600681526020017f61626364636500000000000000000000000000000000000000000000000000008152506200008e81620001a060201b60201c565b50600073ffffffffffffffffffffffffffffffffffffffff168173ffffffffffffffffffffffffffffffffffffffff1603620001045760006040517f1e4fbdf7000000000000000000000000000000000000000000000000000000008152600401620000fb91906200033d565b60405180910390fd5b6200011581620001b560201b60201c565b5081600560006101000a81548173ffffffffffffffffffffffffffffffffffffffff021916908373ffffffffffffffffffffffffffffffffffffffff16021790555080600660006101000a81548173ffffffffffffffffffffffffffffffffffffffff021916908373ffffffffffffffffffffffffffffffffffffffff1602179055505050620006bb565b8060029081620001b19190620005d4565b5050565b6000600360009054906101000a900473ffffffffffffffffffffffffffffffffffffffff16905081600360006101000a81548173ffffffffffffffffffffffffffffffffffffffff021916908373ffffffffffffffffffffffffffffffffffffffff1602179055508173ffffffffffffffffffffffffffffffffffffffff168173ffffffffffffffffffffffffffffffffffffffff167f8be0079c531659141344cd1fd0a4f28419497f9722a3daafe3b4186f6b6457e060405160405180910390a35050565b600080fd5b600073ffffffffffffffffffffffffffffffffffffffff82169050919050565b6000620002ad8262000280565b9050919050565b620002bf81620002a0565b8114620002cb57600080fd5b50565b600081519050620002df81620002b4565b92915050565b60008060408385031215620002ff57620002fe6200027b565b5b60006200030f85828601620002ce565b92505060206200032285828601620002ce565b9150509250929050565b6200033781620002a0565b82525050565b60006020820190506200035460008301846200032c565b92915050565b600081519050919050565b7f4e487b7100000000000000000000000000000000000000000000000000000000600052604160045260246000fd5b7f4e487b7100000000000000000000000000000000000000000000000000000000600052602260045260246000fd5b60006002820490506001821680620003dc57607f821691505b602082108103620003f257620003f162000394565b5b50919050565b60008190508160005260206000209050919050565b60006020601f8301049050919050565b600082821b905092915050565b6000600883026200045c7fffffffffffffffffffffffffffffffffffffffffffffffffffffffffffffffff826200041d565b6200046886836200041d565b95508019841693508086168417925050509392505050565b6000819050919050565b6000819050919050565b6000620004b5620004af620004a98462000480565b6200048a565b62000480565b9050919050565b6000819050919050565b620004d18362000494565b620004e9620004e082620004bc565b8484546200042a565b825550505050565b600090565b62000500620004f1565b6200050d818484620004c6565b505050565b5b81811015620005355762000529600082620004f6565b60018101905062000513565b5050565b601f82111562000584576200054e81620003f8565b62000559846200040d565b8101602085101562000569578190505b6200058162000578856200040d565b83018262000512565b50505b505050565b600082821c905092915050565b6000620005a96000198460080262000589565b1980831691505092915050565b6000620005c4838362000596565b9150826002028217905092915050565b620005df826200035a565b67ffffffffffffffff811115620005fb57620005fa62000365565b5b620006078254620003c3565b6200061482828562000539565b600060209050601f8311600181146200064c576000841562000637578287015190505b620006438582620005b6565b865550620006b3565b601f1984166200065c86620003f8565b60005b8281101562000686578489015182556001820191506020850194506020810190506200065f565b86831015620006a65784890151620006a2601f89168262000596565b8355505b6001600288020188555050505b505050505050565b6153e380620006cb6000396000f3fe6080604052600436106102505760003560e01c80637b44b5f911610139578063c002d23d116100b6578063dee6524f1161007a578063dee6524f146108e2578063e418195f14610920578063e985e9c514610949578063f242432a14610986578063f2fde38b146109af578063fb7e1dc8146109d857610250565b8063c002d23d146107d7578063c2e4497714610802578063c4d952da1461082b578063ccbc3e6114610868578063d4d7ffee146108a557610250565b8063a22cb465116100fd578063a22cb465146106ed578063b3154c0814610716578063b846dbb114610753578063bcc601ab1461077c578063bfd21b83146107bb57610250565b80637b44b5f91461060a5780637e3a7b8c146106335780638da5cb5b1461065c5780638fd10f72146106875780639473ca82146106b057610250565b806331573769116101d25780634e1273f4116101965780634e1273f4146104fa578063555feae8146105375780636605899914610562578063715018a614610579578063732372011461059057806374d5e100146105cd57610250565b8063315737691461042957806333fe8984146104665780633eef3b861461048f578063450efe21146104a65780634d764643146104e357610250565b806311eb62c41161021957806311eb62c414610360578063225db2991461038b578063249cbab6146103a757806327820851146103c35780632eb2c2d61461040057610250565b8062fdd58e1461025557806301ffc9a7146102925780630886fc08146102cf5780630d00d87f146102fa5780630e89341c14610323575b600080fd5b34801561026157600080fd5b5061027c600480360381019061027791906138d9565b6109f4565b6040516102899190613928565b60405180910390f35b34801561029e57600080fd5b506102b960048036038101906102b4919061399b565b610a4e565b6040516102c691906139e3565b60405180910390f35b3480156102db57600080fd5b506102e4610b30565b6040516102f19190613a5d565b60405180910390f35b34801561030657600080fd5b50610321600480360381019061031c9190613a78565b610b56565b005b34801561032f57600080fd5b5061034a60048036038101906103459190613acb565b610bec565b6040516103579190613b88565b60405180910390f35b34801561036c57600080fd5b50610375610c80565b6040516103829190613d1c565b60405180910390f35b6103a560048036038101906103a09190613d3e565b610eba565b005b6103c160048036038101906103bc9190613acb565b611250565b005b3480156103cf57600080fd5b506103ea60048036038101906103e59190613d7e565b611382565b6040516103f79190613e22565b60405180910390f35b34801561040c57600080fd5b506104276004803603810190610422919061403a565b6113d8565b005b34801561043557600080fd5b50610450600480360381019061044b9190613acb565b611480565b60405161045d9190613928565b60405180910390f35b34801561047257600080fd5b5061048d600480360381019061048891906141cc565b611498565b005b34801561049b57600080fd5b506104a46115c6565b005b3480156104b257600080fd5b506104cd60048036038101906104c89190613d7e565b611630565b6040516104da9190614315565b60405180910390f35b3480156104ef57600080fd5b506104f86116da565b005b34801561050657600080fd5b50610521600480360381019061051c9190614337565b611744565b60405161052e9190614315565b60405180910390f35b34801561054357600080fd5b5061054c611853565b60405161055991906143d0565b60405180910390f35b34801561056e57600080fd5b50610577611879565b005b34801561058557600080fd5b5061058e611905565b005b34801561059c57600080fd5b506105b760048036038101906105b29190613acb565b611919565b6040516105c49190613928565b60405180910390f35b3480156105d957600080fd5b506105f460048036038101906105ef9190613d7e565b611931565b6040516106019190613e22565b60405180910390f35b34801561061657600080fd5b50610631600480360381019061062c9190613d3e565b611951565b005b34801561063f57600080fd5b5061065a60048036038101906106559190613acb565b611a76565b005b34801561066857600080fd5b50610671611bb4565b60405161067e91906143fa565b60405180910390f35b34801561069357600080fd5b506106ae60048036038101906106a991906141cc565b611bde565b005b3480156106bc57600080fd5b506106d760048036038101906106d29190613acb565b611ced565b6040516106e49190613b88565b60405180910390f35b3480156106f957600080fd5b50610714600480360381019061070f9190614441565b611d8d565b005b34801561072257600080fd5b5061073d60048036038101906107389190613acb565b611da3565b60405161074a9190613b88565b60405180910390f35b34801561075f57600080fd5b5061077a60048036038101906107759190614522565b611e48565b005b34801561078857600080fd5b506107a3600480360381019061079e9190613acb565b612011565b6040516107b29392919061459a565b60405180910390f35b6107d560048036038101906107d09190613d7e565b61216b565b005b3480156107e357600080fd5b506107ec6121fc565b6040516107f99190613928565b60405180910390f35b34801561080e57600080fd5b5061082960048036038101906108249190613acb565b612202565b005b34801561083757600080fd5b50610852600480360381019061084d9190613d7e565b612292565b60405161085f9190613928565b60405180910390f35b34801561087457600080fd5b5061088f600480360381019061088a9190613d7e565b612337565b60405161089c9190614315565b60405180910390f35b3480156108b157600080fd5b506108cc60048036038101906108c79190613d7e565b6124b0565b6040516108d99190613928565b60405180910390f35b3480156108ee57600080fd5b5061090960048036038101906109049190613acb565b612555565b6040516109179291906145df565b60405180910390f35b34801561092c57600080fd5b5061094760048036038101906109429190613a78565b612579565b005b34801561095557600080fd5b50610970600480360381019061096b9190614608565b612730565b60405161097d91906139e3565b60405180910390f35b34801561099257600080fd5b506109ad60048036038101906109a89190614648565b6127c4565b005b3480156109bb57600080fd5b506109d660048036038101906109d19190613d7e565b61286c565b005b6109f260048036038101906109ed91906146df565b6128f2565b005b600080600083815260200190815260200160002060008473ffffffffffffffffffffffffffffffffffffffff1673ffffffffffffffffffffffffffffffffffffffff16815260200190815260200160002054905092915050565b60007fd9b67a26000000000000000000000000000000000000000000000000000000007bffffffffffffffffffffffffffffffffffffffffffffffffffffffff1916827bffffffffffffffffffffffffffffffffffffffffffffffffffffffff19161480610b1957507f0e89341c000000000000000000000000000000000000000000000000000000007bffffffffffffffffffffffffffffffffffffffffffffffffffffffff1916827bffffffffffffffffffffffffffffffffffffffffffffffffffffffff1916145b80610b295750610b2882612a0f565b5b9050919050565b600560009054906101000a900473ffffffffffffffffffffffffffffffffffffffff1681565b600660009054906101000a900473ffffffffffffffffffffffffffffffffffffffff1673ffffffffffffffffffffffffffffffffffffffff166323b872dd8484846040518463ffffffff1660e01b8152600401610bb593929190614728565b600060405180830381600087803b158015610bcf57600080fd5b505af1158015610be3573d6000803e3d6000fd5b50505050505050565b606060028054610bfb9061478e565b80601f0160208091040260200160405190810160405280929190818152602001828054610c279061478e565b8015610c745780601f10610c4957610100808354040283529160200191610c74565b820191906000526020600020905b815481529060010190602001808311610c5757829003601f168201915b50505050509050919050565b60606000600a5467ffffffffffffffff811115610ca057610c9f613e42565b5b604051908082528060200260200182016040528015610cd957816020015b610cc66137fa565b815260200190600190039081610cbe5790505b50905060005b600a54811015610eb257600b60008281526020019081526020016000206040518060600160405290816000820160009054906101000a900473ffffffffffffffffffffffffffffffffffffffff1673ffffffffffffffffffffffffffffffffffffffff1673ffffffffffffffffffffffffffffffffffffffff168152602001600182018054610d6d9061478e565b80601f0160208091040260200160405190810160405280929190818152602001828054610d999061478e565b8015610de65780601f10610dbb57610100808354040283529160200191610de6565b820191906000526020600020905b815481529060010190602001808311610dc957829003601f168201915b50505050508152602001600282018054610dff9061478e565b80601f0160208091040260200160405190810160405280929190818152602001828054610e2b9061478e565b8015610e785780601f10610e4d57610100808354040283529160200191610e78565b820191906000526020600020905b815481529060010190602001808311610e5b57829003601f168201915b505050505081525050828281518110610e9457610e936147bf565b5b60200260200101819052508080610eaa9061481d565b915050610cdf565b508091505090565b81600560009054906101000a900473ffffffffffffffffffffffffffffffffffffffff1673ffffffffffffffffffffffffffffffffffffffff1663cca3e832336040518263ffffffff1660e01b8152600401610f1691906143fa565b602060405180830381865afa158015610f33573d6000803e3d6000fd5b505050506040513d601f19601f82011682018060405250810190610f57919061487a565b1015610f98576040517f08c379a0000000000000000000000000000000000000000000000000000000008152600401610f8f906148f3565b60405180910390fd5b3373ffffffffffffffffffffffffffffffffffffffff16600660009054906101000a900473ffffffffffffffffffffffffffffffffffffffff1673ffffffffffffffffffffffffffffffffffffffff16636352211e836040518263ffffffff1660e01b815260040161100a9190613928565b602060405180830381865afa158015611027573d6000803e3d6000fd5b505050506040513d601f19601f8201168201806040525081019061104b9190614928565b73ffffffffffffffffffffffffffffffffffffffff16146110a1576040517f08c379a0000000000000000000000000000000000000000000000000000000008152600401611098906149c7565b60405180910390fd5b600560009054906101000a900473ffffffffffffffffffffffffffffffffffffffff1673ffffffffffffffffffffffffffffffffffffffff166323b872dd3330856040518463ffffffff1660e01b815260040161110093929190614728565b6020604051808303816000875af115801561111f573d6000803e3d6000fd5b505050506040513d601f19601f8201168201806040525081019061114391906149fc565b50600660009054906101000a900473ffffffffffffffffffffffffffffffffffffffff1673ffffffffffffffffffffffffffffffffffffffff166323b872dd3330846040518463ffffffff1660e01b81526004016111a393929190614728565b600060405180830381600087803b1580156111bd57600080fd5b505af11580156111d1573d6000803e3d6000fd5b50505050604051806040016040528083815260200182815250600d60006007548152602001908152602001600020600082015181600001556020820151816001015590505061123433600754600160405180602001604052806000815250612a79565b600760008154809291906112479061481d565b91905055505050565b600560009054906101000a900473ffffffffffffffffffffffffffffffffffffffff1673ffffffffffffffffffffffffffffffffffffffff16632d296bf134836040518363ffffffff1660e01b81526004016112ac9190613928565b6000604051808303818588803b1580156112c557600080fd5b505af11580156112d9573d6000803e3d6000fd5b5050505050600560009054906101000a900473ffffffffffffffffffffffffffffffffffffffff1673ffffffffffffffffffffffffffffffffffffffff1663a9059cbb33836040518363ffffffff1660e01b815260040161133b929190614a29565b6020604051808303816000875af115801561135a573d6000803e3d6000fd5b505050506040513d601f19601f8201168201806040525081019061137e91906149fc565b5050565b6000600960008373ffffffffffffffffffffffffffffffffffffffff1673ffffffffffffffffffffffffffffffffffffffff16815260200190815260200160002060009054906101000a900460ff169050919050565b60006113e2612b12565b90508073ffffffffffffffffffffffffffffffffffffffff168673ffffffffffffffffffffffffffffffffffffffff161415801561142757506114258682612730565b155b1561146b5780866040517fe237d922000000000000000000000000000000000000000000000000000000008152600401611462929190614a52565b60405180910390fd5b6114788686868686612b1a565b505050505050565b600e6020528060005260406000206000915090505481565b80518251146114dc576040517f08c379a00000000000000000000000000000000000000000000000000000000081526004016114d390614ac7565b60405180910390fd5b60005b82518110156115c057600660009054906101000a900473ffffffffffffffffffffffffffffffffffffffff1673ffffffffffffffffffffffffffffffffffffffff166323b872dd8585848151811061153a576115396147bf565b5b6020026020010151858581518110611555576115546147bf565b5b60200260200101516040518463ffffffff1660e01b815260040161157b93929190614728565b600060405180830381600087803b15801561159557600080fd5b505af11580156115a9573d6000803e3d6000fd5b5050505080806115b89061481d565b9150506114df565b50505050565b6001600960003373ffffffffffffffffffffffffffffffffffffffff1673ffffffffffffffffffffffffffffffffffffffff16815260200190815260200160002060006101000a81548160ff0219169083600281111561162957611628613dab565b5b0217905550565b6060600660009054906101000a900473ffffffffffffffffffffffffffffffffffffffff1673ffffffffffffffffffffffffffffffffffffffff1663450efe21836040518263ffffffff1660e01b815260040161168d91906143fa565b600060405180830381865afa1580156116aa573d6000803e3d6000fd5b505050506040513d6000823e3d601f19601f820116820180604052508101906116d39190614b7e565b9050919050565b6002600960003373ffffffffffffffffffffffffffffffffffffffff1673ffffffffffffffffffffffffffffffffffffffff16815260200190815260200160002060006101000a81548160ff0219169083600281111561173d5761173c613dab565b5b0217905550565b6060815183511461179057815183516040517f5b0599910000000000000000000000000000000000000000000000000000000081526004016117879291906145df565b60405180910390fd5b6000835167ffffffffffffffff8111156117ad576117ac613e42565b5b6040519080825280602002602001820160405280156117db5781602001602082028036833780820191505090505b50905060005b8451811015611848576118186118008287612c1290919063ffffffff16565b6118138387612c2690919063ffffffff16565b6109f4565b82828151811061182b5761182a6147bf565b5b602002602001018181525050806118419061481d565b90506117e1565b508091505092915050565b600660009054906101000a900473ffffffffffffffffffffffffffffffffffffffff1681565b611881612c3a565b600560009054906101000a900473ffffffffffffffffffffffffffffffffffffffff1673ffffffffffffffffffffffffffffffffffffffff16633ccfd60b6040518163ffffffff1660e01b8152600401600060405180830381600087803b1580156118eb57600080fd5b505af11580156118ff573d6000803e3d6000fd5b50505050565b61190d612c3a565b6119176000612cc1565b565b600c6020528060005260406000206000915090505481565b60096020528060005260406000206000915054906101000a900460ff1681565b3373ffffffffffffffffffffffffffffffffffffffff16600660009054906101000a900473ffffffffffffffffffffffffffffffffffffffff1673ffffffffffffffffffffffffffffffffffffffff16636352211e846040518263ffffffff1660e01b81526004016119c39190613928565b602060405180830381865afa1580156119e0573d6000803e3d6000fd5b505050506040513d601f19601f82011682018060405250810190611a049190614928565b73ffffffffffffffffffffffffffffffffffffffff1614611a5a576040517f08c379a0000000000000000000000000000000000000000000000000000000008152600401611a51906149c7565b60405180910390fd5b80600e6000848152602001908152602001600020819055505050565b6000611a8233836109f4565b11611ac2576040517f08c379a0000000000000000000000000000000000000000000000000000000008152600401611ab990614c39565b60405180910390fd5b600060029050600560009054906101000a900473ffffffffffffffffffffffffffffffffffffffff1673ffffffffffffffffffffffffffffffffffffffff1663a9059cbb3383600d600087815260200190815260200160002060000154611b299190614c59565b6040518363ffffffff1660e01b8152600401611b46929190614a29565b6020604051808303816000875af1158015611b65573d6000803e3d6000fd5b505050506040513d601f19601f82011682018060405250810190611b8991906149fc565b50600d6000838152602001908152602001600020600080820160009055600182016000905550505050565b6000600360009054906101000a900473ffffffffffffffffffffffffffffffffffffffff16905090565b8051825114611c22576040517f08c379a0000000000000000000000000000000000000000000000000000000008152600401611c1990614ac7565b60405180910390fd5b6000825167ffffffffffffffff811115611c3f57611c3e613e42565b5b604051908082528060200260200182016040528015611c6d5781602001602082028036833780820191505090505b50905060005b8351811015611ce6576001828281518110611c9157611c906147bf565b5b602002602001018181525050611cd385858381518110611cb457611cb36147bf565b5b60200260200101518585604051806020016040528060008152506113d8565b8080611cde9061481d565b915050611c73565b5050505050565b60086020528060005260406000206000915090508054611d0c9061478e565b80601f0160208091040260200160405190810160405280929190818152602001828054611d389061478e565b8015611d855780601f10611d5a57610100808354040283529160200191611d85565b820191906000526020600020905b815481529060010190602001808311611d6857829003601f168201915b505050505081565b611d9f611d98612b12565b8383612d87565b5050565b6060600860008381526020019081526020016000208054611dc39061478e565b80601f0160208091040260200160405190810160405280929190818152602001828054611def9061478e565b8015611e3c5780601f10611e1157610100808354040283529160200191611e3c565b820191906000526020600020905b815481529060010190602001808311611e1f57829003601f168201915b50505050509050919050565b600280811115611e5b57611e5a613dab565b5b600960003373ffffffffffffffffffffffffffffffffffffffff1673ffffffffffffffffffffffffffffffffffffffff16815260200190815260200160002060009054906101000a900460ff166002811115611eba57611eb9613dab565b5b14611efa576040517f08c379a0000000000000000000000000000000000000000000000000000000008152600401611ef190614cd9565b60405180910390fd5b60405180606001604052803373ffffffffffffffffffffffffffffffffffffffff16815260200183815260200182815250600b6000600a54815260200190815260200160002060008201518160000160006101000a81548173ffffffffffffffffffffffffffffffffffffffff021916908373ffffffffffffffffffffffffffffffffffffffff1602179055506020820151816001019081611f9c9190614e9b565b506040820151816002019081611fb29190614e9b565b509050507f1b39921b0c3b3e4abd130e7e0151bc5afe1f68079df42ee5627682c2841d9433600a54338484604051611fed9493929190614f6d565b60405180910390a1600a60008154809291906120089061481d565b91905055505050565b600b6020528060005260406000206000915090508060000160009054906101000a900473ffffffffffffffffffffffffffffffffffffffff169080600101805461205a9061478e565b80601f01602080910402602001604051908101604052809291908181526020018280546120869061478e565b80156120d35780601f106120a8576101008083540402835291602001916120d3565b820191906000526020600020905b8154815290600101906020018083116120b657829003601f168201915b5050505050908060020180546120e89061478e565b80601f01602080910402602001604051908101604052809291908181526020018280546121149061478e565b80156121615780601f1061213657610100808354040283529160200191612161565b820191906000526020600020905b81548152906001019060200180831161214457829003601f168201915b5050505050905083565b600660009054906101000a900473ffffffffffffffffffffffffffffffffffffffff1673ffffffffffffffffffffffffffffffffffffffff166340d097c334836040518363ffffffff1660e01b81526004016121c791906143fa565b6000604051808303818588803b1580156121e057600080fd5b505af11580156121f4573d6000803e3d6000fd5b505050505050565b60045481565b600560009054906101000a900473ffffffffffffffffffffffffffffffffffffffff1673ffffffffffffffffffffffffffffffffffffffff16632397e4d7826040518263ffffffff1660e01b815260040161225d9190613928565b600060405180830381600087803b15801561227757600080fd5b505af115801561228b573d6000803e3d6000fd5b5050505050565b6000600660009054906101000a900473ffffffffffffffffffffffffffffffffffffffff1673ffffffffffffffffffffffffffffffffffffffff166370a08231836040518263ffffffff1660e01b81526004016122ef91906143fa565b602060405180830381865afa15801561230c573d6000803e3d6000fd5b505050506040513d601f19601f82011682018060405250810190612330919061487a565b9050919050565b6060813373ffffffffffffffffffffffffffffffffffffffff168173ffffffffffffffffffffffffffffffffffffffff1614806123a657503373ffffffffffffffffffffffffffffffffffffffff1661238e611bb4565b73ffffffffffffffffffffffffffffffffffffffff16145b6123e5576040517f08c379a00000000000000000000000000000000000000000000000000000000081526004016123dc90615032565b60405180910390fd5b60006123f28460026109f4565b905060008167ffffffffffffffff8111156124105761240f613e42565b5b60405190808252806020026020018201604052801561243e5781602001602082028036833780820191505090505b5090506000805b6007548110156124a357600061245b88836109f4565b11156124905780838381518110612475576124746147bf565b5b602002602001018181525050818061248c9061481d565b9250505b808061249b9061481d565b915050612445565b5081945050505050919050565b6000600560009054906101000a900473ffffffffffffffffffffffffffffffffffffffff1673ffffffffffffffffffffffffffffffffffffffff1663cca3e832836040518263ffffffff1660e01b815260040161250d91906143fa565b602060405180830381865afa15801561252a573d6000803e3d6000fd5b505050506040513d601f19601f8201168201806040525081019061254e919061487a565b9050919050565b600d6020528060005260406000206000915090508060000154908060010154905082565b600081116125bc576040517f08c379a00000000000000000000000000000000000000000000000000000000081526004016125b39061509e565b60405180910390fd5b80600560009054906101000a900473ffffffffffffffffffffffffffffffffffffffff1673ffffffffffffffffffffffffffffffffffffffff1663cca3e832856040518263ffffffff1660e01b815260040161261891906143fa565b602060405180830381865afa158015612635573d6000803e3d6000fd5b505050506040513d601f19601f82011682018060405250810190612659919061487a565b101561269a576040517f08c379a00000000000000000000000000000000000000000000000000000000081526004016126919061510a565b60405180910390fd5b600560009054906101000a900473ffffffffffffffffffffffffffffffffffffffff1673ffffffffffffffffffffffffffffffffffffffff16632e7840458484846040518463ffffffff1660e01b81526004016126f993929190614728565b600060405180830381600087803b15801561271357600080fd5b505af1158015612727573d6000803e3d6000fd5b50505050505050565b6000600160008473ffffffffffffffffffffffffffffffffffffffff1673ffffffffffffffffffffffffffffffffffffffff16815260200190815260200160002060008373ffffffffffffffffffffffffffffffffffffffff1673ffffffffffffffffffffffffffffffffffffffff16815260200190815260200160002060009054906101000a900460ff16905092915050565b60006127ce612b12565b90508073ffffffffffffffffffffffffffffffffffffffff168673ffffffffffffffffffffffffffffffffffffffff161415801561281357506128118682612730565b155b156128575780866040517fe237d92200000000000000000000000000000000000000000000000000000000815260040161284e929190614a52565b60405180910390fd5b6128648686868686612ef7565b505050505050565b612874612c3a565b600073ffffffffffffffffffffffffffffffffffffffff168173ffffffffffffffffffffffffffffffffffffffff16036128e65760006040517f1e4fbdf70000000000000000000000000000000000000000000000000000000081526004016128dd91906143fa565b60405180910390fd5b6128ef81612cc1565b50565b8051600454612901919061512a565b3414612942576040517f08c379a0000000000000000000000000000000000000000000000000000000008152600401612939906151b8565b60405180910390fd5b60005b8151811015612a0b57600660009054906101000a900473ffffffffffffffffffffffffffffffffffffffff1673ffffffffffffffffffffffffffffffffffffffff166340d097c36004548484815181106129a2576129a16147bf565b5b60200260200101516040518363ffffffff1660e01b81526004016129c691906143fa565b6000604051808303818588803b1580156129df57600080fd5b505af11580156129f3573d6000803e3d6000fd5b50505050508080612a039061481d565b915050612945565b5050565b60007f01ffc9a7000000000000000000000000000000000000000000000000000000007bffffffffffffffffffffffffffffffffffffffffffffffffffffffff1916827bffffffffffffffffffffffffffffffffffffffffffffffffffffffff1916149050919050565b600073ffffffffffffffffffffffffffffffffffffffff168473ffffffffffffffffffffffffffffffffffffffff1603612aeb5760006040517f57f447ce000000000000000000000000000000000000000000000000000000008152600401612ae291906143fa565b60405180910390fd5b600080612af88585613002565b91509150612b0a600087848487613032565b505050505050565b600033905090565b600073ffffffffffffffffffffffffffffffffffffffff168473ffffffffffffffffffffffffffffffffffffffff1603612b8c5760006040517f57f447ce000000000000000000000000000000000000000000000000000000008152600401612b8391906143fa565b60405180910390fd5b600073ffffffffffffffffffffffffffffffffffffffff168573ffffffffffffffffffffffffffffffffffffffff1603612bfe5760006040517f01a83514000000000000000000000000000000000000000000000000000000008152600401612bf591906143fa565b60405180910390fd5b612c0b8585858585613032565b5050505050565b600060208202602084010151905092915050565b600060208202602084010151905092915050565b612c42612b12565b73ffffffffffffffffffffffffffffffffffffffff16612c60611bb4565b73ffffffffffffffffffffffffffffffffffffffff1614612cbf57612c83612b12565b6040517f118cdaa7000000000000000000000000000000000000000000000000000000008152600401612cb691906143fa565b60405180910390fd5b565b6000600360009054906101000a900473ffffffffffffffffffffffffffffffffffffffff16905081600360006101000a81548173ffffffffffffffffffffffffffffffffffffffff021916908373ffffffffffffffffffffffffffffffffffffffff1602179055508173ffffffffffffffffffffffffffffffffffffffff168173ffffffffffffffffffffffffffffffffffffffff167f8be0079c531659141344cd1fd0a4f28419497f9722a3daafe3b4186f6b6457e060405160405180910390a35050565b600073ffffffffffffffffffffffffffffffffffffffff168273ffffffffffffffffffffffffffffffffffffffff1603612df95760006040517fced3e100000000000000000000000000000000000000000000000000000000008152600401612df091906143fa565b60405180910390fd5b80600160008573ffffffffffffffffffffffffffffffffffffffff1673ffffffffffffffffffffffffffffffffffffffff16815260200190815260200160002060008473ffffffffffffffffffffffffffffffffffffffff1673ffffffffffffffffffffffffffffffffffffffff16815260200190815260200160002060006101000a81548160ff0219169083151502179055508173ffffffffffffffffffffffffffffffffffffffff168373ffffffffffffffffffffffffffffffffffffffff167f17307eab39ab6107e8899845ad3d59bd9653f200f220920489ca2b5937696c3183604051612eea91906139e3565b60405180910390a3505050565b600073ffffffffffffffffffffffffffffffffffffffff168473ffffffffffffffffffffffffffffffffffffffff1603612f695760006040517f57f447ce000000000000000000000000000000000000000000000000000000008152600401612f6091906143fa565b60405180910390fd5b600073ffffffffffffffffffffffffffffffffffffffff168573ffffffffffffffffffffffffffffffffffffffff1603612fdb5760006040517f01a83514000000000000000000000000000000000000000000000000000000008152600401612fd291906143fa565b60405180910390fd5b600080612fe88585613002565b91509150612ff98787848487613032565b50505050505050565b60608060405191506001825283602083015260408201905060018152826020820152604081016040529250929050565b61303e858585856130e4565b600073ffffffffffffffffffffffffffffffffffffffff168473ffffffffffffffffffffffffffffffffffffffff16146130dd57600061307c612b12565b905060018451036130cc57600061309d600086612c2690919063ffffffff16565b905060006130b5600086612c2690919063ffffffff16565b90506130c5838989858589613492565b50506130db565b6130da818787878787613646565b5b505b5050505050565b805182511461312e57815181516040517f5b0599910000000000000000000000000000000000000000000000000000000081526004016131259291906145df565b60405180910390fd5b6000613138612b12565b905060005b835181101561334d57600061315b8286612c2690919063ffffffff16565b905060006131728386612c2690919063ffffffff16565b9050600073ffffffffffffffffffffffffffffffffffffffff168873ffffffffffffffffffffffffffffffffffffffff161461329f57600080600084815260200190815260200160002060008a73ffffffffffffffffffffffffffffffffffffffff1673ffffffffffffffffffffffffffffffffffffffff1681526020019081526020016000205490508181101561324757888183856040517f03dee4c500000000000000000000000000000000000000000000000000000000815260040161323e94939291906151d8565b60405180910390fd5b81810360008085815260200190815260200160002060008b73ffffffffffffffffffffffffffffffffffffffff1673ffffffffffffffffffffffffffffffffffffffff16815260200190815260200160002081905550505b600073ffffffffffffffffffffffffffffffffffffffff168773ffffffffffffffffffffffffffffffffffffffff161461333a578060008084815260200190815260200160002060008973ffffffffffffffffffffffffffffffffffffffff1673ffffffffffffffffffffffffffffffffffffffff16815260200190815260200160002060008282546133329190614c59565b925050819055505b5050806133469061481d565b905061313d565b50600183510361340c57600061336d600085612c2690919063ffffffff16565b90506000613385600085612c2690919063ffffffff16565b90508573ffffffffffffffffffffffffffffffffffffffff168773ffffffffffffffffffffffffffffffffffffffff168473ffffffffffffffffffffffffffffffffffffffff167fc3d58168c5ae7397731d063d5bbf3d657854427343f4c083240f7aacaa2d0f6285856040516133fd9291906145df565b60405180910390a4505061348b565b8373ffffffffffffffffffffffffffffffffffffffff168573ffffffffffffffffffffffffffffffffffffffff168273ffffffffffffffffffffffffffffffffffffffff167f4a39dc06d4c0dbc64b70af90fd698a233a518aa5d07e595d983b8c0526c8f7fb868660405161348292919061521d565b60405180910390a45b5050505050565b60008473ffffffffffffffffffffffffffffffffffffffff163b111561363e578373ffffffffffffffffffffffffffffffffffffffff1663f23a6e6187878686866040518663ffffffff1660e01b81526004016134f39594939291906152a9565b6020604051808303816000875af192505050801561352f57506040513d601f19601f8201168201806040525081019061352c9190615318565b60015b6135b3573d806000811461355f576040519150601f19603f3d011682016040523d82523d6000602084013e613564565b606091505b5060008151036135ab57846040517f57f447ce0000000000000000000000000000000000000000000000000000000081526004016135a291906143fa565b60405180910390fd5b805181602001fd5b63f23a6e6160e01b7bffffffffffffffffffffffffffffffffffffffffffffffffffffffff1916817bffffffffffffffffffffffffffffffffffffffffffffffffffffffff19161461363c57846040517f57f447ce00000000000000000000000000000000000000000000000000000000815260040161363391906143fa565b60405180910390fd5b505b505050505050565b60008473ffffffffffffffffffffffffffffffffffffffff163b11156137f2578373ffffffffffffffffffffffffffffffffffffffff1663bc197c8187878686866040518663ffffffff1660e01b81526004016136a7959493929190615345565b6020604051808303816000875af19250505080156136e357506040513d601f19601f820116820180604052508101906136e09190615318565b60015b613767573d8060008114613713576040519150601f19603f3d011682016040523d82523d6000602084013e613718565b606091505b50600081510361375f57846040517f57f447ce00000000000000000000000000000000000000000000000000000000815260040161375691906143fa565b60405180910390fd5b805181602001fd5b63bc197c8160e01b7bffffffffffffffffffffffffffffffffffffffffffffffffffffffff1916817bffffffffffffffffffffffffffffffffffffffffffffffffffffffff1916146137f057846040517f57f447ce0000000000000000000000000000000000000000000000000000000081526004016137e791906143fa565b60405180910390fd5b505b505050505050565b6040518060600160405280600073ffffffffffffffffffffffffffffffffffffffff16815260200160608152602001606081525090565b6000604051905090565b600080fd5b600080fd5b600073ffffffffffffffffffffffffffffffffffffffff82169050919050565b600061387082613845565b9050919050565b61388081613865565b811461388b57600080fd5b50565b60008135905061389d81613877565b92915050565b6000819050919050565b6138b6816138a3565b81146138c157600080fd5b50565b6000813590506138d3816138ad565b92915050565b600080604083850312156138f0576138ef61383b565b5b60006138fe8582860161388e565b925050602061390f858286016138c4565b9150509250929050565b613922816138a3565b82525050565b600060208201905061393d6000830184613919565b92915050565b60007fffffffff0000000000000000000000000000000000000000000000000000000082169050919050565b61397881613943565b811461398357600080fd5b50565b6000813590506139958161396f565b92915050565b6000602082840312156139b1576139b061383b565b5b60006139bf84828501613986565b91505092915050565b60008115159050919050565b6139dd816139c8565b82525050565b60006020820190506139f860008301846139d4565b92915050565b6000819050919050565b6000613a23613a1e613a1984613845565b6139fe565b613845565b9050919050565b6000613a3582613a08565b9050919050565b6000613a4782613a2a565b9050919050565b613a5781613a3c565b82525050565b6000602082019050613a726000830184613a4e565b92915050565b600080600060608486031215613a9157613a9061383b565b5b6000613a9f8682870161388e565b9350506020613ab08682870161388e565b9250506040613ac1868287016138c4565b9150509250925092565b600060208284031215613ae157613ae061383b565b5b6000613aef848285016138c4565b91505092915050565b600081519050919050565b600082825260208201905092915050565b60005b83811015613b32578082015181840152602081019050613b17565b60008484015250505050565b6000601f19601f8301169050919050565b6000613b5a82613af8565b613b648185613b03565b9350613b74818560208601613b14565b613b7d81613b3e565b840191505092915050565b60006020820190508181036000830152613ba28184613b4f565b905092915050565b600081519050919050565b600082825260208201905092915050565b6000819050602082019050919050565b613bdf81613865565b82525050565b600082825260208201905092915050565b6000613c0182613af8565b613c0b8185613be5565b9350613c1b818560208601613b14565b613c2481613b3e565b840191505092915050565b6000606083016000830151613c476000860182613bd6565b5060208301518482036020860152613c5f8282613bf6565b91505060408301518482036040860152613c798282613bf6565b9150508091505092915050565b6000613c928383613c2f565b905092915050565b6000602082019050919050565b6000613cb282613baa565b613cbc8185613bb5565b935083602082028501613cce85613bc6565b8060005b85811015613d0a5784840389528151613ceb8582613c86565b9450613cf683613c9a565b925060208a01995050600181019050613cd2565b50829750879550505050505092915050565b60006020820190508181036000830152613d368184613ca7565b905092915050565b60008060408385031215613d5557613d5461383b565b5b6000613d63858286016138c4565b9250506020613d74858286016138c4565b9150509250929050565b600060208284031215613d9457613d9361383b565b5b6000613da28482850161388e565b91505092915050565b7f4e487b7100000000000000000000000000000000000000000000000000000000600052602160045260246000fd5b60038110613deb57613dea613dab565b5b50565b6000819050613dfc82613dda565b919050565b6000613e0c82613dee565b9050919050565b613e1c81613e01565b82525050565b6000602082019050613e376000830184613e13565b92915050565b600080fd5b7f4e487b7100000000000000000000000000000000000000000000000000000000600052604160045260246000fd5b613e7a82613b3e565b810181811067ffffffffffffffff82111715613e9957613e98613e42565b5b80604052505050565b6000613eac613831565b9050613eb88282613e71565b919050565b600067ffffffffffffffff821115613ed857613ed7613e42565b5b602082029050602081019050919050565b600080fd5b6000613f01613efc84613ebd565b613ea2565b90508083825260208201905060208402830185811115613f2457613f23613ee9565b5b835b81811015613f4d5780613f3988826138c4565b845260208401935050602081019050613f26565b5050509392505050565b600082601f830112613f6c57613f6b613e3d565b5b8135613f7c848260208601613eee565b91505092915050565b600080fd5b600067ffffffffffffffff821115613fa557613fa4613e42565b5b613fae82613b3e565b9050602081019050919050565b82818337600083830152505050565b6000613fdd613fd884613f8a565b613ea2565b905082815260208101848484011115613ff957613ff8613f85565b5b614004848285613fbb565b509392505050565b600082601f83011261402157614020613e3d565b5b8135614031848260208601613fca565b91505092915050565b600080600080600060a086880312156140565761405561383b565b5b60006140648882890161388e565b95505060206140758882890161388e565b945050604086013567ffffffffffffffff81111561409657614095613840565b5b6140a288828901613f57565b935050606086013567ffffffffffffffff8111156140c3576140c2613840565b5b6140cf88828901613f57565b925050608086013567ffffffffffffffff8111156140f0576140ef613840565b5b6140fc8882890161400c565b9150509295509295909350565b600067ffffffffffffffff82111561412457614123613e42565b5b602082029050602081019050919050565b600061414861414384614109565b613ea2565b9050808382526020820190506020840283018581111561416b5761416a613ee9565b5b835b818110156141945780614180888261388e565b84526020840193505060208101905061416d565b5050509392505050565b600082601f8301126141b3576141b2613e3d565b5b81356141c3848260208601614135565b91505092915050565b6000806000606084860312156141e5576141e461383b565b5b60006141f38682870161388e565b935050602084013567ffffffffffffffff81111561421457614213613840565b5b6142208682870161419e565b925050604084013567ffffffffffffffff81111561424157614240613840565b5b61424d86828701613f57565b9150509250925092565b600081519050919050565b600082825260208201905092915050565b6000819050602082019050919050565b61428c816138a3565b82525050565b600061429e8383614283565b60208301905092915050565b6000602082019050919050565b60006142c282614257565b6142cc8185614262565b93506142d783614273565b8060005b838110156143085781516142ef8882614292565b97506142fa836142aa565b9250506001810190506142db565b5085935050505092915050565b6000602082019050818103600083015261432f81846142b7565b905092915050565b6000806040838503121561434e5761434d61383b565b5b600083013567ffffffffffffffff81111561436c5761436b613840565b5b6143788582860161419e565b925050602083013567ffffffffffffffff81111561439957614398613840565b5b6143a585828601613f57565b9150509250929050565b60006143ba82613a2a565b9050919050565b6143ca816143af565b82525050565b60006020820190506143e560008301846143c1565b92915050565b6143f481613865565b82525050565b600060208201905061440f60008301846143eb565b92915050565b61441e816139c8565b811461442957600080fd5b50565b60008135905061443b81614415565b92915050565b600080604083850312156144585761445761383b565b5b60006144668582860161388e565b92505060206144778582860161442c565b9150509250929050565b600067ffffffffffffffff82111561449c5761449b613e42565b5b6144a582613b3e565b9050602081019050919050565b60006144c56144c084614481565b613ea2565b9050828152602081018484840111156144e1576144e0613f85565b5b6144ec848285613fbb565b509392505050565b600082601f83011261450957614508613e3d565b5b81356145198482602086016144b2565b91505092915050565b600080604083850312156145395761453861383b565b5b600083013567ffffffffffffffff81111561455757614556613840565b5b614563858286016144f4565b925050602083013567ffffffffffffffff81111561458457614583613840565b5b614590858286016144f4565b9150509250929050565b60006060820190506145af60008301866143eb565b81810360208301526145c18185613b4f565b905081810360408301526145d58184613b4f565b9050949350505050565b60006040820190506145f46000830185613919565b6146016020830184613919565b9392505050565b6000806040838503121561461f5761461e61383b565b5b600061462d8582860161388e565b925050602061463e8582860161388e565b9150509250929050565b600080600080600060a086880312156146645761466361383b565b5b60006146728882890161388e565b95505060206146838882890161388e565b9450506040614694888289016138c4565b93505060606146a5888289016138c4565b925050608086013567ffffffffffffffff8111156146c6576146c5613840565b5b6146d28882890161400c565b9150509295509295909350565b6000602082840312156146f5576146f461383b565b5b600082013567ffffffffffffffff81111561471357614712613840565b5b61471f8482850161419e565b91505092915050565b600060608201905061473d60008301866143eb565b61474a60208301856143eb565b6147576040830184613919565b949350505050565b7f4e487b7100000000000000000000000000000000000000000000000000000000600052602260045260246000fd5b600060028204905060018216806147a657607f821691505b6020821081036147b9576147b861475f565b5b50919050565b7f4e487b7100000000000000000000000000000000000000000000000000000000600052603260045260246000fd5b7f4e487b7100000000000000000000000000000000000000000000000000000000600052601160045260246000fd5b6000614828826138a3565b91507fffffffffffffffffffffffffffffffffffffffffffffffffffffffffffffffff820361485a576148596147ee565b5b600182019050919050565b600081519050614874816138ad565b92915050565b6000602082840312156148905761488f61383b565b5b600061489e84828501614865565b91505092915050565b7f4e6f7420656e6f75676820526964654b6f696e00000000000000000000000000600082015250565b60006148dd601383613b03565b91506148e8826148a7565b602082019050919050565b6000602082019050818103600083015261490c816148d0565b9050919050565b60008151905061492281613877565b92915050565b60006020828403121561493e5761493d61383b565b5b600061494c84828501614913565b91505092915050565b7f596f7520646f6e2774206f776e20746865207370656369666965642058636c7560008201527f7369766552796465506173730000000000000000000000000000000000000000602082015250565b60006149b1602c83613b03565b91506149bc82614955565b604082019050919050565b600060208201905081810360008301526149e0816149a4565b9050919050565b6000815190506149f681614415565b92915050565b600060208284031215614a1257614a1161383b565b5b6000614a20848285016149e7565b91505092915050565b6000604082019050614a3e60008301856143eb565b614a4b6020830184613919565b9392505050565b6000604082019050614a6760008301856143eb565b614a7460208301846143eb565b9392505050565b7f4172726179206c656e677468206d69736d617463680000000000000000000000600082015250565b6000614ab1601583613b03565b9150614abc82614a7b565b602082019050919050565b60006020820190508181036000830152614ae081614aa4565b9050919050565b6000614afa614af584613ebd565b613ea2565b90508083825260208201905060208402830185811115614b1d57614b1c613ee9565b5b835b81811015614b465780614b328882614865565b845260208401935050602081019050614b1f565b5050509392505050565b600082601f830112614b6557614b64613e3d565b5b8151614b75848260208601614ae7565b91505092915050565b600060208284031215614b9457614b9361383b565b5b600082015167ffffffffffffffff811115614bb257614bb1613840565b5b614bbe84828501614b50565b91505092915050565b7f596f7520646f6e2774206f776e2074686520737065636966696564207370656360008201527f69616c20746f6b656e0000000000000000000000000000000000000000000000602082015250565b6000614c23602983613b03565b9150614c2e82614bc7565b604082019050919050565b60006020820190508181036000830152614c5281614c16565b9050919050565b6000614c64826138a3565b9150614c6f836138a3565b9250828201905080821115614c8757614c866147ee565b5b92915050565b7f4f6e6c79207269646572732063616e2063726561746520726571756573747300600082015250565b6000614cc3601f83613b03565b9150614cce82614c8d565b602082019050919050565b60006020820190508181036000830152614cf281614cb6565b9050919050565b60008190508160005260206000209050919050565b60006020601f8301049050919050565b600082821b905092915050565b600060088302614d5b7fffffffffffffffffffffffffffffffffffffffffffffffffffffffffffffffff82614d1e565b614d658683614d1e565b95508019841693508086168417925050509392505050565b6000614d98614d93614d8e846138a3565b6139fe565b6138a3565b9050919050565b6000819050919050565b614db283614d7d565b614dc6614dbe82614d9f565b848454614d2b565b825550505050565b600090565b614ddb614dce565b614de6818484614da9565b505050565b5b81811015614e0a57614dff600082614dd3565b600181019050614dec565b5050565b601f821115614e4f57614e2081614cf9565b614e2984614d0e565b81016020851015614e38578190505b614e4c614e4485614d0e565b830182614deb565b50505b505050565b600082821c905092915050565b6000614e7260001984600802614e54565b1980831691505092915050565b6000614e8b8383614e61565b9150826002028217905092915050565b614ea482613af8565b67ffffffffffffffff811115614ebd57614ebc613e42565b5b614ec7825461478e565b614ed2828285614e0e565b600060209050601f831160018114614f055760008415614ef3578287015190505b614efd8582614e7f565b865550614f65565b601f198416614f1386614cf9565b60005b82811015614f3b57848901518255600182019150602085019450602081019050614f16565b86831015614f585784890151614f54601f891682614e61565b8355505b6001600288020188555050505b505050505050565b6000608082019050614f826000830187613919565b614f8f60208301866143eb565b8181036040830152614fa18185613b4f565b90508181036060830152614fb58184613b4f565b905095945050505050565b7f4e6f7420746865206f776e6572206f722074686520737065636966696564206f60008201527f776e720000000000000000000000000000000000000000000000000000000000602082015250565b600061501c602383613b03565b915061502782614fc0565b604082019050919050565b6000602082019050818103600083015261504b8161500f565b9050919050565b7f56616c7565206d7573742062652067726561746572207468616e203000000000600082015250565b6000615088601c83613b03565b915061509382615052565b602082019050919050565b600060208201905081810360008301526150b78161507b565b9050919050565b7f496e73756666696369656e7420526964654b6f696e2062616c616e6365000000600082015250565b60006150f4601d83613b03565b91506150ff826150be565b602082019050919050565b60006020820190508181036000830152615123816150e7565b9050919050565b6000615135826138a3565b9150615140836138a3565b925082820261514e816138a3565b91508282048414831517615165576151646147ee565b5b5092915050565b7f496e636f727265637420616d6f756e74206f662045746865722073656e740000600082015250565b60006151a2601e83613b03565b91506151ad8261516c565b602082019050919050565b600060208201905081810360008301526151d181615195565b9050919050565b60006080820190506151ed60008301876143eb565b6151fa6020830186613919565b6152076040830185613919565b6152146060830184613919565b95945050505050565b6000604082019050818103600083015261523781856142b7565b9050818103602083015261524b81846142b7565b90509392505050565b600081519050919050565b600082825260208201905092915050565b600061527b82615254565b615285818561525f565b9350615295818560208601613b14565b61529e81613b3e565b840191505092915050565b600060a0820190506152be60008301886143eb565b6152cb60208301876143eb565b6152d86040830186613919565b6152e56060830185613919565b81810360808301526152f78184615270565b90509695505050505050565b6000815190506153128161396f565b92915050565b60006020828403121561532e5761532d61383b565b5b600061533c84828501615303565b91505092915050565b600060a08201905061535a60008301886143eb565b61536760208301876143eb565b818103604083015261537981866142b7565b9050818103606083015261538d81856142b7565b905081810360808301526153a18184615270565b9050969550505050505056fea2646970667358221220abcdf714c4fdd9540c71e284935c91ceaac6b63127b7ed7bf892d947ff33d84264736f6c63430008140033",
  "immutableReferences": {},
  "source": "// SPDX-License-Identifier: MIT\r\npragma solidity ^0.8.20;\r\n\r\n\r\n\r\nimport \"@openzeppelin/contracts/token/ERC1155/ERC1155.sol\";\r\nimport \"@openzeppelin/contracts/access/Ownable.sol\";\r\nimport \"./RideKoin.sol\";\r\nimport \"./XclusiveRydePass.sol\";\r\n\r\ncontract RydeAsset is ERC1155, Ownable {\r\n    uint256 public MINT_PRICE = 10 wei;\r\n\r\n    RideKoin public rideKoinContract;\r\n    XclusiveRydePass public xclusiveRydePassContract;\r\n\r\n    uint256 private currentTokenID = 2; \r\n\r\n    mapping(uint256 => string) public tokenDescriptions;\r\n    enum UserRole { None, Driver, Rider }\r\n    mapping(address => UserRole) public userRoles;\r\n\r\n    struct RideRequest {\r\n        address rider;\r\n        string fromLocation;\r\n        string toLocation;\r\n    }\r\n\r\n    uint256 private currentRequestId = 0;\r\n    mapping(uint256 => RideRequest) public rideRequests;\r\n\r\n\r\n    constructor(address _rideKoinContractAddress, address _xclusiveRydePassContractAddress) \r\n        ERC1155(\"abcdce\") \r\n            Ownable(msg.sender)  \r\n    {\r\n        rideKoinContract = RideKoin(_rideKoinContractAddress);\r\n        xclusiveRydePassContract = XclusiveRydePass(_xclusiveRydePassContractAddress);\r\n    }\r\n\r\n    event RideRequested(uint256 requestId, address rider, string fromLocation, string toLocation);\r\n\r\n    function registerAsDriver() public {\r\n        userRoles[msg.sender] = UserRole.Driver;\r\n    }\r\n\r\n    function registerAsRider() public {\r\n        userRoles[msg.sender] = UserRole.Rider;\r\n    }\r\n\r\n    function getUserRole(address a) public view returns (UserRole){\r\n        return userRoles[a];\r\n    }\r\n\r\n    function mintXclusiveRydePass(address to) public payable {\r\n        xclusiveRydePassContract.safeMint{value: msg.value}(to);\r\n    }\r\n\r\n\r\n    function transferRideKoins(address from, address to, uint256 value) public {\r\n    require(value > 0, \"Value must be greater than 0\");\r\n    require(rideKoinContract._balanceOf(from) >= value, \"Insufficient RideKoin balance\");\r\n    rideKoinContract.transferRidekoins(from, to, value);\r\n    \r\n}\r\n\r\n    function transferXclusiveRydePass(address from, address to, uint256 tokenId) public {\r\n        xclusiveRydePassContract.transferFrom(from, to, tokenId);\r\n    }\r\n\r\n    function getTokens(address owner) public view returns (uint256[] memory) {\r\n        return xclusiveRydePassContract.getTokens(owner);\r\n    }\r\n\r\n    function buyRideKoin(uint256 tokenAmount) public payable {\r\n        rideKoinContract.buyToken{value: msg.value}(tokenAmount);\r\n        rideKoinContract.transfer(msg.sender, tokenAmount);\r\n    }\r\n\r\n    function sellRideKoin(uint256 tokenAmount) public {\r\n        rideKoinContract.sellToken(tokenAmount);\r\n    }\r\n\r\n    function withdrawFundsFromRideKoin() public onlyOwner {\r\n        rideKoinContract.withdraw();\r\n    }\r\n\r\n\r\n    function getRideKoinBalance(address user) public view returns (uint256) {\r\n        return rideKoinContract._balanceOf(user);\r\n    }\r\n\r\n    function getXclusiveRydePassCount(address user) public view returns (uint256) {\r\n        return xclusiveRydePassContract.balanceOf(user);\r\n    }\r\n\r\n\r\n    function getTokenDescription(uint256 tokenId) external view returns (string memory) {\r\n        return tokenDescriptions[tokenId];\r\n    }\r\n\r\n        struct SpecialTokenDetail {\r\n        uint256 rydeKoinAmount;\r\n        uint256 xclusiveRydePassID;\r\n    }\r\n\r\n    mapping(uint256 => uint256) public specialTokenValues; // The value of each SpecialToken in wei\r\n\r\n\r\n    mapping(uint256 => SpecialTokenDetail) public specialTokenDetails;\r\n\r\n    function createSpecialToken(uint256 rydeKoinAmount, uint256 xclusiveRydePassID) public payable {\r\n        require(rideKoinContract._balanceOf(msg.sender) >= rydeKoinAmount, \"Not enough RideKoin\");\r\n        require(xclusiveRydePassContract.ownerOf(xclusiveRydePassID) == msg.sender, \"You don't own the specified XclusiveRydePass\");\r\n        rideKoinContract.transferFrom(msg.sender, address(this), rydeKoinAmount);\r\n        xclusiveRydePassContract.transferFrom(msg.sender, address(this), xclusiveRydePassID);\r\n\r\n        specialTokenDetails[currentTokenID] = SpecialTokenDetail({\r\n            rydeKoinAmount: rydeKoinAmount,\r\n            xclusiveRydePassID: xclusiveRydePassID\r\n        });\r\n\r\n        _mint(msg.sender, currentTokenID, 1, \"\");\r\n        currentTokenID++;\r\n    } /* Before using this function ensure that the smart contract is approved by both RideKoin and XRP smart contracts as we are authorising the ERC1155\r\n        Contract to transfer money on behaf of the user. This method will be improved in phase 2.\r\n    \r\n    */\r\n\r\n    modifier onlyOwnerOrAccount(address account) {\r\n        require(account == msg.sender || owner() == msg.sender, \"Not the owner or the specified ownr\");\r\n        _;\r\n    }\r\n\r\n    function viewOwnedSpecialTokens(address account) public onlyOwnerOrAccount(account) view returns (uint256[] memory) {\r\n        uint256 tokenCount = balanceOf(account,2);\r\n        uint256[] memory ownedTokens = new uint256[](tokenCount);\r\n        \r\n        uint256 counter = 0;\r\n        for (uint256 i = 0; i < currentTokenID; i++) {\r\n            if (balanceOf(account, i) > 0) {\r\n                ownedTokens[counter] = i;\r\n                counter++;\r\n            }\r\n        }\r\n        return ownedTokens;\r\n    }\r\n\r\n\r\n    function returnSpecialToken(uint256 specialTokenID) external {\r\n       require(balanceOf(msg.sender, specialTokenID) > 0, \"You don't own the specified special token\");\r\n        uint256 additionalRideKoinsForXclusivePass = 2;\r\n        rideKoinContract.transfer(msg.sender, specialTokenDetails[specialTokenID].rydeKoinAmount + additionalRideKoinsForXclusivePass);\r\n        delete specialTokenDetails[specialTokenID];\r\n    }\r\n\r\n    mapping(uint256 => uint256) public xclusivePassPrices;\r\n\r\n    function setXclusivePassPrice(uint256 xclusiveRydePassID, uint256 price) external {\r\n        require(xclusiveRydePassContract.ownerOf(xclusiveRydePassID) == msg.sender, \"You don't own the specified XclusiveRydePass\");\r\n        xclusivePassPrices[xclusiveRydePassID] = price;     \r\n    }\r\n\r\n    function mintBatchXclusiveRydePass(address[] memory to) public payable {\r\n        require(msg.value == MINT_PRICE * to.length, \"Incorrect amount of Ether sent\");\r\n        \r\n        for (uint256 i = 0; i < to.length; i++) {\r\n            xclusiveRydePassContract.safeMint{value: MINT_PRICE}(to[i]);\r\n        }\r\n    }\r\n\r\n    function transferBatch(address from, address[] memory to, uint256[] memory tokenId) public {\r\n        require(to.length == tokenId.length, \"Array length mismatch\");\r\n\r\n        uint256[] memory amounts = new uint256[](to.length);\r\n        for (uint256 i = 0; i < to.length; i++) {\r\n            amounts[i] = 1; // You can customize the amounts if needed\r\n        \r\n        safeBatchTransferFrom(from, to[i], tokenId, amounts, \"\");\r\n        }\r\n\r\n        //safeBatchTransferFrom(from, to, tokenId, amounts, \"\");\r\n    }\r\n\r\n    \r\n\r\n    function transferBatchXclusiveRydePass(address from, address[] memory to, uint256[] memory tokenId) public {\r\n        require(to.length == tokenId.length, \"Array length mismatch\");\r\n\r\n        for (uint256 i = 0; i < to.length; i++) {\r\n            xclusiveRydePassContract.transferFrom(from, to[i], tokenId[i]);\r\n        }\r\n\r\n\r\n    }\r\n\r\n    function createRideRequest(string memory fromLocation, string memory toLocation) public {\r\n        require(userRoles[msg.sender] == UserRole.Rider, \"Only riders can create requests\");\r\n        rideRequests[currentRequestId] = RideRequest({\r\n            rider: msg.sender,\r\n            fromLocation: fromLocation,\r\n            toLocation: toLocation\r\n        });\r\n        emit RideRequested(currentRequestId, msg.sender, fromLocation, toLocation);\r\n        currentRequestId++;\r\n    }\r\n\r\n    function viewRideRequests() public view returns (RideRequest[] memory) {\r\n        RideRequest[] memory requests = new RideRequest[](currentRequestId);\r\n        for (uint i = 0; i < currentRequestId; i++) {\r\n            requests[i] = rideRequests[i];\r\n        }\r\n        return requests;\r\n    }\r\n}",
  "sourcePath": "C:\\Users\\dashu\\OneDrive\\Documents\\UB\\BLOCKCHAIN\\project\\blockchain_final_project\\decentralized_cab_booking\\DRSA-contract\\contracts\\Rydeasset.sol",
  "compiler": {
    "name": "solc",
    "version": "0.8.20+commit.a1b79de6.Emscripten.clang"
  },
  "schemaVersion": "3.4.16",
  "updatedAt": "2023-12-02T07:41:19.867Z",
  "devdoc": {
    "errors": {
      "ERC1155InsufficientBalance(address,uint256,uint256,uint256)": [
        {
          "details": "Indicates an error related to the current `balance` of a `sender`. Used in transfers.",
          "params": {
            "balance": "Current balance for the interacting account.",
            "needed": "Minimum amount required to perform a transfer.",
            "sender": "Address whose tokens are being transferred.",
            "tokenId": "Identifier number of a token."
          }
        }
      ],
      "ERC1155InvalidApprover(address)": [
        {
          "details": "Indicates a failure with the `approver` of a token to be approved. Used in approvals.",
          "params": {
            "approver": "Address initiating an approval operation."
          }
        }
      ],
      "ERC1155InvalidArrayLength(uint256,uint256)": [
        {
          "details": "Indicates an array length mismatch between ids and values in a safeBatchTransferFrom operation. Used in batch transfers.",
          "params": {
            "idsLength": "Length of the array of token identifiers",
            "valuesLength": "Length of the array of token amounts"
          }
        }
      ],
      "ERC1155InvalidOperator(address)": [
        {
          "details": "Indicates a failure with the `operator` to be approved. Used in approvals.",
          "params": {
            "operator": "Address that may be allowed to operate on tokens without being their owner."
          }
        }
      ],
      "ERC1155InvalidReceiver(address)": [
        {
          "details": "Indicates a failure with the token `receiver`. Used in transfers.",
          "params": {
            "receiver": "Address to which tokens are being transferred."
          }
        }
      ],
      "ERC1155InvalidSender(address)": [
        {
          "details": "Indicates a failure with the token `sender`. Used in transfers.",
          "params": {
            "sender": "Address whose tokens are being transferred."
          }
        }
      ],
      "ERC1155MissingApprovalForAll(address,address)": [
        {
          "details": "Indicates a failure with the `operator`s approval. Used in transfers.",
          "params": {
            "operator": "Address that may be allowed to operate on tokens without being their owner.",
            "owner": "Address of the current owner of a token."
          }
        }
      ],
      "OwnableInvalidOwner(address)": [
        {
          "details": "The owner is not a valid owner account. (eg. `address(0)`)"
        }
      ],
      "OwnableUnauthorizedAccount(address)": [
        {
          "details": "The caller account is not authorized to perform an operation."
        }
      ]
    },
    "events": {
      "ApprovalForAll(address,address,bool)": {
        "details": "Emitted when `account` grants or revokes permission to `operator` to transfer their tokens, according to `approved`."
      },
      "TransferBatch(address,address,address,uint256[],uint256[])": {
        "details": "Equivalent to multiple {TransferSingle} events, where `operator`, `from` and `to` are the same for all transfers."
      },
      "TransferSingle(address,address,address,uint256,uint256)": {
        "details": "Emitted when `value` amount of tokens of type `id` are transferred from `from` to `to` by `operator`."
      },
      "URI(string,uint256)": {
        "details": "Emitted when the URI for token type `id` changes to `value`, if it is a non-programmatic URI. If an {URI} event was emitted for `id`, the standard https://eips.ethereum.org/EIPS/eip-1155#metadata-extensions[guarantees] that `value` will equal the value returned by {IERC1155MetadataURI-uri}."
      }
    },
    "kind": "dev",
    "methods": {
      "balanceOf(address,uint256)": {
        "details": "See {IERC1155-balanceOf}."
      },
      "balanceOfBatch(address[],uint256[])": {
        "details": "See {IERC1155-balanceOfBatch}. Requirements: - `accounts` and `ids` must have the same length."
      },
      "isApprovedForAll(address,address)": {
        "details": "See {IERC1155-isApprovedForAll}."
      },
      "owner()": {
        "details": "Returns the address of the current owner."
      },
      "renounceOwnership()": {
        "details": "Leaves the contract without owner. It will not be possible to call `onlyOwner` functions. Can only be called by the current owner. NOTE: Renouncing ownership will leave the contract without an owner, thereby disabling any functionality that is only available to the owner."
      },
      "safeBatchTransferFrom(address,address,uint256[],uint256[],bytes)": {
        "details": "See {IERC1155-safeBatchTransferFrom}."
      },
      "safeTransferFrom(address,address,uint256,uint256,bytes)": {
        "details": "See {IERC1155-safeTransferFrom}."
      },
      "setApprovalForAll(address,bool)": {
        "details": "See {IERC1155-setApprovalForAll}."
      },
      "supportsInterface(bytes4)": {
        "details": "See {IERC165-supportsInterface}."
      },
      "transferOwnership(address)": {
        "details": "Transfers ownership of the contract to a new account (`newOwner`). Can only be called by the current owner."
      },
      "uri(uint256)": {
        "details": "See {IERC1155MetadataURI-uri}. This implementation returns the same URI for *all* token types. It relies on the token type ID substitution mechanism https://eips.ethereum.org/EIPS/eip-1155#metadata[defined in the EIP]. Clients calling this function must replace the `\\{id\\}` substring with the actual token type ID."
      }
    },
    "version": 1
  },
  "userdoc": {
    "kind": "user",
    "methods": {},
    "version": 1
  }
}