{
  "contractName": "RydeAsset",
  "abi": [
    {
      "inputs": [
        {
          "internalType": "address",
          "name": "_rideKoinContractAddress",
          "type": "address"
        },
        {
          "internalType": "address",
          "name": "_xclusiveRydePassContractAddress",
          "type": "address"
        }
      ],
      "stateMutability": "nonpayable",
      "type": "constructor"
    },
    {
      "inputs": [
        {
          "internalType": "address",
          "name": "sender",
          "type": "address"
        },
        {
          "internalType": "uint256",
          "name": "balance",
          "type": "uint256"
        },
        {
          "internalType": "uint256",
          "name": "needed",
          "type": "uint256"
        },
        {
          "internalType": "uint256",
          "name": "tokenId",
          "type": "uint256"
        }
      ],
      "name": "ERC1155InsufficientBalance",
      "type": "error"
    },
    {
      "inputs": [
        {
          "internalType": "address",
          "name": "approver",
          "type": "address"
        }
      ],
      "name": "ERC1155InvalidApprover",
      "type": "error"
    },
    {
      "inputs": [
        {
          "internalType": "uint256",
          "name": "idsLength",
          "type": "uint256"
        },
        {
          "internalType": "uint256",
          "name": "valuesLength",
          "type": "uint256"
        }
      ],
      "name": "ERC1155InvalidArrayLength",
      "type": "error"
    },
    {
      "inputs": [
        {
          "internalType": "address",
          "name": "operator",
          "type": "address"
        }
      ],
      "name": "ERC1155InvalidOperator",
      "type": "error"
    },
    {
      "inputs": [
        {
          "internalType": "address",
          "name": "receiver",
          "type": "address"
        }
      ],
      "name": "ERC1155InvalidReceiver",
      "type": "error"
    },
    {
      "inputs": [
        {
          "internalType": "address",
          "name": "sender",
          "type": "address"
        }
      ],
      "name": "ERC1155InvalidSender",
      "type": "error"
    },
    {
      "inputs": [
        {
          "internalType": "address",
          "name": "operator",
          "type": "address"
        },
        {
          "internalType": "address",
          "name": "owner",
          "type": "address"
        }
      ],
      "name": "ERC1155MissingApprovalForAll",
      "type": "error"
    },
    {
      "inputs": [
        {
          "internalType": "address",
          "name": "owner",
          "type": "address"
        }
      ],
      "name": "OwnableInvalidOwner",
      "type": "error"
    },
    {
      "inputs": [
        {
          "internalType": "address",
          "name": "account",
          "type": "address"
        }
      ],
      "name": "OwnableUnauthorizedAccount",
      "type": "error"
    },
    {
      "anonymous": false,
      "inputs": [
        {
          "indexed": true,
          "internalType": "address",
          "name": "account",
          "type": "address"
        },
        {
          "indexed": true,
          "internalType": "address",
          "name": "operator",
          "type": "address"
        },
        {
          "indexed": false,
          "internalType": "bool",
          "name": "approved",
          "type": "bool"
        }
      ],
      "name": "ApprovalForAll",
      "type": "event"
    },
    {
      "anonymous": false,
      "inputs": [
        {
          "indexed": true,
          "internalType": "address",
          "name": "previousOwner",
          "type": "address"
        },
        {
          "indexed": true,
          "internalType": "address",
          "name": "newOwner",
          "type": "address"
        }
      ],
      "name": "OwnershipTransferred",
      "type": "event"
    },
    {
      "anonymous": false,
      "inputs": [
        {
          "indexed": true,
          "internalType": "address",
          "name": "operator",
          "type": "address"
        },
        {
          "indexed": true,
          "internalType": "address",
          "name": "from",
          "type": "address"
        },
        {
          "indexed": true,
          "internalType": "address",
          "name": "to",
          "type": "address"
        },
        {
          "indexed": false,
          "internalType": "uint256[]",
          "name": "ids",
          "type": "uint256[]"
        },
        {
          "indexed": false,
          "internalType": "uint256[]",
          "name": "values",
          "type": "uint256[]"
        }
      ],
      "name": "TransferBatch",
      "type": "event"
    },
    {
      "anonymous": false,
      "inputs": [
        {
          "indexed": true,
          "internalType": "address",
          "name": "operator",
          "type": "address"
        },
        {
          "indexed": true,
          "internalType": "address",
          "name": "from",
          "type": "address"
        },
        {
          "indexed": true,
          "internalType": "address",
          "name": "to",
          "type": "address"
        },
        {
          "indexed": false,
          "internalType": "uint256",
          "name": "id",
          "type": "uint256"
        },
        {
          "indexed": false,
          "internalType": "uint256",
          "name": "value",
          "type": "uint256"
        }
      ],
      "name": "TransferSingle",
      "type": "event"
    },
    {
      "anonymous": false,
      "inputs": [
        {
          "indexed": false,
          "internalType": "string",
          "name": "value",
          "type": "string"
        },
        {
          "indexed": true,
          "internalType": "uint256",
          "name": "id",
          "type": "uint256"
        }
      ],
      "name": "URI",
      "type": "event"
    },
    {
      "inputs": [],
      "name": "MINT_PRICE",
      "outputs": [
        {
          "internalType": "uint256",
          "name": "",
          "type": "uint256"
        }
      ],
      "stateMutability": "view",
      "type": "function"
    },
    {
      "inputs": [
        {
          "internalType": "address",
          "name": "account",
          "type": "address"
        },
        {
          "internalType": "uint256",
          "name": "id",
          "type": "uint256"
        }
      ],
      "name": "balanceOf",
      "outputs": [
        {
          "internalType": "uint256",
          "name": "",
          "type": "uint256"
        }
      ],
      "stateMutability": "view",
      "type": "function"
    },
    {
      "inputs": [
        {
          "internalType": "address[]",
          "name": "accounts",
          "type": "address[]"
        },
        {
          "internalType": "uint256[]",
          "name": "ids",
          "type": "uint256[]"
        }
      ],
      "name": "balanceOfBatch",
      "outputs": [
        {
          "internalType": "uint256[]",
          "name": "",
          "type": "uint256[]"
        }
      ],
      "stateMutability": "view",
      "type": "function"
    },
    {
      "inputs": [
        {
          "internalType": "address",
          "name": "account",
          "type": "address"
        },
        {
          "internalType": "address",
          "name": "operator",
          "type": "address"
        }
      ],
      "name": "isApprovedForAll",
      "outputs": [
        {
          "internalType": "bool",
          "name": "",
          "type": "bool"
        }
      ],
      "stateMutability": "view",
      "type": "function"
    },
    {
      "inputs": [],
      "name": "owner",
      "outputs": [
        {
          "internalType": "address",
          "name": "",
          "type": "address"
        }
      ],
      "stateMutability": "view",
      "type": "function"
    },
    {
      "inputs": [],
      "name": "renounceOwnership",
      "outputs": [],
      "stateMutability": "nonpayable",
      "type": "function"
    },
    {
      "inputs": [],
      "name": "rideKoinContract",
      "outputs": [
        {
          "internalType": "contract RideKoin",
          "name": "",
          "type": "address"
        }
      ],
      "stateMutability": "view",
      "type": "function"
    },
    {
      "inputs": [
        {
          "internalType": "address",
          "name": "from",
          "type": "address"
        },
        {
          "internalType": "address",
          "name": "to",
          "type": "address"
        },
        {
          "internalType": "uint256[]",
          "name": "ids",
          "type": "uint256[]"
        },
        {
          "internalType": "uint256[]",
          "name": "values",
          "type": "uint256[]"
        },
        {
          "internalType": "bytes",
          "name": "data",
          "type": "bytes"
        }
      ],
      "name": "safeBatchTransferFrom",
      "outputs": [],
      "stateMutability": "nonpayable",
      "type": "function"
    },
    {
      "inputs": [
        {
          "internalType": "address",
          "name": "from",
          "type": "address"
        },
        {
          "internalType": "address",
          "name": "to",
          "type": "address"
        },
        {
          "internalType": "uint256",
          "name": "id",
          "type": "uint256"
        },
        {
          "internalType": "uint256",
          "name": "value",
          "type": "uint256"
        },
        {
          "internalType": "bytes",
          "name": "data",
          "type": "bytes"
        }
      ],
      "name": "safeTransferFrom",
      "outputs": [],
      "stateMutability": "nonpayable",
      "type": "function"
    },
    {
      "inputs": [
        {
          "internalType": "address",
          "name": "operator",
          "type": "address"
        },
        {
          "internalType": "bool",
          "name": "approved",
          "type": "bool"
        }
      ],
      "name": "setApprovalForAll",
      "outputs": [],
      "stateMutability": "nonpayable",
      "type": "function"
    },
    {
      "inputs": [
        {
          "internalType": "uint256",
          "name": "",
          "type": "uint256"
        }
      ],
      "name": "specialTokenDetails",
      "outputs": [
        {
          "internalType": "uint256",
          "name": "rydeKoinAmount",
          "type": "uint256"
        },
        {
          "internalType": "uint256",
          "name": "xclusiveRydePassID",
          "type": "uint256"
        }
      ],
      "stateMutability": "view",
      "type": "function"
    },
    {
      "inputs": [
        {
          "internalType": "uint256",
          "name": "",
          "type": "uint256"
        }
      ],
      "name": "specialTokenValues",
      "outputs": [
        {
          "internalType": "uint256",
          "name": "",
          "type": "uint256"
        }
      ],
      "stateMutability": "view",
      "type": "function"
    },
    {
      "inputs": [
        {
          "internalType": "bytes4",
          "name": "interfaceId",
          "type": "bytes4"
        }
      ],
      "name": "supportsInterface",
      "outputs": [
        {
          "internalType": "bool",
          "name": "",
          "type": "bool"
        }
      ],
      "stateMutability": "view",
      "type": "function"
    },
    {
      "inputs": [
        {
          "internalType": "uint256",
          "name": "",
          "type": "uint256"
        }
      ],
      "name": "tokenDescriptions",
      "outputs": [
        {
          "internalType": "string",
          "name": "",
          "type": "string"
        }
      ],
      "stateMutability": "view",
      "type": "function"
    },
    {
      "inputs": [
        {
          "internalType": "address",
          "name": "newOwner",
          "type": "address"
        }
      ],
      "name": "transferOwnership",
      "outputs": [],
      "stateMutability": "nonpayable",
      "type": "function"
    },
    {
      "inputs": [
        {
          "internalType": "uint256",
          "name": "",
          "type": "uint256"
        }
      ],
      "name": "uri",
      "outputs": [
        {
          "internalType": "string",
          "name": "",
          "type": "string"
        }
      ],
      "stateMutability": "view",
      "type": "function"
    },
    {
      "inputs": [
        {
          "internalType": "address",
          "name": "",
          "type": "address"
        }
      ],
      "name": "userRoles",
      "outputs": [
        {
          "internalType": "enum RydeAsset.UserRole",
          "name": "",
          "type": "uint8"
        }
      ],
      "stateMutability": "view",
      "type": "function"
    },
    {
      "inputs": [
        {
          "internalType": "uint256",
          "name": "",
          "type": "uint256"
        }
      ],
      "name": "xclusivePassPrices",
      "outputs": [
        {
          "internalType": "uint256",
          "name": "",
          "type": "uint256"
        }
      ],
      "stateMutability": "view",
      "type": "function"
    },
    {
      "inputs": [],
      "name": "xclusiveRydePassContract",
      "outputs": [
        {
          "internalType": "contract XclusiveRydePass",
          "name": "",
          "type": "address"
        }
      ],
      "stateMutability": "view",
      "type": "function"
    },
    {
      "inputs": [],
      "name": "registerAsDriver",
      "outputs": [],
      "stateMutability": "nonpayable",
      "type": "function"
    },
    {
      "inputs": [],
      "name": "registerAsRider",
      "outputs": [],
      "stateMutability": "nonpayable",
      "type": "function"
    },
    {
      "inputs": [
        {
          "internalType": "address",
          "name": "to",
          "type": "address"
        }
      ],
      "name": "mintXclusiveRydePass",
      "outputs": [],
      "stateMutability": "payable",
      "type": "function"
    },
    {
      "inputs": [
        {
          "internalType": "address",
          "name": "from",
          "type": "address"
        },
        {
          "internalType": "address",
          "name": "to",
          "type": "address"
        },
        {
          "internalType": "uint256",
          "name": "tokenId",
          "type": "uint256"
        }
      ],
      "name": "transferXclusiveRydePass",
      "outputs": [],
      "stateMutability": "nonpayable",
      "type": "function"
    },
    {
      "inputs": [
        {
          "internalType": "address",
          "name": "owner",
          "type": "address"
        }
      ],
      "name": "getTokens",
      "outputs": [
        {
          "internalType": "uint256[]",
          "name": "",
          "type": "uint256[]"
        }
      ],
      "stateMutability": "view",
      "type": "function"
    },
    {
      "inputs": [
        {
          "internalType": "uint256",
          "name": "tokenAmount",
          "type": "uint256"
        }
      ],
      "name": "buyRideKoin",
      "outputs": [],
      "stateMutability": "payable",
      "type": "function"
    },
    {
      "inputs": [
        {
          "internalType": "uint256",
          "name": "tokenAmount",
          "type": "uint256"
        }
      ],
      "name": "sellRideKoin",
      "outputs": [],
      "stateMutability": "nonpayable",
      "type": "function"
    },
    {
      "inputs": [],
      "name": "withdrawFundsFromRideKoin",
      "outputs": [],
      "stateMutability": "nonpayable",
      "type": "function"
    },
    {
      "inputs": [
        {
          "internalType": "address",
          "name": "user",
          "type": "address"
        }
      ],
      "name": "getRideKoinBalance",
      "outputs": [
        {
          "internalType": "uint256",
          "name": "",
          "type": "uint256"
        }
      ],
      "stateMutability": "view",
      "type": "function"
    },
    {
      "inputs": [
        {
          "internalType": "address",
          "name": "user",
          "type": "address"
        }
      ],
      "name": "getXclusiveRydePassCount",
      "outputs": [
        {
          "internalType": "uint256",
          "name": "",
          "type": "uint256"
        }
      ],
      "stateMutability": "view",
      "type": "function"
    },
    {
      "inputs": [
        {
          "internalType": "uint256",
          "name": "tokenId",
          "type": "uint256"
        }
      ],
      "name": "getTokenDescription",
      "outputs": [
        {
          "internalType": "string",
          "name": "",
          "type": "string"
        }
      ],
      "stateMutability": "view",
      "type": "function"
    },
    {
      "inputs": [
        {
          "internalType": "uint256",
          "name": "rydeKoinAmount",
          "type": "uint256"
        },
        {
          "internalType": "uint256",
          "name": "xclusiveRydePassID",
          "type": "uint256"
        }
      ],
      "name": "createSpecialToken",
      "outputs": [],
      "stateMutability": "payable",
      "type": "function"
    },
    {
      "inputs": [
        {
          "internalType": "address",
          "name": "account",
          "type": "address"
        }
      ],
      "name": "viewOwnedSpecialTokens",
      "outputs": [
        {
          "internalType": "uint256[]",
          "name": "",
          "type": "uint256[]"
        }
      ],
      "stateMutability": "view",
      "type": "function"
    },
    {
      "inputs": [
        {
          "internalType": "uint256",
          "name": "specialTokenID",
          "type": "uint256"
        }
      ],
      "name": "returnSpecialToken",
      "outputs": [],
      "stateMutability": "nonpayable",
      "type": "function"
    },
    {
      "inputs": [
        {
          "internalType": "uint256",
          "name": "xclusiveRydePassID",
          "type": "uint256"
        },
        {
          "internalType": "uint256",
          "name": "price",
          "type": "uint256"
        }
      ],
      "name": "setXclusivePassPrice",
      "outputs": [],
      "stateMutability": "nonpayable",
      "type": "function"
    },
    {
      "inputs": [
        {
          "internalType": "address[]",
          "name": "to",
          "type": "address[]"
        }
      ],
      "name": "mintBatchXclusiveRydePass",
      "outputs": [],
      "stateMutability": "payable",
      "type": "function"
    },
    {
      "inputs": [
        {
          "internalType": "address",
          "name": "from",
          "type": "address"
        },
        {
          "internalType": "address[]",
          "name": "to",
          "type": "address[]"
        },
        {
          "internalType": "uint256[]",
          "name": "tokenId",
          "type": "uint256[]"
        }
      ],
      "name": "transferBatchXclusiveRydePass",
      "outputs": [],
      "stateMutability": "nonpayable",
      "type": "function"
    }
  ],
  "bytecode": "0x6080604052600a60045560026007553480156200001a575f80fd5b50604051620047c0380380620047c08339818101604052810190620000409190620002d3565b336040518060400160405280600681526020017f616263646365000000000000000000000000000000000000000000000000000081525062000088816200019660201b60201c565b505f73ffffffffffffffffffffffffffffffffffffffff168173ffffffffffffffffffffffffffffffffffffffff1603620000fc575f6040517f1e4fbdf7000000000000000000000000000000000000000000000000000000008152600401620000f3919062000329565b60405180910390fd5b6200010d81620001ab60201b60201c565b508160055f6101000a81548173ffffffffffffffffffffffffffffffffffffffff021916908373ffffffffffffffffffffffffffffffffffffffff1602179055508060065f6101000a81548173ffffffffffffffffffffffffffffffffffffffff021916908373ffffffffffffffffffffffffffffffffffffffff16021790555050506200068c565b8060029081620001a79190620005a8565b5050565b5f60035f9054906101000a900473ffffffffffffffffffffffffffffffffffffffff1690508160035f6101000a81548173ffffffffffffffffffffffffffffffffffffffff021916908373ffffffffffffffffffffffffffffffffffffffff1602179055508173ffffffffffffffffffffffffffffffffffffffff168173ffffffffffffffffffffffffffffffffffffffff167f8be0079c531659141344cd1fd0a4f28419497f9722a3daafe3b4186f6b6457e060405160405180910390a35050565b5f80fd5b5f73ffffffffffffffffffffffffffffffffffffffff82169050919050565b5f6200029d8262000272565b9050919050565b620002af8162000291565b8114620002ba575f80fd5b50565b5f81519050620002cd81620002a4565b92915050565b5f8060408385031215620002ec57620002eb6200026e565b5b5f620002fb85828601620002bd565b92505060206200030e85828601620002bd565b9150509250929050565b620003238162000291565b82525050565b5f6020820190506200033e5f83018462000318565b92915050565b5f81519050919050565b7f4e487b71000000000000000000000000000000000000000000000000000000005f52604160045260245ffd5b7f4e487b71000000000000000000000000000000000000000000000000000000005f52602260045260245ffd5b5f6002820490506001821680620003c057607f821691505b602082108103620003d657620003d56200037b565b5b50919050565b5f819050815f5260205f209050919050565b5f6020601f8301049050919050565b5f82821b905092915050565b5f600883026200043a7fffffffffffffffffffffffffffffffffffffffffffffffffffffffffffffffff82620003fd565b620004468683620003fd565b95508019841693508086168417925050509392505050565b5f819050919050565b5f819050919050565b5f620004906200048a62000484846200045e565b62000467565b6200045e565b9050919050565b5f819050919050565b620004ab8362000470565b620004c3620004ba8262000497565b84845462000409565b825550505050565b5f90565b620004d9620004cb565b620004e6818484620004a0565b505050565b5b818110156200050d57620005015f82620004cf565b600181019050620004ec565b5050565b601f8211156200055c576200052681620003dc565b6200053184620003ee565b8101602085101562000541578190505b620005596200055085620003ee565b830182620004eb565b50505b505050565b5f82821c905092915050565b5f6200057e5f198460080262000561565b1980831691505092915050565b5f6200059883836200056d565b9150826002028217905092915050565b620005b38262000344565b67ffffffffffffffff811115620005cf57620005ce6200034e565b5b620005db8254620003a8565b620005e882828562000511565b5f60209050601f8311600181146200061e575f841562000609578287015190505b6200061585826200058b565b86555062000684565b601f1984166200062e86620003dc565b5f5b82811015620006575784890151825560018201915060208501945060208101905062000630565b8683101562000677578489015162000673601f8916826200056d565b8355505b6001600288020188555050505b505050505050565b614126806200069a5f395ff3fe60806040526004361061020d575f3560e01c806374d5e10011610117578063c2e449771161009f578063dee6524f1161006e578063dee6524f14610789578063e985e9c5146107c6578063f242432a14610802578063f2fde38b1461082a578063fb7e1dc8146108525761020d565b8063c2e44977146106ad578063c4d952da146106d5578063ccbc3e6114610711578063d4d7ffee1461074d5761020d565b80639473ca82116100e65780639473ca82146105c7578063a22cb46514610603578063b3154c081461062b578063bfd21b8314610667578063c002d23d146106835761020d565b806374d5e100146105115780637b44b5f91461054d5780637e3a7b8c146105755780638da5cb5b1461059d5761020d565b806333fe89841161019a5780634e1273f4116101695780634e1273f414610443578063555feae81461047f57806366058999146104a9578063715018a6146104bf57806373237201146104d55761020d565b806333fe8984146103b35780633eef3b86146103db578063450efe21146103f15780634d7646431461042d5761020d565b80630e89341c116101e15780630e89341c146102db578063225db29914610317578063249cbab6146103335780632eb2c2d61461034f57806331573769146103775761020d565b8062fdd58e1461021157806301ffc9a71461024d5780630886fc08146102895780630d00d87f146102b3575b5f80fd5b34801561021c575f80fd5b5061023760048036038101906102329190612dba565b61086e565b6040516102449190612e07565b60405180910390f35b348015610258575f80fd5b50610273600480360381019061026e9190612e75565b6108c3565b6040516102809190612eba565b60405180910390f35b348015610294575f80fd5b5061029d6109a4565b6040516102aa9190612f2e565b60405180910390f35b3480156102be575f80fd5b506102d960048036038101906102d49190612f47565b6109c9565b005b3480156102e6575f80fd5b5061030160048036038101906102fc9190612f97565b610a59565b60405161030e919061304c565b60405180910390f35b610331600480360381019061032c919061306c565b610aeb565b005b61034d60048036038101906103489190612f97565b610e6b565b005b34801561035a575f80fd5b506103756004803603810190610370919061329a565b610f94565b005b348015610382575f80fd5b5061039d60048036038101906103989190612f97565b61103b565b6040516103aa9190612e07565b60405180910390f35b3480156103be575f80fd5b506103d960048036038101906103d49190613425565b611050565b005b3480156103e6575f80fd5b506103ef611177565b005b3480156103fc575f80fd5b50610417600480360381019061041291906134ad565b6111de565b604051610424919061358f565b60405180910390f35b348015610438575f80fd5b50610441611283565b005b34801561044e575f80fd5b50610469600480360381019061046491906135af565b6112ea565b604051610476919061358f565b60405180910390f35b34801561048a575f80fd5b506104936113f7565b6040516104a09190613645565b60405180910390f35b3480156104b4575f80fd5b506104bd61141c565b005b3480156104ca575f80fd5b506104d36114a2565b005b3480156104e0575f80fd5b506104fb60048036038101906104f69190612f97565b6114b5565b6040516105089190612e07565b60405180910390f35b34801561051c575f80fd5b50610537600480360381019061053291906134ad565b6114ca565b60405161054491906136d1565b60405180910390f35b348015610558575f80fd5b50610573600480360381019061056e919061306c565b6114e7565b005b348015610580575f80fd5b5061059b60048036038101906105969190612f97565b611607565b005b3480156105a8575f80fd5b506105b1611737565b6040516105be91906136f9565b60405180910390f35b3480156105d2575f80fd5b506105ed60048036038101906105e89190612f97565b61175f565b6040516105fa919061304c565b60405180910390f35b34801561060e575f80fd5b506106296004803603810190610624919061373c565b6117fa565b005b348015610636575f80fd5b50610651600480360381019061064c9190612f97565b611810565b60405161065e919061304c565b60405180910390f35b610681600480360381019061067c91906134ad565b6118b1565b005b34801561068e575f80fd5b5061069761193d565b6040516106a49190612e07565b60405180910390f35b3480156106b8575f80fd5b506106d360048036038101906106ce9190612f97565b611943565b005b3480156106e0575f80fd5b506106fb60048036038101906106f691906134ad565b6119cd565b6040516107089190612e07565b60405180910390f35b34801561071c575f80fd5b50610737600480360381019061073291906134ad565b611a6e565b604051610744919061358f565b60405180910390f35b348015610758575f80fd5b50610773600480360381019061076e91906134ad565b611be3565b6040516107809190612e07565b60405180910390f35b348015610794575f80fd5b506107af60048036038101906107aa9190612f97565b611c84565b6040516107bd92919061377a565b60405180910390f35b3480156107d1575f80fd5b506107ec60048036038101906107e791906137a1565b611ca4565b6040516107f99190612eba565b60405180910390f35b34801561080d575f80fd5b50610828600480360381019061082391906137df565b611d32565b005b348015610835575f80fd5b50610850600480360381019061084b91906134ad565b611dd9565b005b61086c60048036038101906108679190613872565b611e5d565b005b5f805f8381526020019081526020015f205f8473ffffffffffffffffffffffffffffffffffffffff1673ffffffffffffffffffffffffffffffffffffffff1681526020019081526020015f2054905092915050565b5f7fd9b67a26000000000000000000000000000000000000000000000000000000007bffffffffffffffffffffffffffffffffffffffffffffffffffffffff1916827bffffffffffffffffffffffffffffffffffffffffffffffffffffffff1916148061098d57507f0e89341c000000000000000000000000000000000000000000000000000000007bffffffffffffffffffffffffffffffffffffffffffffffffffffffff1916827bffffffffffffffffffffffffffffffffffffffffffffffffffffffff1916145b8061099d575061099c82611f74565b5b9050919050565b60055f9054906101000a900473ffffffffffffffffffffffffffffffffffffffff1681565b60065f9054906101000a900473ffffffffffffffffffffffffffffffffffffffff1673ffffffffffffffffffffffffffffffffffffffff166323b872dd8484846040518463ffffffff1660e01b8152600401610a27939291906138b9565b5f604051808303815f87803b158015610a3e575f80fd5b505af1158015610a50573d5f803e3d5ffd5b50505050505050565b606060028054610a689061391b565b80601f0160208091040260200160405190810160405280929190818152602001828054610a949061391b565b8015610adf5780601f10610ab657610100808354040283529160200191610adf565b820191905f5260205f20905b815481529060010190602001808311610ac257829003601f168201915b50505050509050919050565b8160055f9054906101000a900473ffffffffffffffffffffffffffffffffffffffff1673ffffffffffffffffffffffffffffffffffffffff1663cca3e832336040518263ffffffff1660e01b8152600401610b4691906136f9565b602060405180830381865afa158015610b61573d5f803e3d5ffd5b505050506040513d601f19601f82011682018060405250810190610b85919061395f565b1015610bc6576040517f08c379a0000000000000000000000000000000000000000000000000000000008152600401610bbd906139d4565b60405180910390fd5b3373ffffffffffffffffffffffffffffffffffffffff1660065f9054906101000a900473ffffffffffffffffffffffffffffffffffffffff1673ffffffffffffffffffffffffffffffffffffffff16636352211e836040518263ffffffff1660e01b8152600401610c379190612e07565b602060405180830381865afa158015610c52573d5f803e3d5ffd5b505050506040513d601f19601f82011682018060405250810190610c769190613a06565b73ffffffffffffffffffffffffffffffffffffffff1614610ccc576040517f08c379a0000000000000000000000000000000000000000000000000000000008152600401610cc390613aa1565b60405180910390fd5b60055f9054906101000a900473ffffffffffffffffffffffffffffffffffffffff1673ffffffffffffffffffffffffffffffffffffffff166323b872dd3330856040518463ffffffff1660e01b8152600401610d2a939291906138b9565b6020604051808303815f875af1158015610d46573d5f803e3d5ffd5b505050506040513d601f19601f82011682018060405250810190610d6a9190613ad3565b5060065f9054906101000a900473ffffffffffffffffffffffffffffffffffffffff1673ffffffffffffffffffffffffffffffffffffffff166323b872dd3330846040518463ffffffff1660e01b8152600401610dc9939291906138b9565b5f604051808303815f87803b158015610de0575f80fd5b505af1158015610df2573d5f803e3d5ffd5b50505050604051806040016040528083815260200182815250600b5f60075481526020019081526020015f205f820151815f015560208201518160010155905050610e5033600754600160405180602001604052805f815250611fdd565b60075f815480929190610e6290613b2b565b91905055505050565b60055f9054906101000a900473ffffffffffffffffffffffffffffffffffffffff1673ffffffffffffffffffffffffffffffffffffffff16632d296bf134836040518363ffffffff1660e01b8152600401610ec69190612e07565b5f604051808303818588803b158015610edd575f80fd5b505af1158015610eef573d5f803e3d5ffd5b505050505060055f9054906101000a900473ffffffffffffffffffffffffffffffffffffffff1673ffffffffffffffffffffffffffffffffffffffff1663a9059cbb33836040518363ffffffff1660e01b8152600401610f50929190613b72565b6020604051808303815f875af1158015610f6c573d5f803e3d5ffd5b505050506040513d601f19601f82011682018060405250810190610f909190613ad3565b5050565b5f610f9d612072565b90508073ffffffffffffffffffffffffffffffffffffffff168673ffffffffffffffffffffffffffffffffffffffff1614158015610fe25750610fe08682611ca4565b155b156110265780866040517fe237d92200000000000000000000000000000000000000000000000000000000815260040161101d929190613b99565b60405180910390fd5b6110338686868686612079565b505050505050565b600c602052805f5260405f205f915090505481565b8051825114611094576040517f08c379a000000000000000000000000000000000000000000000000000000000815260040161108b90613c0a565b60405180910390fd5b5f5b82518110156111715760065f9054906101000a900473ffffffffffffffffffffffffffffffffffffffff1673ffffffffffffffffffffffffffffffffffffffff166323b872dd858584815181106110f0576110ef613c28565b5b602002602001015185858151811061110b5761110a613c28565b5b60200260200101516040518463ffffffff1660e01b8152600401611131939291906138b9565b5f604051808303815f87803b158015611148575f80fd5b505af115801561115a573d5f803e3d5ffd5b50505050808061116990613b2b565b915050611096565b50505050565b600160095f3373ffffffffffffffffffffffffffffffffffffffff1673ffffffffffffffffffffffffffffffffffffffff1681526020019081526020015f205f6101000a81548160ff021916908360028111156111d7576111d661365e565b5b0217905550565b606060065f9054906101000a900473ffffffffffffffffffffffffffffffffffffffff1673ffffffffffffffffffffffffffffffffffffffff1663450efe21836040518263ffffffff1660e01b815260040161123a91906136f9565b5f60405180830381865afa158015611254573d5f803e3d5ffd5b505050506040513d5f823e3d601f19601f8201168201806040525081019061127c9190613cea565b9050919050565b600260095f3373ffffffffffffffffffffffffffffffffffffffff1673ffffffffffffffffffffffffffffffffffffffff1681526020019081526020015f205f6101000a81548160ff021916908360028111156112e3576112e261365e565b5b0217905550565b6060815183511461133657815183516040517f5b05999100000000000000000000000000000000000000000000000000000000815260040161132d92919061377a565b60405180910390fd5b5f835167ffffffffffffffff811115611352576113516130ae565b5b6040519080825280602002602001820160405280156113805781602001602082028036833780820191505090505b5090505f5b84518110156113ec576113bc6113a4828761216d90919063ffffffff16565b6113b7838761218090919063ffffffff16565b61086e565b8282815181106113cf576113ce613c28565b5b602002602001018181525050806113e590613b2b565b9050611385565b508091505092915050565b60065f9054906101000a900473ffffffffffffffffffffffffffffffffffffffff1681565b611424612193565b60055f9054906101000a900473ffffffffffffffffffffffffffffffffffffffff1673ffffffffffffffffffffffffffffffffffffffff16633ccfd60b6040518163ffffffff1660e01b81526004015f604051808303815f87803b15801561148a575f80fd5b505af115801561149c573d5f803e3d5ffd5b50505050565b6114aa612193565b6114b35f61221a565b565b600a602052805f5260405f205f915090505481565b6009602052805f5260405f205f915054906101000a900460ff1681565b3373ffffffffffffffffffffffffffffffffffffffff1660065f9054906101000a900473ffffffffffffffffffffffffffffffffffffffff1673ffffffffffffffffffffffffffffffffffffffff16636352211e846040518263ffffffff1660e01b81526004016115589190612e07565b602060405180830381865afa158015611573573d5f803e3d5ffd5b505050506040513d601f19601f820116820180604052508101906115979190613a06565b73ffffffffffffffffffffffffffffffffffffffff16146115ed576040517f08c379a00000000000000000000000000000000000000000000000000000000081526004016115e490613aa1565b60405180910390fd5b80600c5f8481526020019081526020015f20819055505050565b5f611612338361086e565b11611652576040517f08c379a000000000000000000000000000000000000000000000000000000000815260040161164990613da1565b60405180910390fd5b5f6002905060055f9054906101000a900473ffffffffffffffffffffffffffffffffffffffff1673ffffffffffffffffffffffffffffffffffffffff1663a9059cbb3383600b5f8781526020019081526020015f205f01546116b49190613dbf565b6040518363ffffffff1660e01b81526004016116d1929190613b72565b6020604051808303815f875af11580156116ed573d5f803e3d5ffd5b505050506040513d601f19601f820116820180604052508101906117119190613ad3565b50600b5f8381526020019081526020015f205f8082015f9055600182015f905550505050565b5f60035f9054906101000a900473ffffffffffffffffffffffffffffffffffffffff16905090565b6008602052805f5260405f205f91509050805461177b9061391b565b80601f01602080910402602001604051908101604052809291908181526020018280546117a79061391b565b80156117f25780601f106117c9576101008083540402835291602001916117f2565b820191905f5260205f20905b8154815290600101906020018083116117d557829003601f168201915b505050505081565b61180c611805612072565b83836122dd565b5050565b606060085f8381526020019081526020015f20805461182e9061391b565b80601f016020809104026020016040519081016040528092919081815260200182805461185a9061391b565b80156118a55780601f1061187c576101008083540402835291602001916118a5565b820191905f5260205f20905b81548152906001019060200180831161188857829003601f168201915b50505050509050919050565b60065f9054906101000a900473ffffffffffffffffffffffffffffffffffffffff1673ffffffffffffffffffffffffffffffffffffffff166340d097c334836040518363ffffffff1660e01b815260040161190c91906136f9565b5f604051808303818588803b158015611923575f80fd5b505af1158015611935573d5f803e3d5ffd5b505050505050565b60045481565b60055f9054906101000a900473ffffffffffffffffffffffffffffffffffffffff1673ffffffffffffffffffffffffffffffffffffffff16632397e4d7826040518263ffffffff1660e01b815260040161199d9190612e07565b5f604051808303815f87803b1580156119b4575f80fd5b505af11580156119c6573d5f803e3d5ffd5b5050505050565b5f60065f9054906101000a900473ffffffffffffffffffffffffffffffffffffffff1673ffffffffffffffffffffffffffffffffffffffff166370a08231836040518263ffffffff1660e01b8152600401611a2891906136f9565b602060405180830381865afa158015611a43573d5f803e3d5ffd5b505050506040513d601f19601f82011682018060405250810190611a67919061395f565b9050919050565b6060813373ffffffffffffffffffffffffffffffffffffffff168173ffffffffffffffffffffffffffffffffffffffff161480611add57503373ffffffffffffffffffffffffffffffffffffffff16611ac5611737565b73ffffffffffffffffffffffffffffffffffffffff16145b611b1c576040517f08c379a0000000000000000000000000000000000000000000000000000000008152600401611b1390613e62565b60405180910390fd5b5f611b2884600261086e565b90505f8167ffffffffffffffff811115611b4557611b446130ae565b5b604051908082528060200260200182016040528015611b735781602001602082028036833780820191505090505b5090505f805b600754811015611bd6575f611b8e888361086e565b1115611bc35780838381518110611ba857611ba7613c28565b5b6020026020010181815250508180611bbf90613b2b565b9250505b8080611bce90613b2b565b915050611b79565b5081945050505050919050565b5f60055f9054906101000a900473ffffffffffffffffffffffffffffffffffffffff1673ffffffffffffffffffffffffffffffffffffffff1663cca3e832836040518263ffffffff1660e01b8152600401611c3e91906136f9565b602060405180830381865afa158015611c59573d5f803e3d5ffd5b505050506040513d601f19601f82011682018060405250810190611c7d919061395f565b9050919050565b600b602052805f5260405f205f91509050805f0154908060010154905082565b5f60015f8473ffffffffffffffffffffffffffffffffffffffff1673ffffffffffffffffffffffffffffffffffffffff1681526020019081526020015f205f8373ffffffffffffffffffffffffffffffffffffffff1673ffffffffffffffffffffffffffffffffffffffff1681526020019081526020015f205f9054906101000a900460ff16905092915050565b5f611d3b612072565b90508073ffffffffffffffffffffffffffffffffffffffff168673ffffffffffffffffffffffffffffffffffffffff1614158015611d805750611d7e8682611ca4565b155b15611dc45780866040517fe237d922000000000000000000000000000000000000000000000000000000008152600401611dbb929190613b99565b60405180910390fd5b611dd18686868686612446565b505050505050565b611de1612193565b5f73ffffffffffffffffffffffffffffffffffffffff168173ffffffffffffffffffffffffffffffffffffffff1603611e51575f6040517f1e4fbdf7000000000000000000000000000000000000000000000000000000008152600401611e4891906136f9565b60405180910390fd5b611e5a8161221a565b50565b8051600454611e6c9190613e80565b3414611ead576040517f08c379a0000000000000000000000000000000000000000000000000000000008152600401611ea490613f0b565b60405180910390fd5b5f5b8151811015611f705760065f9054906101000a900473ffffffffffffffffffffffffffffffffffffffff1673ffffffffffffffffffffffffffffffffffffffff166340d097c3600454848481518110611f0b57611f0a613c28565b5b60200260200101516040518363ffffffff1660e01b8152600401611f2f91906136f9565b5f604051808303818588803b158015611f46575f80fd5b505af1158015611f58573d5f803e3d5ffd5b50505050508080611f6890613b2b565b915050611eaf565b5050565b5f7f01ffc9a7000000000000000000000000000000000000000000000000000000007bffffffffffffffffffffffffffffffffffffffffffffffffffffffff1916827bffffffffffffffffffffffffffffffffffffffffffffffffffffffff1916149050919050565b5f73ffffffffffffffffffffffffffffffffffffffff168473ffffffffffffffffffffffffffffffffffffffff160361204d575f6040517f57f447ce00000000000000000000000000000000000000000000000000000000815260040161204491906136f9565b60405180910390fd5b5f80612059858561254c565b9150915061206a5f8784848761257c565b505050505050565b5f33905090565b5f73ffffffffffffffffffffffffffffffffffffffff168473ffffffffffffffffffffffffffffffffffffffff16036120e9575f6040517f57f447ce0000000000000000000000000000000000000000000000000000000081526004016120e091906136f9565b60405180910390fd5b5f73ffffffffffffffffffffffffffffffffffffffff168573ffffffffffffffffffffffffffffffffffffffff1603612159575f6040517f01a8351400000000000000000000000000000000000000000000000000000000815260040161215091906136f9565b60405180910390fd5b612166858585858561257c565b5050505050565b5f60208202602084010151905092915050565b5f60208202602084010151905092915050565b61219b612072565b73ffffffffffffffffffffffffffffffffffffffff166121b9611737565b73ffffffffffffffffffffffffffffffffffffffff1614612218576121dc612072565b6040517f118cdaa700000000000000000000000000000000000000000000000000000000815260040161220f91906136f9565b60405180910390fd5b565b5f60035f9054906101000a900473ffffffffffffffffffffffffffffffffffffffff1690508160035f6101000a81548173ffffffffffffffffffffffffffffffffffffffff021916908373ffffffffffffffffffffffffffffffffffffffff1602179055508173ffffffffffffffffffffffffffffffffffffffff168173ffffffffffffffffffffffffffffffffffffffff167f8be0079c531659141344cd1fd0a4f28419497f9722a3daafe3b4186f6b6457e060405160405180910390a35050565b5f73ffffffffffffffffffffffffffffffffffffffff168273ffffffffffffffffffffffffffffffffffffffff160361234d575f6040517fced3e10000000000000000000000000000000000000000000000000000000000815260040161234491906136f9565b60405180910390fd5b8060015f8573ffffffffffffffffffffffffffffffffffffffff1673ffffffffffffffffffffffffffffffffffffffff1681526020019081526020015f205f8473ffffffffffffffffffffffffffffffffffffffff1673ffffffffffffffffffffffffffffffffffffffff1681526020019081526020015f205f6101000a81548160ff0219169083151502179055508173ffffffffffffffffffffffffffffffffffffffff168373ffffffffffffffffffffffffffffffffffffffff167f17307eab39ab6107e8899845ad3d59bd9653f200f220920489ca2b5937696c31836040516124399190612eba565b60405180910390a3505050565b5f73ffffffffffffffffffffffffffffffffffffffff168473ffffffffffffffffffffffffffffffffffffffff16036124b6575f6040517f57f447ce0000000000000000000000000000000000000000000000000000000081526004016124ad91906136f9565b60405180910390fd5b5f73ffffffffffffffffffffffffffffffffffffffff168573ffffffffffffffffffffffffffffffffffffffff1603612526575f6040517f01a8351400000000000000000000000000000000000000000000000000000000815260040161251d91906136f9565b60405180910390fd5b5f80612532858561254c565b91509150612543878784848761257c565b50505050505050565b60608060405191506001825283602083015260408201905060018152826020820152604081016040529250929050565b61258885858585612628565b5f73ffffffffffffffffffffffffffffffffffffffff168473ffffffffffffffffffffffffffffffffffffffff1614612621575f6125c4612072565b90506001845103612610575f6125e35f8661218090919063ffffffff16565b90505f6125f95f8661218090919063ffffffff16565b90506126098389898585896129be565b505061261f565b61261e818787878787612b6d565b5b505b5050505050565b805182511461267257815181516040517f5b05999100000000000000000000000000000000000000000000000000000000815260040161266992919061377a565b60405180910390fd5b5f61267b612072565b90505f5b835181101561287d575f61269c828661218090919063ffffffff16565b90505f6126b2838661218090919063ffffffff16565b90505f73ffffffffffffffffffffffffffffffffffffffff168873ffffffffffffffffffffffffffffffffffffffff16146127d5575f805f8481526020019081526020015f205f8a73ffffffffffffffffffffffffffffffffffffffff1673ffffffffffffffffffffffffffffffffffffffff1681526020019081526020015f205490508181101561278157888183856040517f03dee4c50000000000000000000000000000000000000000000000000000000081526004016127789493929190613f29565b60405180910390fd5b8181035f808581526020019081526020015f205f8b73ffffffffffffffffffffffffffffffffffffffff1673ffffffffffffffffffffffffffffffffffffffff1681526020019081526020015f2081905550505b5f73ffffffffffffffffffffffffffffffffffffffff168773ffffffffffffffffffffffffffffffffffffffff161461286a57805f808481526020019081526020015f205f8973ffffffffffffffffffffffffffffffffffffffff1673ffffffffffffffffffffffffffffffffffffffff1681526020019081526020015f205f8282546128629190613dbf565b925050819055505b50508061287690613b2b565b905061267f565b506001835103612938575f61289b5f8561218090919063ffffffff16565b90505f6128b15f8561218090919063ffffffff16565b90508573ffffffffffffffffffffffffffffffffffffffff168773ffffffffffffffffffffffffffffffffffffffff168473ffffffffffffffffffffffffffffffffffffffff167fc3d58168c5ae7397731d063d5bbf3d657854427343f4c083240f7aacaa2d0f62858560405161292992919061377a565b60405180910390a450506129b7565b8373ffffffffffffffffffffffffffffffffffffffff168573ffffffffffffffffffffffffffffffffffffffff168273ffffffffffffffffffffffffffffffffffffffff167f4a39dc06d4c0dbc64b70af90fd698a233a518aa5d07e595d983b8c0526c8f7fb86866040516129ae929190613f6c565b60405180910390a45b5050505050565b5f8473ffffffffffffffffffffffffffffffffffffffff163b1115612b65578373ffffffffffffffffffffffffffffffffffffffff1663f23a6e6187878686866040518663ffffffff1660e01b8152600401612a1e959493929190613ff3565b6020604051808303815f875af1925050508015612a5957506040513d601f19601f82011682018060405250810190612a56919061405f565b60015b612ada573d805f8114612a87576040519150601f19603f3d011682016040523d82523d5f602084013e612a8c565b606091505b505f815103612ad257846040517f57f447ce000000000000000000000000000000000000000000000000000000008152600401612ac991906136f9565b60405180910390fd5b805181602001fd5b63f23a6e6160e01b7bffffffffffffffffffffffffffffffffffffffffffffffffffffffff1916817bffffffffffffffffffffffffffffffffffffffffffffffffffffffff191614612b6357846040517f57f447ce000000000000000000000000000000000000000000000000000000008152600401612b5a91906136f9565b60405180910390fd5b505b505050505050565b5f8473ffffffffffffffffffffffffffffffffffffffff163b1115612d14578373ffffffffffffffffffffffffffffffffffffffff1663bc197c8187878686866040518663ffffffff1660e01b8152600401612bcd95949392919061408a565b6020604051808303815f875af1925050508015612c0857506040513d601f19601f82011682018060405250810190612c05919061405f565b60015b612c89573d805f8114612c36576040519150601f19603f3d011682016040523d82523d5f602084013e612c3b565b606091505b505f815103612c8157846040517f57f447ce000000000000000000000000000000000000000000000000000000008152600401612c7891906136f9565b60405180910390fd5b805181602001fd5b63bc197c8160e01b7bffffffffffffffffffffffffffffffffffffffffffffffffffffffff1916817bffffffffffffffffffffffffffffffffffffffffffffffffffffffff191614612d1257846040517f57f447ce000000000000000000000000000000000000000000000000000000008152600401612d0991906136f9565b60405180910390fd5b505b505050505050565b5f604051905090565b5f80fd5b5f80fd5b5f73ffffffffffffffffffffffffffffffffffffffff82169050919050565b5f612d5682612d2d565b9050919050565b612d6681612d4c565b8114612d70575f80fd5b50565b5f81359050612d8181612d5d565b92915050565b5f819050919050565b612d9981612d87565b8114612da3575f80fd5b50565b5f81359050612db481612d90565b92915050565b5f8060408385031215612dd057612dcf612d25565b5b5f612ddd85828601612d73565b9250506020612dee85828601612da6565b9150509250929050565b612e0181612d87565b82525050565b5f602082019050612e1a5f830184612df8565b92915050565b5f7fffffffff0000000000000000000000000000000000000000000000000000000082169050919050565b612e5481612e20565b8114612e5e575f80fd5b50565b5f81359050612e6f81612e4b565b92915050565b5f60208284031215612e8a57612e89612d25565b5b5f612e9784828501612e61565b91505092915050565b5f8115159050919050565b612eb481612ea0565b82525050565b5f602082019050612ecd5f830184612eab565b92915050565b5f819050919050565b5f612ef6612ef1612eec84612d2d565b612ed3565b612d2d565b9050919050565b5f612f0782612edc565b9050919050565b5f612f1882612efd565b9050919050565b612f2881612f0e565b82525050565b5f602082019050612f415f830184612f1f565b92915050565b5f805f60608486031215612f5e57612f5d612d25565b5b5f612f6b86828701612d73565b9350506020612f7c86828701612d73565b9250506040612f8d86828701612da6565b9150509250925092565b5f60208284031215612fac57612fab612d25565b5b5f612fb984828501612da6565b91505092915050565b5f81519050919050565b5f82825260208201905092915050565b5f5b83811015612ff9578082015181840152602081019050612fde565b5f8484015250505050565b5f601f19601f8301169050919050565b5f61301e82612fc2565b6130288185612fcc565b9350613038818560208601612fdc565b61304181613004565b840191505092915050565b5f6020820190508181035f8301526130648184613014565b905092915050565b5f806040838503121561308257613081612d25565b5b5f61308f85828601612da6565b92505060206130a085828601612da6565b9150509250929050565b5f80fd5b7f4e487b71000000000000000000000000000000000000000000000000000000005f52604160045260245ffd5b6130e482613004565b810181811067ffffffffffffffff82111715613103576131026130ae565b5b80604052505050565b5f613115612d1c565b905061312182826130db565b919050565b5f67ffffffffffffffff8211156131405761313f6130ae565b5b602082029050602081019050919050565b5f80fd5b5f61316761316284613126565b61310c565b9050808382526020820190506020840283018581111561318a57613189613151565b5b835b818110156131b3578061319f8882612da6565b84526020840193505060208101905061318c565b5050509392505050565b5f82601f8301126131d1576131d06130aa565b5b81356131e1848260208601613155565b91505092915050565b5f80fd5b5f67ffffffffffffffff821115613208576132076130ae565b5b61321182613004565b9050602081019050919050565b828183375f83830152505050565b5f61323e613239846131ee565b61310c565b90508281526020810184848401111561325a576132596131ea565b5b61326584828561321e565b509392505050565b5f82601f830112613281576132806130aa565b5b813561329184826020860161322c565b91505092915050565b5f805f805f60a086880312156132b3576132b2612d25565b5b5f6132c088828901612d73565b95505060206132d188828901612d73565b945050604086013567ffffffffffffffff8111156132f2576132f1612d29565b5b6132fe888289016131bd565b935050606086013567ffffffffffffffff81111561331f5761331e612d29565b5b61332b888289016131bd565b925050608086013567ffffffffffffffff81111561334c5761334b612d29565b5b6133588882890161326d565b9150509295509295909350565b5f67ffffffffffffffff82111561337f5761337e6130ae565b5b602082029050602081019050919050565b5f6133a261339d84613365565b61310c565b905080838252602082019050602084028301858111156133c5576133c4613151565b5b835b818110156133ee57806133da8882612d73565b8452602084019350506020810190506133c7565b5050509392505050565b5f82601f83011261340c5761340b6130aa565b5b813561341c848260208601613390565b91505092915050565b5f805f6060848603121561343c5761343b612d25565b5b5f61344986828701612d73565b935050602084013567ffffffffffffffff81111561346a57613469612d29565b5b613476868287016133f8565b925050604084013567ffffffffffffffff81111561349757613496612d29565b5b6134a3868287016131bd565b9150509250925092565b5f602082840312156134c2576134c1612d25565b5b5f6134cf84828501612d73565b91505092915050565b5f81519050919050565b5f82825260208201905092915050565b5f819050602082019050919050565b61350a81612d87565b82525050565b5f61351b8383613501565b60208301905092915050565b5f602082019050919050565b5f61353d826134d8565b61354781856134e2565b9350613552836134f2565b805f5b838110156135825781516135698882613510565b975061357483613527565b925050600181019050613555565b5085935050505092915050565b5f6020820190508181035f8301526135a78184613533565b905092915050565b5f80604083850312156135c5576135c4612d25565b5b5f83013567ffffffffffffffff8111156135e2576135e1612d29565b5b6135ee858286016133f8565b925050602083013567ffffffffffffffff81111561360f5761360e612d29565b5b61361b858286016131bd565b9150509250929050565b5f61362f82612efd565b9050919050565b61363f81613625565b82525050565b5f6020820190506136585f830184613636565b92915050565b7f4e487b71000000000000000000000000000000000000000000000000000000005f52602160045260245ffd5b6003811061369c5761369b61365e565b5b50565b5f8190506136ac8261368b565b919050565b5f6136bb8261369f565b9050919050565b6136cb816136b1565b82525050565b5f6020820190506136e45f8301846136c2565b92915050565b6136f381612d4c565b82525050565b5f60208201905061370c5f8301846136ea565b92915050565b61371b81612ea0565b8114613725575f80fd5b50565b5f8135905061373681613712565b92915050565b5f806040838503121561375257613751612d25565b5b5f61375f85828601612d73565b925050602061377085828601613728565b9150509250929050565b5f60408201905061378d5f830185612df8565b61379a6020830184612df8565b9392505050565b5f80604083850312156137b7576137b6612d25565b5b5f6137c485828601612d73565b92505060206137d585828601612d73565b9150509250929050565b5f805f805f60a086880312156137f8576137f7612d25565b5b5f61380588828901612d73565b955050602061381688828901612d73565b945050604061382788828901612da6565b935050606061383888828901612da6565b925050608086013567ffffffffffffffff81111561385957613858612d29565b5b6138658882890161326d565b9150509295509295909350565b5f6020828403121561388757613886612d25565b5b5f82013567ffffffffffffffff8111156138a4576138a3612d29565b5b6138b0848285016133f8565b91505092915050565b5f6060820190506138cc5f8301866136ea565b6138d960208301856136ea565b6138e66040830184612df8565b949350505050565b7f4e487b71000000000000000000000000000000000000000000000000000000005f52602260045260245ffd5b5f600282049050600182168061393257607f821691505b602082108103613945576139446138ee565b5b50919050565b5f8151905061395981612d90565b92915050565b5f6020828403121561397457613973612d25565b5b5f6139818482850161394b565b91505092915050565b7f4e6f7420656e6f75676820526964654b6f696e000000000000000000000000005f82015250565b5f6139be601383612fcc565b91506139c98261398a565b602082019050919050565b5f6020820190508181035f8301526139eb816139b2565b9050919050565b5f81519050613a0081612d5d565b92915050565b5f60208284031215613a1b57613a1a612d25565b5b5f613a28848285016139f2565b91505092915050565b7f596f7520646f6e2774206f776e20746865207370656369666965642058636c755f8201527f7369766552796465506173730000000000000000000000000000000000000000602082015250565b5f613a8b602c83612fcc565b9150613a9682613a31565b604082019050919050565b5f6020820190508181035f830152613ab881613a7f565b9050919050565b5f81519050613acd81613712565b92915050565b5f60208284031215613ae857613ae7612d25565b5b5f613af584828501613abf565b91505092915050565b7f4e487b71000000000000000000000000000000000000000000000000000000005f52601160045260245ffd5b5f613b3582612d87565b91507fffffffffffffffffffffffffffffffffffffffffffffffffffffffffffffffff8203613b6757613b66613afe565b5b600182019050919050565b5f604082019050613b855f8301856136ea565b613b926020830184612df8565b9392505050565b5f604082019050613bac5f8301856136ea565b613bb960208301846136ea565b9392505050565b7f4172726179206c656e677468206d69736d6174636800000000000000000000005f82015250565b5f613bf4601583612fcc565b9150613bff82613bc0565b602082019050919050565b5f6020820190508181035f830152613c2181613be8565b9050919050565b7f4e487b71000000000000000000000000000000000000000000000000000000005f52603260045260245ffd5b5f613c67613c6284613126565b61310c565b90508083825260208201905060208402830185811115613c8a57613c89613151565b5b835b81811015613cb35780613c9f888261394b565b845260208401935050602081019050613c8c565b5050509392505050565b5f82601f830112613cd157613cd06130aa565b5b8151613ce1848260208601613c55565b91505092915050565b5f60208284031215613cff57613cfe612d25565b5b5f82015167ffffffffffffffff811115613d1c57613d1b612d29565b5b613d2884828501613cbd565b91505092915050565b7f596f7520646f6e2774206f776e207468652073706563696669656420737065635f8201527f69616c20746f6b656e0000000000000000000000000000000000000000000000602082015250565b5f613d8b602983612fcc565b9150613d9682613d31565b604082019050919050565b5f6020820190508181035f830152613db881613d7f565b9050919050565b5f613dc982612d87565b9150613dd483612d87565b9250828201905080821115613dec57613deb613afe565b5b92915050565b7f4e6f7420746865206f776e6572206f722074686520737065636966696564206f5f8201527f776e720000000000000000000000000000000000000000000000000000000000602082015250565b5f613e4c602383612fcc565b9150613e5782613df2565b604082019050919050565b5f6020820190508181035f830152613e7981613e40565b9050919050565b5f613e8a82612d87565b9150613e9583612d87565b9250828202613ea381612d87565b91508282048414831517613eba57613eb9613afe565b5b5092915050565b7f496e636f727265637420616d6f756e74206f662045746865722073656e7400005f82015250565b5f613ef5601e83612fcc565b9150613f0082613ec1565b602082019050919050565b5f6020820190508181035f830152613f2281613ee9565b9050919050565b5f608082019050613f3c5f8301876136ea565b613f496020830186612df8565b613f566040830185612df8565b613f636060830184612df8565b95945050505050565b5f6040820190508181035f830152613f848185613533565b90508181036020830152613f988184613533565b90509392505050565b5f81519050919050565b5f82825260208201905092915050565b5f613fc582613fa1565b613fcf8185613fab565b9350613fdf818560208601612fdc565b613fe881613004565b840191505092915050565b5f60a0820190506140065f8301886136ea565b61401360208301876136ea565b6140206040830186612df8565b61402d6060830185612df8565b818103608083015261403f8184613fbb565b90509695505050505050565b5f8151905061405981612e4b565b92915050565b5f6020828403121561407457614073612d25565b5b5f6140818482850161404b565b91505092915050565b5f60a08201905061409d5f8301886136ea565b6140aa60208301876136ea565b81810360408301526140bc8186613533565b905081810360608301526140d08185613533565b905081810360808301526140e48184613fbb565b9050969550505050505056fea2646970667358221220df79f6fd7e3f8d9c7c1fc7480e57f2d12cb1e1ca46f1cea94eda3e93eef10f2f64736f6c63430008150033",
  "immutableReferences": {},
  "source": "// SPDX-License-Identifier: MIT\r\npragma solidity ^0.8.21;\r\n\r\n\r\nimport \"@openzeppelin/contracts/token/ERC1155/ERC1155.sol\";\r\nimport \"@openzeppelin/contracts/access/Ownable.sol\";\r\nimport \"./RideKoin.sol\";\r\nimport \"./XclusiveRydePass.sol\";\r\n\r\ncontract RydeAsset is ERC1155, Ownable {\r\n    uint256 public MINT_PRICE = 10 wei;\r\n\r\n    RideKoin public rideKoinContract;\r\n    XclusiveRydePass public xclusiveRydePassContract;\r\n\r\n    uint256 private currentTokenID = 2; \r\n\r\n    mapping(uint256 => string) public tokenDescriptions;\r\n    enum UserRole { None, Driver, Rider }\r\n    mapping(address => UserRole) public userRoles;\r\n\r\n    constructor(address _rideKoinContractAddress, address _xclusiveRydePassContractAddress) \r\n        ERC1155(\"abcdce\") \r\n            Ownable(msg.sender)  \r\n    {\r\n        rideKoinContract = RideKoin(_rideKoinContractAddress);\r\n        xclusiveRydePassContract = XclusiveRydePass(_xclusiveRydePassContractAddress);\r\n    }\r\n\r\n    function registerAsDriver() public {\r\n        userRoles[msg.sender] = UserRole.Driver;\r\n    }\r\n\r\n    function registerAsRider() public {\r\n        userRoles[msg.sender] = UserRole.Rider;\r\n    }\r\n\r\n    function mintXclusiveRydePass(address to) public payable {\r\n        xclusiveRydePassContract.safeMint{value: msg.value}(to);\r\n    }\r\n\r\n    function transferXclusiveRydePass(address from, address to, uint256 tokenId) public {\r\n        xclusiveRydePassContract.transferFrom(from, to, tokenId);\r\n    }\r\n\r\n    function getTokens(address owner) public view returns (uint256[] memory) {\r\n        return xclusiveRydePassContract.getTokens(owner);\r\n    }\r\n\r\n    function buyRideKoin(uint256 tokenAmount) public payable {\r\n        rideKoinContract.buyToken{value: msg.value}(tokenAmount);\r\n        rideKoinContract.transfer(msg.sender, tokenAmount);\r\n    }\r\n\r\n    function sellRideKoin(uint256 tokenAmount) public {\r\n        rideKoinContract.sellToken(tokenAmount);\r\n    }\r\n\r\n    function withdrawFundsFromRideKoin() public onlyOwner {\r\n        rideKoinContract.withdraw();\r\n    }\r\n\r\n\r\n    function getRideKoinBalance(address user) public view returns (uint256) {\r\n        return rideKoinContract._balanceOf(user);\r\n    }\r\n\r\n    function getXclusiveRydePassCount(address user) public view returns (uint256) {\r\n        return xclusiveRydePassContract.balanceOf(user);\r\n    }\r\n\r\n\r\n    function getTokenDescription(uint256 tokenId) external view returns (string memory) {\r\n        return tokenDescriptions[tokenId];\r\n    }\r\n\r\n        struct SpecialTokenDetail {\r\n        uint256 rydeKoinAmount;\r\n        uint256 xclusiveRydePassID;\r\n    }\r\n\r\n    mapping(uint256 => uint256) public specialTokenValues; // The value of each SpecialToken in wei\r\n\r\n\r\n    mapping(uint256 => SpecialTokenDetail) public specialTokenDetails;\r\n\r\n    function createSpecialToken(uint256 rydeKoinAmount, uint256 xclusiveRydePassID) public payable {\r\n        require(rideKoinContract._balanceOf(msg.sender) >= rydeKoinAmount, \"Not enough RideKoin\");\r\n        require(xclusiveRydePassContract.ownerOf(xclusiveRydePassID) == msg.sender, \"You don't own the specified XclusiveRydePass\");\r\n        rideKoinContract.transferFrom(msg.sender, address(this), rydeKoinAmount);\r\n        xclusiveRydePassContract.transferFrom(msg.sender, address(this), xclusiveRydePassID);\r\n\r\n        specialTokenDetails[currentTokenID] = SpecialTokenDetail({\r\n            rydeKoinAmount: rydeKoinAmount,\r\n            xclusiveRydePassID: xclusiveRydePassID\r\n        });\r\n\r\n        _mint(msg.sender, currentTokenID, 1, \"\");\r\n        currentTokenID++;\r\n    } /* Before using this function ensure that the smart contract is approved by both RideKoin and XRP smart contracts as we are authorising the ERC1155\r\n        Contract to transfer money on behaf of the user. This method will be improved in phase 2.\r\n    \r\n    */\r\n\r\n    modifier onlyOwnerOrAccount(address account) {\r\n        require(account == msg.sender || owner() == msg.sender, \"Not the owner or the specified ownr\");\r\n        _;\r\n    }\r\n\r\n    function viewOwnedSpecialTokens(address account) public onlyOwnerOrAccount(account) view returns (uint256[] memory) {\r\n        uint256 tokenCount = balanceOf(account,2);\r\n        uint256[] memory ownedTokens = new uint256[](tokenCount);\r\n        \r\n        uint256 counter = 0;\r\n        for (uint256 i = 0; i < currentTokenID; i++) {\r\n            if (balanceOf(account, i) > 0) {\r\n                ownedTokens[counter] = i;\r\n                counter++;\r\n            }\r\n        }\r\n        return ownedTokens;\r\n    }\r\n\r\n\r\n    function returnSpecialToken(uint256 specialTokenID) external {\r\n       require(balanceOf(msg.sender, specialTokenID) > 0, \"You don't own the specified special token\");\r\n        uint256 additionalRideKoinsForXclusivePass = 2;\r\n        rideKoinContract.transfer(msg.sender, specialTokenDetails[specialTokenID].rydeKoinAmount + additionalRideKoinsForXclusivePass);\r\n        delete specialTokenDetails[specialTokenID];\r\n    }\r\n\r\n    mapping(uint256 => uint256) public xclusivePassPrices;\r\n\r\n    function setXclusivePassPrice(uint256 xclusiveRydePassID, uint256 price) external {\r\n        require(xclusiveRydePassContract.ownerOf(xclusiveRydePassID) == msg.sender, \"You don't own the specified XclusiveRydePass\");\r\n        xclusivePassPrices[xclusiveRydePassID] = price;     \r\n    }\r\n\r\n    function mintBatchXclusiveRydePass(address[] memory to) public payable {\r\n        require(msg.value == MINT_PRICE * to.length, \"Incorrect amount of Ether sent\");\r\n        \r\n        for (uint256 i = 0; i < to.length; i++) {\r\n            xclusiveRydePassContract.safeMint{value: MINT_PRICE}(to[i]);\r\n        }\r\n    }\r\n\r\n    \r\n\r\n    function transferBatchXclusiveRydePass(address from, address[] memory to, uint256[] memory tokenId) public {\r\n        require(to.length == tokenId.length, \"Array length mismatch\");\r\n\r\n        for (uint256 i = 0; i < to.length; i++) {\r\n            xclusiveRydePassContract.transferFrom(from, to[i], tokenId[i]);\r\n        }\r\n\r\n\r\n}\r\n}",
  "sourcePath": "C:\\Users\\dashu\\OneDrive\\Documents\\UB\\BLOCKCHAIN\\practice\\election\\DRSA-contract\\contracts\\Rydeasset.sol",
  "compiler": {
    "name": "solc",
    "version": "0.8.21+commit.d9974bed.Emscripten.clang"
  },
  "schemaVersion": "3.4.16",
  "updatedAt": "2023-11-17T01:25:42.299Z",
  "devdoc": {
    "errors": {
      "ERC1155InsufficientBalance(address,uint256,uint256,uint256)": [
        {
          "details": "Indicates an error related to the current `balance` of a `sender`. Used in transfers.",
          "params": {
            "balance": "Current balance for the interacting account.",
            "needed": "Minimum amount required to perform a transfer.",
            "sender": "Address whose tokens are being transferred.",
            "tokenId": "Identifier number of a token."
          }
        }
      ],
      "ERC1155InvalidApprover(address)": [
        {
          "details": "Indicates a failure with the `approver` of a token to be approved. Used in approvals.",
          "params": {
            "approver": "Address initiating an approval operation."
          }
        }
      ],
      "ERC1155InvalidArrayLength(uint256,uint256)": [
        {
          "details": "Indicates an array length mismatch between ids and values in a safeBatchTransferFrom operation. Used in batch transfers.",
          "params": {
            "idsLength": "Length of the array of token identifiers",
            "valuesLength": "Length of the array of token amounts"
          }
        }
      ],
      "ERC1155InvalidOperator(address)": [
        {
          "details": "Indicates a failure with the `operator` to be approved. Used in approvals.",
          "params": {
            "operator": "Address that may be allowed to operate on tokens without being their owner."
          }
        }
      ],
      "ERC1155InvalidReceiver(address)": [
        {
          "details": "Indicates a failure with the token `receiver`. Used in transfers.",
          "params": {
            "receiver": "Address to which tokens are being transferred."
          }
        }
      ],
      "ERC1155InvalidSender(address)": [
        {
          "details": "Indicates a failure with the token `sender`. Used in transfers.",
          "params": {
            "sender": "Address whose tokens are being transferred."
          }
        }
      ],
      "ERC1155MissingApprovalForAll(address,address)": [
        {
          "details": "Indicates a failure with the `operator`s approval. Used in transfers.",
          "params": {
            "operator": "Address that may be allowed to operate on tokens without being their owner.",
            "owner": "Address of the current owner of a token."
          }
        }
      ],
      "OwnableInvalidOwner(address)": [
        {
          "details": "The owner is not a valid owner account. (eg. `address(0)`)"
        }
      ],
      "OwnableUnauthorizedAccount(address)": [
        {
          "details": "The caller account is not authorized to perform an operation."
        }
      ]
    },
    "events": {
      "ApprovalForAll(address,address,bool)": {
        "details": "Emitted when `account` grants or revokes permission to `operator` to transfer their tokens, according to `approved`."
      },
      "TransferBatch(address,address,address,uint256[],uint256[])": {
        "details": "Equivalent to multiple {TransferSingle} events, where `operator`, `from` and `to` are the same for all transfers."
      },
      "TransferSingle(address,address,address,uint256,uint256)": {
        "details": "Emitted when `value` amount of tokens of type `id` are transferred from `from` to `to` by `operator`."
      },
      "URI(string,uint256)": {
        "details": "Emitted when the URI for token type `id` changes to `value`, if it is a non-programmatic URI. If an {URI} event was emitted for `id`, the standard https://eips.ethereum.org/EIPS/eip-1155#metadata-extensions[guarantees] that `value` will equal the value returned by {IERC1155MetadataURI-uri}."
      }
    },
    "kind": "dev",
    "methods": {
      "balanceOf(address,uint256)": {
        "details": "See {IERC1155-balanceOf}."
      },
      "balanceOfBatch(address[],uint256[])": {
        "details": "See {IERC1155-balanceOfBatch}. Requirements: - `accounts` and `ids` must have the same length."
      },
      "isApprovedForAll(address,address)": {
        "details": "See {IERC1155-isApprovedForAll}."
      },
      "owner()": {
        "details": "Returns the address of the current owner."
      },
      "renounceOwnership()": {
        "details": "Leaves the contract without owner. It will not be possible to call `onlyOwner` functions. Can only be called by the current owner. NOTE: Renouncing ownership will leave the contract without an owner, thereby disabling any functionality that is only available to the owner."
      },
      "safeBatchTransferFrom(address,address,uint256[],uint256[],bytes)": {
        "details": "See {IERC1155-safeBatchTransferFrom}."
      },
      "safeTransferFrom(address,address,uint256,uint256,bytes)": {
        "details": "See {IERC1155-safeTransferFrom}."
      },
      "setApprovalForAll(address,bool)": {
        "details": "See {IERC1155-setApprovalForAll}."
      },
      "supportsInterface(bytes4)": {
        "details": "See {IERC165-supportsInterface}."
      },
      "transferOwnership(address)": {
        "details": "Transfers ownership of the contract to a new account (`newOwner`). Can only be called by the current owner."
      },
      "uri(uint256)": {
        "details": "See {IERC1155MetadataURI-uri}. This implementation returns the same URI for *all* token types. It relies on the token type ID substitution mechanism https://eips.ethereum.org/EIPS/eip-1155#metadata[defined in the EIP]. Clients calling this function must replace the `\\{id\\}` substring with the actual token type ID."
      }
    },
    "version": 1
  },
  "userdoc": {
    "kind": "user",
    "methods": {},
    "version": 1
  }
}