{
  "contractName": "RydeAsset",
  "abi": [
    {
      "inputs": [
        {
          "internalType": "address",
          "name": "_rideKoinContractAddress",
          "type": "address"
        },
        {
          "internalType": "address",
          "name": "_xclusiveRydePassContractAddress",
          "type": "address"
        }
      ],
      "stateMutability": "nonpayable",
      "type": "constructor"
    },
    {
      "inputs": [
        {
          "internalType": "address",
          "name": "sender",
          "type": "address"
        },
        {
          "internalType": "uint256",
          "name": "balance",
          "type": "uint256"
        },
        {
          "internalType": "uint256",
          "name": "needed",
          "type": "uint256"
        },
        {
          "internalType": "uint256",
          "name": "tokenId",
          "type": "uint256"
        }
      ],
      "name": "ERC1155InsufficientBalance",
      "type": "error"
    },
    {
      "inputs": [
        {
          "internalType": "address",
          "name": "approver",
          "type": "address"
        }
      ],
      "name": "ERC1155InvalidApprover",
      "type": "error"
    },
    {
      "inputs": [
        {
          "internalType": "uint256",
          "name": "idsLength",
          "type": "uint256"
        },
        {
          "internalType": "uint256",
          "name": "valuesLength",
          "type": "uint256"
        }
      ],
      "name": "ERC1155InvalidArrayLength",
      "type": "error"
    },
    {
      "inputs": [
        {
          "internalType": "address",
          "name": "operator",
          "type": "address"
        }
      ],
      "name": "ERC1155InvalidOperator",
      "type": "error"
    },
    {
      "inputs": [
        {
          "internalType": "address",
          "name": "receiver",
          "type": "address"
        }
      ],
      "name": "ERC1155InvalidReceiver",
      "type": "error"
    },
    {
      "inputs": [
        {
          "internalType": "address",
          "name": "sender",
          "type": "address"
        }
      ],
      "name": "ERC1155InvalidSender",
      "type": "error"
    },
    {
      "inputs": [
        {
          "internalType": "address",
          "name": "operator",
          "type": "address"
        },
        {
          "internalType": "address",
          "name": "owner",
          "type": "address"
        }
      ],
      "name": "ERC1155MissingApprovalForAll",
      "type": "error"
    },
    {
      "inputs": [
        {
          "internalType": "address",
          "name": "owner",
          "type": "address"
        }
      ],
      "name": "OwnableInvalidOwner",
      "type": "error"
    },
    {
      "inputs": [
        {
          "internalType": "address",
          "name": "account",
          "type": "address"
        }
      ],
      "name": "OwnableUnauthorizedAccount",
      "type": "error"
    },
    {
      "anonymous": false,
      "inputs": [
        {
          "indexed": true,
          "internalType": "address",
          "name": "account",
          "type": "address"
        },
        {
          "indexed": true,
          "internalType": "address",
          "name": "operator",
          "type": "address"
        },
        {
          "indexed": false,
          "internalType": "bool",
          "name": "approved",
          "type": "bool"
        }
      ],
      "name": "ApprovalForAll",
      "type": "event"
    },
    {
      "anonymous": false,
      "inputs": [
        {
          "indexed": true,
          "internalType": "address",
          "name": "previousOwner",
          "type": "address"
        },
        {
          "indexed": true,
          "internalType": "address",
          "name": "newOwner",
          "type": "address"
        }
      ],
      "name": "OwnershipTransferred",
      "type": "event"
    },
    {
      "anonymous": false,
      "inputs": [
        {
          "indexed": false,
          "internalType": "uint256",
          "name": "requestId",
          "type": "uint256"
        },
        {
          "indexed": false,
          "internalType": "address",
          "name": "rider",
          "type": "address"
        },
        {
          "indexed": false,
          "internalType": "string",
          "name": "fromLocation",
          "type": "string"
        },
        {
          "indexed": false,
          "internalType": "string",
          "name": "toLocation",
          "type": "string"
        }
      ],
      "name": "RideRequested",
      "type": "event"
    },
    {
      "anonymous": false,
      "inputs": [
        {
          "indexed": true,
          "internalType": "address",
          "name": "operator",
          "type": "address"
        },
        {
          "indexed": true,
          "internalType": "address",
          "name": "from",
          "type": "address"
        },
        {
          "indexed": true,
          "internalType": "address",
          "name": "to",
          "type": "address"
        },
        {
          "indexed": false,
          "internalType": "uint256[]",
          "name": "ids",
          "type": "uint256[]"
        },
        {
          "indexed": false,
          "internalType": "uint256[]",
          "name": "values",
          "type": "uint256[]"
        }
      ],
      "name": "TransferBatch",
      "type": "event"
    },
    {
      "anonymous": false,
      "inputs": [
        {
          "indexed": true,
          "internalType": "address",
          "name": "operator",
          "type": "address"
        },
        {
          "indexed": true,
          "internalType": "address",
          "name": "from",
          "type": "address"
        },
        {
          "indexed": true,
          "internalType": "address",
          "name": "to",
          "type": "address"
        },
        {
          "indexed": false,
          "internalType": "uint256",
          "name": "id",
          "type": "uint256"
        },
        {
          "indexed": false,
          "internalType": "uint256",
          "name": "value",
          "type": "uint256"
        }
      ],
      "name": "TransferSingle",
      "type": "event"
    },
    {
      "anonymous": false,
      "inputs": [
        {
          "indexed": false,
          "internalType": "string",
          "name": "value",
          "type": "string"
        },
        {
          "indexed": true,
          "internalType": "uint256",
          "name": "id",
          "type": "uint256"
        }
      ],
      "name": "URI",
      "type": "event"
    },
    {
      "inputs": [],
      "name": "MINT_PRICE",
      "outputs": [
        {
          "internalType": "uint256",
          "name": "",
          "type": "uint256"
        }
      ],
      "stateMutability": "view",
      "type": "function",
      "constant": true
    },
    {
      "inputs": [
        {
          "internalType": "uint256",
          "name": "",
          "type": "uint256"
        }
      ],
      "name": "acceptedRides",
      "outputs": [
        {
          "internalType": "address",
          "name": "driver",
          "type": "address"
        },
        {
          "internalType": "address",
          "name": "rider",
          "type": "address"
        },
        {
          "internalType": "uint256",
          "name": "fare",
          "type": "uint256"
        },
        {
          "internalType": "uint256",
          "name": "xrpID",
          "type": "uint256"
        },
        {
          "internalType": "uint256",
          "name": "requestId",
          "type": "uint256"
        },
        {
          "internalType": "uint256",
          "name": "acceptRequestId",
          "type": "uint256"
        },
        {
          "internalType": "bool",
          "name": "isAccepted",
          "type": "bool"
        }
      ],
      "stateMutability": "view",
      "type": "function",
      "constant": true
    },
    {
      "inputs": [
        {
          "internalType": "address",
          "name": "account",
          "type": "address"
        },
        {
          "internalType": "uint256",
          "name": "id",
          "type": "uint256"
        }
      ],
      "name": "balanceOf",
      "outputs": [
        {
          "internalType": "uint256",
          "name": "",
          "type": "uint256"
        }
      ],
      "stateMutability": "view",
      "type": "function",
      "constant": true
    },
    {
      "inputs": [
        {
          "internalType": "address[]",
          "name": "accounts",
          "type": "address[]"
        },
        {
          "internalType": "uint256[]",
          "name": "ids",
          "type": "uint256[]"
        }
      ],
      "name": "balanceOfBatch",
      "outputs": [
        {
          "internalType": "uint256[]",
          "name": "",
          "type": "uint256[]"
        }
      ],
      "stateMutability": "view",
      "type": "function",
      "constant": true
    },
    {
      "inputs": [
        {
          "internalType": "address",
          "name": "",
          "type": "address"
        },
        {
          "internalType": "uint256",
          "name": "",
          "type": "uint256"
        }
      ],
      "name": "confirmedRides",
      "outputs": [
        {
          "internalType": "address",
          "name": "rider",
          "type": "address"
        },
        {
          "internalType": "uint256",
          "name": "fare",
          "type": "uint256"
        },
        {
          "internalType": "uint256",
          "name": "xrpToken",
          "type": "uint256"
        },
        {
          "internalType": "uint256",
          "name": "flag",
          "type": "uint256"
        }
      ],
      "stateMutability": "view",
      "type": "function",
      "constant": true
    },
    {
      "inputs": [
        {
          "internalType": "address",
          "name": "account",
          "type": "address"
        },
        {
          "internalType": "address",
          "name": "operator",
          "type": "address"
        }
      ],
      "name": "isApprovedForAll",
      "outputs": [
        {
          "internalType": "bool",
          "name": "",
          "type": "bool"
        }
      ],
      "stateMutability": "view",
      "type": "function",
      "constant": true
    },
    {
      "inputs": [],
      "name": "owner",
      "outputs": [
        {
          "internalType": "address",
          "name": "",
          "type": "address"
        }
      ],
      "stateMutability": "view",
      "type": "function",
      "constant": true
    },
    {
      "inputs": [],
      "name": "renounceOwnership",
      "outputs": [],
      "stateMutability": "nonpayable",
      "type": "function"
    },
    {
      "inputs": [],
      "name": "rideKoinContract",
      "outputs": [
        {
          "internalType": "contract RideKoin",
          "name": "",
          "type": "address"
        }
      ],
      "stateMutability": "view",
      "type": "function",
      "constant": true
    },
    {
      "inputs": [
        {
          "internalType": "uint256",
          "name": "",
          "type": "uint256"
        }
      ],
      "name": "rideRequests",
      "outputs": [
        {
          "internalType": "address",
          "name": "rider",
          "type": "address"
        },
        {
          "internalType": "string",
          "name": "fromLocation",
          "type": "string"
        },
        {
          "internalType": "string",
          "name": "toLocation",
          "type": "string"
        },
        {
          "internalType": "uint256",
          "name": "requestId",
          "type": "uint256"
        },
        {
          "internalType": "bool",
          "name": "isAccepted",
          "type": "bool"
        }
      ],
      "stateMutability": "view",
      "type": "function",
      "constant": true
    },
    {
      "inputs": [
        {
          "internalType": "address",
          "name": "from",
          "type": "address"
        },
        {
          "internalType": "address",
          "name": "to",
          "type": "address"
        },
        {
          "internalType": "uint256[]",
          "name": "ids",
          "type": "uint256[]"
        },
        {
          "internalType": "uint256[]",
          "name": "values",
          "type": "uint256[]"
        },
        {
          "internalType": "bytes",
          "name": "data",
          "type": "bytes"
        }
      ],
      "name": "safeBatchTransferFrom",
      "outputs": [],
      "stateMutability": "nonpayable",
      "type": "function"
    },
    {
      "inputs": [
        {
          "internalType": "address",
          "name": "from",
          "type": "address"
        },
        {
          "internalType": "address",
          "name": "to",
          "type": "address"
        },
        {
          "internalType": "uint256",
          "name": "id",
          "type": "uint256"
        },
        {
          "internalType": "uint256",
          "name": "value",
          "type": "uint256"
        },
        {
          "internalType": "bytes",
          "name": "data",
          "type": "bytes"
        }
      ],
      "name": "safeTransferFrom",
      "outputs": [],
      "stateMutability": "nonpayable",
      "type": "function"
    },
    {
      "inputs": [
        {
          "internalType": "address",
          "name": "operator",
          "type": "address"
        },
        {
          "internalType": "bool",
          "name": "approved",
          "type": "bool"
        }
      ],
      "name": "setApprovalForAll",
      "outputs": [],
      "stateMutability": "nonpayable",
      "type": "function"
    },
    {
      "inputs": [
        {
          "internalType": "bytes4",
          "name": "interfaceId",
          "type": "bytes4"
        }
      ],
      "name": "supportsInterface",
      "outputs": [
        {
          "internalType": "bool",
          "name": "",
          "type": "bool"
        }
      ],
      "stateMutability": "view",
      "type": "function",
      "constant": true
    },
    {
      "inputs": [
        {
          "internalType": "address",
          "name": "newOwner",
          "type": "address"
        }
      ],
      "name": "transferOwnership",
      "outputs": [],
      "stateMutability": "nonpayable",
      "type": "function"
    },
    {
      "inputs": [
        {
          "internalType": "uint256",
          "name": "",
          "type": "uint256"
        }
      ],
      "name": "uri",
      "outputs": [
        {
          "internalType": "string",
          "name": "",
          "type": "string"
        }
      ],
      "stateMutability": "view",
      "type": "function",
      "constant": true
    },
    {
      "inputs": [
        {
          "internalType": "address",
          "name": "",
          "type": "address"
        }
      ],
      "name": "userRoles",
      "outputs": [
        {
          "internalType": "enum RydeAsset.UserRole",
          "name": "",
          "type": "uint8"
        }
      ],
      "stateMutability": "view",
      "type": "function",
      "constant": true
    },
    {
      "inputs": [
        {
          "internalType": "uint256",
          "name": "",
          "type": "uint256"
        }
      ],
      "name": "xclusivePassPrices",
      "outputs": [
        {
          "internalType": "uint256",
          "name": "",
          "type": "uint256"
        }
      ],
      "stateMutability": "view",
      "type": "function",
      "constant": true
    },
    {
      "inputs": [],
      "name": "xclusiveRydePassContract",
      "outputs": [
        {
          "internalType": "contract XclusiveRydePass",
          "name": "",
          "type": "address"
        }
      ],
      "stateMutability": "view",
      "type": "function",
      "constant": true
    },
    {
      "inputs": [],
      "name": "registerAsDriver",
      "outputs": [],
      "stateMutability": "nonpayable",
      "type": "function"
    },
    {
      "inputs": [],
      "name": "registerAsRider",
      "outputs": [],
      "stateMutability": "nonpayable",
      "type": "function"
    },
    {
      "inputs": [
        {
          "internalType": "address",
          "name": "a",
          "type": "address"
        }
      ],
      "name": "getUserRole",
      "outputs": [
        {
          "internalType": "enum RydeAsset.UserRole",
          "name": "",
          "type": "uint8"
        }
      ],
      "stateMutability": "view",
      "type": "function",
      "constant": true
    },
    {
      "inputs": [
        {
          "internalType": "string",
          "name": "fromLocation",
          "type": "string"
        },
        {
          "internalType": "string",
          "name": "toLocation",
          "type": "string"
        }
      ],
      "name": "createRideRequest",
      "outputs": [],
      "stateMutability": "nonpayable",
      "type": "function"
    },
    {
      "inputs": [],
      "name": "viewRideRequests",
      "outputs": [
        {
          "components": [
            {
              "internalType": "address",
              "name": "rider",
              "type": "address"
            },
            {
              "internalType": "string",
              "name": "fromLocation",
              "type": "string"
            },
            {
              "internalType": "string",
              "name": "toLocation",
              "type": "string"
            },
            {
              "internalType": "uint256",
              "name": "requestId",
              "type": "uint256"
            },
            {
              "internalType": "bool",
              "name": "isAccepted",
              "type": "bool"
            }
          ],
          "internalType": "struct RydeAsset.RideRequest[]",
          "name": "",
          "type": "tuple[]"
        }
      ],
      "stateMutability": "view",
      "type": "function",
      "constant": true
    },
    {
      "inputs": [
        {
          "internalType": "uint256",
          "name": "requestId",
          "type": "uint256"
        },
        {
          "internalType": "uint256",
          "name": "fare",
          "type": "uint256"
        },
        {
          "internalType": "uint256",
          "name": "xrpID",
          "type": "uint256"
        }
      ],
      "name": "acceptRideRequest",
      "outputs": [],
      "stateMutability": "nonpayable",
      "type": "function"
    },
    {
      "inputs": [
        {
          "internalType": "address",
          "name": "rider",
          "type": "address"
        }
      ],
      "name": "viewAcceptedRequest",
      "outputs": [
        {
          "components": [
            {
              "internalType": "address",
              "name": "driver",
              "type": "address"
            },
            {
              "internalType": "address",
              "name": "rider",
              "type": "address"
            },
            {
              "internalType": "uint256",
              "name": "fare",
              "type": "uint256"
            },
            {
              "internalType": "uint256",
              "name": "xrpID",
              "type": "uint256"
            },
            {
              "internalType": "uint256",
              "name": "requestId",
              "type": "uint256"
            },
            {
              "internalType": "uint256",
              "name": "acceptRequestId",
              "type": "uint256"
            },
            {
              "internalType": "bool",
              "name": "isAccepted",
              "type": "bool"
            }
          ],
          "internalType": "struct RydeAsset.AcceptedRide[]",
          "name": "",
          "type": "tuple[]"
        }
      ],
      "stateMutability": "view",
      "type": "function",
      "constant": true
    },
    {
      "inputs": [
        {
          "internalType": "uint256",
          "name": "acceptRequestId",
          "type": "uint256"
        }
      ],
      "name": "bookRide",
      "outputs": [],
      "stateMutability": "nonpayable",
      "type": "function"
    },
    {
      "inputs": [
        {
          "internalType": "address",
          "name": "driver",
          "type": "address"
        }
      ],
      "name": "delConfirmedRidesForDriver",
      "outputs": [],
      "stateMutability": "nonpayable",
      "type": "function"
    },
    {
      "inputs": [
        {
          "internalType": "address",
          "name": "driver",
          "type": "address"
        }
      ],
      "name": "getConfirmedRidesForDriver",
      "outputs": [
        {
          "components": [
            {
              "internalType": "address",
              "name": "rider",
              "type": "address"
            },
            {
              "internalType": "uint256",
              "name": "fare",
              "type": "uint256"
            },
            {
              "internalType": "uint256",
              "name": "xrpToken",
              "type": "uint256"
            },
            {
              "internalType": "uint256",
              "name": "flag",
              "type": "uint256"
            }
          ],
          "internalType": "struct RydeAsset.ConfirmedRide[]",
          "name": "",
          "type": "tuple[]"
        }
      ],
      "stateMutability": "view",
      "type": "function",
      "constant": true
    }
  ],
  "bytecode": "0x6080604052600a600455600060085560006009553480156200002057600080fd5b506040516200514b3803806200514b8339818101604052810190620000469190620002e5565b336040518060400160405280600681526020017f61626364636500000000000000000000000000000000000000000000000000008152506200008e81620001a060201b60201c565b50600073ffffffffffffffffffffffffffffffffffffffff168173ffffffffffffffffffffffffffffffffffffffff1603620001045760006040517f1e4fbdf7000000000000000000000000000000000000000000000000000000008152600401620000fb91906200033d565b60405180910390fd5b6200011581620001b560201b60201c565b5081600560006101000a81548173ffffffffffffffffffffffffffffffffffffffff021916908373ffffffffffffffffffffffffffffffffffffffff16021790555080600660006101000a81548173ffffffffffffffffffffffffffffffffffffffff021916908373ffffffffffffffffffffffffffffffffffffffff1602179055505050620006bb565b8060029081620001b19190620005d4565b5050565b6000600360009054906101000a900473ffffffffffffffffffffffffffffffffffffffff16905081600360006101000a81548173ffffffffffffffffffffffffffffffffffffffff021916908373ffffffffffffffffffffffffffffffffffffffff1602179055508173ffffffffffffffffffffffffffffffffffffffff168173ffffffffffffffffffffffffffffffffffffffff167f8be0079c531659141344cd1fd0a4f28419497f9722a3daafe3b4186f6b6457e060405160405180910390a35050565b600080fd5b600073ffffffffffffffffffffffffffffffffffffffff82169050919050565b6000620002ad8262000280565b9050919050565b620002bf81620002a0565b8114620002cb57600080fd5b50565b600081519050620002df81620002b4565b92915050565b60008060408385031215620002ff57620002fe6200027b565b5b60006200030f85828601620002ce565b92505060206200032285828601620002ce565b9150509250929050565b6200033781620002a0565b82525050565b60006020820190506200035460008301846200032c565b92915050565b600081519050919050565b7f4e487b7100000000000000000000000000000000000000000000000000000000600052604160045260246000fd5b7f4e487b7100000000000000000000000000000000000000000000000000000000600052602260045260246000fd5b60006002820490506001821680620003dc57607f821691505b602082108103620003f257620003f162000394565b5b50919050565b60008190508160005260206000209050919050565b60006020601f8301049050919050565b600082821b905092915050565b6000600883026200045c7fffffffffffffffffffffffffffffffffffffffffffffffffffffffffffffffff826200041d565b6200046886836200041d565b95508019841693508086168417925050509392505050565b6000819050919050565b6000819050919050565b6000620004b5620004af620004a98462000480565b6200048a565b62000480565b9050919050565b6000819050919050565b620004d18362000494565b620004e9620004e082620004bc565b8484546200042a565b825550505050565b600090565b62000500620004f1565b6200050d818484620004c6565b505050565b5b81811015620005355762000529600082620004f6565b60018101905062000513565b5050565b601f82111562000584576200054e81620003f8565b62000559846200040d565b8101602085101562000569578190505b6200058162000578856200040d565b83018262000512565b50505b505050565b600082821c905092915050565b6000620005a96000198460080262000589565b1980831691505092915050565b6000620005c4838362000596565b9150826002028217905092915050565b620005df826200035a565b67ffffffffffffffff811115620005fb57620005fa62000365565b5b620006078254620003c3565b6200061482828562000539565b600060209050601f8311600181146200064c576000841562000637578287015190505b620006438582620005b6565b865550620006b3565b601f1984166200065c86620003f8565b60005b8281101562000686578489015182556001820191506020850194506020810190506200065f565b86831015620006a65784890151620006a2601f89168262000596565b8355505b6001600288020188555050505b505050505050565b614a8080620006cb6000396000f3fe608060405234801561001057600080fd5b50600436106101ce5760003560e01c806368fe24e911610104578063a22cb465116100a2578063c69b2cf611610071578063c69b2cf614610560578063e985e9c51461057c578063f242432a146105ac578063f2fde38b146105c8576101ce565b8063a22cb465146104d6578063b846dbb1146104f2578063bcc601ab1461050e578063c002d23d14610542576101ce565b806374d5e100116100de57806374d5e1001461043c5780637cd970701461046c5780637f5858ab1461049c5780638da5cb5b146104b8576101ce565b806368fe24e9146103e35780636a97adf014610416578063715018a614610432576101ce565b806331573769116101715780634d7646431161014b5780634d7646431461035b5780634e1273f414610365578063555feae8146103955780635737d6ef146103b3576101ce565b806331573769146102eb5780633e5d45641461031b5780633eef3b8614610351576101ce565b80630e89341c116101ad5780630e89341c1461025157806311eb62c414610281578063278208511461029f5780632eb2c2d6146102cf576101ce565b8062fdd58e146101d357806301ffc9a7146102035780630886fc0814610233575b600080fd5b6101ed60048036038101906101e891906130a4565b6105e4565b6040516101fa91906130f3565b60405180910390f35b61021d60048036038101906102189190613166565b61063e565b60405161022a91906131ae565b60405180910390f35b61023b610720565b6040516102489190613228565b60405180910390f35b61026b60048036038101906102669190613243565b610746565b6040516102789190613300565b60405180910390f35b6102896107da565b60405161029691906134d8565b60405180910390f35b6102b960048036038101906102b491906134fa565b610a69565b6040516102c6919061359e565b60405180910390f35b6102e960048036038101906102e491906137b6565b610abf565b005b61030560048036038101906103009190613243565b610b67565b60405161031291906130f3565b60405180910390f35b61033560048036038101906103309190613243565b610b7f565b6040516103489796959493929190613894565b60405180910390f35b610359610c0e565b005b610363610c78565b005b61037f600480360381019061037a91906139c6565b610ce2565b60405161038c9190613aed565b60405180910390f35b61039d610df1565b6040516103aa9190613b30565b60405180910390f35b6103cd60048036038101906103c891906134fa565b610e17565b6040516103da9190613c88565b60405180910390f35b6103fd60048036038101906103f891906130a4565b6110d1565b60405161040d9493929190613caa565b60405180910390f35b610430600480360381019061042b91906134fa565b61113e565b005b61043a61118c565b005b610456600480360381019061045191906134fa565b6111a0565b604051610463919061359e565b60405180910390f35b610486600480360381019061048191906134fa565b6111c0565b6040516104939190613df3565b60405180910390f35b6104b660048036038101906104b19190613e15565b6112d2565b005b6104c061166d565b6040516104cd9190613e68565b60405180910390f35b6104f060048036038101906104eb9190613eaf565b611697565b005b61050c60048036038101906105079190613f90565b6116ad565b005b61052860048036038101906105239190613243565b6118b1565b604051610539959493929190614008565b60405180910390f35b61054a611a24565b60405161055791906130f3565b60405180910390f35b61057a60048036038101906105759190613243565b611a2a565b005b61059660048036038101906105919190614069565b611fbc565b6040516105a391906131ae565b60405180910390f35b6105c660048036038101906105c191906140a9565b612050565b005b6105e260048036038101906105dd91906134fa565b6120f8565b005b600080600083815260200190815260200160002060008473ffffffffffffffffffffffffffffffffffffffff1673ffffffffffffffffffffffffffffffffffffffff16815260200190815260200160002054905092915050565b60007fd9b67a26000000000000000000000000000000000000000000000000000000007bffffffffffffffffffffffffffffffffffffffffffffffffffffffff1916827bffffffffffffffffffffffffffffffffffffffffffffffffffffffff1916148061070957507f0e89341c000000000000000000000000000000000000000000000000000000007bffffffffffffffffffffffffffffffffffffffffffffffffffffffff1916827bffffffffffffffffffffffffffffffffffffffffffffffffffffffff1916145b8061071957506107188261217e565b5b9050919050565b600560009054906101000a900473ffffffffffffffffffffffffffffffffffffffff1681565b6060600280546107559061416f565b80601f01602080910402602001604051908101604052809291908181526020018280546107819061416f565b80156107ce5780601f106107a3576101008083540402835291602001916107ce565b820191906000526020600020905b8154815290600101906020018083116107b157829003601f168201915b50505050509050919050565b6060600060085467ffffffffffffffff8111156107fa576107f96135be565b5b60405190808252806020026020018201604052801561083357816020015b610820612ed0565b8152602001906001900390816108185790505b50905060005b600854811015610a615760011515600a600083815260200190815260200160002060040160009054906101000a900460ff16151514610a4e57600a60008281526020019081526020016000206040518060a00160405290816000820160009054906101000a900473ffffffffffffffffffffffffffffffffffffffff1673ffffffffffffffffffffffffffffffffffffffff1673ffffffffffffffffffffffffffffffffffffffff1681526020016001820180546108f69061416f565b80601f01602080910402602001604051908101604052809291908181526020018280546109229061416f565b801561096f5780601f106109445761010080835404028352916020019161096f565b820191906000526020600020905b81548152906001019060200180831161095257829003601f168201915b505050505081526020016002820180546109889061416f565b80601f01602080910402602001604051908101604052809291908181526020018280546109b49061416f565b8015610a015780601f106109d657610100808354040283529160200191610a01565b820191906000526020600020905b8154815290600101906020018083116109e457829003601f168201915b50505050508152602001600382015481526020016004820160009054906101000a900460ff161515151581525050828281518110610a4257610a416141a0565b5b60200260200101819052505b8080610a59906141fe565b915050610839565b508091505090565b6000600760008373ffffffffffffffffffffffffffffffffffffffff1673ffffffffffffffffffffffffffffffffffffffff16815260200190815260200160002060009054906101000a900460ff169050919050565b6000610ac96121e8565b90508073ffffffffffffffffffffffffffffffffffffffff168673ffffffffffffffffffffffffffffffffffffffff1614158015610b0e5750610b0c8682611fbc565b155b15610b525780866040517fe237d922000000000000000000000000000000000000000000000000000000008152600401610b49929190614246565b60405180910390fd5b610b5f86868686866121f0565b505050505050565b600e6020528060005260406000206000915090505481565b600b6020528060005260406000206000915090508060000160009054906101000a900473ffffffffffffffffffffffffffffffffffffffff16908060010160009054906101000a900473ffffffffffffffffffffffffffffffffffffffff16908060020154908060030154908060040154908060050154908060060160009054906101000a900460ff16905087565b6001600760003373ffffffffffffffffffffffffffffffffffffffff1673ffffffffffffffffffffffffffffffffffffffff16815260200190815260200160002060006101000a81548160ff02191690836002811115610c7157610c70613527565b5b0217905550565b6002600760003373ffffffffffffffffffffffffffffffffffffffff1673ffffffffffffffffffffffffffffffffffffffff16815260200190815260200160002060006101000a81548160ff02191690836002811115610cdb57610cda613527565b5b0217905550565b60608151835114610d2e57815183516040517f5b059991000000000000000000000000000000000000000000000000000000008152600401610d2592919061426f565b60405180910390fd5b6000835167ffffffffffffffff811115610d4b57610d4a6135be565b5b604051908082528060200260200182016040528015610d795781602001602082028036833780820191505090505b50905060005b8451811015610de657610db6610d9e82876122e890919063ffffffff16565b610db183876122fc90919063ffffffff16565b6105e4565b828281518110610dc957610dc86141a0565b5b60200260200101818152505080610ddf906141fe565b9050610d7f565b508091505092915050565b600660009054906101000a900473ffffffffffffffffffffffffffffffffffffffff1681565b60603373ffffffffffffffffffffffffffffffffffffffff168273ffffffffffffffffffffffffffffffffffffffff1614610e87576040517f08c379a0000000000000000000000000000000000000000000000000000000008152600401610e7e9061430a565b60405180910390fd5b6000600c60008473ffffffffffffffffffffffffffffffffffffffff1673ffffffffffffffffffffffffffffffffffffffff16815260200190815260200160002090506000818054905067ffffffffffffffff811115610eea57610ee96135be565b5b604051908082528060200260200182016040528015610f2357816020015b610f10612f17565b815260200190600190039081610f085790505b50905060005b82805490508110156110c6576000838281548110610f4a57610f496141a0565b5b9060005260206000200154905060011515600b600083815260200190815260200160002060060160009054906101000a900460ff161515146110b257600b60008281526020019081526020016000206040518060e00160405290816000820160009054906101000a900473ffffffffffffffffffffffffffffffffffffffff1673ffffffffffffffffffffffffffffffffffffffff1673ffffffffffffffffffffffffffffffffffffffff1681526020016001820160009054906101000a900473ffffffffffffffffffffffffffffffffffffffff1673ffffffffffffffffffffffffffffffffffffffff1673ffffffffffffffffffffffffffffffffffffffff168152602001600282015481526020016003820154815260200160048201548152602001600582015481526020016006820160009054906101000a900460ff1615151515815250508383815181106110a6576110a56141a0565b5b60200260200101819052505b5080806110be906141fe565b915050610f29565b508092505050919050565b600d60205281600052604060002081815481106110ed57600080fd5b9060005260206000209060040201600091509150508060000160009054906101000a900473ffffffffffffffffffffffffffffffffffffffff16908060010154908060020154908060030154905084565b600d60008273ffffffffffffffffffffffffffffffffffffffff1673ffffffffffffffffffffffffffffffffffffffff16815260200190815260200160002060006111899190612f82565b50565b611194612310565b61119e6000612397565b565b60076020528060005260406000206000915054906101000a900460ff1681565b6060600d60008373ffffffffffffffffffffffffffffffffffffffff1673ffffffffffffffffffffffffffffffffffffffff168152602001908152602001600020805480602002602001604051908101604052809291908181526020016000905b828210156112c757838290600052602060002090600402016040518060800160405290816000820160009054906101000a900473ffffffffffffffffffffffffffffffffffffffff1673ffffffffffffffffffffffffffffffffffffffff1673ffffffffffffffffffffffffffffffffffffffff168152602001600182015481526020016002820154815260200160038201548152505081526020019060010190611221565b505050509050919050565b600160028111156112e6576112e5613527565b5b600760003373ffffffffffffffffffffffffffffffffffffffff1673ffffffffffffffffffffffffffffffffffffffff16815260200190815260200160002060009054906101000a900460ff16600281111561134557611344613527565b5b14611385576040517f08c379a000000000000000000000000000000000000000000000000000000000815260040161137c90614376565b60405180910390fd5b600073ffffffffffffffffffffffffffffffffffffffff16600a600085815260200190815260200160002060000160009054906101000a900473ffffffffffffffffffffffffffffffffffffffff1673ffffffffffffffffffffffffffffffffffffffff160361142a576040517f08c379a0000000000000000000000000000000000000000000000000000000008152600401611421906143e2565b60405180910390fd5b6040518060e001604052803373ffffffffffffffffffffffffffffffffffffffff168152602001600a600086815260200190815260200160002060000160009054906101000a900473ffffffffffffffffffffffffffffffffffffffff1673ffffffffffffffffffffffffffffffffffffffff168152602001838152602001828152602001848152602001600954815260200160001515815250600b6000600954815260200190815260200160002060008201518160000160006101000a81548173ffffffffffffffffffffffffffffffffffffffff021916908373ffffffffffffffffffffffffffffffffffffffff16021790555060208201518160010160006101000a81548173ffffffffffffffffffffffffffffffffffffffff021916908373ffffffffffffffffffffffffffffffffffffffff16021790555060408201518160020155606082015181600301556080820151816004015560a0820151816005015560c08201518160060160006101000a81548160ff021916908315150217905550905050600c6000600a600086815260200190815260200160002060000160009054906101000a900473ffffffffffffffffffffffffffffffffffffffff1673ffffffffffffffffffffffffffffffffffffffff1673ffffffffffffffffffffffffffffffffffffffff168152602001908152602001600020600954908060018154018082558091505060019003906000526020600020016000909190919091505560096000815480929190611663906141fe565b9190505550505050565b6000600360009054906101000a900473ffffffffffffffffffffffffffffffffffffffff16905090565b6116a96116a26121e8565b838361245d565b5050565b6002808111156116c0576116bf613527565b5b600760003373ffffffffffffffffffffffffffffffffffffffff1673ffffffffffffffffffffffffffffffffffffffff16815260200190815260200160002060009054906101000a900460ff16600281111561171f5761171e613527565b5b1461175f576040517f08c379a00000000000000000000000000000000000000000000000000000000081526004016117569061444e565b60405180910390fd5b6040518060a001604052803373ffffffffffffffffffffffffffffffffffffffff168152602001838152602001828152602001600854815260200160001515815250600a6000600854815260200190815260200160002060008201518160000160006101000a81548173ffffffffffffffffffffffffffffffffffffffff021916908373ffffffffffffffffffffffffffffffffffffffff16021790555060208201518160010190816118129190614610565b5060408201518160020190816118289190614610565b506060820151816003015560808201518160040160006101000a81548160ff0219169083151502179055509050507f1b39921b0c3b3e4abd130e7e0151bc5afe1f68079df42ee5627682c2841d943360085433848460405161188d94939291906146e2565b60405180910390a1600860008154809291906118a8906141fe565b91905055505050565b600a6020528060005260406000206000915090508060000160009054906101000a900473ffffffffffffffffffffffffffffffffffffffff16908060010180546118fa9061416f565b80601f01602080910402602001604051908101604052809291908181526020018280546119269061416f565b80156119735780601f1061194857610100808354040283529160200191611973565b820191906000526020600020905b81548152906001019060200180831161195657829003601f168201915b5050505050908060020180546119889061416f565b80601f01602080910402602001604051908101604052809291908181526020018280546119b49061416f565b8015611a015780601f106119d657610100808354040283529160200191611a01565b820191906000526020600020905b8154815290600101906020018083116119e457829003601f168201915b5050505050908060030154908060040160009054906101000a900460ff16905085565b60045481565b600280811115611a3d57611a3c613527565b5b600760003373ffffffffffffffffffffffffffffffffffffffff1673ffffffffffffffffffffffffffffffffffffffff16815260200190815260200160002060009054906101000a900460ff166002811115611a9c57611a9b613527565b5b14611adc576040517f08c379a0000000000000000000000000000000000000000000000000000000008152600401611ad390614781565b60405180910390fd5b600073ffffffffffffffffffffffffffffffffffffffff16600b600083815260200190815260200160002060010160009054906101000a900473ffffffffffffffffffffffffffffffffffffffff1673ffffffffffffffffffffffffffffffffffffffff1603611b81576040517f08c379a0000000000000000000000000000000000000000000000000000000008152600401611b78906143e2565b60405180910390fd5b600b600082815260200190815260200160002060020154600560009054906101000a900473ffffffffffffffffffffffffffffffffffffffff1673ffffffffffffffffffffffffffffffffffffffff1663cca3e832336040518263ffffffff1660e01b8152600401611bf39190613e68565b602060405180830381865afa158015611c10573d6000803e3d6000fd5b505050506040513d601f19601f82011682018060405250810190611c3491906147b6565b1015611c75576040517f08c379a0000000000000000000000000000000000000000000000000000000008152600401611c6c9061482f565b60405180910390fd5b600560009054906101000a900473ffffffffffffffffffffffffffffffffffffffff1673ffffffffffffffffffffffffffffffffffffffff16632e78404533600b600085815260200190815260200160002060000160009054906101000a900473ffffffffffffffffffffffffffffffffffffffff16600b6000868152602001908152602001600020600201546040518463ffffffff1660e01b8152600401611d209392919061484f565b600060405180830381600087803b158015611d3a57600080fd5b505af1158015611d4e573d6000803e3d6000fd5b50505050600d6000600b600084815260200190815260200160002060000160009054906101000a900473ffffffffffffffffffffffffffffffffffffffff1673ffffffffffffffffffffffffffffffffffffffff1673ffffffffffffffffffffffffffffffffffffffff16815260200190815260200160002060405180608001604052803373ffffffffffffffffffffffffffffffffffffffff168152602001600b6000858152602001908152602001600020600201548152602001600b60008581526020019081526020016000206003015481526020016000815250908060018154018082558091505060019003906000526020600020906004020160009091909190915060008201518160000160006101000a81548173ffffffffffffffffffffffffffffffffffffffff021916908373ffffffffffffffffffffffffffffffffffffffff160217905550602082015181600101556040820151816002015560608201518160030155505060005b600954811015611f44576000600b600083815260200190815260200160002060040154905080600b60008581526020019081526020016000206004015403611f30576001600b600084815260200190815260200160002060060160006101000a81548160ff0219169083151502179055505b508080611f3c906141fe565b915050611ebe565b506001600a6000600b600085815260200190815260200160002060040154815260200190815260200160002060040160006101000a81548160ff0219169083151502179055506001600b600083815260200190815260200160002060060160006101000a81548160ff02191690831515021790555050565b6000600160008473ffffffffffffffffffffffffffffffffffffffff1673ffffffffffffffffffffffffffffffffffffffff16815260200190815260200160002060008373ffffffffffffffffffffffffffffffffffffffff1673ffffffffffffffffffffffffffffffffffffffff16815260200190815260200160002060009054906101000a900460ff16905092915050565b600061205a6121e8565b90508073ffffffffffffffffffffffffffffffffffffffff168673ffffffffffffffffffffffffffffffffffffffff161415801561209f575061209d8682611fbc565b155b156120e35780866040517fe237d9220000000000000000000000000000000000000000000000000000000081526004016120da929190614246565b60405180910390fd5b6120f086868686866125cd565b505050505050565b612100612310565b600073ffffffffffffffffffffffffffffffffffffffff168173ffffffffffffffffffffffffffffffffffffffff16036121725760006040517f1e4fbdf70000000000000000000000000000000000000000000000000000000081526004016121699190613e68565b60405180910390fd5b61217b81612397565b50565b60007f01ffc9a7000000000000000000000000000000000000000000000000000000007bffffffffffffffffffffffffffffffffffffffffffffffffffffffff1916827bffffffffffffffffffffffffffffffffffffffffffffffffffffffff1916149050919050565b600033905090565b600073ffffffffffffffffffffffffffffffffffffffff168473ffffffffffffffffffffffffffffffffffffffff16036122625760006040517f57f447ce0000000000000000000000000000000000000000000000000000000081526004016122599190613e68565b60405180910390fd5b600073ffffffffffffffffffffffffffffffffffffffff168573ffffffffffffffffffffffffffffffffffffffff16036122d45760006040517f01a835140000000000000000000000000000000000000000000000000000000081526004016122cb9190613e68565b60405180910390fd5b6122e185858585856126d8565b5050505050565b600060208202602084010151905092915050565b600060208202602084010151905092915050565b6123186121e8565b73ffffffffffffffffffffffffffffffffffffffff1661233661166d565b73ffffffffffffffffffffffffffffffffffffffff1614612395576123596121e8565b6040517f118cdaa700000000000000000000000000000000000000000000000000000000815260040161238c9190613e68565b60405180910390fd5b565b6000600360009054906101000a900473ffffffffffffffffffffffffffffffffffffffff16905081600360006101000a81548173ffffffffffffffffffffffffffffffffffffffff021916908373ffffffffffffffffffffffffffffffffffffffff1602179055508173ffffffffffffffffffffffffffffffffffffffff168173ffffffffffffffffffffffffffffffffffffffff167f8be0079c531659141344cd1fd0a4f28419497f9722a3daafe3b4186f6b6457e060405160405180910390a35050565b600073ffffffffffffffffffffffffffffffffffffffff168273ffffffffffffffffffffffffffffffffffffffff16036124cf5760006040517fced3e1000000000000000000000000000000000000000000000000000000000081526004016124c69190613e68565b60405180910390fd5b80600160008573ffffffffffffffffffffffffffffffffffffffff1673ffffffffffffffffffffffffffffffffffffffff16815260200190815260200160002060008473ffffffffffffffffffffffffffffffffffffffff1673ffffffffffffffffffffffffffffffffffffffff16815260200190815260200160002060006101000a81548160ff0219169083151502179055508173ffffffffffffffffffffffffffffffffffffffff168373ffffffffffffffffffffffffffffffffffffffff167f17307eab39ab6107e8899845ad3d59bd9653f200f220920489ca2b5937696c31836040516125c091906131ae565b60405180910390a3505050565b600073ffffffffffffffffffffffffffffffffffffffff168473ffffffffffffffffffffffffffffffffffffffff160361263f5760006040517f57f447ce0000000000000000000000000000000000000000000000000000000081526004016126369190613e68565b60405180910390fd5b600073ffffffffffffffffffffffffffffffffffffffff168573ffffffffffffffffffffffffffffffffffffffff16036126b15760006040517f01a835140000000000000000000000000000000000000000000000000000000081526004016126a89190613e68565b60405180910390fd5b6000806126be858561278a565b915091506126cf87878484876126d8565b50505050505050565b6126e4858585856127ba565b600073ffffffffffffffffffffffffffffffffffffffff168473ffffffffffffffffffffffffffffffffffffffff16146127835760006127226121e8565b905060018451036127725760006127436000866122fc90919063ffffffff16565b9050600061275b6000866122fc90919063ffffffff16565b905061276b838989858589612b68565b5050612781565b612780818787878787612d1c565b5b505b5050505050565b60608060405191506001825283602083015260408201905060018152826020820152604081016040529250929050565b805182511461280457815181516040517f5b0599910000000000000000000000000000000000000000000000000000000081526004016127fb92919061426f565b60405180910390fd5b600061280e6121e8565b905060005b8351811015612a2357600061283182866122fc90919063ffffffff16565b9050600061284883866122fc90919063ffffffff16565b9050600073ffffffffffffffffffffffffffffffffffffffff168873ffffffffffffffffffffffffffffffffffffffff161461297557600080600084815260200190815260200160002060008a73ffffffffffffffffffffffffffffffffffffffff1673ffffffffffffffffffffffffffffffffffffffff1681526020019081526020016000205490508181101561291d57888183856040517f03dee4c50000000000000000000000000000000000000000000000000000000081526004016129149493929190613caa565b60405180910390fd5b81810360008085815260200190815260200160002060008b73ffffffffffffffffffffffffffffffffffffffff1673ffffffffffffffffffffffffffffffffffffffff16815260200190815260200160002081905550505b600073ffffffffffffffffffffffffffffffffffffffff168773ffffffffffffffffffffffffffffffffffffffff1614612a10578060008084815260200190815260200160002060008973ffffffffffffffffffffffffffffffffffffffff1673ffffffffffffffffffffffffffffffffffffffff1681526020019081526020016000206000828254612a089190614886565b925050819055505b505080612a1c906141fe565b9050612813565b506001835103612ae2576000612a436000856122fc90919063ffffffff16565b90506000612a5b6000856122fc90919063ffffffff16565b90508573ffffffffffffffffffffffffffffffffffffffff168773ffffffffffffffffffffffffffffffffffffffff168473ffffffffffffffffffffffffffffffffffffffff167fc3d58168c5ae7397731d063d5bbf3d657854427343f4c083240f7aacaa2d0f628585604051612ad392919061426f565b60405180910390a45050612b61565b8373ffffffffffffffffffffffffffffffffffffffff168573ffffffffffffffffffffffffffffffffffffffff168273ffffffffffffffffffffffffffffffffffffffff167f4a39dc06d4c0dbc64b70af90fd698a233a518aa5d07e595d983b8c0526c8f7fb8686604051612b589291906148ba565b60405180910390a45b5050505050565b60008473ffffffffffffffffffffffffffffffffffffffff163b1115612d14578373ffffffffffffffffffffffffffffffffffffffff1663f23a6e6187878686866040518663ffffffff1660e01b8152600401612bc9959493929190614946565b6020604051808303816000875af1925050508015612c0557506040513d601f19601f82011682018060405250810190612c0291906149b5565b60015b612c89573d8060008114612c35576040519150601f19603f3d011682016040523d82523d6000602084013e612c3a565b606091505b506000815103612c8157846040517f57f447ce000000000000000000000000000000000000000000000000000000008152600401612c789190613e68565b60405180910390fd5b805181602001fd5b63f23a6e6160e01b7bffffffffffffffffffffffffffffffffffffffffffffffffffffffff1916817bffffffffffffffffffffffffffffffffffffffffffffffffffffffff191614612d1257846040517f57f447ce000000000000000000000000000000000000000000000000000000008152600401612d099190613e68565b60405180910390fd5b505b505050505050565b60008473ffffffffffffffffffffffffffffffffffffffff163b1115612ec8578373ffffffffffffffffffffffffffffffffffffffff1663bc197c8187878686866040518663ffffffff1660e01b8152600401612d7d9594939291906149e2565b6020604051808303816000875af1925050508015612db957506040513d601f19601f82011682018060405250810190612db691906149b5565b60015b612e3d573d8060008114612de9576040519150601f19603f3d011682016040523d82523d6000602084013e612dee565b606091505b506000815103612e3557846040517f57f447ce000000000000000000000000000000000000000000000000000000008152600401612e2c9190613e68565b60405180910390fd5b805181602001fd5b63bc197c8160e01b7bffffffffffffffffffffffffffffffffffffffffffffffffffffffff1916817bffffffffffffffffffffffffffffffffffffffffffffffffffffffff191614612ec657846040517f57f447ce000000000000000000000000000000000000000000000000000000008152600401612ebd9190613e68565b60405180910390fd5b505b505050505050565b6040518060a00160405280600073ffffffffffffffffffffffffffffffffffffffff1681526020016060815260200160608152602001600081526020016000151581525090565b6040518060e00160405280600073ffffffffffffffffffffffffffffffffffffffff168152602001600073ffffffffffffffffffffffffffffffffffffffff168152602001600081526020016000815260200160008152602001600081526020016000151581525090565b5080546000825560040290600052602060002090810190612fa39190612fa6565b50565b5b80821115612ff857600080820160006101000a81549073ffffffffffffffffffffffffffffffffffffffff021916905560018201600090556002820160009055600382016000905550600401612fa7565b5090565b6000604051905090565b600080fd5b600080fd5b600073ffffffffffffffffffffffffffffffffffffffff82169050919050565b600061303b82613010565b9050919050565b61304b81613030565b811461305657600080fd5b50565b60008135905061306881613042565b92915050565b6000819050919050565b6130818161306e565b811461308c57600080fd5b50565b60008135905061309e81613078565b92915050565b600080604083850312156130bb576130ba613006565b5b60006130c985828601613059565b92505060206130da8582860161308f565b9150509250929050565b6130ed8161306e565b82525050565b600060208201905061310860008301846130e4565b92915050565b60007fffffffff0000000000000000000000000000000000000000000000000000000082169050919050565b6131438161310e565b811461314e57600080fd5b50565b6000813590506131608161313a565b92915050565b60006020828403121561317c5761317b613006565b5b600061318a84828501613151565b91505092915050565b60008115159050919050565b6131a881613193565b82525050565b60006020820190506131c3600083018461319f565b92915050565b6000819050919050565b60006131ee6131e96131e484613010565b6131c9565b613010565b9050919050565b6000613200826131d3565b9050919050565b6000613212826131f5565b9050919050565b61322281613207565b82525050565b600060208201905061323d6000830184613219565b92915050565b60006020828403121561325957613258613006565b5b60006132678482850161308f565b91505092915050565b600081519050919050565b600082825260208201905092915050565b60005b838110156132aa57808201518184015260208101905061328f565b60008484015250505050565b6000601f19601f8301169050919050565b60006132d282613270565b6132dc818561327b565b93506132ec81856020860161328c565b6132f5816132b6565b840191505092915050565b6000602082019050818103600083015261331a81846132c7565b905092915050565b600081519050919050565b600082825260208201905092915050565b6000819050602082019050919050565b61335781613030565b82525050565b600082825260208201905092915050565b600061337982613270565b613383818561335d565b935061339381856020860161328c565b61339c816132b6565b840191505092915050565b6133b08161306e565b82525050565b6133bf81613193565b82525050565b600060a0830160008301516133dd600086018261334e565b50602083015184820360208601526133f5828261336e565b9150506040830151848203604086015261340f828261336e565b915050606083015161342460608601826133a7565b50608083015161343760808601826133b6565b508091505092915050565b600061344e83836133c5565b905092915050565b6000602082019050919050565b600061346e82613322565b613478818561332d565b93508360208202850161348a8561333e565b8060005b858110156134c657848403895281516134a78582613442565b94506134b283613456565b925060208a0199505060018101905061348e565b50829750879550505050505092915050565b600060208201905081810360008301526134f28184613463565b905092915050565b6000602082840312156135105761350f613006565b5b600061351e84828501613059565b91505092915050565b7f4e487b7100000000000000000000000000000000000000000000000000000000600052602160045260246000fd5b6003811061356757613566613527565b5b50565b600081905061357882613556565b919050565b60006135888261356a565b9050919050565b6135988161357d565b82525050565b60006020820190506135b3600083018461358f565b92915050565b600080fd5b7f4e487b7100000000000000000000000000000000000000000000000000000000600052604160045260246000fd5b6135f6826132b6565b810181811067ffffffffffffffff82111715613615576136146135be565b5b80604052505050565b6000613628612ffc565b905061363482826135ed565b919050565b600067ffffffffffffffff821115613654576136536135be565b5b602082029050602081019050919050565b600080fd5b600061367d61367884613639565b61361e565b905080838252602082019050602084028301858111156136a05761369f613665565b5b835b818110156136c957806136b5888261308f565b8452602084019350506020810190506136a2565b5050509392505050565b600082601f8301126136e8576136e76135b9565b5b81356136f884826020860161366a565b91505092915050565b600080fd5b600067ffffffffffffffff821115613721576137206135be565b5b61372a826132b6565b9050602081019050919050565b82818337600083830152505050565b600061375961375484613706565b61361e565b90508281526020810184848401111561377557613774613701565b5b613780848285613737565b509392505050565b600082601f83011261379d5761379c6135b9565b5b81356137ad848260208601613746565b91505092915050565b600080600080600060a086880312156137d2576137d1613006565b5b60006137e088828901613059565b95505060206137f188828901613059565b945050604086013567ffffffffffffffff8111156138125761381161300b565b5b61381e888289016136d3565b935050606086013567ffffffffffffffff81111561383f5761383e61300b565b5b61384b888289016136d3565b925050608086013567ffffffffffffffff81111561386c5761386b61300b565b5b61387888828901613788565b9150509295509295909350565b61388e81613030565b82525050565b600060e0820190506138a9600083018a613885565b6138b66020830189613885565b6138c360408301886130e4565b6138d060608301876130e4565b6138dd60808301866130e4565b6138ea60a08301856130e4565b6138f760c083018461319f565b98975050505050505050565b600067ffffffffffffffff82111561391e5761391d6135be565b5b602082029050602081019050919050565b600061394261393d84613903565b61361e565b9050808382526020820190506020840283018581111561396557613964613665565b5b835b8181101561398e578061397a8882613059565b845260208401935050602081019050613967565b5050509392505050565b600082601f8301126139ad576139ac6135b9565b5b81356139bd84826020860161392f565b91505092915050565b600080604083850312156139dd576139dc613006565b5b600083013567ffffffffffffffff8111156139fb576139fa61300b565b5b613a0785828601613998565b925050602083013567ffffffffffffffff811115613a2857613a2761300b565b5b613a34858286016136d3565b9150509250929050565b600081519050919050565b600082825260208201905092915050565b6000819050602082019050919050565b6000613a7683836133a7565b60208301905092915050565b6000602082019050919050565b6000613a9a82613a3e565b613aa48185613a49565b9350613aaf83613a5a565b8060005b83811015613ae0578151613ac78882613a6a565b9750613ad283613a82565b925050600181019050613ab3565b5085935050505092915050565b60006020820190508181036000830152613b078184613a8f565b905092915050565b6000613b1a826131f5565b9050919050565b613b2a81613b0f565b82525050565b6000602082019050613b456000830184613b21565b92915050565b600081519050919050565b600082825260208201905092915050565b6000819050602082019050919050565b60e082016000820151613b8d600085018261334e565b506020820151613ba0602085018261334e565b506040820151613bb360408501826133a7565b506060820151613bc660608501826133a7565b506080820151613bd960808501826133a7565b5060a0820151613bec60a08501826133a7565b5060c0820151613bff60c08501826133b6565b50505050565b6000613c118383613b77565b60e08301905092915050565b6000602082019050919050565b6000613c3582613b4b565b613c3f8185613b56565b9350613c4a83613b67565b8060005b83811015613c7b578151613c628882613c05565b9750613c6d83613c1d565b925050600181019050613c4e565b5085935050505092915050565b60006020820190508181036000830152613ca28184613c2a565b905092915050565b6000608082019050613cbf6000830187613885565b613ccc60208301866130e4565b613cd960408301856130e4565b613ce660608301846130e4565b95945050505050565b600081519050919050565b600082825260208201905092915050565b6000819050602082019050919050565b608082016000820151613d31600085018261334e565b506020820151613d4460208501826133a7565b506040820151613d5760408501826133a7565b506060820151613d6a60608501826133a7565b50505050565b6000613d7c8383613d1b565b60808301905092915050565b6000602082019050919050565b6000613da082613cef565b613daa8185613cfa565b9350613db583613d0b565b8060005b83811015613de6578151613dcd8882613d70565b9750613dd883613d88565b925050600181019050613db9565b5085935050505092915050565b60006020820190508181036000830152613e0d8184613d95565b905092915050565b600080600060608486031215613e2e57613e2d613006565b5b6000613e3c8682870161308f565b9350506020613e4d8682870161308f565b9250506040613e5e8682870161308f565b9150509250925092565b6000602082019050613e7d6000830184613885565b92915050565b613e8c81613193565b8114613e9757600080fd5b50565b600081359050613ea981613e83565b92915050565b60008060408385031215613ec657613ec5613006565b5b6000613ed485828601613059565b9250506020613ee585828601613e9a565b9150509250929050565b600067ffffffffffffffff821115613f0a57613f096135be565b5b613f13826132b6565b9050602081019050919050565b6000613f33613f2e84613eef565b61361e565b905082815260208101848484011115613f4f57613f4e613701565b5b613f5a848285613737565b509392505050565b600082601f830112613f7757613f766135b9565b5b8135613f87848260208601613f20565b91505092915050565b60008060408385031215613fa757613fa6613006565b5b600083013567ffffffffffffffff811115613fc557613fc461300b565b5b613fd185828601613f62565b925050602083013567ffffffffffffffff811115613ff257613ff161300b565b5b613ffe85828601613f62565b9150509250929050565b600060a08201905061401d6000830188613885565b818103602083015261402f81876132c7565b9050818103604083015261404381866132c7565b905061405260608301856130e4565b61405f608083018461319f565b9695505050505050565b600080604083850312156140805761407f613006565b5b600061408e85828601613059565b925050602061409f85828601613059565b9150509250929050565b600080600080600060a086880312156140c5576140c4613006565b5b60006140d388828901613059565b95505060206140e488828901613059565b94505060406140f58882890161308f565b93505060606141068882890161308f565b925050608086013567ffffffffffffffff8111156141275761412661300b565b5b61413388828901613788565b9150509295509295909350565b7f4e487b7100000000000000000000000000000000000000000000000000000000600052602260045260246000fd5b6000600282049050600182168061418757607f821691505b60208210810361419a57614199614140565b5b50919050565b7f4e487b7100000000000000000000000000000000000000000000000000000000600052603260045260246000fd5b7f4e487b7100000000000000000000000000000000000000000000000000000000600052601160045260246000fd5b60006142098261306e565b91507fffffffffffffffffffffffffffffffffffffffffffffffffffffffffffffffff820361423b5761423a6141cf565b5b600182019050919050565b600060408201905061425b6000830185613885565b6142686020830184613885565b9392505050565b600060408201905061428460008301856130e4565b61429160208301846130e4565b9392505050565b7f4f6e6c79207468652072696465722077686f206372656174656420746865207260008201527f6571756573742063616e20766965772069740000000000000000000000000000602082015250565b60006142f460328361327b565b91506142ff82614298565b604082019050919050565b60006020820190508181036000830152614323816142e7565b9050919050565b7f4f6e6c7920647269766572732063616e20616363657074207265717565737473600082015250565b600061436060208361327b565b915061436b8261432a565b602082019050919050565b6000602082019050818103600083015261438f81614353565b9050919050565b7f496e76616c696420726571756573742049440000000000000000000000000000600082015250565b60006143cc60128361327b565b91506143d782614396565b602082019050919050565b600060208201905081810360008301526143fb816143bf565b9050919050565b7f4f6e6c79207269646572732063616e2063726561746520726571756573747300600082015250565b6000614438601f8361327b565b915061444382614402565b602082019050919050565b600060208201905081810360008301526144678161442b565b9050919050565b60008190508160005260206000209050919050565b60006020601f8301049050919050565b600082821b905092915050565b6000600883026144d07fffffffffffffffffffffffffffffffffffffffffffffffffffffffffffffffff82614493565b6144da8683614493565b95508019841693508086168417925050509392505050565b600061450d6145086145038461306e565b6131c9565b61306e565b9050919050565b6000819050919050565b614527836144f2565b61453b61453382614514565b8484546144a0565b825550505050565b600090565b614550614543565b61455b81848461451e565b505050565b5b8181101561457f57614574600082614548565b600181019050614561565b5050565b601f8211156145c4576145958161446e565b61459e84614483565b810160208510156145ad578190505b6145c16145b985614483565b830182614560565b50505b505050565b600082821c905092915050565b60006145e7600019846008026145c9565b1980831691505092915050565b600061460083836145d6565b9150826002028217905092915050565b61461982613270565b67ffffffffffffffff811115614632576146316135be565b5b61463c825461416f565b614647828285614583565b600060209050601f83116001811461467a5760008415614668578287015190505b61467285826145f4565b8655506146da565b601f1984166146888661446e565b60005b828110156146b05784890151825560018201915060208501945060208101905061468b565b868310156146cd57848901516146c9601f8916826145d6565b8355505b6001600288020188555050505b505050505050565b60006080820190506146f760008301876130e4565b6147046020830186613885565b818103604083015261471681856132c7565b9050818103606083015261472a81846132c7565b905095945050505050565b7f4f6e6c79207269646572732063616e20626f6f6b207269646573000000000000600082015250565b600061476b601a8361327b565b915061477682614735565b602082019050919050565b6000602082019050818103600083015261479a8161475e565b9050919050565b6000815190506147b081613078565b92915050565b6000602082840312156147cc576147cb613006565b5b60006147da848285016147a1565b91505092915050565b7f496e73756666696369656e7420526964654b6f696e7300000000000000000000600082015250565b600061481960168361327b565b9150614824826147e3565b602082019050919050565b600060208201905081810360008301526148488161480c565b9050919050565b60006060820190506148646000830186613885565b6148716020830185613885565b61487e60408301846130e4565b949350505050565b60006148918261306e565b915061489c8361306e565b92508282019050808211156148b4576148b36141cf565b5b92915050565b600060408201905081810360008301526148d48185613a8f565b905081810360208301526148e88184613a8f565b90509392505050565b600081519050919050565b600082825260208201905092915050565b6000614918826148f1565b61492281856148fc565b935061493281856020860161328c565b61493b816132b6565b840191505092915050565b600060a08201905061495b6000830188613885565b6149686020830187613885565b61497560408301866130e4565b61498260608301856130e4565b8181036080830152614994818461490d565b90509695505050505050565b6000815190506149af8161313a565b92915050565b6000602082840312156149cb576149ca613006565b5b60006149d9848285016149a0565b91505092915050565b600060a0820190506149f76000830188613885565b614a046020830187613885565b8181036040830152614a168186613a8f565b90508181036060830152614a2a8185613a8f565b90508181036080830152614a3e818461490d565b9050969550505050505056fea2646970667358221220f28f1a3260fca1abf8e4a06acf4a5998093e09e00408816f1a3fc6845f13cc2464736f6c63430008140033",
  "immutableReferences": {},
  "source": "// SPDX-License-Identifier: MIT\npragma solidity ^0.8.20;\n\nimport \"@openzeppelin/contracts/token/ERC1155/ERC1155.sol\";\nimport \"@openzeppelin/contracts/access/Ownable.sol\";\nimport \"./RideKoin.sol\";\nimport \"./XclusiveRydepass.sol\";\n\ncontract RydeAsset is ERC1155, Ownable {\n    uint256 public MINT_PRICE = 10 wei;\n\n    RideKoin public rideKoinContract;\n    XclusiveRydePass public xclusiveRydePassContract;\n\n    enum UserRole { None, Driver, Rider }\n    mapping(address => UserRole) public userRoles;\n\n    struct RideRequest {\n        address rider;\n        string fromLocation;\n        string toLocation;\n        uint requestId;\n        bool isAccepted;\n\n    }\n\n    struct AcceptedRide {\n        address driver;\n        address rider;\n        uint256 fare;\n        uint xrpID;\n        uint requestId;\n        uint acceptRequestId;\n        bool isAccepted;\n\n    }\n\n    struct ConfirmedRide {\n        address rider;\n        uint256 fare;\n        uint256 xrpToken;\n        uint flag;\n    }\n\n    uint256 private currentRequestId = 0;\n    uint256 private currentAcceptRequestId = 0;\n\n    mapping(uint256 => RideRequest) public rideRequests;\n    mapping(uint256 => AcceptedRide) public acceptedRides;\n\n    mapping(address => uint256[]) private acceptedRequestIds;\n    mapping(address => ConfirmedRide[]) public confirmedRides;\n    mapping(uint256 => uint256) public xclusivePassPrices;\n\n    constructor(address _rideKoinContractAddress, address _xclusiveRydePassContractAddress)\n        ERC1155(\"abcdce\")\n            Ownable(msg.sender)\n    {\n        rideKoinContract = RideKoin(_rideKoinContractAddress);\n        xclusiveRydePassContract = XclusiveRydePass(_xclusiveRydePassContractAddress);\n    }\n\n    event RideRequested(uint256 requestId, address rider, string fromLocation, string toLocation);\n\n    function registerAsDriver() public {\n        userRoles[msg.sender] = UserRole.Driver;\n    }\n\n    function registerAsRider() public {\n        userRoles[msg.sender] = UserRole.Rider;\n    }\n\n    function getUserRole(address a) public view returns (UserRole){\n        return userRoles[a];\n    }\n        \n    function createRideRequest(string memory fromLocation, string memory toLocation) public {\n        require(userRoles[msg.sender] == UserRole.Rider, \"Only riders can create requests\");\n        rideRequests[currentRequestId] = RideRequest({\n            rider: msg.sender,\n            fromLocation: fromLocation,\n            toLocation: toLocation,\n            requestId: currentRequestId,\n            isAccepted : false\n\n        });\n        emit RideRequested(currentRequestId, msg.sender, fromLocation, toLocation);\n        currentRequestId++;\n    }\n\n    function viewRideRequests() public view returns (RideRequest[] memory) {\n        RideRequest[] memory requests = new RideRequest[](currentRequestId);\n        for (uint i = 0; i < currentRequestId; i++) {\n            if(rideRequests[i].isAccepted != true){\n                requests[i] = rideRequests[i];\n            }\n        }\n        return requests;\n    }\n\n    function acceptRideRequest(uint256 requestId, uint256 fare, uint256 xrpID ) public {\n        require(userRoles[msg.sender] == UserRole.Driver, \"Only drivers can accept requests\");\n        require(rideRequests[requestId].rider != address(0), \"Invalid request ID\");\n        // Mark the request as accepted\n\n        // Add the accepted ride to the mapping\n        acceptedRides[currentAcceptRequestId] = AcceptedRide({\n            driver: msg.sender,\n            rider: rideRequests[requestId].rider,\n            fare: fare,\n            xrpID : xrpID,\n            requestId: requestId,\n            acceptRequestId: currentAcceptRequestId,\n            isAccepted : false\n\n        });\n\n        // Store the request ID in the rider's accepted request IDs\n        acceptedRequestIds[rideRequests[requestId].rider].push(currentAcceptRequestId);\n        currentAcceptRequestId++;\n    }\n\n    function viewAcceptedRequest(address rider) public view returns (AcceptedRide[] memory) {\n        require(rider == msg.sender, \"Only the rider who created the request can view it\");\n\n        uint256[] storage riderAcceptedRequestIds = acceptedRequestIds[rider];\n        AcceptedRide[] memory riderAcceptedRides = new AcceptedRide[](riderAcceptedRequestIds.length);\n\n        for (uint256 i = 0; i < riderAcceptedRequestIds.length; i++) {\n            uint256 requestId = riderAcceptedRequestIds[i];\n            if(acceptedRides[requestId].isAccepted != true){\n                riderAcceptedRides[i] = acceptedRides[requestId];\n            }\n        }\n\n        return riderAcceptedRides;\n    }\n\n    function bookRide(uint256 acceptRequestId) public {\n        require(userRoles[msg.sender] == UserRole.Rider, \"Only riders can book rides\");\n        require(acceptedRides[acceptRequestId].rider != address(0), \"Invalid request ID\");\n        require(rideKoinContract._balanceOf(msg.sender) >= acceptedRides[acceptRequestId].fare, \"Insufficient RideKoins\");\n\n        // Transfer RideKoins from rider to contract\n        rideKoinContract.transferRidekoins(msg.sender, acceptedRides[acceptRequestId].driver, acceptedRides[acceptRequestId].fare);\n\n        // Add the ride to the confirmed list for the driver\n        confirmedRides[acceptedRides[acceptRequestId].driver].push(ConfirmedRide({\n            rider: msg.sender,\n            fare: acceptedRides[acceptRequestId].fare,\n            xrpToken: acceptedRides[acceptRequestId].xrpID,\n            flag:0\n        }));\n\n        for (uint256 i = 0; i < currentAcceptRequestId; i++) {\n            uint256 requestId = acceptedRides[i].requestId;\n            if(acceptedRides[acceptRequestId].requestId == requestId){\n                acceptedRides[i].isAccepted = true;\n\n            }\n        }\n        rideRequests[acceptedRides[acceptRequestId].requestId].isAccepted = true;\n        acceptedRides[acceptRequestId].isAccepted = true;\n    }\n\n    function delConfirmedRidesForDriver(address driver) public {\n        delete confirmedRides[driver];\n    }\n\n    function getConfirmedRidesForDriver(address driver) public view returns (ConfirmedRide[] memory) {\n        return confirmedRides[driver];\n    }\n}",
  "sourcePath": "/Users/atishs/Downloads/ashutos2_atishkum_blockchain_phase3/decentralized_cab_booking/DRSA-contract/contracts/Rydeasset.sol",
  "compiler": {
    "name": "solc",
    "version": "0.8.20+commit.a1b79de6.Emscripten.clang"
  },
  "schemaVersion": "3.4.16",
  "updatedAt": "2023-12-07T20:07:26.615Z",
  "networkType": "ethereum",
  "devdoc": {
    "errors": {
      "ERC1155InsufficientBalance(address,uint256,uint256,uint256)": [
        {
          "details": "Indicates an error related to the current `balance` of a `sender`. Used in transfers.",
          "params": {
            "balance": "Current balance for the interacting account.",
            "needed": "Minimum amount required to perform a transfer.",
            "sender": "Address whose tokens are being transferred.",
            "tokenId": "Identifier number of a token."
          }
        }
      ],
      "ERC1155InvalidApprover(address)": [
        {
          "details": "Indicates a failure with the `approver` of a token to be approved. Used in approvals.",
          "params": {
            "approver": "Address initiating an approval operation."
          }
        }
      ],
      "ERC1155InvalidArrayLength(uint256,uint256)": [
        {
          "details": "Indicates an array length mismatch between ids and values in a safeBatchTransferFrom operation. Used in batch transfers.",
          "params": {
            "idsLength": "Length of the array of token identifiers",
            "valuesLength": "Length of the array of token amounts"
          }
        }
      ],
      "ERC1155InvalidOperator(address)": [
        {
          "details": "Indicates a failure with the `operator` to be approved. Used in approvals.",
          "params": {
            "operator": "Address that may be allowed to operate on tokens without being their owner."
          }
        }
      ],
      "ERC1155InvalidReceiver(address)": [
        {
          "details": "Indicates a failure with the token `receiver`. Used in transfers.",
          "params": {
            "receiver": "Address to which tokens are being transferred."
          }
        }
      ],
      "ERC1155InvalidSender(address)": [
        {
          "details": "Indicates a failure with the token `sender`. Used in transfers.",
          "params": {
            "sender": "Address whose tokens are being transferred."
          }
        }
      ],
      "ERC1155MissingApprovalForAll(address,address)": [
        {
          "details": "Indicates a failure with the `operator`s approval. Used in transfers.",
          "params": {
            "operator": "Address that may be allowed to operate on tokens without being their owner.",
            "owner": "Address of the current owner of a token."
          }
        }
      ],
      "OwnableInvalidOwner(address)": [
        {
          "details": "The owner is not a valid owner account. (eg. `address(0)`)"
        }
      ],
      "OwnableUnauthorizedAccount(address)": [
        {
          "details": "The caller account is not authorized to perform an operation."
        }
      ]
    },
    "events": {
      "ApprovalForAll(address,address,bool)": {
        "details": "Emitted when `account` grants or revokes permission to `operator` to transfer their tokens, according to `approved`."
      },
      "TransferBatch(address,address,address,uint256[],uint256[])": {
        "details": "Equivalent to multiple {TransferSingle} events, where `operator`, `from` and `to` are the same for all transfers."
      },
      "TransferSingle(address,address,address,uint256,uint256)": {
        "details": "Emitted when `value` amount of tokens of type `id` are transferred from `from` to `to` by `operator`."
      },
      "URI(string,uint256)": {
        "details": "Emitted when the URI for token type `id` changes to `value`, if it is a non-programmatic URI. If an {URI} event was emitted for `id`, the standard https://eips.ethereum.org/EIPS/eip-1155#metadata-extensions[guarantees] that `value` will equal the value returned by {IERC1155MetadataURI-uri}."
      }
    },
    "kind": "dev",
    "methods": {
      "balanceOf(address,uint256)": {
        "details": "See {IERC1155-balanceOf}."
      },
      "balanceOfBatch(address[],uint256[])": {
        "details": "See {IERC1155-balanceOfBatch}. Requirements: - `accounts` and `ids` must have the same length."
      },
      "isApprovedForAll(address,address)": {
        "details": "See {IERC1155-isApprovedForAll}."
      },
      "owner()": {
        "details": "Returns the address of the current owner."
      },
      "renounceOwnership()": {
        "details": "Leaves the contract without owner. It will not be possible to call `onlyOwner` functions. Can only be called by the current owner. NOTE: Renouncing ownership will leave the contract without an owner, thereby disabling any functionality that is only available to the owner."
      },
      "safeBatchTransferFrom(address,address,uint256[],uint256[],bytes)": {
        "details": "See {IERC1155-safeBatchTransferFrom}."
      },
      "safeTransferFrom(address,address,uint256,uint256,bytes)": {
        "details": "See {IERC1155-safeTransferFrom}."
      },
      "setApprovalForAll(address,bool)": {
        "details": "See {IERC1155-setApprovalForAll}."
      },
      "supportsInterface(bytes4)": {
        "details": "See {IERC165-supportsInterface}."
      },
      "transferOwnership(address)": {
        "details": "Transfers ownership of the contract to a new account (`newOwner`). Can only be called by the current owner."
      },
      "uri(uint256)": {
        "details": "See {IERC1155MetadataURI-uri}. This implementation returns the same URI for *all* token types. It relies on the token type ID substitution mechanism https://eips.ethereum.org/EIPS/eip-1155#metadata[defined in the EIP]. Clients calling this function must replace the `\\{id\\}` substring with the actual token type ID."
      }
    },
    "version": 1
  },
  "userdoc": {
    "kind": "user",
    "methods": {},
    "version": 1
  }
}