{
  "contractName": "TransacX",
  "abi": [
    {
      "inputs": [
        {
          "internalType": "address",
          "name": "_rideKoinContractAddress",
          "type": "address"
        },
        {
          "internalType": "address",
          "name": "_xclusiveRydePassContractAddress",
          "type": "address"
        }
      ],
      "stateMutability": "nonpayable",
      "type": "constructor"
    },
    {
      "inputs": [
        {
          "internalType": "address",
          "name": "sender",
          "type": "address"
        },
        {
          "internalType": "uint256",
          "name": "balance",
          "type": "uint256"
        },
        {
          "internalType": "uint256",
          "name": "needed",
          "type": "uint256"
        },
        {
          "internalType": "uint256",
          "name": "tokenId",
          "type": "uint256"
        }
      ],
      "name": "ERC1155InsufficientBalance",
      "type": "error"
    },
    {
      "inputs": [
        {
          "internalType": "address",
          "name": "approver",
          "type": "address"
        }
      ],
      "name": "ERC1155InvalidApprover",
      "type": "error"
    },
    {
      "inputs": [
        {
          "internalType": "uint256",
          "name": "idsLength",
          "type": "uint256"
        },
        {
          "internalType": "uint256",
          "name": "valuesLength",
          "type": "uint256"
        }
      ],
      "name": "ERC1155InvalidArrayLength",
      "type": "error"
    },
    {
      "inputs": [
        {
          "internalType": "address",
          "name": "operator",
          "type": "address"
        }
      ],
      "name": "ERC1155InvalidOperator",
      "type": "error"
    },
    {
      "inputs": [
        {
          "internalType": "address",
          "name": "receiver",
          "type": "address"
        }
      ],
      "name": "ERC1155InvalidReceiver",
      "type": "error"
    },
    {
      "inputs": [
        {
          "internalType": "address",
          "name": "sender",
          "type": "address"
        }
      ],
      "name": "ERC1155InvalidSender",
      "type": "error"
    },
    {
      "inputs": [
        {
          "internalType": "address",
          "name": "operator",
          "type": "address"
        },
        {
          "internalType": "address",
          "name": "owner",
          "type": "address"
        }
      ],
      "name": "ERC1155MissingApprovalForAll",
      "type": "error"
    },
    {
      "inputs": [
        {
          "internalType": "address",
          "name": "owner",
          "type": "address"
        }
      ],
      "name": "OwnableInvalidOwner",
      "type": "error"
    },
    {
      "inputs": [
        {
          "internalType": "address",
          "name": "account",
          "type": "address"
        }
      ],
      "name": "OwnableUnauthorizedAccount",
      "type": "error"
    },
    {
      "anonymous": false,
      "inputs": [
        {
          "indexed": true,
          "internalType": "address",
          "name": "account",
          "type": "address"
        },
        {
          "indexed": true,
          "internalType": "address",
          "name": "operator",
          "type": "address"
        },
        {
          "indexed": false,
          "internalType": "bool",
          "name": "approved",
          "type": "bool"
        }
      ],
      "name": "ApprovalForAll",
      "type": "event"
    },
    {
      "anonymous": false,
      "inputs": [
        {
          "indexed": true,
          "internalType": "address",
          "name": "previousOwner",
          "type": "address"
        },
        {
          "indexed": true,
          "internalType": "address",
          "name": "newOwner",
          "type": "address"
        }
      ],
      "name": "OwnershipTransferred",
      "type": "event"
    },
    {
      "anonymous": false,
      "inputs": [
        {
          "indexed": true,
          "internalType": "address",
          "name": "operator",
          "type": "address"
        },
        {
          "indexed": true,
          "internalType": "address",
          "name": "from",
          "type": "address"
        },
        {
          "indexed": true,
          "internalType": "address",
          "name": "to",
          "type": "address"
        },
        {
          "indexed": false,
          "internalType": "uint256[]",
          "name": "ids",
          "type": "uint256[]"
        },
        {
          "indexed": false,
          "internalType": "uint256[]",
          "name": "values",
          "type": "uint256[]"
        }
      ],
      "name": "TransferBatch",
      "type": "event"
    },
    {
      "anonymous": false,
      "inputs": [
        {
          "indexed": true,
          "internalType": "address",
          "name": "operator",
          "type": "address"
        },
        {
          "indexed": true,
          "internalType": "address",
          "name": "from",
          "type": "address"
        },
        {
          "indexed": true,
          "internalType": "address",
          "name": "to",
          "type": "address"
        },
        {
          "indexed": false,
          "internalType": "uint256",
          "name": "id",
          "type": "uint256"
        },
        {
          "indexed": false,
          "internalType": "uint256",
          "name": "value",
          "type": "uint256"
        }
      ],
      "name": "TransferSingle",
      "type": "event"
    },
    {
      "anonymous": false,
      "inputs": [
        {
          "indexed": false,
          "internalType": "string",
          "name": "value",
          "type": "string"
        },
        {
          "indexed": true,
          "internalType": "uint256",
          "name": "id",
          "type": "uint256"
        }
      ],
      "name": "URI",
      "type": "event"
    },
    {
      "inputs": [],
      "name": "MEMBERSHIP_PASS",
      "outputs": [
        {
          "internalType": "uint256",
          "name": "",
          "type": "uint256"
        }
      ],
      "stateMutability": "view",
      "type": "function",
      "constant": true
    },
    {
      "inputs": [],
      "name": "RIDE_CREDITS",
      "outputs": [
        {
          "internalType": "uint256",
          "name": "",
          "type": "uint256"
        }
      ],
      "stateMutability": "view",
      "type": "function",
      "constant": true
    },
    {
      "inputs": [
        {
          "internalType": "address",
          "name": "account",
          "type": "address"
        },
        {
          "internalType": "uint256",
          "name": "id",
          "type": "uint256"
        }
      ],
      "name": "balanceOf",
      "outputs": [
        {
          "internalType": "uint256",
          "name": "",
          "type": "uint256"
        }
      ],
      "stateMutability": "view",
      "type": "function",
      "constant": true
    },
    {
      "inputs": [
        {
          "internalType": "address[]",
          "name": "accounts",
          "type": "address[]"
        },
        {
          "internalType": "uint256[]",
          "name": "ids",
          "type": "uint256[]"
        }
      ],
      "name": "balanceOfBatch",
      "outputs": [
        {
          "internalType": "uint256[]",
          "name": "",
          "type": "uint256[]"
        }
      ],
      "stateMutability": "view",
      "type": "function",
      "constant": true
    },
    {
      "inputs": [
        {
          "internalType": "address",
          "name": "account",
          "type": "address"
        },
        {
          "internalType": "address",
          "name": "operator",
          "type": "address"
        }
      ],
      "name": "isApprovedForAll",
      "outputs": [
        {
          "internalType": "bool",
          "name": "",
          "type": "bool"
        }
      ],
      "stateMutability": "view",
      "type": "function",
      "constant": true
    },
    {
      "inputs": [],
      "name": "owner",
      "outputs": [
        {
          "internalType": "address",
          "name": "",
          "type": "address"
        }
      ],
      "stateMutability": "view",
      "type": "function",
      "constant": true
    },
    {
      "inputs": [],
      "name": "renounceOwnership",
      "outputs": [],
      "stateMutability": "nonpayable",
      "type": "function"
    },
    {
      "inputs": [],
      "name": "rideKoinContract",
      "outputs": [
        {
          "internalType": "contract RideKoin",
          "name": "",
          "type": "address"
        }
      ],
      "stateMutability": "view",
      "type": "function",
      "constant": true
    },
    {
      "inputs": [
        {
          "internalType": "address",
          "name": "from",
          "type": "address"
        },
        {
          "internalType": "address",
          "name": "to",
          "type": "address"
        },
        {
          "internalType": "uint256[]",
          "name": "ids",
          "type": "uint256[]"
        },
        {
          "internalType": "uint256[]",
          "name": "values",
          "type": "uint256[]"
        },
        {
          "internalType": "bytes",
          "name": "data",
          "type": "bytes"
        }
      ],
      "name": "safeBatchTransferFrom",
      "outputs": [],
      "stateMutability": "nonpayable",
      "type": "function"
    },
    {
      "inputs": [
        {
          "internalType": "address",
          "name": "from",
          "type": "address"
        },
        {
          "internalType": "address",
          "name": "to",
          "type": "address"
        },
        {
          "internalType": "uint256",
          "name": "id",
          "type": "uint256"
        },
        {
          "internalType": "uint256",
          "name": "value",
          "type": "uint256"
        },
        {
          "internalType": "bytes",
          "name": "data",
          "type": "bytes"
        }
      ],
      "name": "safeTransferFrom",
      "outputs": [],
      "stateMutability": "nonpayable",
      "type": "function"
    },
    {
      "inputs": [
        {
          "internalType": "address",
          "name": "operator",
          "type": "address"
        },
        {
          "internalType": "bool",
          "name": "approved",
          "type": "bool"
        }
      ],
      "name": "setApprovalForAll",
      "outputs": [],
      "stateMutability": "nonpayable",
      "type": "function"
    },
    {
      "inputs": [
        {
          "internalType": "bytes4",
          "name": "interfaceId",
          "type": "bytes4"
        }
      ],
      "name": "supportsInterface",
      "outputs": [
        {
          "internalType": "bool",
          "name": "",
          "type": "bool"
        }
      ],
      "stateMutability": "view",
      "type": "function",
      "constant": true
    },
    {
      "inputs": [
        {
          "internalType": "address",
          "name": "newOwner",
          "type": "address"
        }
      ],
      "name": "transferOwnership",
      "outputs": [],
      "stateMutability": "nonpayable",
      "type": "function"
    },
    {
      "inputs": [
        {
          "internalType": "uint256",
          "name": "",
          "type": "uint256"
        }
      ],
      "name": "uri",
      "outputs": [
        {
          "internalType": "string",
          "name": "",
          "type": "string"
        }
      ],
      "stateMutability": "view",
      "type": "function",
      "constant": true
    },
    {
      "inputs": [
        {
          "internalType": "uint256",
          "name": "",
          "type": "uint256"
        }
      ],
      "name": "xclusivePassPrices",
      "outputs": [
        {
          "internalType": "uint256",
          "name": "",
          "type": "uint256"
        }
      ],
      "stateMutability": "view",
      "type": "function",
      "constant": true
    },
    {
      "inputs": [],
      "name": "xclusiveRydePassContract",
      "outputs": [
        {
          "internalType": "contract XclusiveRydePass",
          "name": "",
          "type": "address"
        }
      ],
      "stateMutability": "view",
      "type": "function",
      "constant": true
    },
    {
      "inputs": [
        {
          "internalType": "address",
          "name": "to",
          "type": "address"
        }
      ],
      "name": "mintXclusiveRydePass",
      "outputs": [],
      "stateMutability": "payable",
      "type": "function",
      "payable": true
    },
    {
      "inputs": [
        {
          "internalType": "address",
          "name": "from",
          "type": "address"
        },
        {
          "internalType": "address",
          "name": "to",
          "type": "address"
        },
        {
          "internalType": "uint256",
          "name": "value",
          "type": "uint256"
        }
      ],
      "name": "transferRideKoins",
      "outputs": [],
      "stateMutability": "nonpayable",
      "type": "function"
    },
    {
      "inputs": [
        {
          "internalType": "address",
          "name": "to",
          "type": "address"
        },
        {
          "internalType": "uint256",
          "name": "tokenId",
          "type": "uint256"
        }
      ],
      "name": "transferXclusiveRydePass",
      "outputs": [],
      "stateMutability": "nonpayable",
      "type": "function"
    },
    {
      "inputs": [
        {
          "internalType": "address",
          "name": "owner",
          "type": "address"
        }
      ],
      "name": "getTokens",
      "outputs": [
        {
          "internalType": "uint256[]",
          "name": "",
          "type": "uint256[]"
        }
      ],
      "stateMutability": "view",
      "type": "function",
      "constant": true
    },
    {
      "inputs": [
        {
          "internalType": "uint256",
          "name": "tokenAmount",
          "type": "uint256"
        }
      ],
      "name": "buyRideKoin",
      "outputs": [],
      "stateMutability": "payable",
      "type": "function",
      "payable": true
    },
    {
      "inputs": [
        {
          "internalType": "address",
          "name": "user",
          "type": "address"
        }
      ],
      "name": "getRideKoinBalance",
      "outputs": [
        {
          "internalType": "uint256",
          "name": "",
          "type": "uint256"
        }
      ],
      "stateMutability": "view",
      "type": "function",
      "constant": true
    },
    {
      "inputs": [
        {
          "internalType": "address",
          "name": "user",
          "type": "address"
        }
      ],
      "name": "getXclusiveRydePassCount",
      "outputs": [
        {
          "internalType": "uint256",
          "name": "",
          "type": "uint256"
        }
      ],
      "stateMutability": "view",
      "type": "function",
      "constant": true
    },
    {
      "inputs": [
        {
          "internalType": "uint256",
          "name": "xclusiveRydePassID",
          "type": "uint256"
        },
        {
          "internalType": "uint256",
          "name": "price",
          "type": "uint256"
        }
      ],
      "name": "setXclusivePassPrice",
      "outputs": [],
      "stateMutability": "nonpayable",
      "type": "function"
    },
    {
      "inputs": [
        {
          "internalType": "address",
          "name": "to",
          "type": "address"
        },
        {
          "internalType": "uint256",
          "name": "amount",
          "type": "uint256"
        }
      ],
      "name": "mintRideCredits",
      "outputs": [],
      "stateMutability": "nonpayable",
      "type": "function"
    },
    {
      "inputs": [
        {
          "internalType": "address",
          "name": "to",
          "type": "address"
        },
        {
          "internalType": "uint256",
          "name": "amount",
          "type": "uint256"
        },
        {
          "internalType": "bool",
          "name": "isFungible",
          "type": "bool"
        }
      ],
      "name": "mintSpecialVoucher",
      "outputs": [],
      "stateMutability": "nonpayable",
      "type": "function"
    },
    {
      "inputs": [
        {
          "internalType": "address",
          "name": "to",
          "type": "address"
        },
        {
          "internalType": "uint256[]",
          "name": "ids",
          "type": "uint256[]"
        },
        {
          "internalType": "uint256[]",
          "name": "amounts",
          "type": "uint256[]"
        },
        {
          "internalType": "bytes",
          "name": "data",
          "type": "bytes"
        }
      ],
      "name": "safeBatchTransfer",
      "outputs": [],
      "stateMutability": "nonpayable",
      "type": "function"
    },
    {
      "inputs": [
        {
          "internalType": "address",
          "name": "user",
          "type": "address"
        }
      ],
      "name": "getUserTokens",
      "outputs": [
        {
          "internalType": "uint256",
          "name": "rideCredits",
          "type": "uint256"
        },
        {
          "internalType": "uint256[]",
          "name": "nftTokenIds",
          "type": "uint256[]"
        }
      ],
      "stateMutability": "view",
      "type": "function",
      "constant": true
    },
    {
      "inputs": [
        {
          "internalType": "address",
          "name": "user",
          "type": "address"
        },
        {
          "internalType": "uint256",
          "name": "tokenId",
          "type": "uint256"
        },
        {
          "internalType": "uint256",
          "name": "amount",
          "type": "uint256"
        }
      ],
      "name": "burnToken",
      "outputs": [],
      "stateMutability": "nonpayable",
      "type": "function"
    }
  ],
  "bytecode": "0x608060405260036004553480156200001657600080fd5b50604051620041c5380380620041c583398181016040528101906200003c9190620002db565b336040518060400160405280600781526020017f616263646365660000000000000000000000000000000000000000000000000081525062000084816200019660201b60201c565b50600073ffffffffffffffffffffffffffffffffffffffff168173ffffffffffffffffffffffffffffffffffffffff1603620000fa5760006040517f1e4fbdf7000000000000000000000000000000000000000000000000000000008152600401620000f1919062000333565b60405180910390fd5b6200010b81620001ab60201b60201c565b5081600660006101000a81548173ffffffffffffffffffffffffffffffffffffffff021916908373ffffffffffffffffffffffffffffffffffffffff16021790555080600760006101000a81548173ffffffffffffffffffffffffffffffffffffffff021916908373ffffffffffffffffffffffffffffffffffffffff1602179055505050620006b1565b8060029081620001a79190620005ca565b5050565b6000600360009054906101000a900473ffffffffffffffffffffffffffffffffffffffff16905081600360006101000a81548173ffffffffffffffffffffffffffffffffffffffff021916908373ffffffffffffffffffffffffffffffffffffffff1602179055508173ffffffffffffffffffffffffffffffffffffffff168173ffffffffffffffffffffffffffffffffffffffff167f8be0079c531659141344cd1fd0a4f28419497f9722a3daafe3b4186f6b6457e060405160405180910390a35050565b600080fd5b600073ffffffffffffffffffffffffffffffffffffffff82169050919050565b6000620002a38262000276565b9050919050565b620002b58162000296565b8114620002c157600080fd5b50565b600081519050620002d581620002aa565b92915050565b60008060408385031215620002f557620002f462000271565b5b60006200030585828601620002c4565b92505060206200031885828601620002c4565b9150509250929050565b6200032d8162000296565b82525050565b60006020820190506200034a600083018462000322565b92915050565b600081519050919050565b7f4e487b7100000000000000000000000000000000000000000000000000000000600052604160045260246000fd5b7f4e487b7100000000000000000000000000000000000000000000000000000000600052602260045260246000fd5b60006002820490506001821680620003d257607f821691505b602082108103620003e857620003e76200038a565b5b50919050565b60008190508160005260206000209050919050565b60006020601f8301049050919050565b600082821b905092915050565b600060088302620004527fffffffffffffffffffffffffffffffffffffffffffffffffffffffffffffffff8262000413565b6200045e868362000413565b95508019841693508086168417925050509392505050565b6000819050919050565b6000819050919050565b6000620004ab620004a56200049f8462000476565b62000480565b62000476565b9050919050565b6000819050919050565b620004c7836200048a565b620004df620004d682620004b2565b84845462000420565b825550505050565b600090565b620004f6620004e7565b62000503818484620004bc565b505050565b5b818110156200052b576200051f600082620004ec565b60018101905062000509565b5050565b601f8211156200057a576200054481620003ee565b6200054f8462000403565b810160208510156200055f578190505b620005776200056e8562000403565b83018262000508565b50505b505050565b600082821c905092915050565b60006200059f600019846008026200057f565b1980831691505092915050565b6000620005ba83836200058c565b9150826002028217905092915050565b620005d58262000350565b67ffffffffffffffff811115620005f157620005f06200035b565b5b620005fd8254620003b9565b6200060a8282856200052f565b600060209050601f8311600181146200064257600084156200062d578287015190505b620006398582620005ac565b865550620006a9565b601f1984166200065286620003ee565b60005b828110156200067c5784890151825560018201915060208501945060208101905062000655565b868310156200069c578489015162000698601f8916826200058c565b8355505b6001600288020188555050505b505050505050565b613b0480620006c16000396000f3fe6080604052600436106101c15760003560e01c8063715018a6116100f7578063d30f6a9d11610095578063ed8c593811610064578063ed8c59381461066c578063edc5436f14610695578063f242432a146106c0578063f2fde38b146106e9576101c1565b8063d30f6a9d146105a0578063d4d7ffee146105c9578063e418195f14610606578063e985e9c51461062f576101c1565b8063a05fdb39116100d1578063a05fdb39146104f5578063a22cb4651461051e578063bfd21b8314610547578063c4d952da14610563576101c1565b8063715018a61461048a5780637b44b5f9146104a15780638da5cb5b146104ca576101c1565b80633157376911610164578063450efe211161013e578063450efe21146103a75780634e1273f4146103e4578063519dc8d214610421578063555feae81461045f576101c1565b8063315737691461031657806334a274b814610353578063368b28421461037e576101c1565b80630e89341c116101a05780630e89341c1461026b578063195770e1146102a8578063249cbab6146102d15780632eb2c2d6146102ed576101c1565b8062fdd58e146101c657806301ffc9a7146102035780630886fc0814610240575b600080fd5b3480156101d257600080fd5b506101ed60048036038101906101e8919061267c565b610712565b6040516101fa91906126cb565b60405180910390f35b34801561020f57600080fd5b5061022a6004803603810190610225919061273e565b61076c565b6040516102379190612786565b60405180910390f35b34801561024c57600080fd5b5061025561084e565b6040516102629190612800565b60405180910390f35b34801561027757600080fd5b50610292600480360381019061028d919061281b565b610874565b60405161029f91906128d8565b60405180910390f35b3480156102b457600080fd5b506102cf60048036038101906102ca919061267c565b610908565b005b6102eb60048036038101906102e6919061281b565b61099b565b005b3480156102f957600080fd5b50610314600480360381019061030f9190612af7565b610acd565b005b34801561032257600080fd5b5061033d6004803603810190610338919061281b565b610b75565b60405161034a91906126cb565b60405180910390f35b34801561035f57600080fd5b50610368610b8d565b60405161037591906126cb565b60405180910390f35b34801561038a57600080fd5b506103a560048036038101906103a09190612bc6565b610b92565b005b3480156103b357600080fd5b506103ce60048036038101906103c99190612c81565b610ba5565b6040516103db9190612d6c565b60405180910390f35b3480156103f057600080fd5b5061040b60048036038101906104069190612e51565b610c4f565b6040516104189190612d6c565b60405180910390f35b34801561042d57600080fd5b5061044860048036038101906104439190612c81565b610d5e565b604051610456929190612ec9565b60405180910390f35b34801561046b57600080fd5b50610474610e6f565b6040516104819190612f1a565b60405180910390f35b34801561049657600080fd5b5061049f610e95565b005b3480156104ad57600080fd5b506104c860048036038101906104c39190612f35565b610ea9565b005b3480156104d657600080fd5b506104df610fce565b6040516104ec9190612f84565b60405180910390f35b34801561050157600080fd5b5061051c6004803603810190610517919061267c565b610ff8565b005b34801561052a57600080fd5b5061054560048036038101906105409190612fcb565b611020565b005b610561600480360381019061055c9190612c81565b611036565b005b34801561056f57600080fd5b5061058a60048036038101906105859190612c81565b6110c7565b60405161059791906126cb565b60405180910390f35b3480156105ac57600080fd5b506105c760048036038101906105c2919061300b565b61116c565b005b3480156105d557600080fd5b506105f060048036038101906105eb9190612c81565b6111b5565b6040516105fd91906126cb565b60405180910390f35b34801561061257600080fd5b5061062d6004803603810190610628919061305e565b61125a565b005b34801561063b57600080fd5b50610656600480360381019061065191906130b1565b611411565b6040516106639190612786565b60405180910390f35b34801561067857600080fd5b50610693600480360381019061068e91906130f1565b6114a5565b005b3480156106a157600080fd5b506106aa6115f1565b6040516106b791906126cb565b60405180910390f35b3480156106cc57600080fd5b506106e760048036038101906106e29190613144565b6115f6565b005b3480156106f557600080fd5b50610710600480360381019061070b9190612c81565b61169e565b005b600080600083815260200190815260200160002060008473ffffffffffffffffffffffffffffffffffffffff1673ffffffffffffffffffffffffffffffffffffffff16815260200190815260200160002054905092915050565b60007fd9b67a26000000000000000000000000000000000000000000000000000000007bffffffffffffffffffffffffffffffffffffffffffffffffffffffff1916827bffffffffffffffffffffffffffffffffffffffffffffffffffffffff1916148061083757507f0e89341c000000000000000000000000000000000000000000000000000000007bffffffffffffffffffffffffffffffffffffffffffffffffffffffff1916827bffffffffffffffffffffffffffffffffffffffffffffffffffffffff1916145b80610847575061084682611724565b5b9050919050565b600660009054906101000a900473ffffffffffffffffffffffffffffffffffffffff1681565b6060600280546108839061320a565b80601f01602080910402602001604051908101604052809291908181526020018280546108af9061320a565b80156108fc5780601f106108d1576101008083540402835291602001916108fc565b820191906000526020600020905b8154815290600101906020018083116108df57829003601f168201915b50505050509050919050565b600760009054906101000a900473ffffffffffffffffffffffffffffffffffffffff1673ffffffffffffffffffffffffffffffffffffffff1663dd14d85683836040518363ffffffff1660e01b815260040161096592919061323b565b600060405180830381600087803b15801561097f57600080fd5b505af1158015610993573d6000803e3d6000fd5b505050505050565b600660009054906101000a900473ffffffffffffffffffffffffffffffffffffffff1673ffffffffffffffffffffffffffffffffffffffff16632d296bf134836040518363ffffffff1660e01b81526004016109f791906126cb565b6000604051808303818588803b158015610a1057600080fd5b505af1158015610a24573d6000803e3d6000fd5b5050505050600660009054906101000a900473ffffffffffffffffffffffffffffffffffffffff1673ffffffffffffffffffffffffffffffffffffffff1663a9059cbb33836040518363ffffffff1660e01b8152600401610a8692919061323b565b6020604051808303816000875af1158015610aa5573d6000803e3d6000fd5b505050506040513d601f19601f82011682018060405250810190610ac99190613279565b5050565b6000610ad761178e565b90508073ffffffffffffffffffffffffffffffffffffffff168673ffffffffffffffffffffffffffffffffffffffff1614158015610b1c5750610b1a8682611411565b155b15610b605780866040517fe237d922000000000000000000000000000000000000000000000000000000008152600401610b579291906132a6565b60405180910390fd5b610b6d8686868686611796565b505050505050565b60056020528060005260406000206000915090505481565b600181565b610b9f3385858585611796565b50505050565b6060600760009054906101000a900473ffffffffffffffffffffffffffffffffffffffff1673ffffffffffffffffffffffffffffffffffffffff1663450efe21836040518263ffffffff1660e01b8152600401610c029190612f84565b600060405180830381865afa158015610c1f573d6000803e3d6000fd5b505050506040513d6000823e3d601f19601f82011682018060405250810190610c48919061337b565b9050919050565b60608151835114610c9b57815183516040517f5b059991000000000000000000000000000000000000000000000000000000008152600401610c929291906133c4565b60405180910390fd5b6000835167ffffffffffffffff811115610cb857610cb76128ff565b5b604051908082528060200260200182016040528015610ce65781602001602082028036833780820191505090505b50905060005b8451811015610d5357610d23610d0b828761188e90919063ffffffff16565b610d1e83876118a290919063ffffffff16565b610712565b828281518110610d3657610d356133ed565b5b60200260200101818152505080610d4c9061344b565b9050610cec565b508091505092915050565b60006060610d6d836001610712565b9150600080600290505b600454811015610db5576000610d8d8683610712565b1115610da2578180610d9e9061344b565b9250505b8080610dad9061344b565b915050610d77565b508067ffffffffffffffff811115610dd057610dcf6128ff565b5b604051908082528060200260200182016040528015610dfe5781602001602082028036833780820191505090505b509150600080600290505b600454811015610e67576000610e1f8783610712565b1115610e545780848381518110610e3957610e386133ed565b5b6020026020010181815250508180610e509061344b565b9250505b8080610e5f9061344b565b915050610e09565b505050915091565b600760009054906101000a900473ffffffffffffffffffffffffffffffffffffffff1681565b610e9d6118b6565b610ea7600061193d565b565b3373ffffffffffffffffffffffffffffffffffffffff16600760009054906101000a900473ffffffffffffffffffffffffffffffffffffffff1673ffffffffffffffffffffffffffffffffffffffff16636352211e846040518263ffffffff1660e01b8152600401610f1b91906126cb565b602060405180830381865afa158015610f38573d6000803e3d6000fd5b505050506040513d601f19601f82011682018060405250810190610f5c91906134a8565b73ffffffffffffffffffffffffffffffffffffffff1614610fb2576040517f08c379a0000000000000000000000000000000000000000000000000000000008152600401610fa990613547565b60405180910390fd5b8060056000848152602001908152602001600020819055505050565b6000600360009054906101000a900473ffffffffffffffffffffffffffffffffffffffff16905090565b6110006118b6565b61101c8260018360405180602001604052806000815250611a03565b5050565b61103261102b61178e565b8383611a9c565b5050565b600760009054906101000a900473ffffffffffffffffffffffffffffffffffffffff1673ffffffffffffffffffffffffffffffffffffffff166340d097c334836040518363ffffffff1660e01b81526004016110929190612f84565b6000604051808303818588803b1580156110ab57600080fd5b505af11580156110bf573d6000803e3d6000fd5b505050505050565b6000600760009054906101000a900473ffffffffffffffffffffffffffffffffffffffff1673ffffffffffffffffffffffffffffffffffffffff166370a08231836040518263ffffffff1660e01b81526004016111249190612f84565b602060405180830381865afa158015611141573d6000803e3d6000fd5b505050506040513d601f19601f820116820180604052508101906111659190613567565b9050919050565b6111746118b6565b600081156111855760019050611194565b61118d611c0c565b9050600192505b6111af84828560405180602001604052806000815250611a03565b50505050565b6000600660009054906101000a900473ffffffffffffffffffffffffffffffffffffffff1673ffffffffffffffffffffffffffffffffffffffff1663cca3e832836040518263ffffffff1660e01b81526004016112129190612f84565b602060405180830381865afa15801561122f573d6000803e3d6000fd5b505050506040513d601f19601f820116820180604052508101906112539190613567565b9050919050565b6000811161129d576040517f08c379a0000000000000000000000000000000000000000000000000000000008152600401611294906135e0565b60405180910390fd5b80600660009054906101000a900473ffffffffffffffffffffffffffffffffffffffff1673ffffffffffffffffffffffffffffffffffffffff1663cca3e832856040518263ffffffff1660e01b81526004016112f99190612f84565b602060405180830381865afa158015611316573d6000803e3d6000fd5b505050506040513d601f19601f8201168201806040525081019061133a9190613567565b101561137b576040517f08c379a00000000000000000000000000000000000000000000000000000000081526004016113729061364c565b60405180910390fd5b600660009054906101000a900473ffffffffffffffffffffffffffffffffffffffff1673ffffffffffffffffffffffffffffffffffffffff16632e7840458484846040518463ffffffff1660e01b81526004016113da9392919061366c565b600060405180830381600087803b1580156113f457600080fd5b505af1158015611408573d6000803e3d6000fd5b50505050505050565b6000600160008473ffffffffffffffffffffffffffffffffffffffff1673ffffffffffffffffffffffffffffffffffffffff16815260200190815260200160002060008373ffffffffffffffffffffffffffffffffffffffff1673ffffffffffffffffffffffffffffffffffffffff16815260200190815260200160002060009054906101000a900460ff16905092915050565b806114b08484610712565b10156114f1576040517f08c379a00000000000000000000000000000000000000000000000000000000081526004016114e890613715565b60405180910390fd5b6001820361154c576000811161153c576040517f08c379a0000000000000000000000000000000000000000000000000000000008152600401611533906137a7565b60405180910390fd5b611547838383611c2a565b6115ec565b6001811461158f576040517f08c379a000000000000000000000000000000000000000000000000000000000815260040161158690613839565b60405180910390fd5b600282101580156115a1575060045482105b6115e0576040517f08c379a00000000000000000000000000000000000000000000000000000000081526004016115d7906138a5565b60405180910390fd5b6115eb838383611c2a565b5b505050565b600281565b600061160061178e565b90508073ffffffffffffffffffffffffffffffffffffffff168673ffffffffffffffffffffffffffffffffffffffff161415801561164557506116438682611411565b155b156116895780866040517fe237d9220000000000000000000000000000000000000000000000000000000081526004016116809291906132a6565b60405180910390fd5b6116968686868686611cd1565b505050505050565b6116a66118b6565b600073ffffffffffffffffffffffffffffffffffffffff168173ffffffffffffffffffffffffffffffffffffffff16036117185760006040517f1e4fbdf700000000000000000000000000000000000000000000000000000000815260040161170f9190612f84565b60405180910390fd5b6117218161193d565b50565b60007f01ffc9a7000000000000000000000000000000000000000000000000000000007bffffffffffffffffffffffffffffffffffffffffffffffffffffffff1916827bffffffffffffffffffffffffffffffffffffffffffffffffffffffff1916149050919050565b600033905090565b600073ffffffffffffffffffffffffffffffffffffffff168473ffffffffffffffffffffffffffffffffffffffff16036118085760006040517f57f447ce0000000000000000000000000000000000000000000000000000000081526004016117ff9190612f84565b60405180910390fd5b600073ffffffffffffffffffffffffffffffffffffffff168573ffffffffffffffffffffffffffffffffffffffff160361187a5760006040517f01a835140000000000000000000000000000000000000000000000000000000081526004016118719190612f84565b60405180910390fd5b6118878585858585611ddc565b5050505050565b600060208202602084010151905092915050565b600060208202602084010151905092915050565b6118be61178e565b73ffffffffffffffffffffffffffffffffffffffff166118dc610fce565b73ffffffffffffffffffffffffffffffffffffffff161461193b576118ff61178e565b6040517f118cdaa70000000000000000000000000000000000000000000000000000000081526004016119329190612f84565b60405180910390fd5b565b6000600360009054906101000a900473ffffffffffffffffffffffffffffffffffffffff16905081600360006101000a81548173ffffffffffffffffffffffffffffffffffffffff021916908373ffffffffffffffffffffffffffffffffffffffff1602179055508173ffffffffffffffffffffffffffffffffffffffff168173ffffffffffffffffffffffffffffffffffffffff167f8be0079c531659141344cd1fd0a4f28419497f9722a3daafe3b4186f6b6457e060405160405180910390a35050565b600073ffffffffffffffffffffffffffffffffffffffff168473ffffffffffffffffffffffffffffffffffffffff1603611a755760006040517f57f447ce000000000000000000000000000000000000000000000000000000008152600401611a6c9190612f84565b60405180910390fd5b600080611a828585611e8e565b91509150611a94600087848487611ddc565b505050505050565b600073ffffffffffffffffffffffffffffffffffffffff168273ffffffffffffffffffffffffffffffffffffffff1603611b0e5760006040517fced3e100000000000000000000000000000000000000000000000000000000008152600401611b059190612f84565b60405180910390fd5b80600160008573ffffffffffffffffffffffffffffffffffffffff1673ffffffffffffffffffffffffffffffffffffffff16815260200190815260200160002060008473ffffffffffffffffffffffffffffffffffffffff1673ffffffffffffffffffffffffffffffffffffffff16815260200190815260200160002060006101000a81548160ff0219169083151502179055508173ffffffffffffffffffffffffffffffffffffffff168373ffffffffffffffffffffffffffffffffffffffff167f17307eab39ab6107e8899845ad3d59bd9653f200f220920489ca2b5937696c3183604051611bff9190612786565b60405180910390a3505050565b600060046000815480929190611c219061344b565b91905055905090565b600073ffffffffffffffffffffffffffffffffffffffff168373ffffffffffffffffffffffffffffffffffffffff1603611c9c5760006040517f01a83514000000000000000000000000000000000000000000000000000000008152600401611c939190612f84565b60405180910390fd5b600080611ca98484611e8e565b91509150611cca856000848460405180602001604052806000815250611ddc565b5050505050565b600073ffffffffffffffffffffffffffffffffffffffff168473ffffffffffffffffffffffffffffffffffffffff1603611d435760006040517f57f447ce000000000000000000000000000000000000000000000000000000008152600401611d3a9190612f84565b60405180910390fd5b600073ffffffffffffffffffffffffffffffffffffffff168573ffffffffffffffffffffffffffffffffffffffff1603611db55760006040517f01a83514000000000000000000000000000000000000000000000000000000008152600401611dac9190612f84565b60405180910390fd5b600080611dc28585611e8e565b91509150611dd38787848487611ddc565b50505050505050565b611de885858585611ebe565b600073ffffffffffffffffffffffffffffffffffffffff168473ffffffffffffffffffffffffffffffffffffffff1614611e87576000611e2661178e565b90506001845103611e76576000611e476000866118a290919063ffffffff16565b90506000611e5f6000866118a290919063ffffffff16565b9050611e6f83898985858961226c565b5050611e85565b611e84818787878787612420565b5b505b5050505050565b60608060405191506001825283602083015260408201905060018152826020820152604081016040529250929050565b8051825114611f0857815181516040517f5b059991000000000000000000000000000000000000000000000000000000008152600401611eff9291906133c4565b60405180910390fd5b6000611f1261178e565b905060005b8351811015612127576000611f3582866118a290919063ffffffff16565b90506000611f4c83866118a290919063ffffffff16565b9050600073ffffffffffffffffffffffffffffffffffffffff168873ffffffffffffffffffffffffffffffffffffffff161461207957600080600084815260200190815260200160002060008a73ffffffffffffffffffffffffffffffffffffffff1673ffffffffffffffffffffffffffffffffffffffff1681526020019081526020016000205490508181101561202157888183856040517f03dee4c500000000000000000000000000000000000000000000000000000000815260040161201894939291906138c5565b60405180910390fd5b81810360008085815260200190815260200160002060008b73ffffffffffffffffffffffffffffffffffffffff1673ffffffffffffffffffffffffffffffffffffffff16815260200190815260200160002081905550505b600073ffffffffffffffffffffffffffffffffffffffff168773ffffffffffffffffffffffffffffffffffffffff1614612114578060008084815260200190815260200160002060008973ffffffffffffffffffffffffffffffffffffffff1673ffffffffffffffffffffffffffffffffffffffff168152602001908152602001600020600082825461210c919061390a565b925050819055505b5050806121209061344b565b9050611f17565b5060018351036121e65760006121476000856118a290919063ffffffff16565b9050600061215f6000856118a290919063ffffffff16565b90508573ffffffffffffffffffffffffffffffffffffffff168773ffffffffffffffffffffffffffffffffffffffff168473ffffffffffffffffffffffffffffffffffffffff167fc3d58168c5ae7397731d063d5bbf3d657854427343f4c083240f7aacaa2d0f6285856040516121d79291906133c4565b60405180910390a45050612265565b8373ffffffffffffffffffffffffffffffffffffffff168573ffffffffffffffffffffffffffffffffffffffff168273ffffffffffffffffffffffffffffffffffffffff167f4a39dc06d4c0dbc64b70af90fd698a233a518aa5d07e595d983b8c0526c8f7fb868660405161225c92919061393e565b60405180910390a45b5050505050565b60008473ffffffffffffffffffffffffffffffffffffffff163b1115612418578373ffffffffffffffffffffffffffffffffffffffff1663f23a6e6187878686866040518663ffffffff1660e01b81526004016122cd9594939291906139ca565b6020604051808303816000875af192505050801561230957506040513d601f19601f820116820180604052508101906123069190613a39565b60015b61238d573d8060008114612339576040519150601f19603f3d011682016040523d82523d6000602084013e61233e565b606091505b50600081510361238557846040517f57f447ce00000000000000000000000000000000000000000000000000000000815260040161237c9190612f84565b60405180910390fd5b805181602001fd5b63f23a6e6160e01b7bffffffffffffffffffffffffffffffffffffffffffffffffffffffff1916817bffffffffffffffffffffffffffffffffffffffffffffffffffffffff19161461241657846040517f57f447ce00000000000000000000000000000000000000000000000000000000815260040161240d9190612f84565b60405180910390fd5b505b505050505050565b60008473ffffffffffffffffffffffffffffffffffffffff163b11156125cc578373ffffffffffffffffffffffffffffffffffffffff1663bc197c8187878686866040518663ffffffff1660e01b8152600401612481959493929190613a66565b6020604051808303816000875af19250505080156124bd57506040513d601f19601f820116820180604052508101906124ba9190613a39565b60015b612541573d80600081146124ed576040519150601f19603f3d011682016040523d82523d6000602084013e6124f2565b606091505b50600081510361253957846040517f57f447ce0000000000000000000000000000000000000000000000000000000081526004016125309190612f84565b60405180910390fd5b805181602001fd5b63bc197c8160e01b7bffffffffffffffffffffffffffffffffffffffffffffffffffffffff1916817bffffffffffffffffffffffffffffffffffffffffffffffffffffffff1916146125ca57846040517f57f447ce0000000000000000000000000000000000000000000000000000000081526004016125c19190612f84565b60405180910390fd5b505b505050505050565b6000604051905090565b600080fd5b600080fd5b600073ffffffffffffffffffffffffffffffffffffffff82169050919050565b6000612613826125e8565b9050919050565b61262381612608565b811461262e57600080fd5b50565b6000813590506126408161261a565b92915050565b6000819050919050565b61265981612646565b811461266457600080fd5b50565b60008135905061267681612650565b92915050565b60008060408385031215612693576126926125de565b5b60006126a185828601612631565b92505060206126b285828601612667565b9150509250929050565b6126c581612646565b82525050565b60006020820190506126e060008301846126bc565b92915050565b60007fffffffff0000000000000000000000000000000000000000000000000000000082169050919050565b61271b816126e6565b811461272657600080fd5b50565b60008135905061273881612712565b92915050565b600060208284031215612754576127536125de565b5b600061276284828501612729565b91505092915050565b60008115159050919050565b6127808161276b565b82525050565b600060208201905061279b6000830184612777565b92915050565b6000819050919050565b60006127c66127c16127bc846125e8565b6127a1565b6125e8565b9050919050565b60006127d8826127ab565b9050919050565b60006127ea826127cd565b9050919050565b6127fa816127df565b82525050565b600060208201905061281560008301846127f1565b92915050565b600060208284031215612831576128306125de565b5b600061283f84828501612667565b91505092915050565b600081519050919050565b600082825260208201905092915050565b60005b83811015612882578082015181840152602081019050612867565b60008484015250505050565b6000601f19601f8301169050919050565b60006128aa82612848565b6128b48185612853565b93506128c4818560208601612864565b6128cd8161288e565b840191505092915050565b600060208201905081810360008301526128f2818461289f565b905092915050565b600080fd5b7f4e487b7100000000000000000000000000000000000000000000000000000000600052604160045260246000fd5b6129378261288e565b810181811067ffffffffffffffff82111715612956576129556128ff565b5b80604052505050565b60006129696125d4565b9050612975828261292e565b919050565b600067ffffffffffffffff821115612995576129946128ff565b5b602082029050602081019050919050565b600080fd5b60006129be6129b98461297a565b61295f565b905080838252602082019050602084028301858111156129e1576129e06129a6565b5b835b81811015612a0a57806129f68882612667565b8452602084019350506020810190506129e3565b5050509392505050565b600082601f830112612a2957612a286128fa565b5b8135612a398482602086016129ab565b91505092915050565b600080fd5b600067ffffffffffffffff821115612a6257612a616128ff565b5b612a6b8261288e565b9050602081019050919050565b82818337600083830152505050565b6000612a9a612a9584612a47565b61295f565b905082815260208101848484011115612ab657612ab5612a42565b5b612ac1848285612a78565b509392505050565b600082601f830112612ade57612add6128fa565b5b8135612aee848260208601612a87565b91505092915050565b600080600080600060a08688031215612b1357612b126125de565b5b6000612b2188828901612631565b9550506020612b3288828901612631565b945050604086013567ffffffffffffffff811115612b5357612b526125e3565b5b612b5f88828901612a14565b935050606086013567ffffffffffffffff811115612b8057612b7f6125e3565b5b612b8c88828901612a14565b925050608086013567ffffffffffffffff811115612bad57612bac6125e3565b5b612bb988828901612ac9565b9150509295509295909350565b60008060008060808587031215612be057612bdf6125de565b5b6000612bee87828801612631565b945050602085013567ffffffffffffffff811115612c0f57612c0e6125e3565b5b612c1b87828801612a14565b935050604085013567ffffffffffffffff811115612c3c57612c3b6125e3565b5b612c4887828801612a14565b925050606085013567ffffffffffffffff811115612c6957612c686125e3565b5b612c7587828801612ac9565b91505092959194509250565b600060208284031215612c9757612c966125de565b5b6000612ca584828501612631565b91505092915050565b600081519050919050565b600082825260208201905092915050565b6000819050602082019050919050565b612ce381612646565b82525050565b6000612cf58383612cda565b60208301905092915050565b6000602082019050919050565b6000612d1982612cae565b612d238185612cb9565b9350612d2e83612cca565b8060005b83811015612d5f578151612d468882612ce9565b9750612d5183612d01565b925050600181019050612d32565b5085935050505092915050565b60006020820190508181036000830152612d868184612d0e565b905092915050565b600067ffffffffffffffff821115612da957612da86128ff565b5b602082029050602081019050919050565b6000612dcd612dc884612d8e565b61295f565b90508083825260208201905060208402830185811115612df057612def6129a6565b5b835b81811015612e195780612e058882612631565b845260208401935050602081019050612df2565b5050509392505050565b600082601f830112612e3857612e376128fa565b5b8135612e48848260208601612dba565b91505092915050565b60008060408385031215612e6857612e676125de565b5b600083013567ffffffffffffffff811115612e8657612e856125e3565b5b612e9285828601612e23565b925050602083013567ffffffffffffffff811115612eb357612eb26125e3565b5b612ebf85828601612a14565b9150509250929050565b6000604082019050612ede60008301856126bc565b8181036020830152612ef08184612d0e565b90509392505050565b6000612f04826127cd565b9050919050565b612f1481612ef9565b82525050565b6000602082019050612f2f6000830184612f0b565b92915050565b60008060408385031215612f4c57612f4b6125de565b5b6000612f5a85828601612667565b9250506020612f6b85828601612667565b9150509250929050565b612f7e81612608565b82525050565b6000602082019050612f996000830184612f75565b92915050565b612fa88161276b565b8114612fb357600080fd5b50565b600081359050612fc581612f9f565b92915050565b60008060408385031215612fe257612fe16125de565b5b6000612ff085828601612631565b925050602061300185828601612fb6565b9150509250929050565b600080600060608486031215613024576130236125de565b5b600061303286828701612631565b935050602061304386828701612667565b925050604061305486828701612fb6565b9150509250925092565b600080600060608486031215613077576130766125de565b5b600061308586828701612631565b935050602061309686828701612631565b92505060406130a786828701612667565b9150509250925092565b600080604083850312156130c8576130c76125de565b5b60006130d685828601612631565b92505060206130e785828601612631565b9150509250929050565b60008060006060848603121561310a576131096125de565b5b600061311886828701612631565b935050602061312986828701612667565b925050604061313a86828701612667565b9150509250925092565b600080600080600060a086880312156131605761315f6125de565b5b600061316e88828901612631565b955050602061317f88828901612631565b945050604061319088828901612667565b93505060606131a188828901612667565b925050608086013567ffffffffffffffff8111156131c2576131c16125e3565b5b6131ce88828901612ac9565b9150509295509295909350565b7f4e487b7100000000000000000000000000000000000000000000000000000000600052602260045260246000fd5b6000600282049050600182168061322257607f821691505b602082108103613235576132346131db565b5b50919050565b60006040820190506132506000830185612f75565b61325d60208301846126bc565b9392505050565b60008151905061327381612f9f565b92915050565b60006020828403121561328f5761328e6125de565b5b600061329d84828501613264565b91505092915050565b60006040820190506132bb6000830185612f75565b6132c86020830184612f75565b9392505050565b6000815190506132de81612650565b92915050565b60006132f76132f28461297a565b61295f565b9050808382526020820190506020840283018581111561331a576133196129a6565b5b835b81811015613343578061332f88826132cf565b84526020840193505060208101905061331c565b5050509392505050565b600082601f830112613362576133616128fa565b5b81516133728482602086016132e4565b91505092915050565b600060208284031215613391576133906125de565b5b600082015167ffffffffffffffff8111156133af576133ae6125e3565b5b6133bb8482850161334d565b91505092915050565b60006040820190506133d960008301856126bc565b6133e660208301846126bc565b9392505050565b7f4e487b7100000000000000000000000000000000000000000000000000000000600052603260045260246000fd5b7f4e487b7100000000000000000000000000000000000000000000000000000000600052601160045260246000fd5b600061345682612646565b91507fffffffffffffffffffffffffffffffffffffffffffffffffffffffffffffffff82036134885761348761341c565b5b600182019050919050565b6000815190506134a28161261a565b92915050565b6000602082840312156134be576134bd6125de565b5b60006134cc84828501613493565b91505092915050565b7f596f7520646f6e2774206f776e20746865207370656369666965642058636c7560008201527f7369766552796465506173730000000000000000000000000000000000000000602082015250565b6000613531602c83612853565b915061353c826134d5565b604082019050919050565b6000602082019050818103600083015261356081613524565b9050919050565b60006020828403121561357d5761357c6125de565b5b600061358b848285016132cf565b91505092915050565b7f56616c7565206d7573742062652067726561746572207468616e203000000000600082015250565b60006135ca601c83612853565b91506135d582613594565b602082019050919050565b600060208201905081810360008301526135f9816135bd565b9050919050565b7f496e73756666696369656e7420526964654b6f696e2062616c616e6365000000600082015250565b6000613636601d83612853565b915061364182613600565b602082019050919050565b6000602082019050818103600083015261366581613629565b9050919050565b60006060820190506136816000830186612f75565b61368e6020830185612f75565b61369b60408301846126bc565b949350505050565b7f496e73756666696369656e7420746f6b656e2062616c616e636520746f20627560008201527f726e000000000000000000000000000000000000000000000000000000000000602082015250565b60006136ff602283612853565b915061370a826136a3565b604082019050919050565b6000602082019050818103600083015261372e816136f2565b9050919050565b7f416d6f756e74206d7573742062652067726561746572207468616e203020666f60008201527f722066756e6769626c6520746f6b656e73000000000000000000000000000000602082015250565b6000613791603183612853565b915061379c82613735565b604082019050919050565b600060208201905081810360008301526137c081613784565b9050919050565b7f416d6f756e74206d757374206265203120666f72206e6f6e2d66756e6769626c60008201527f6520746f6b656e73000000000000000000000000000000000000000000000000602082015250565b6000613823602883612853565b915061382e826137c7565b604082019050919050565b6000602082019050818103600083015261385281613816565b9050919050565b7f496e76616c6964204e465420746f6b656e204944000000000000000000000000600082015250565b600061388f601483612853565b915061389a82613859565b602082019050919050565b600060208201905081810360008301526138be81613882565b9050919050565b60006080820190506138da6000830187612f75565b6138e760208301866126bc565b6138f460408301856126bc565b61390160608301846126bc565b95945050505050565b600061391582612646565b915061392083612646565b92508282019050808211156139385761393761341c565b5b92915050565b600060408201905081810360008301526139588185612d0e565b9050818103602083015261396c8184612d0e565b90509392505050565b600081519050919050565b600082825260208201905092915050565b600061399c82613975565b6139a68185613980565b93506139b6818560208601612864565b6139bf8161288e565b840191505092915050565b600060a0820190506139df6000830188612f75565b6139ec6020830187612f75565b6139f960408301866126bc565b613a0660608301856126bc565b8181036080830152613a188184613991565b90509695505050505050565b600081519050613a3381612712565b92915050565b600060208284031215613a4f57613a4e6125de565b5b6000613a5d84828501613a24565b91505092915050565b600060a082019050613a7b6000830188612f75565b613a886020830187612f75565b8181036040830152613a9a8186612d0e565b90508181036060830152613aae8185612d0e565b90508181036080830152613ac28184613991565b9050969550505050505056fea2646970667358221220bc0388259d54f9c3b02eaa97f405857dfb99a9ba04e8f1b6cdd96d80c722498164736f6c63430008140033",
  "immutableReferences": {},
  "source": "// SPDX-License-Identifier: MIT\r\npragma solidity ^0.8.20;\r\n\r\nimport \"@openzeppelin/contracts/token/ERC1155/ERC1155.sol\";\r\nimport \"@openzeppelin/contracts/access/Ownable.sol\";\r\n//import \"https://github.com/OpenZeppelin/openzeppelin-contracts/blob/master/contracts/token/ERC1155/ERC1155.sol\";\r\n//import \"https://github.com/OpenZeppelin/openzeppelin-contracts/blob/master/contracts/access/Ownable.sol\";\r\nimport \"./RideKoin.sol\";\r\nimport \"./XclusiveRydepass.sol\";\r\n\r\n//import \"@openzeppelin/contracts/token/ERC1155/extensions/ERC1155Enumerable.sol\";\r\n\r\ncontract TransacX is ERC1155,  Ownable  {\r\n    // Token IDs\r\n    uint256 public constant RIDE_CREDITS = 1;\r\n    uint256 public constant MEMBERSHIP_PASS = 2;\r\n    uint256 private nextTokenID = 3;\r\n\r\n    mapping(uint256 => uint256) public xclusivePassPrices;\r\n\r\n\r\n    RideKoin public rideKoinContract;\r\n    XclusiveRydePass public xclusiveRydePassContract;\r\n\r\n    \r\n    constructor(address _rideKoinContractAddress, address _xclusiveRydePassContractAddress)\r\n        ERC1155(\"abcdcef\")\r\n            Ownable(msg.sender)\r\n    {\r\n        rideKoinContract = RideKoin(_rideKoinContractAddress);\r\n        xclusiveRydePassContract = XclusiveRydePass(_xclusiveRydePassContractAddress);\r\n    }\r\n    // Function to mint ride credits (fungible)\r\n\r\n\r\n\r\n    function mintXclusiveRydePass(address to) public payable {\r\n        xclusiveRydePassContract.safeMint{value: msg.value}(to);\r\n    }\r\n\r\n\r\n    function transferRideKoins(address from, address to, uint256 value) public {\r\n    require(value > 0, \"Value must be greater than 0\");\r\n    require(rideKoinContract._balanceOf(from) >= value, \"Insufficient RideKoin balance\");\r\n    rideKoinContract.transferRidekoins(from, to, value);\r\n\r\n}\r\n\r\n    function transferXclusiveRydePass(address to, uint256 tokenId) public {\r\n        xclusiveRydePassContract._transferToken(to, tokenId);\r\n    }\r\n\r\n    function getTokens(address owner) public view returns (uint256[] memory) {\r\n        return xclusiveRydePassContract.getTokens(owner);\r\n    }\r\n\r\n    function buyRideKoin(uint256 tokenAmount) public payable {\r\n        rideKoinContract.buyToken{value: msg.value}(tokenAmount);\r\n        rideKoinContract.transfer(msg.sender, tokenAmount);\r\n    }\r\n\r\n    function getRideKoinBalance(address user) public view returns (uint256) {\r\n        return rideKoinContract._balanceOf(user);\r\n    }\r\n\r\n    function getXclusiveRydePassCount(address user) public view returns (uint256) {\r\n        return xclusiveRydePassContract.balanceOf(user);\r\n    }\r\n\r\n    function setXclusivePassPrice(uint256 xclusiveRydePassID, uint256 price) external {\r\n        require(xclusiveRydePassContract.ownerOf(xclusiveRydePassID) == msg.sender, \"You don't own the specified XclusiveRydePass\");\r\n        xclusivePassPrices[xclusiveRydePassID] = price;\r\n    }\r\n\r\n    function mintRideCredits(address to, uint256 amount) public onlyOwner {\r\n        _mint(to, RIDE_CREDITS, amount, \"\");\r\n    }\r\n\r\n    \r\n\r\n\r\n    function mintSpecialVoucher(address to, uint256 amount, bool isFungible) public onlyOwner {\r\n        uint256 tokenId;\r\n        if (isFungible) {\r\n            tokenId = RIDE_CREDITS;\r\n        } else {\r\n            tokenId = _getNextTokenID();\r\n            amount = 1; // Ensure only one NFT is minted\r\n        }\r\n        _mint(to, tokenId, amount, \"\");\r\n    }\r\n\r\n    function safeBatchTransfer(\r\n    address to,\r\n    uint256[] memory ids,\r\n    uint256[] memory amounts,\r\n    bytes memory data\r\n    ) public {\r\n    _safeBatchTransferFrom(msg.sender, to, ids, amounts, data);\r\n    }\r\n\r\n    // Internal function to generate a new token ID for non-fungible vo\r\n\r\n    function _getNextTokenID() private  returns (uint256) {\r\n        return nextTokenID++;\r\n    }\r\n\r\n    function getUserTokens(address user) public view returns (uint256 rideCredits, uint256[] memory nftTokenIds) {\r\n        // Get the number of Ride Credits the user has\r\n        rideCredits = balanceOf(user, RIDE_CREDITS);\r\n\r\n        // Count how many NFTs the user has\r\n        uint256 nftCount = 0;\r\n        for (uint256 i = MEMBERSHIP_PASS; i < nextTokenID; i++) {\r\n            if (balanceOf(user, i) > 0) {\r\n                nftCount++;\r\n            }\r\n        }\r\n\r\n        // Collect the NFT token IDs\r\n        nftTokenIds = new uint256[](nftCount);\r\n        uint256 nftIndex = 0;\r\n        for (uint256 i = MEMBERSHIP_PASS; i < nextTokenID; i++) {\r\n            if (balanceOf(user, i) > 0) {\r\n                nftTokenIds[nftIndex] = i;\r\n                nftIndex++;\r\n            }\r\n        }\r\n\r\n        return (rideCredits, nftTokenIds);\r\n    }\r\n\r\n    function burnToken(address user, uint256 tokenId, uint256 amount) public {\r\n        require(balanceOf(user, tokenId) >= amount, \"Insufficient token balance to burn\");\r\n\r\n        if (tokenId == RIDE_CREDITS) {\r\n            // Burn Ride Credits (fungible token)\r\n            require(amount > 0, \"Amount must be greater than 0 for fungible tokens\");\r\n            _burn(user, tokenId, amount);\r\n        } else {\r\n            // Burn NFT (non-fungible token)\r\n            require(amount == 1, \"Amount must be 1 for non-fungible tokens\");\r\n            require(tokenId >= MEMBERSHIP_PASS && tokenId < nextTokenID, \"Invalid NFT token ID\");\r\n            _burn(user, tokenId, amount);\r\n    }\r\n    }\r\n\r\n    \r\n}",
  "sourcePath": "C:\\Users\\dashu\\OneDrive\\Documents\\UB\\BLOCKCHAIN\\project\\blockchain_final_project\\decentralized_cab_booking\\DRSA-contract\\contracts\\TransacX.sol",
  "compiler": {
    "name": "solc",
    "version": "0.8.20+commit.a1b79de6.Emscripten.clang"
  },
  "schemaVersion": "3.4.16",
  "updatedAt": "2023-12-03T05:53:49.988Z",
  "networkType": "ethereum",
  "devdoc": {
    "errors": {
      "ERC1155InsufficientBalance(address,uint256,uint256,uint256)": [
        {
          "details": "Indicates an error related to the current `balance` of a `sender`. Used in transfers.",
          "params": {
            "balance": "Current balance for the interacting account.",
            "needed": "Minimum amount required to perform a transfer.",
            "sender": "Address whose tokens are being transferred.",
            "tokenId": "Identifier number of a token."
          }
        }
      ],
      "ERC1155InvalidApprover(address)": [
        {
          "details": "Indicates a failure with the `approver` of a token to be approved. Used in approvals.",
          "params": {
            "approver": "Address initiating an approval operation."
          }
        }
      ],
      "ERC1155InvalidArrayLength(uint256,uint256)": [
        {
          "details": "Indicates an array length mismatch between ids and values in a safeBatchTransferFrom operation. Used in batch transfers.",
          "params": {
            "idsLength": "Length of the array of token identifiers",
            "valuesLength": "Length of the array of token amounts"
          }
        }
      ],
      "ERC1155InvalidOperator(address)": [
        {
          "details": "Indicates a failure with the `operator` to be approved. Used in approvals.",
          "params": {
            "operator": "Address that may be allowed to operate on tokens without being their owner."
          }
        }
      ],
      "ERC1155InvalidReceiver(address)": [
        {
          "details": "Indicates a failure with the token `receiver`. Used in transfers.",
          "params": {
            "receiver": "Address to which tokens are being transferred."
          }
        }
      ],
      "ERC1155InvalidSender(address)": [
        {
          "details": "Indicates a failure with the token `sender`. Used in transfers.",
          "params": {
            "sender": "Address whose tokens are being transferred."
          }
        }
      ],
      "ERC1155MissingApprovalForAll(address,address)": [
        {
          "details": "Indicates a failure with the `operator`s approval. Used in transfers.",
          "params": {
            "operator": "Address that may be allowed to operate on tokens without being their owner.",
            "owner": "Address of the current owner of a token."
          }
        }
      ],
      "OwnableInvalidOwner(address)": [
        {
          "details": "The owner is not a valid owner account. (eg. `address(0)`)"
        }
      ],
      "OwnableUnauthorizedAccount(address)": [
        {
          "details": "The caller account is not authorized to perform an operation."
        }
      ]
    },
    "events": {
      "ApprovalForAll(address,address,bool)": {
        "details": "Emitted when `account` grants or revokes permission to `operator` to transfer their tokens, according to `approved`."
      },
      "TransferBatch(address,address,address,uint256[],uint256[])": {
        "details": "Equivalent to multiple {TransferSingle} events, where `operator`, `from` and `to` are the same for all transfers."
      },
      "TransferSingle(address,address,address,uint256,uint256)": {
        "details": "Emitted when `value` amount of tokens of type `id` are transferred from `from` to `to` by `operator`."
      },
      "URI(string,uint256)": {
        "details": "Emitted when the URI for token type `id` changes to `value`, if it is a non-programmatic URI. If an {URI} event was emitted for `id`, the standard https://eips.ethereum.org/EIPS/eip-1155#metadata-extensions[guarantees] that `value` will equal the value returned by {IERC1155MetadataURI-uri}."
      }
    },
    "kind": "dev",
    "methods": {
      "balanceOf(address,uint256)": {
        "details": "See {IERC1155-balanceOf}."
      },
      "balanceOfBatch(address[],uint256[])": {
        "details": "See {IERC1155-balanceOfBatch}. Requirements: - `accounts` and `ids` must have the same length."
      },
      "isApprovedForAll(address,address)": {
        "details": "See {IERC1155-isApprovedForAll}."
      },
      "owner()": {
        "details": "Returns the address of the current owner."
      },
      "renounceOwnership()": {
        "details": "Leaves the contract without owner. It will not be possible to call `onlyOwner` functions. Can only be called by the current owner. NOTE: Renouncing ownership will leave the contract without an owner, thereby disabling any functionality that is only available to the owner."
      },
      "safeBatchTransferFrom(address,address,uint256[],uint256[],bytes)": {
        "details": "See {IERC1155-safeBatchTransferFrom}."
      },
      "safeTransferFrom(address,address,uint256,uint256,bytes)": {
        "details": "See {IERC1155-safeTransferFrom}."
      },
      "setApprovalForAll(address,bool)": {
        "details": "See {IERC1155-setApprovalForAll}."
      },
      "supportsInterface(bytes4)": {
        "details": "See {IERC165-supportsInterface}."
      },
      "transferOwnership(address)": {
        "details": "Transfers ownership of the contract to a new account (`newOwner`). Can only be called by the current owner."
      },
      "uri(uint256)": {
        "details": "See {IERC1155MetadataURI-uri}. This implementation returns the same URI for *all* token types. It relies on the token type ID substitution mechanism https://eips.ethereum.org/EIPS/eip-1155#metadata[defined in the EIP]. Clients calling this function must replace the `\\{id\\}` substring with the actual token type ID."
      }
    },
    "version": 1
  },
  "userdoc": {
    "kind": "user",
    "methods": {},
    "version": 1
  }
}