{
  "contractName": "XclusiveRydePass",
  "abi": [
    {
      "inputs": [],
      "stateMutability": "nonpayable",
      "type": "constructor"
    },
    {
      "inputs": [],
      "name": "ERC721EnumerableForbiddenBatchMint",
      "type": "error"
    },
    {
      "inputs": [
        {
          "internalType": "address",
          "name": "sender",
          "type": "address"
        },
        {
          "internalType": "uint256",
          "name": "tokenId",
          "type": "uint256"
        },
        {
          "internalType": "address",
          "name": "owner",
          "type": "address"
        }
      ],
      "name": "ERC721IncorrectOwner",
      "type": "error"
    },
    {
      "inputs": [
        {
          "internalType": "address",
          "name": "operator",
          "type": "address"
        },
        {
          "internalType": "uint256",
          "name": "tokenId",
          "type": "uint256"
        }
      ],
      "name": "ERC721InsufficientApproval",
      "type": "error"
    },
    {
      "inputs": [
        {
          "internalType": "address",
          "name": "approver",
          "type": "address"
        }
      ],
      "name": "ERC721InvalidApprover",
      "type": "error"
    },
    {
      "inputs": [
        {
          "internalType": "address",
          "name": "operator",
          "type": "address"
        }
      ],
      "name": "ERC721InvalidOperator",
      "type": "error"
    },
    {
      "inputs": [
        {
          "internalType": "address",
          "name": "owner",
          "type": "address"
        }
      ],
      "name": "ERC721InvalidOwner",
      "type": "error"
    },
    {
      "inputs": [
        {
          "internalType": "address",
          "name": "receiver",
          "type": "address"
        }
      ],
      "name": "ERC721InvalidReceiver",
      "type": "error"
    },
    {
      "inputs": [
        {
          "internalType": "address",
          "name": "sender",
          "type": "address"
        }
      ],
      "name": "ERC721InvalidSender",
      "type": "error"
    },
    {
      "inputs": [
        {
          "internalType": "uint256",
          "name": "tokenId",
          "type": "uint256"
        }
      ],
      "name": "ERC721NonexistentToken",
      "type": "error"
    },
    {
      "inputs": [
        {
          "internalType": "address",
          "name": "owner",
          "type": "address"
        },
        {
          "internalType": "uint256",
          "name": "index",
          "type": "uint256"
        }
      ],
      "name": "ERC721OutOfBoundsIndex",
      "type": "error"
    },
    {
      "inputs": [],
      "name": "EnforcedPause",
      "type": "error"
    },
    {
      "inputs": [],
      "name": "ExpectedPause",
      "type": "error"
    },
    {
      "inputs": [
        {
          "internalType": "address",
          "name": "owner",
          "type": "address"
        }
      ],
      "name": "OwnableInvalidOwner",
      "type": "error"
    },
    {
      "inputs": [
        {
          "internalType": "address",
          "name": "account",
          "type": "address"
        }
      ],
      "name": "OwnableUnauthorizedAccount",
      "type": "error"
    },
    {
      "anonymous": false,
      "inputs": [
        {
          "indexed": true,
          "internalType": "address",
          "name": "owner",
          "type": "address"
        },
        {
          "indexed": true,
          "internalType": "address",
          "name": "approved",
          "type": "address"
        },
        {
          "indexed": true,
          "internalType": "uint256",
          "name": "tokenId",
          "type": "uint256"
        }
      ],
      "name": "Approval",
      "type": "event"
    },
    {
      "anonymous": false,
      "inputs": [
        {
          "indexed": true,
          "internalType": "address",
          "name": "owner",
          "type": "address"
        },
        {
          "indexed": true,
          "internalType": "address",
          "name": "operator",
          "type": "address"
        },
        {
          "indexed": false,
          "internalType": "bool",
          "name": "approved",
          "type": "bool"
        }
      ],
      "name": "ApprovalForAll",
      "type": "event"
    },
    {
      "anonymous": false,
      "inputs": [
        {
          "indexed": true,
          "internalType": "address",
          "name": "previousOwner",
          "type": "address"
        },
        {
          "indexed": true,
          "internalType": "address",
          "name": "newOwner",
          "type": "address"
        }
      ],
      "name": "OwnershipTransferred",
      "type": "event"
    },
    {
      "anonymous": false,
      "inputs": [
        {
          "indexed": false,
          "internalType": "address",
          "name": "account",
          "type": "address"
        }
      ],
      "name": "Paused",
      "type": "event"
    },
    {
      "anonymous": false,
      "inputs": [
        {
          "indexed": true,
          "internalType": "address",
          "name": "from",
          "type": "address"
        },
        {
          "indexed": true,
          "internalType": "address",
          "name": "to",
          "type": "address"
        },
        {
          "indexed": true,
          "internalType": "uint256",
          "name": "tokenId",
          "type": "uint256"
        }
      ],
      "name": "Transfer",
      "type": "event"
    },
    {
      "anonymous": false,
      "inputs": [
        {
          "indexed": false,
          "internalType": "address",
          "name": "account",
          "type": "address"
        }
      ],
      "name": "Unpaused",
      "type": "event"
    },
    {
      "inputs": [],
      "name": "MAX_SUPPLY",
      "outputs": [
        {
          "internalType": "uint256",
          "name": "",
          "type": "uint256"
        }
      ],
      "stateMutability": "view",
      "type": "function",
      "constant": true
    },
    {
      "inputs": [],
      "name": "MINT_PRICE",
      "outputs": [
        {
          "internalType": "uint256",
          "name": "",
          "type": "uint256"
        }
      ],
      "stateMutability": "view",
      "type": "function",
      "constant": true
    },
    {
      "inputs": [
        {
          "internalType": "address",
          "name": "to",
          "type": "address"
        },
        {
          "internalType": "uint256",
          "name": "tokenId",
          "type": "uint256"
        }
      ],
      "name": "approve",
      "outputs": [],
      "stateMutability": "nonpayable",
      "type": "function"
    },
    {
      "inputs": [
        {
          "internalType": "uint256",
          "name": "tokenId",
          "type": "uint256"
        }
      ],
      "name": "burn",
      "outputs": [],
      "stateMutability": "nonpayable",
      "type": "function"
    },
    {
      "inputs": [
        {
          "internalType": "uint256",
          "name": "tokenId",
          "type": "uint256"
        }
      ],
      "name": "getApproved",
      "outputs": [
        {
          "internalType": "address",
          "name": "",
          "type": "address"
        }
      ],
      "stateMutability": "view",
      "type": "function",
      "constant": true
    },
    {
      "inputs": [
        {
          "internalType": "address",
          "name": "owner",
          "type": "address"
        },
        {
          "internalType": "address",
          "name": "operator",
          "type": "address"
        }
      ],
      "name": "isApprovedForAll",
      "outputs": [
        {
          "internalType": "bool",
          "name": "",
          "type": "bool"
        }
      ],
      "stateMutability": "view",
      "type": "function",
      "constant": true
    },
    {
      "inputs": [],
      "name": "name",
      "outputs": [
        {
          "internalType": "string",
          "name": "",
          "type": "string"
        }
      ],
      "stateMutability": "view",
      "type": "function",
      "constant": true
    },
    {
      "inputs": [],
      "name": "owner",
      "outputs": [
        {
          "internalType": "address",
          "name": "",
          "type": "address"
        }
      ],
      "stateMutability": "view",
      "type": "function",
      "constant": true
    },
    {
      "inputs": [
        {
          "internalType": "uint256",
          "name": "tokenId",
          "type": "uint256"
        }
      ],
      "name": "ownerOf",
      "outputs": [
        {
          "internalType": "address",
          "name": "",
          "type": "address"
        }
      ],
      "stateMutability": "view",
      "type": "function",
      "constant": true
    },
    {
      "inputs": [],
      "name": "paused",
      "outputs": [
        {
          "internalType": "bool",
          "name": "",
          "type": "bool"
        }
      ],
      "stateMutability": "view",
      "type": "function",
      "constant": true
    },
    {
      "inputs": [],
      "name": "renounceOwnership",
      "outputs": [],
      "stateMutability": "nonpayable",
      "type": "function"
    },
    {
      "inputs": [
        {
          "internalType": "address",
          "name": "from",
          "type": "address"
        },
        {
          "internalType": "address",
          "name": "to",
          "type": "address"
        },
        {
          "internalType": "uint256",
          "name": "tokenId",
          "type": "uint256"
        }
      ],
      "name": "safeTransferFrom",
      "outputs": [],
      "stateMutability": "nonpayable",
      "type": "function"
    },
    {
      "inputs": [
        {
          "internalType": "address",
          "name": "from",
          "type": "address"
        },
        {
          "internalType": "address",
          "name": "to",
          "type": "address"
        },
        {
          "internalType": "uint256",
          "name": "tokenId",
          "type": "uint256"
        },
        {
          "internalType": "bytes",
          "name": "data",
          "type": "bytes"
        }
      ],
      "name": "safeTransferFrom",
      "outputs": [],
      "stateMutability": "nonpayable",
      "type": "function"
    },
    {
      "inputs": [
        {
          "internalType": "address",
          "name": "operator",
          "type": "address"
        },
        {
          "internalType": "bool",
          "name": "approved",
          "type": "bool"
        }
      ],
      "name": "setApprovalForAll",
      "outputs": [],
      "stateMutability": "nonpayable",
      "type": "function"
    },
    {
      "inputs": [],
      "name": "symbol",
      "outputs": [
        {
          "internalType": "string",
          "name": "",
          "type": "string"
        }
      ],
      "stateMutability": "view",
      "type": "function",
      "constant": true
    },
    {
      "inputs": [
        {
          "internalType": "uint256",
          "name": "index",
          "type": "uint256"
        }
      ],
      "name": "tokenByIndex",
      "outputs": [
        {
          "internalType": "uint256",
          "name": "",
          "type": "uint256"
        }
      ],
      "stateMutability": "view",
      "type": "function",
      "constant": true
    },
    {
      "inputs": [
        {
          "internalType": "address",
          "name": "owner",
          "type": "address"
        },
        {
          "internalType": "uint256",
          "name": "index",
          "type": "uint256"
        }
      ],
      "name": "tokenOfOwnerByIndex",
      "outputs": [
        {
          "internalType": "uint256",
          "name": "",
          "type": "uint256"
        }
      ],
      "stateMutability": "view",
      "type": "function",
      "constant": true
    },
    {
      "inputs": [
        {
          "internalType": "uint256",
          "name": "tokenId",
          "type": "uint256"
        }
      ],
      "name": "tokenURI",
      "outputs": [
        {
          "internalType": "string",
          "name": "",
          "type": "string"
        }
      ],
      "stateMutability": "view",
      "type": "function",
      "constant": true
    },
    {
      "inputs": [],
      "name": "totalSupply",
      "outputs": [
        {
          "internalType": "uint256",
          "name": "",
          "type": "uint256"
        }
      ],
      "stateMutability": "view",
      "type": "function",
      "constant": true
    },
    {
      "inputs": [
        {
          "internalType": "address",
          "name": "from",
          "type": "address"
        },
        {
          "internalType": "address",
          "name": "to",
          "type": "address"
        },
        {
          "internalType": "uint256",
          "name": "tokenId",
          "type": "uint256"
        }
      ],
      "name": "transferFrom",
      "outputs": [],
      "stateMutability": "nonpayable",
      "type": "function"
    },
    {
      "inputs": [
        {
          "internalType": "address",
          "name": "newOwner",
          "type": "address"
        }
      ],
      "name": "transferOwnership",
      "outputs": [],
      "stateMutability": "nonpayable",
      "type": "function"
    },
    {
      "inputs": [
        {
          "internalType": "address",
          "name": "user",
          "type": "address"
        }
      ],
      "name": "getTokens",
      "outputs": [
        {
          "internalType": "uint256[]",
          "name": "",
          "type": "uint256[]"
        }
      ],
      "stateMutability": "view",
      "type": "function",
      "constant": true
    },
    {
      "inputs": [
        {
          "internalType": "uint256",
          "name": "tokenId",
          "type": "uint256"
        }
      ],
      "name": "getOwnerOfToken",
      "outputs": [
        {
          "internalType": "address",
          "name": "",
          "type": "address"
        }
      ],
      "stateMutability": "view",
      "type": "function",
      "constant": true
    },
    {
      "inputs": [
        {
          "internalType": "address",
          "name": "to",
          "type": "address"
        },
        {
          "internalType": "uint256",
          "name": "tokenId",
          "type": "uint256"
        }
      ],
      "name": "transferToken",
      "outputs": [],
      "stateMutability": "nonpayable",
      "type": "function"
    },
    {
      "inputs": [
        {
          "internalType": "address",
          "name": "to",
          "type": "address"
        }
      ],
      "name": "safeMint",
      "outputs": [],
      "stateMutability": "payable",
      "type": "function",
      "payable": true
    },
    {
      "inputs": [
        {
          "internalType": "address",
          "name": "user",
          "type": "address"
        }
      ],
      "name": "checkBalance",
      "outputs": [
        {
          "internalType": "uint256",
          "name": "",
          "type": "uint256"
        }
      ],
      "stateMutability": "view",
      "type": "function",
      "constant": true
    },
    {
      "inputs": [
        {
          "internalType": "address",
          "name": "account",
          "type": "address"
        }
      ],
      "name": "balanceOf",
      "outputs": [
        {
          "internalType": "uint256",
          "name": "",
          "type": "uint256"
        }
      ],
      "stateMutability": "view",
      "type": "function",
      "constant": true
    },
    {
      "inputs": [
        {
          "internalType": "bytes4",
          "name": "interfaceId",
          "type": "bytes4"
        }
      ],
      "name": "supportsInterface",
      "outputs": [
        {
          "internalType": "bool",
          "name": "",
          "type": "bool"
        }
      ],
      "stateMutability": "view",
      "type": "function",
      "constant": true
    },
    {
      "inputs": [
        {
          "internalType": "address",
          "name": "to",
          "type": "address"
        },
        {
          "internalType": "uint256",
          "name": "tokenId",
          "type": "uint256"
        }
      ],
      "name": "approveAddressForToken",
      "outputs": [],
      "stateMutability": "nonpayable",
      "type": "function"
    },
    {
      "inputs": [
        {
          "internalType": "address",
          "name": "to",
          "type": "address"
        },
        {
          "internalType": "uint256",
          "name": "tokenId",
          "type": "uint256"
        }
      ],
      "name": "_transferToken",
      "outputs": [],
      "stateMutability": "payable",
      "type": "function",
      "payable": true
    }
  ],
  "bytecode": "0x6080604052600a600c55612710600d553480156200001c57600080fd5b50336040518060400160405280601081526020017f58636c75736976655279646550617373000000000000000000000000000000008152506040518060400160405280600381526020017f585250000000000000000000000000000000000000000000000000000000000081525081600090816200009b919062000498565b508060019081620000ad919062000498565b5050506000600a60006101000a81548160ff021916908315150217905550600073ffffffffffffffffffffffffffffffffffffffff168173ffffffffffffffffffffffffffffffffffffffff1603620001405760006040517f1e4fbdf7000000000000000000000000000000000000000000000000000000008152600401620001379190620005c4565b60405180910390fd5b62000151816200015860201b60201c565b50620005e1565b6000600a60019054906101000a900473ffffffffffffffffffffffffffffffffffffffff16905081600a60016101000a81548173ffffffffffffffffffffffffffffffffffffffff021916908373ffffffffffffffffffffffffffffffffffffffff1602179055508173ffffffffffffffffffffffffffffffffffffffff168173ffffffffffffffffffffffffffffffffffffffff167f8be0079c531659141344cd1fd0a4f28419497f9722a3daafe3b4186f6b6457e060405160405180910390a35050565b600081519050919050565b7f4e487b7100000000000000000000000000000000000000000000000000000000600052604160045260246000fd5b7f4e487b7100000000000000000000000000000000000000000000000000000000600052602260045260246000fd5b60006002820490506001821680620002a057607f821691505b602082108103620002b657620002b562000258565b5b50919050565b60008190508160005260206000209050919050565b60006020601f8301049050919050565b600082821b905092915050565b600060088302620003207fffffffffffffffffffffffffffffffffffffffffffffffffffffffffffffffff82620002e1565b6200032c8683620002e1565b95508019841693508086168417925050509392505050565b6000819050919050565b6000819050919050565b600062000379620003736200036d8462000344565b6200034e565b62000344565b9050919050565b6000819050919050565b620003958362000358565b620003ad620003a48262000380565b848454620002ee565b825550505050565b600090565b620003c4620003b5565b620003d18184846200038a565b505050565b5b81811015620003f957620003ed600082620003ba565b600181019050620003d7565b5050565b601f82111562000448576200041281620002bc565b6200041d84620002d1565b810160208510156200042d578190505b620004456200043c85620002d1565b830182620003d6565b50505b505050565b600082821c905092915050565b60006200046d600019846008026200044d565b1980831691505092915050565b60006200048883836200045a565b9150826002028217905092915050565b620004a3826200021e565b67ffffffffffffffff811115620004bf57620004be62000229565b5b620004cb825462000287565b620004d8828285620003fd565b600060209050601f831160018114620005105760008415620004fb578287015190505b6200050785826200047a565b86555062000577565b601f1984166200052086620002bc565b60005b828110156200054a5784890151825560018201915060208501945060208101905062000523565b868310156200056a578489015162000566601f8916826200045a565b8355505b6001600288020188555050505b505050505050565b600073ffffffffffffffffffffffffffffffffffffffff82169050919050565b6000620005ac826200057f565b9050919050565b620005be816200059f565b82525050565b6000602082019050620005db6000830184620005b3565b92915050565b61370780620005f16000396000f3fe6080604052600436106101cd5760003560e01c80635f515226116100f7578063a22cb46511610095578063c87b56dd11610064578063c87b56dd1461069f578063dd14d856146106dc578063e985e9c5146106f8578063f2fde38b14610735576101cd565b8063a22cb465146105f9578063aa36bb2014610622578063b88d4fde1461064b578063c002d23d14610674576101cd565b8063715018a6116100d1578063715018a61461054f5780637f1dd80b146105665780638da5cb5b146105a357806395d89b41146105ce576101cd565b80635f515226146104985780636352211e146104d557806370a0823114610512576101cd565b80632f745c591161016f57806342966c681161013e57806342966c68146103ca578063450efe21146103f35780634f6ccce7146104305780635c975abb1461046d576101cd565b80632f745c591461031d57806332cb6b0c1461035a57806340d097c31461038557806342842e0e146103a1576101cd565b8063095ea7b3116101ab578063095ea7b3146102775780631072cbea146102a057806318160ddd146102c957806323b872dd146102f4576101cd565b806301ffc9a7146101d257806306fdde031461020f578063081812fc1461023a575b600080fd5b3480156101de57600080fd5b506101f960048036038101906101f49190612b6c565b61075e565b6040516102069190612bb4565b60405180910390f35b34801561021b57600080fd5b50610224610770565b6040516102319190612c5f565b60405180910390f35b34801561024657600080fd5b50610261600480360381019061025c9190612cb7565b610802565b60405161026e9190612d25565b60405180910390f35b34801561028357600080fd5b5061029e60048036038101906102999190612d6c565b61081e565b005b3480156102ac57600080fd5b506102c760048036038101906102c29190612d6c565b610834565b005b3480156102d557600080fd5b506102de610a37565b6040516102eb9190612dbb565b60405180910390f35b34801561030057600080fd5b5061031b60048036038101906103169190612dd6565b610a44565b005b34801561032957600080fd5b50610344600480360381019061033f9190612d6c565b610b46565b6040516103519190612dbb565b60405180910390f35b34801561036657600080fd5b5061036f610bef565b60405161037c9190612dbb565b60405180910390f35b61039f600480360381019061039a9190612e29565b610bf5565b005b3480156103ad57600080fd5b506103c860048036038101906103c39190612dd6565b610d14565b005b3480156103d657600080fd5b506103f160048036038101906103ec9190612cb7565b610d34565b005b3480156103ff57600080fd5b5061041a60048036038101906104159190612e29565b610d4b565b6040516104279190612f14565b60405180910390f35b34801561043c57600080fd5b5061045760048036038101906104529190612cb7565b610de2565b6040516104649190612dbb565b60405180910390f35b34801561047957600080fd5b50610482610e58565b60405161048f9190612bb4565b60405180910390f35b3480156104a457600080fd5b506104bf60048036038101906104ba9190612e29565b610e6f565b6040516104cc9190612dbb565b60405180910390f35b3480156104e157600080fd5b506104fc60048036038101906104f79190612cb7565b610f24565b6040516105099190612d25565b60405180910390f35b34801561051e57600080fd5b5061053960048036038101906105349190612e29565b610f36565b6040516105469190612dbb565b60405180910390f35b34801561055b57600080fd5b50610564610f48565b005b34801561057257600080fd5b5061058d60048036038101906105889190612cb7565b610f5c565b60405161059a9190612d25565b60405180910390f35b3480156105af57600080fd5b506105b8610f6e565b6040516105c59190612d25565b60405180910390f35b3480156105da57600080fd5b506105e3610f98565b6040516105f09190612c5f565b60405180910390f35b34801561060557600080fd5b50610620600480360381019061061b9190612f62565b61102a565b005b34801561062e57600080fd5b5061064960048036038101906106449190612d6c565b611040565b005b34801561065757600080fd5b50610672600480360381019061066d91906130d7565b6110c6565b005b34801561068057600080fd5b506106896110e3565b6040516106969190612dbb565b60405180910390f35b3480156106ab57600080fd5b506106c660048036038101906106c19190612cb7565b6110e9565b6040516106d39190612c5f565b60405180910390f35b6106f660048036038101906106f19190612d6c565b611152565b005b34801561070457600080fd5b5061071f600480360381019061071a919061315a565b6112dd565b60405161072c9190612bb4565b60405180910390f35b34801561074157600080fd5b5061075c60048036038101906107579190612e29565b611371565b005b6000610769826113f7565b9050919050565b60606000805461077f906131c9565b80601f01602080910402602001604051908101604052809291908181526020018280546107ab906131c9565b80156107f85780601f106107cd576101008083540402835291602001916107f8565b820191906000526020600020905b8154815290600101906020018083116107db57829003601f168201915b5050505050905090565b600061080d82611471565b50610817826114f9565b9050919050565b610830828261082b611536565b61153e565b5050565b803373ffffffffffffffffffffffffffffffffffffffff1661085582610f24565b73ffffffffffffffffffffffffffffffffffffffff16146108ab576040517f08c379a00000000000000000000000000000000000000000000000000000000081526004016108a290613246565b60405180910390fd5b6108be6108b783610f24565b8484611550565b6000600e60006108cd85610f24565b73ffffffffffffffffffffffffffffffffffffffff1673ffffffffffffffffffffffffffffffffffffffff168152602001908152602001600020905060005b81805490508110156109ca578382828154811061092c5761092b613266565b5b9060005260206000200154036109b757816001838054905061094e91906132c4565b8154811061095f5761095e613266565b5b906000526020600020015482828154811061097d5761097c613266565b5b90600052602060002001819055508180548061099c5761099b6132f8565b5b600190038181906000526020600020016000905590556109ca565b80806109c290613327565b91505061090c565b50600e60008573ffffffffffffffffffffffffffffffffffffffff1673ffffffffffffffffffffffffffffffffffffffff16815260200190815260200160002083908060018154018082558091505060019003906000526020600020016000909190919091505550505050565b6000600880549050905090565b600073ffffffffffffffffffffffffffffffffffffffff168273ffffffffffffffffffffffffffffffffffffffff1603610ab65760006040517f64a0ae92000000000000000000000000000000000000000000000000000000008152600401610aad9190612d25565b60405180910390fd5b6000610aca8383610ac5611536565b6116bd565b90508373ffffffffffffffffffffffffffffffffffffffff168173ffffffffffffffffffffffffffffffffffffffff1614610b40578382826040517f64283d7b000000000000000000000000000000000000000000000000000000008152600401610b379392919061336f565b60405180910390fd5b50505050565b6000610b5183610f36565b8210610b965782826040517fa57d13dc000000000000000000000000000000000000000000000000000000008152600401610b8d9291906133a6565b60405180910390fd5b600660008473ffffffffffffffffffffffffffffffffffffffff1673ffffffffffffffffffffffffffffffffffffffff168152602001908152602001600020600083815260200190815260200160002054905092915050565b600d5481565b600d54610c00610a37565b10610c40576040517f08c379a0000000000000000000000000000000000000000000000000000000008152600401610c3790613441565b60405180910390fd5b600c54341015610c85576040517f08c379a0000000000000000000000000000000000000000000000000000000008152600401610c7c906134ad565b60405180910390fd5b6000600b6000815480929190610c9a90613327565b919050559050610caa82826116d3565b600e60008373ffffffffffffffffffffffffffffffffffffffff1673ffffffffffffffffffffffffffffffffffffffff1681526020019081526020016000208190806001815401808255809150506001900390600052602060002001600090919091909150555050565b610d2f838383604051806020016040528060008152506110c6565b505050565b610d47600082610d42611536565b6116bd565b5050565b6060600e60008373ffffffffffffffffffffffffffffffffffffffff1673ffffffffffffffffffffffffffffffffffffffff168152602001908152602001600020805480602002602001604051908101604052809291908181526020018280548015610dd657602002820191906000526020600020905b815481526020019060010190808311610dc2575b50505050509050919050565b6000610dec610a37565b8210610e32576000826040517fa57d13dc000000000000000000000000000000000000000000000000000000008152600401610e299291906133a6565b60405180910390fd5b60088281548110610e4657610e45613266565b5b90600052602060002001549050919050565b6000600a60009054906101000a900460ff16905090565b6000610e79610f6e565b73ffffffffffffffffffffffffffffffffffffffff163373ffffffffffffffffffffffffffffffffffffffff161480610edd57508173ffffffffffffffffffffffffffffffffffffffff163373ffffffffffffffffffffffffffffffffffffffff16145b610f1c576040517f08c379a0000000000000000000000000000000000000000000000000000000008152600401610f139061353f565b60405180910390fd5b479050919050565b6000610f2f82611471565b9050919050565b6000610f41826116f1565b9050919050565b610f506117ab565b610f5a6000611832565b565b6000610f6782610f24565b9050919050565b6000600a60019054906101000a900473ffffffffffffffffffffffffffffffffffffffff16905090565b606060018054610fa7906131c9565b80601f0160208091040260200160405190810160405280929190818152602001828054610fd3906131c9565b80156110205780601f10610ff557610100808354040283529160200191611020565b820191906000526020600020905b81548152906001019060200180831161100357829003601f168201915b5050505050905090565b61103c611035611536565b83836118f8565b5050565b803373ffffffffffffffffffffffffffffffffffffffff1661106182610f24565b73ffffffffffffffffffffffffffffffffffffffff16146110b7576040517f08c379a00000000000000000000000000000000000000000000000000000000081526004016110ae90613246565b60405180910390fd5b6110c1838361081e565b505050565b6110d1848484610a44565b6110dd84848484611a67565b50505050565b600c5481565b60606110f482611471565b5060006110ff611c1e565b9050600081511161111f576040518060200160405280600081525061114a565b8061112984611c5b565b60405160200161113a92919061359b565b6040516020818303038152906040525b915050919050565b6000600e600061116184610f24565b73ffffffffffffffffffffffffffffffffffffffff1673ffffffffffffffffffffffffffffffffffffffff16815260200190815260200160002090506111b06111a983610f24565b8484611550565b60005b818054905081101561127157828282815481106111d3576111d2613266565b5b90600052602060002001540361125e5781600183805490506111f591906132c4565b8154811061120657611205613266565b5b906000526020600020015482828154811061122457611223613266565b5b906000526020600020018190555081805480611243576112426132f8565b5b60019003818190600052602060002001600090559055611271565b808061126990613327565b9150506111b3565b50600e60008473ffffffffffffffffffffffffffffffffffffffff1673ffffffffffffffffffffffffffffffffffffffff168152602001908152602001600020829080600181540180825580915050600190039060005260206000200160009091909190915055505050565b6000600560008473ffffffffffffffffffffffffffffffffffffffff1673ffffffffffffffffffffffffffffffffffffffff16815260200190815260200160002060008373ffffffffffffffffffffffffffffffffffffffff1673ffffffffffffffffffffffffffffffffffffffff16815260200190815260200160002060009054906101000a900460ff16905092915050565b6113796117ab565b600073ffffffffffffffffffffffffffffffffffffffff168173ffffffffffffffffffffffffffffffffffffffff16036113eb5760006040517f1e4fbdf70000000000000000000000000000000000000000000000000000000081526004016113e29190612d25565b60405180910390fd5b6113f481611832565b50565b60007f780e9d63000000000000000000000000000000000000000000000000000000007bffffffffffffffffffffffffffffffffffffffffffffffffffffffff1916827bffffffffffffffffffffffffffffffffffffffffffffffffffffffff1916148061146a575061146982611d29565b5b9050919050565b60008061147d83611e0b565b9050600073ffffffffffffffffffffffffffffffffffffffff168173ffffffffffffffffffffffffffffffffffffffff16036114f057826040517f7e2732890000000000000000000000000000000000000000000000000000000081526004016114e79190612dbb565b60405180910390fd5b80915050919050565b60006004600083815260200190815260200160002060009054906101000a900473ffffffffffffffffffffffffffffffffffffffff169050919050565b600033905090565b61154b8383836001611e48565b505050565b600073ffffffffffffffffffffffffffffffffffffffff168273ffffffffffffffffffffffffffffffffffffffff16036115c25760006040517f64a0ae920000000000000000000000000000000000000000000000000000000081526004016115b99190612d25565b60405180910390fd5b60006115d0838360006116bd565b9050600073ffffffffffffffffffffffffffffffffffffffff168173ffffffffffffffffffffffffffffffffffffffff160361164357816040517f7e27328900000000000000000000000000000000000000000000000000000000815260040161163a9190612dbb565b60405180910390fd5b8373ffffffffffffffffffffffffffffffffffffffff168173ffffffffffffffffffffffffffffffffffffffff16146116b7578382826040517f64283d7b0000000000000000000000000000000000000000000000000000000081526004016116ae9392919061336f565b60405180910390fd5b50505050565b60006116ca84848461200d565b90509392505050565b6116ed82826040518060200160405280600081525061202b565b5050565b60008073ffffffffffffffffffffffffffffffffffffffff168273ffffffffffffffffffffffffffffffffffffffff16036117645760006040517f89c62b6400000000000000000000000000000000000000000000000000000000815260040161175b9190612d25565b60405180910390fd5b600360008373ffffffffffffffffffffffffffffffffffffffff1673ffffffffffffffffffffffffffffffffffffffff168152602001908152602001600020549050919050565b6117b3611536565b73ffffffffffffffffffffffffffffffffffffffff166117d1610f6e565b73ffffffffffffffffffffffffffffffffffffffff1614611830576117f4611536565b6040517f118cdaa70000000000000000000000000000000000000000000000000000000081526004016118279190612d25565b60405180910390fd5b565b6000600a60019054906101000a900473ffffffffffffffffffffffffffffffffffffffff16905081600a60016101000a81548173ffffffffffffffffffffffffffffffffffffffff021916908373ffffffffffffffffffffffffffffffffffffffff1602179055508173ffffffffffffffffffffffffffffffffffffffff168173ffffffffffffffffffffffffffffffffffffffff167f8be0079c531659141344cd1fd0a4f28419497f9722a3daafe3b4186f6b6457e060405160405180910390a35050565b600073ffffffffffffffffffffffffffffffffffffffff168273ffffffffffffffffffffffffffffffffffffffff160361196957816040517f5b08ba180000000000000000000000000000000000000000000000000000000081526004016119609190612d25565b60405180910390fd5b80600560008573ffffffffffffffffffffffffffffffffffffffff1673ffffffffffffffffffffffffffffffffffffffff16815260200190815260200160002060008473ffffffffffffffffffffffffffffffffffffffff1673ffffffffffffffffffffffffffffffffffffffff16815260200190815260200160002060006101000a81548160ff0219169083151502179055508173ffffffffffffffffffffffffffffffffffffffff168373ffffffffffffffffffffffffffffffffffffffff167f17307eab39ab6107e8899845ad3d59bd9653f200f220920489ca2b5937696c3183604051611a5a9190612bb4565b60405180910390a3505050565b60008373ffffffffffffffffffffffffffffffffffffffff163b1115611c18578273ffffffffffffffffffffffffffffffffffffffff1663150b7a02611aab611536565b8685856040518563ffffffff1660e01b8152600401611acd9493929190613614565b6020604051808303816000875af1925050508015611b0957506040513d601f19601f82011682018060405250810190611b069190613675565b60015b611b8d573d8060008114611b39576040519150601f19603f3d011682016040523d82523d6000602084013e611b3e565b606091505b506000815103611b8557836040517f64a0ae92000000000000000000000000000000000000000000000000000000008152600401611b7c9190612d25565b60405180910390fd5b805181602001fd5b63150b7a0260e01b7bffffffffffffffffffffffffffffffffffffffffffffffffffffffff1916817bffffffffffffffffffffffffffffffffffffffffffffffffffffffff191614611c1657836040517f64a0ae92000000000000000000000000000000000000000000000000000000008152600401611c0d9190612d25565b60405180910390fd5b505b50505050565b60606040518060400160405280601f81526020017f697066733a2f2f78636c75736976655279646550617373426173655552492f00815250905090565b606060006001611c6a84612047565b01905060008167ffffffffffffffff811115611c8957611c88612fac565b5b6040519080825280601f01601f191660200182016040528015611cbb5781602001600182028036833780820191505090505b509050600082602001820190505b600115611d1e578080600190039150507f3031323334353637383961626364656600000000000000000000000000000000600a86061a8153600a8581611d1257611d116136a2565b5b04945060008503611cc9575b819350505050919050565b60007f80ac58cd000000000000000000000000000000000000000000000000000000007bffffffffffffffffffffffffffffffffffffffffffffffffffffffff1916827bffffffffffffffffffffffffffffffffffffffffffffffffffffffff19161480611df457507f5b5e139f000000000000000000000000000000000000000000000000000000007bffffffffffffffffffffffffffffffffffffffffffffffffffffffff1916827bffffffffffffffffffffffffffffffffffffffffffffffffffffffff1916145b80611e045750611e038261219a565b5b9050919050565b60006002600083815260200190815260200160002060009054906101000a900473ffffffffffffffffffffffffffffffffffffffff169050919050565b8080611e815750600073ffffffffffffffffffffffffffffffffffffffff168273ffffffffffffffffffffffffffffffffffffffff1614155b15611fb5576000611e9184611471565b9050600073ffffffffffffffffffffffffffffffffffffffff168373ffffffffffffffffffffffffffffffffffffffff1614158015611efc57508273ffffffffffffffffffffffffffffffffffffffff168173ffffffffffffffffffffffffffffffffffffffff1614155b8015611f0f5750611f0d81846112dd565b155b15611f5157826040517fa9fbf51f000000000000000000000000000000000000000000000000000000008152600401611f489190612d25565b60405180910390fd5b8115611fb357838573ffffffffffffffffffffffffffffffffffffffff168273ffffffffffffffffffffffffffffffffffffffff167f8c5be1e5ebec7d5bd14f71427d1e84f3dd0314c0f7b2291e5b200ac8c7c3b92560405160405180910390a45b505b836004600085815260200190815260200160002060006101000a81548173ffffffffffffffffffffffffffffffffffffffff021916908373ffffffffffffffffffffffffffffffffffffffff16021790555050505050565b6000612017612204565b612022848484612245565b90509392505050565b6120358383612362565b6120426000848484611a67565b505050565b600080600090507a184f03e93ff9f4daa797ed6e38ed64bf6a1f01000000000000000083106120a5577a184f03e93ff9f4daa797ed6e38ed64bf6a1f010000000000000000838161209b5761209a6136a2565b5b0492506040810190505b6d04ee2d6d415b85acef810000000083106120e2576d04ee2d6d415b85acef810000000083816120d8576120d76136a2565b5b0492506020810190505b662386f26fc10000831061211157662386f26fc100008381612107576121066136a2565b5b0492506010810190505b6305f5e100831061213a576305f5e10083816121305761212f6136a2565b5b0492506008810190505b612710831061215f576127108381612155576121546136a2565b5b0492506004810190505b606483106121825760648381612178576121776136a2565b5b0492506002810190505b600a8310612191576001810190505b80915050919050565b60007f01ffc9a7000000000000000000000000000000000000000000000000000000007bffffffffffffffffffffffffffffffffffffffffffffffffffffffff1916827bffffffffffffffffffffffffffffffffffffffffffffffffffffffff1916149050919050565b61220c610e58565b15612243576040517fd93c066500000000000000000000000000000000000000000000000000000000815260040160405180910390fd5b565b60008061225385858561245b565b9050600073ffffffffffffffffffffffffffffffffffffffff168173ffffffffffffffffffffffffffffffffffffffff16036122975761229284612675565b6122d6565b8473ffffffffffffffffffffffffffffffffffffffff168173ffffffffffffffffffffffffffffffffffffffff16146122d5576122d481856126be565b5b5b600073ffffffffffffffffffffffffffffffffffffffff168573ffffffffffffffffffffffffffffffffffffffff1603612318576123138461281f565b612357565b8473ffffffffffffffffffffffffffffffffffffffff168173ffffffffffffffffffffffffffffffffffffffff16146123565761235585856128f0565b5b5b809150509392505050565b600073ffffffffffffffffffffffffffffffffffffffff168273ffffffffffffffffffffffffffffffffffffffff16036123d45760006040517f64a0ae920000000000000000000000000000000000000000000000000000000081526004016123cb9190612d25565b60405180910390fd5b60006123e2838360006116bd565b9050600073ffffffffffffffffffffffffffffffffffffffff168173ffffffffffffffffffffffffffffffffffffffff16146124565760006040517f73c6ac6e00000000000000000000000000000000000000000000000000000000815260040161244d9190612d25565b60405180910390fd5b505050565b60008061246784611e0b565b9050600073ffffffffffffffffffffffffffffffffffffffff168373ffffffffffffffffffffffffffffffffffffffff16146124a9576124a881848661297b565b5b600073ffffffffffffffffffffffffffffffffffffffff168173ffffffffffffffffffffffffffffffffffffffff161461253a576124eb600085600080611e48565b6001600360008373ffffffffffffffffffffffffffffffffffffffff1673ffffffffffffffffffffffffffffffffffffffff168152602001908152602001600020600082825403925050819055505b600073ffffffffffffffffffffffffffffffffffffffff168573ffffffffffffffffffffffffffffffffffffffff16146125bd576001600360008773ffffffffffffffffffffffffffffffffffffffff1673ffffffffffffffffffffffffffffffffffffffff168152602001908152602001600020600082825401925050819055505b846002600086815260200190815260200160002060006101000a81548173ffffffffffffffffffffffffffffffffffffffff021916908373ffffffffffffffffffffffffffffffffffffffff160217905550838573ffffffffffffffffffffffffffffffffffffffff168273ffffffffffffffffffffffffffffffffffffffff167fddf252ad1be2c89b69c2b068fc378daa952ba7f163c4a11628f55a4df523b3ef60405160405180910390a4809150509392505050565b6008805490506009600083815260200190815260200160002081905550600881908060018154018082558091505060019003906000526020600020016000909190919091505550565b60006126c983610f36565b90506000600760008481526020019081526020016000205490508181146127ae576000600660008673ffffffffffffffffffffffffffffffffffffffff1673ffffffffffffffffffffffffffffffffffffffff168152602001908152602001600020600084815260200190815260200160002054905080600660008773ffffffffffffffffffffffffffffffffffffffff1673ffffffffffffffffffffffffffffffffffffffff168152602001908152602001600020600084815260200190815260200160002081905550816007600083815260200190815260200160002081905550505b6007600084815260200190815260200160002060009055600660008573ffffffffffffffffffffffffffffffffffffffff1673ffffffffffffffffffffffffffffffffffffffff16815260200190815260200160002060008381526020019081526020016000206000905550505050565b6000600160088054905061283391906132c4565b905060006009600084815260200190815260200160002054905060006008838154811061286357612862613266565b5b90600052602060002001549050806008838154811061288557612884613266565b5b9060005260206000200181905550816009600083815260200190815260200160002081905550600960008581526020019081526020016000206000905560088054806128d4576128d36132f8565b5b6001900381819060005260206000200160009055905550505050565b600060016128fd84610f36565b61290791906132c4565b905081600660008573ffffffffffffffffffffffffffffffffffffffff1673ffffffffffffffffffffffffffffffffffffffff168152602001908152602001600020600083815260200190815260200160002081905550806007600084815260200190815260200160002081905550505050565b612986838383612a3f565b612a3a57600073ffffffffffffffffffffffffffffffffffffffff168373ffffffffffffffffffffffffffffffffffffffff16036129fb57806040517f7e2732890000000000000000000000000000000000000000000000000000000081526004016129f29190612dbb565b60405180910390fd5b81816040517f177e802f000000000000000000000000000000000000000000000000000000008152600401612a319291906133a6565b60405180910390fd5b505050565b60008073ffffffffffffffffffffffffffffffffffffffff168373ffffffffffffffffffffffffffffffffffffffff1614158015612af757508273ffffffffffffffffffffffffffffffffffffffff168473ffffffffffffffffffffffffffffffffffffffff161480612ab85750612ab784846112dd565b5b80612af657508273ffffffffffffffffffffffffffffffffffffffff16612ade836114f9565b73ffffffffffffffffffffffffffffffffffffffff16145b5b90509392505050565b6000604051905090565b600080fd5b600080fd5b60007fffffffff0000000000000000000000000000000000000000000000000000000082169050919050565b612b4981612b14565b8114612b5457600080fd5b50565b600081359050612b6681612b40565b92915050565b600060208284031215612b8257612b81612b0a565b5b6000612b9084828501612b57565b91505092915050565b60008115159050919050565b612bae81612b99565b82525050565b6000602082019050612bc96000830184612ba5565b92915050565b600081519050919050565b600082825260208201905092915050565b60005b83811015612c09578082015181840152602081019050612bee565b60008484015250505050565b6000601f19601f8301169050919050565b6000612c3182612bcf565b612c3b8185612bda565b9350612c4b818560208601612beb565b612c5481612c15565b840191505092915050565b60006020820190508181036000830152612c798184612c26565b905092915050565b6000819050919050565b612c9481612c81565b8114612c9f57600080fd5b50565b600081359050612cb181612c8b565b92915050565b600060208284031215612ccd57612ccc612b0a565b5b6000612cdb84828501612ca2565b91505092915050565b600073ffffffffffffffffffffffffffffffffffffffff82169050919050565b6000612d0f82612ce4565b9050919050565b612d1f81612d04565b82525050565b6000602082019050612d3a6000830184612d16565b92915050565b612d4981612d04565b8114612d5457600080fd5b50565b600081359050612d6681612d40565b92915050565b60008060408385031215612d8357612d82612b0a565b5b6000612d9185828601612d57565b9250506020612da285828601612ca2565b9150509250929050565b612db581612c81565b82525050565b6000602082019050612dd06000830184612dac565b92915050565b600080600060608486031215612def57612dee612b0a565b5b6000612dfd86828701612d57565b9350506020612e0e86828701612d57565b9250506040612e1f86828701612ca2565b9150509250925092565b600060208284031215612e3f57612e3e612b0a565b5b6000612e4d84828501612d57565b91505092915050565b600081519050919050565b600082825260208201905092915050565b6000819050602082019050919050565b612e8b81612c81565b82525050565b6000612e9d8383612e82565b60208301905092915050565b6000602082019050919050565b6000612ec182612e56565b612ecb8185612e61565b9350612ed683612e72565b8060005b83811015612f07578151612eee8882612e91565b9750612ef983612ea9565b925050600181019050612eda565b5085935050505092915050565b60006020820190508181036000830152612f2e8184612eb6565b905092915050565b612f3f81612b99565b8114612f4a57600080fd5b50565b600081359050612f5c81612f36565b92915050565b60008060408385031215612f7957612f78612b0a565b5b6000612f8785828601612d57565b9250506020612f9885828601612f4d565b9150509250929050565b600080fd5b600080fd5b7f4e487b7100000000000000000000000000000000000000000000000000000000600052604160045260246000fd5b612fe482612c15565b810181811067ffffffffffffffff8211171561300357613002612fac565b5b80604052505050565b6000613016612b00565b90506130228282612fdb565b919050565b600067ffffffffffffffff82111561304257613041612fac565b5b61304b82612c15565b9050602081019050919050565b82818337600083830152505050565b600061307a61307584613027565b61300c565b90508281526020810184848401111561309657613095612fa7565b5b6130a1848285613058565b509392505050565b600082601f8301126130be576130bd612fa2565b5b81356130ce848260208601613067565b91505092915050565b600080600080608085870312156130f1576130f0612b0a565b5b60006130ff87828801612d57565b945050602061311087828801612d57565b935050604061312187828801612ca2565b925050606085013567ffffffffffffffff81111561314257613141612b0f565b5b61314e878288016130a9565b91505092959194509250565b6000806040838503121561317157613170612b0a565b5b600061317f85828601612d57565b925050602061319085828601612d57565b9150509250929050565b7f4e487b7100000000000000000000000000000000000000000000000000000000600052602260045260246000fd5b600060028204905060018216806131e157607f821691505b6020821081036131f4576131f361319a565b5b50919050565b7f4e6f7420746865206f776e6572206f662074686520746f6b656e000000000000600082015250565b6000613230601a83612bda565b915061323b826131fa565b602082019050919050565b6000602082019050818103600083015261325f81613223565b9050919050565b7f4e487b7100000000000000000000000000000000000000000000000000000000600052603260045260246000fd5b7f4e487b7100000000000000000000000000000000000000000000000000000000600052601160045260246000fd5b60006132cf82612c81565b91506132da83612c81565b92508282039050818111156132f2576132f1613295565b5b92915050565b7f4e487b7100000000000000000000000000000000000000000000000000000000600052603160045260246000fd5b600061333282612c81565b91507fffffffffffffffffffffffffffffffffffffffffffffffffffffffffffffffff820361336457613363613295565b5b600182019050919050565b60006060820190506133846000830186612d16565b6133916020830185612dac565b61339e6040830184612d16565b949350505050565b60006040820190506133bb6000830185612d16565b6133c86020830184612dac565b9392505050565b7f6578636565646564206d617820737570706c792c2063616e74206d696e74206160008201527f6e796d6f72650000000000000000000000000000000000000000000000000000602082015250565b600061342b602683612bda565b9150613436826133cf565b604082019050919050565b6000602082019050818103600083015261345a8161341e565b9050919050565b7f6e6f7420656e6f75676820657468657273000000000000000000000000000000600082015250565b6000613497601183612bda565b91506134a282613461565b602082019050919050565b600060208201905081810360008301526134c68161348a565b9050919050565b7f4f6e6c7920746865206f776e6572206f7220746865206173736f63696174656460008201527f20616464726573732063616e20636865636b207468652062616c616e63652e00602082015250565b6000613529603f83612bda565b9150613534826134cd565b604082019050919050565b600060208201905081810360008301526135588161351c565b9050919050565b600081905092915050565b600061357582612bcf565b61357f818561355f565b935061358f818560208601612beb565b80840191505092915050565b60006135a7828561356a565b91506135b3828461356a565b91508190509392505050565b600081519050919050565b600082825260208201905092915050565b60006135e6826135bf565b6135f081856135ca565b9350613600818560208601612beb565b61360981612c15565b840191505092915050565b60006080820190506136296000830187612d16565b6136366020830186612d16565b6136436040830185612dac565b818103606083015261365581846135db565b905095945050505050565b60008151905061366f81612b40565b92915050565b60006020828403121561368b5761368a612b0a565b5b600061369984828501613660565b91505092915050565b7f4e487b7100000000000000000000000000000000000000000000000000000000600052601260045260246000fdfea2646970667358221220bb12be542947e7c2cd528d0095deba5256645bb53208ec77f394fb4d27f0cf9364736f6c63430008140033",
  "immutableReferences": {},
  "source": "// SPDX-License-Identifier: MIT\npragma solidity ^0.8.20;\n\n\n\nimport \"@openzeppelin/contracts/token/ERC721/ERC721.sol\";\nimport \"@openzeppelin/contracts/token/ERC721/extensions/ERC721Enumerable.sol\";\nimport \"@openzeppelin/contracts/token/ERC721/extensions/ERC721Pausable.sol\";\nimport \"@openzeppelin/contracts/access/Ownable.sol\";\nimport \"@openzeppelin/contracts/token/ERC721/extensions/ERC721Burnable.sol\";\n\ncontract XclusiveRydePass is ERC721, ERC721Enumerable, ERC721Pausable, Ownable, ERC721Burnable {\n    uint256 private _nextTokenId;\n\n    uint256 public MINT_PRICE = 10 wei;\n    uint256 public MAX_SUPPLY = 10000;\n\n    mapping(address=> uint256[]) private tokenOwnerstoIds;\n    \n\n\n    constructor()\n        ERC721(\"XclusiveRydePass\", \"XRP\")\n        Ownable(msg.sender)     \n    {}\n\n    function _baseURI() internal pure override returns (string memory) {\n        return \"ipfs://xclusiveRydePassBaseURI/\";\n    }\n\n\n    function getTokens(address user) public view returns (uint256[] memory) {\n        return tokenOwnerstoIds[user];\n    }\n\n    function getOwnerOfToken(uint256 tokenId) public view returns (address) {\n        return ownerOf(tokenId);\n    }\n\n    function transferToken(address to, uint256 tokenId) public onlyOwnerOf(tokenId) {\n        _transfer(ownerOf(tokenId), to, tokenId);\n        uint256[] storage ownerTokenIds = tokenOwnerstoIds[ownerOf(tokenId)];\n        for (uint256 i = 0; i < ownerTokenIds.length; i++) {\n            if (ownerTokenIds[i] == tokenId) {\n                // Remove the transferred token from the owner's list of tokens\n                ownerTokenIds[i] = ownerTokenIds[ownerTokenIds.length - 1];\n                ownerTokenIds.pop();\n                break;\n            }\n        }\n        tokenOwnerstoIds[to].push(tokenId);\n    }\n\n    function safeMint(address to) public payable   {\n        require(totalSupply() < MAX_SUPPLY, \"exceeded max supply, cant mint anymore\");\n        require(msg.value>=MINT_PRICE, \"not enough ethers\");\n        uint256 tokenId = _nextTokenId++;\n        _safeMint(to, tokenId);\n        tokenOwnerstoIds[to].push(tokenId);\n    }\n\n    // The following functions are overrides required by Solidity.\n\n    function checkBalance(address user) public view returns (uint256) {\n        \n        require(msg.sender == owner() || msg.sender == user, \"Only the owner or the associated address can check the balance.\");\n        return address(this).balance;\n    }\n\n    function balanceOf(address account) override(ERC721, IERC721) public view  returns (uint256) {\n        return super.balanceOf(account);\n    }\n\n    function _update(address to, uint256 tokenId, address auth)\n        internal\n        override(ERC721, ERC721Enumerable, ERC721Pausable)\n        returns (address)\n    {\n        return super._update(to, tokenId, auth);\n    }\n\n    function _increaseBalance(address account, uint128 value)\n        internal\n        override(ERC721, ERC721Enumerable)\n    {\n        super._increaseBalance(account, value);\n    }\n\n    function supportsInterface(bytes4 interfaceId)\n        public\n        view\n        override(ERC721, ERC721Enumerable)\n        returns (bool)\n    {\n        return super.supportsInterface(interfaceId);\n    }\n\n    modifier onlyOwnerOf(uint256 tokenId) {\n        require(ownerOf(tokenId) == msg.sender, \"Not the owner of the token\");\n    _;\n    }\n\n\n    function approveAddressForToken(address to, uint256 tokenId) public onlyOwnerOf(tokenId) {\n        approve(to, tokenId);\n    }\n\n    function _transferToken(address to, uint256 tokenId)  external payable  {\n        uint256[] storage ownerTokenIds = tokenOwnerstoIds[ownerOf(tokenId)];\n        _transfer(ownerOf(tokenId), to, tokenId);\n        for (uint256 i = 0; i < ownerTokenIds.length; i++) {\n            if (ownerTokenIds[i] == tokenId) {\n                // Remove the transferred token from the owner's list of tokens\n                ownerTokenIds[i] = ownerTokenIds[ownerTokenIds.length - 1];\n                ownerTokenIds.pop();\n                break;\n            }\n        }\n        tokenOwnerstoIds[to].push(tokenId);\n    }\n\n    \n}",
  "sourcePath": "/Users/atishs/Downloads/ashutos2_atishkum_blockchain_phase3/decentralized_cab_booking/DRSA-contract/contracts/XclusiveRydepass.sol",
  "compiler": {
    "name": "solc",
    "version": "0.8.20+commit.a1b79de6.Emscripten.clang"
  },
  "schemaVersion": "3.4.16",
  "updatedAt": "2023-12-04T05:14:37.965Z",
  "networkType": "ethereum",
  "devdoc": {
    "errors": {
      "ERC721EnumerableForbiddenBatchMint()": [
        {
          "details": "Batch mint is not allowed."
        }
      ],
      "ERC721IncorrectOwner(address,uint256,address)": [
        {
          "details": "Indicates an error related to the ownership over a particular token. Used in transfers.",
          "params": {
            "owner": "Address of the current owner of a token.",
            "sender": "Address whose tokens are being transferred.",
            "tokenId": "Identifier number of a token."
          }
        }
      ],
      "ERC721InsufficientApproval(address,uint256)": [
        {
          "details": "Indicates a failure with the `operator`s approval. Used in transfers.",
          "params": {
            "operator": "Address that may be allowed to operate on tokens without being their owner.",
            "tokenId": "Identifier number of a token."
          }
        }
      ],
      "ERC721InvalidApprover(address)": [
        {
          "details": "Indicates a failure with the `approver` of a token to be approved. Used in approvals.",
          "params": {
            "approver": "Address initiating an approval operation."
          }
        }
      ],
      "ERC721InvalidOperator(address)": [
        {
          "details": "Indicates a failure with the `operator` to be approved. Used in approvals.",
          "params": {
            "operator": "Address that may be allowed to operate on tokens without being their owner."
          }
        }
      ],
      "ERC721InvalidOwner(address)": [
        {
          "details": "Indicates that an address can't be an owner. For example, `address(0)` is a forbidden owner in EIP-20. Used in balance queries.",
          "params": {
            "owner": "Address of the current owner of a token."
          }
        }
      ],
      "ERC721InvalidReceiver(address)": [
        {
          "details": "Indicates a failure with the token `receiver`. Used in transfers.",
          "params": {
            "receiver": "Address to which tokens are being transferred."
          }
        }
      ],
      "ERC721InvalidSender(address)": [
        {
          "details": "Indicates a failure with the token `sender`. Used in transfers.",
          "params": {
            "sender": "Address whose tokens are being transferred."
          }
        }
      ],
      "ERC721NonexistentToken(uint256)": [
        {
          "details": "Indicates a `tokenId` whose `owner` is the zero address.",
          "params": {
            "tokenId": "Identifier number of a token."
          }
        }
      ],
      "ERC721OutOfBoundsIndex(address,uint256)": [
        {
          "details": "An `owner`'s token query was out of bounds for `index`. NOTE: The owner being `address(0)` indicates a global out of bounds index."
        }
      ],
      "EnforcedPause()": [
        {
          "details": "The operation failed because the contract is paused."
        }
      ],
      "ExpectedPause()": [
        {
          "details": "The operation failed because the contract is not paused."
        }
      ],
      "OwnableInvalidOwner(address)": [
        {
          "details": "The owner is not a valid owner account. (eg. `address(0)`)"
        }
      ],
      "OwnableUnauthorizedAccount(address)": [
        {
          "details": "The caller account is not authorized to perform an operation."
        }
      ]
    },
    "events": {
      "Approval(address,address,uint256)": {
        "details": "Emitted when `owner` enables `approved` to manage the `tokenId` token."
      },
      "ApprovalForAll(address,address,bool)": {
        "details": "Emitted when `owner` enables or disables (`approved`) `operator` to manage all of its assets."
      },
      "Paused(address)": {
        "details": "Emitted when the pause is triggered by `account`."
      },
      "Transfer(address,address,uint256)": {
        "details": "Emitted when `tokenId` token is transferred from `from` to `to`."
      },
      "Unpaused(address)": {
        "details": "Emitted when the pause is lifted by `account`."
      }
    },
    "kind": "dev",
    "methods": {
      "approve(address,uint256)": {
        "details": "See {IERC721-approve}."
      },
      "burn(uint256)": {
        "details": "Burns `tokenId`. See {ERC721-_burn}. Requirements: - The caller must own `tokenId` or be an approved operator."
      },
      "getApproved(uint256)": {
        "details": "See {IERC721-getApproved}."
      },
      "isApprovedForAll(address,address)": {
        "details": "See {IERC721-isApprovedForAll}."
      },
      "name()": {
        "details": "See {IERC721Metadata-name}."
      },
      "owner()": {
        "details": "Returns the address of the current owner."
      },
      "ownerOf(uint256)": {
        "details": "See {IERC721-ownerOf}."
      },
      "paused()": {
        "details": "Returns true if the contract is paused, and false otherwise."
      },
      "renounceOwnership()": {
        "details": "Leaves the contract without owner. It will not be possible to call `onlyOwner` functions. Can only be called by the current owner. NOTE: Renouncing ownership will leave the contract without an owner, thereby disabling any functionality that is only available to the owner."
      },
      "safeTransferFrom(address,address,uint256)": {
        "details": "See {IERC721-safeTransferFrom}."
      },
      "safeTransferFrom(address,address,uint256,bytes)": {
        "details": "See {IERC721-safeTransferFrom}."
      },
      "setApprovalForAll(address,bool)": {
        "details": "See {IERC721-setApprovalForAll}."
      },
      "symbol()": {
        "details": "See {IERC721Metadata-symbol}."
      },
      "tokenByIndex(uint256)": {
        "details": "See {IERC721Enumerable-tokenByIndex}."
      },
      "tokenOfOwnerByIndex(address,uint256)": {
        "details": "See {IERC721Enumerable-tokenOfOwnerByIndex}."
      },
      "tokenURI(uint256)": {
        "details": "See {IERC721Metadata-tokenURI}."
      },
      "totalSupply()": {
        "details": "See {IERC721Enumerable-totalSupply}."
      },
      "transferFrom(address,address,uint256)": {
        "details": "See {IERC721-transferFrom}."
      },
      "transferOwnership(address)": {
        "details": "Transfers ownership of the contract to a new account (`newOwner`). Can only be called by the current owner."
      }
    },
    "version": 1
  },
  "userdoc": {
    "kind": "user",
    "methods": {},
    "version": 1
  }
}