{
  "contractName": "XclusiveRydePass",
  "abi": [
    {
      "inputs": [],
      "stateMutability": "nonpayable",
      "type": "constructor"
    },
    {
      "inputs": [],
      "name": "ERC721EnumerableForbiddenBatchMint",
      "type": "error"
    },
    {
      "inputs": [
        {
          "internalType": "address",
          "name": "sender",
          "type": "address"
        },
        {
          "internalType": "uint256",
          "name": "tokenId",
          "type": "uint256"
        },
        {
          "internalType": "address",
          "name": "owner",
          "type": "address"
        }
      ],
      "name": "ERC721IncorrectOwner",
      "type": "error"
    },
    {
      "inputs": [
        {
          "internalType": "address",
          "name": "operator",
          "type": "address"
        },
        {
          "internalType": "uint256",
          "name": "tokenId",
          "type": "uint256"
        }
      ],
      "name": "ERC721InsufficientApproval",
      "type": "error"
    },
    {
      "inputs": [
        {
          "internalType": "address",
          "name": "approver",
          "type": "address"
        }
      ],
      "name": "ERC721InvalidApprover",
      "type": "error"
    },
    {
      "inputs": [
        {
          "internalType": "address",
          "name": "operator",
          "type": "address"
        }
      ],
      "name": "ERC721InvalidOperator",
      "type": "error"
    },
    {
      "inputs": [
        {
          "internalType": "address",
          "name": "owner",
          "type": "address"
        }
      ],
      "name": "ERC721InvalidOwner",
      "type": "error"
    },
    {
      "inputs": [
        {
          "internalType": "address",
          "name": "receiver",
          "type": "address"
        }
      ],
      "name": "ERC721InvalidReceiver",
      "type": "error"
    },
    {
      "inputs": [
        {
          "internalType": "address",
          "name": "sender",
          "type": "address"
        }
      ],
      "name": "ERC721InvalidSender",
      "type": "error"
    },
    {
      "inputs": [
        {
          "internalType": "uint256",
          "name": "tokenId",
          "type": "uint256"
        }
      ],
      "name": "ERC721NonexistentToken",
      "type": "error"
    },
    {
      "inputs": [
        {
          "internalType": "address",
          "name": "owner",
          "type": "address"
        },
        {
          "internalType": "uint256",
          "name": "index",
          "type": "uint256"
        }
      ],
      "name": "ERC721OutOfBoundsIndex",
      "type": "error"
    },
    {
      "inputs": [],
      "name": "EnforcedPause",
      "type": "error"
    },
    {
      "inputs": [],
      "name": "ExpectedPause",
      "type": "error"
    },
    {
      "inputs": [
        {
          "internalType": "address",
          "name": "owner",
          "type": "address"
        }
      ],
      "name": "OwnableInvalidOwner",
      "type": "error"
    },
    {
      "inputs": [
        {
          "internalType": "address",
          "name": "account",
          "type": "address"
        }
      ],
      "name": "OwnableUnauthorizedAccount",
      "type": "error"
    },
    {
      "anonymous": false,
      "inputs": [
        {
          "indexed": true,
          "internalType": "address",
          "name": "owner",
          "type": "address"
        },
        {
          "indexed": true,
          "internalType": "address",
          "name": "approved",
          "type": "address"
        },
        {
          "indexed": true,
          "internalType": "uint256",
          "name": "tokenId",
          "type": "uint256"
        }
      ],
      "name": "Approval",
      "type": "event"
    },
    {
      "anonymous": false,
      "inputs": [
        {
          "indexed": true,
          "internalType": "address",
          "name": "owner",
          "type": "address"
        },
        {
          "indexed": true,
          "internalType": "address",
          "name": "operator",
          "type": "address"
        },
        {
          "indexed": false,
          "internalType": "bool",
          "name": "approved",
          "type": "bool"
        }
      ],
      "name": "ApprovalForAll",
      "type": "event"
    },
    {
      "anonymous": false,
      "inputs": [
        {
          "indexed": true,
          "internalType": "address",
          "name": "previousOwner",
          "type": "address"
        },
        {
          "indexed": true,
          "internalType": "address",
          "name": "newOwner",
          "type": "address"
        }
      ],
      "name": "OwnershipTransferred",
      "type": "event"
    },
    {
      "anonymous": false,
      "inputs": [
        {
          "indexed": false,
          "internalType": "address",
          "name": "account",
          "type": "address"
        }
      ],
      "name": "Paused",
      "type": "event"
    },
    {
      "anonymous": false,
      "inputs": [
        {
          "indexed": true,
          "internalType": "address",
          "name": "from",
          "type": "address"
        },
        {
          "indexed": true,
          "internalType": "address",
          "name": "to",
          "type": "address"
        },
        {
          "indexed": true,
          "internalType": "uint256",
          "name": "tokenId",
          "type": "uint256"
        }
      ],
      "name": "Transfer",
      "type": "event"
    },
    {
      "anonymous": false,
      "inputs": [
        {
          "indexed": false,
          "internalType": "address",
          "name": "account",
          "type": "address"
        }
      ],
      "name": "Unpaused",
      "type": "event"
    },
    {
      "inputs": [],
      "name": "MAX_SUPPLY",
      "outputs": [
        {
          "internalType": "uint256",
          "name": "",
          "type": "uint256"
        }
      ],
      "stateMutability": "view",
      "type": "function"
    },
    {
      "inputs": [],
      "name": "MINT_PRICE",
      "outputs": [
        {
          "internalType": "uint256",
          "name": "",
          "type": "uint256"
        }
      ],
      "stateMutability": "view",
      "type": "function"
    },
    {
      "inputs": [
        {
          "internalType": "address",
          "name": "to",
          "type": "address"
        },
        {
          "internalType": "uint256",
          "name": "tokenId",
          "type": "uint256"
        }
      ],
      "name": "approve",
      "outputs": [],
      "stateMutability": "nonpayable",
      "type": "function"
    },
    {
      "inputs": [
        {
          "internalType": "uint256",
          "name": "tokenId",
          "type": "uint256"
        }
      ],
      "name": "burn",
      "outputs": [],
      "stateMutability": "nonpayable",
      "type": "function"
    },
    {
      "inputs": [
        {
          "internalType": "uint256",
          "name": "tokenId",
          "type": "uint256"
        }
      ],
      "name": "getApproved",
      "outputs": [
        {
          "internalType": "address",
          "name": "",
          "type": "address"
        }
      ],
      "stateMutability": "view",
      "type": "function"
    },
    {
      "inputs": [
        {
          "internalType": "address",
          "name": "owner",
          "type": "address"
        },
        {
          "internalType": "address",
          "name": "operator",
          "type": "address"
        }
      ],
      "name": "isApprovedForAll",
      "outputs": [
        {
          "internalType": "bool",
          "name": "",
          "type": "bool"
        }
      ],
      "stateMutability": "view",
      "type": "function"
    },
    {
      "inputs": [],
      "name": "name",
      "outputs": [
        {
          "internalType": "string",
          "name": "",
          "type": "string"
        }
      ],
      "stateMutability": "view",
      "type": "function"
    },
    {
      "inputs": [],
      "name": "owner",
      "outputs": [
        {
          "internalType": "address",
          "name": "",
          "type": "address"
        }
      ],
      "stateMutability": "view",
      "type": "function"
    },
    {
      "inputs": [
        {
          "internalType": "uint256",
          "name": "tokenId",
          "type": "uint256"
        }
      ],
      "name": "ownerOf",
      "outputs": [
        {
          "internalType": "address",
          "name": "",
          "type": "address"
        }
      ],
      "stateMutability": "view",
      "type": "function"
    },
    {
      "inputs": [],
      "name": "paused",
      "outputs": [
        {
          "internalType": "bool",
          "name": "",
          "type": "bool"
        }
      ],
      "stateMutability": "view",
      "type": "function"
    },
    {
      "inputs": [],
      "name": "renounceOwnership",
      "outputs": [],
      "stateMutability": "nonpayable",
      "type": "function"
    },
    {
      "inputs": [
        {
          "internalType": "address",
          "name": "from",
          "type": "address"
        },
        {
          "internalType": "address",
          "name": "to",
          "type": "address"
        },
        {
          "internalType": "uint256",
          "name": "tokenId",
          "type": "uint256"
        }
      ],
      "name": "safeTransferFrom",
      "outputs": [],
      "stateMutability": "nonpayable",
      "type": "function"
    },
    {
      "inputs": [
        {
          "internalType": "address",
          "name": "from",
          "type": "address"
        },
        {
          "internalType": "address",
          "name": "to",
          "type": "address"
        },
        {
          "internalType": "uint256",
          "name": "tokenId",
          "type": "uint256"
        },
        {
          "internalType": "bytes",
          "name": "data",
          "type": "bytes"
        }
      ],
      "name": "safeTransferFrom",
      "outputs": [],
      "stateMutability": "nonpayable",
      "type": "function"
    },
    {
      "inputs": [
        {
          "internalType": "address",
          "name": "operator",
          "type": "address"
        },
        {
          "internalType": "bool",
          "name": "approved",
          "type": "bool"
        }
      ],
      "name": "setApprovalForAll",
      "outputs": [],
      "stateMutability": "nonpayable",
      "type": "function"
    },
    {
      "inputs": [],
      "name": "symbol",
      "outputs": [
        {
          "internalType": "string",
          "name": "",
          "type": "string"
        }
      ],
      "stateMutability": "view",
      "type": "function"
    },
    {
      "inputs": [
        {
          "internalType": "uint256",
          "name": "index",
          "type": "uint256"
        }
      ],
      "name": "tokenByIndex",
      "outputs": [
        {
          "internalType": "uint256",
          "name": "",
          "type": "uint256"
        }
      ],
      "stateMutability": "view",
      "type": "function"
    },
    {
      "inputs": [
        {
          "internalType": "address",
          "name": "owner",
          "type": "address"
        },
        {
          "internalType": "uint256",
          "name": "index",
          "type": "uint256"
        }
      ],
      "name": "tokenOfOwnerByIndex",
      "outputs": [
        {
          "internalType": "uint256",
          "name": "",
          "type": "uint256"
        }
      ],
      "stateMutability": "view",
      "type": "function"
    },
    {
      "inputs": [
        {
          "internalType": "uint256",
          "name": "tokenId",
          "type": "uint256"
        }
      ],
      "name": "tokenURI",
      "outputs": [
        {
          "internalType": "string",
          "name": "",
          "type": "string"
        }
      ],
      "stateMutability": "view",
      "type": "function"
    },
    {
      "inputs": [],
      "name": "totalSupply",
      "outputs": [
        {
          "internalType": "uint256",
          "name": "",
          "type": "uint256"
        }
      ],
      "stateMutability": "view",
      "type": "function"
    },
    {
      "inputs": [
        {
          "internalType": "address",
          "name": "from",
          "type": "address"
        },
        {
          "internalType": "address",
          "name": "to",
          "type": "address"
        },
        {
          "internalType": "uint256",
          "name": "tokenId",
          "type": "uint256"
        }
      ],
      "name": "transferFrom",
      "outputs": [],
      "stateMutability": "nonpayable",
      "type": "function"
    },
    {
      "inputs": [
        {
          "internalType": "address",
          "name": "newOwner",
          "type": "address"
        }
      ],
      "name": "transferOwnership",
      "outputs": [],
      "stateMutability": "nonpayable",
      "type": "function"
    },
    {
      "inputs": [
        {
          "internalType": "address",
          "name": "owner",
          "type": "address"
        }
      ],
      "name": "getTokens",
      "outputs": [
        {
          "internalType": "uint256[]",
          "name": "",
          "type": "uint256[]"
        }
      ],
      "stateMutability": "view",
      "type": "function"
    },
    {
      "inputs": [
        {
          "internalType": "uint256",
          "name": "tokenId",
          "type": "uint256"
        }
      ],
      "name": "getOwnerOfToken",
      "outputs": [
        {
          "internalType": "address",
          "name": "",
          "type": "address"
        }
      ],
      "stateMutability": "view",
      "type": "function"
    },
    {
      "inputs": [
        {
          "internalType": "address",
          "name": "to",
          "type": "address"
        },
        {
          "internalType": "address",
          "name": "from",
          "type": "address"
        },
        {
          "internalType": "uint256",
          "name": "tokenId",
          "type": "uint256"
        }
      ],
      "name": "transferToken",
      "outputs": [],
      "stateMutability": "nonpayable",
      "type": "function"
    },
    {
      "inputs": [
        {
          "internalType": "address",
          "name": "to",
          "type": "address"
        }
      ],
      "name": "safeMint",
      "outputs": [],
      "stateMutability": "payable",
      "type": "function"
    },
    {
      "inputs": [
        {
          "internalType": "address",
          "name": "user",
          "type": "address"
        }
      ],
      "name": "checkBalance",
      "outputs": [
        {
          "internalType": "uint256",
          "name": "",
          "type": "uint256"
        }
      ],
      "stateMutability": "view",
      "type": "function"
    },
    {
      "inputs": [
        {
          "internalType": "address",
          "name": "account",
          "type": "address"
        }
      ],
      "name": "balanceOf",
      "outputs": [
        {
          "internalType": "uint256",
          "name": "",
          "type": "uint256"
        }
      ],
      "stateMutability": "view",
      "type": "function"
    },
    {
      "inputs": [
        {
          "internalType": "bytes4",
          "name": "interfaceId",
          "type": "bytes4"
        }
      ],
      "name": "supportsInterface",
      "outputs": [
        {
          "internalType": "bool",
          "name": "",
          "type": "bool"
        }
      ],
      "stateMutability": "view",
      "type": "function"
    },
    {
      "inputs": [
        {
          "internalType": "address",
          "name": "to",
          "type": "address"
        },
        {
          "internalType": "uint256",
          "name": "tokenId",
          "type": "uint256"
        }
      ],
      "name": "approveAddressForToken",
      "outputs": [],
      "stateMutability": "nonpayable",
      "type": "function"
    }
  ],
  "bytecode": "0x6080604052600a600c55612710600d553480156200001c57600080fd5b50336040518060400160405280601081526020017f58636c75736976655279646550617373000000000000000000000000000000008152506040518060400160405280600381526020017f585250000000000000000000000000000000000000000000000000000000000081525081600090816200009b919062000498565b508060019081620000ad919062000498565b5050506000600a60006101000a81548160ff021916908315150217905550600073ffffffffffffffffffffffffffffffffffffffff168173ffffffffffffffffffffffffffffffffffffffff1603620001405760006040517f1e4fbdf7000000000000000000000000000000000000000000000000000000008152600401620001379190620005c4565b60405180910390fd5b62000151816200015860201b60201c565b50620005e1565b6000600a60019054906101000a900473ffffffffffffffffffffffffffffffffffffffff16905081600a60016101000a81548173ffffffffffffffffffffffffffffffffffffffff021916908373ffffffffffffffffffffffffffffffffffffffff1602179055508173ffffffffffffffffffffffffffffffffffffffff168173ffffffffffffffffffffffffffffffffffffffff167f8be0079c531659141344cd1fd0a4f28419497f9722a3daafe3b4186f6b6457e060405160405180910390a35050565b600081519050919050565b7f4e487b7100000000000000000000000000000000000000000000000000000000600052604160045260246000fd5b7f4e487b7100000000000000000000000000000000000000000000000000000000600052602260045260246000fd5b60006002820490506001821680620002a057607f821691505b602082108103620002b657620002b562000258565b5b50919050565b60008190508160005260206000209050919050565b60006020601f8301049050919050565b600082821b905092915050565b600060088302620003207fffffffffffffffffffffffffffffffffffffffffffffffffffffffffffffffff82620002e1565b6200032c8683620002e1565b95508019841693508086168417925050509392505050565b6000819050919050565b6000819050919050565b600062000379620003736200036d8462000344565b6200034e565b62000344565b9050919050565b6000819050919050565b620003958362000358565b620003ad620003a48262000380565b848454620002ee565b825550505050565b600090565b620003c4620003b5565b620003d18184846200038a565b505050565b5b81811015620003f957620003ed600082620003ba565b600181019050620003d7565b5050565b601f82111562000448576200041281620002bc565b6200041d84620002d1565b810160208510156200042d578190505b620004456200043c85620002d1565b830182620003d6565b50505b505050565b600082821c905092915050565b60006200046d600019846008026200044d565b1980831691505092915050565b60006200048883836200045a565b9150826002028217905092915050565b620004a3826200021e565b67ffffffffffffffff811115620004bf57620004be62000229565b5b620004cb825462000287565b620004d8828285620003fd565b600060209050601f831160018114620005105760008415620004fb578287015190505b6200050785826200047a565b86555062000577565b601f1984166200052086620002bc565b60005b828110156200054a5784890151825560018201915060208501945060208101905062000523565b868310156200056a578489015162000566601f8916826200045a565b8355505b6001600288020188555050505b505050505050565b600073ffffffffffffffffffffffffffffffffffffffff82169050919050565b6000620005ac826200057f565b9050919050565b620005be816200059f565b82525050565b6000602082019050620005db6000830184620005b3565b92915050565b61367c80620005f16000396000f3fe6080604052600436106101c25760003560e01c80635f515226116100f7578063a22cb46511610095578063c87b56dd11610064578063c87b56dd1461066b578063e985e9c5146106a8578063f2fde38b146106e5578063f5537ede1461070e576101c2565b8063a22cb465146105c5578063aa36bb20146105ee578063b88d4fde14610617578063c002d23d14610640576101c2565b8063715018a6116100d1578063715018a61461051b5780637f1dd80b146105325780638da5cb5b1461056f57806395d89b411461059a576101c2565b80635f515226146104645780636352211e146104a157806370a08231146104de576101c2565b806332cb6b0c1161016457806342966c681161013e57806342966c6814610396578063450efe21146103bf5780634f6ccce7146103fc5780635c975abb14610439576101c2565b806332cb6b0c1461032657806340d097c31461035157806342842e0e1461036d576101c2565b8063095ea7b3116101a0578063095ea7b31461026c57806318160ddd1461029557806323b872dd146102c05780632f745c59146102e9576101c2565b806301ffc9a7146101c757806306fdde0314610204578063081812fc1461022f575b600080fd5b3480156101d357600080fd5b506101ee60048036038101906101e99190612a4f565b610737565b6040516101fb9190612a97565b60405180910390f35b34801561021057600080fd5b50610219610749565b6040516102269190612b42565b60405180910390f35b34801561023b57600080fd5b5061025660048036038101906102519190612b9a565b6107db565b6040516102639190612c08565b60405180910390f35b34801561027857600080fd5b50610293600480360381019061028e9190612c4f565b6107f7565b005b3480156102a157600080fd5b506102aa61080d565b6040516102b79190612c9e565b60405180910390f35b3480156102cc57600080fd5b506102e760048036038101906102e29190612cb9565b61081a565b005b3480156102f557600080fd5b50610310600480360381019061030b9190612c4f565b61091c565b60405161031d9190612c9e565b60405180910390f35b34801561033257600080fd5b5061033b6109c5565b6040516103489190612c9e565b60405180910390f35b61036b60048036038101906103669190612d0c565b6109cb565b005b34801561037957600080fd5b50610394600480360381019061038f9190612cb9565b610aea565b005b3480156103a257600080fd5b506103bd60048036038101906103b89190612b9a565b610b0a565b005b3480156103cb57600080fd5b506103e660048036038101906103e19190612d0c565b610b21565b6040516103f39190612df7565b60405180910390f35b34801561040857600080fd5b50610423600480360381019061041e9190612b9a565b610c5c565b6040516104309190612c9e565b60405180910390f35b34801561044557600080fd5b5061044e610cd2565b60405161045b9190612a97565b60405180910390f35b34801561047057600080fd5b5061048b60048036038101906104869190612d0c565b610ce9565b6040516104989190612c9e565b60405180910390f35b3480156104ad57600080fd5b506104c860048036038101906104c39190612b9a565b610d9e565b6040516104d59190612c08565b60405180910390f35b3480156104ea57600080fd5b5061050560048036038101906105009190612d0c565b610db0565b6040516105129190612c9e565b60405180910390f35b34801561052757600080fd5b50610530610dc2565b005b34801561053e57600080fd5b5061055960048036038101906105549190612b9a565b610dd6565b6040516105669190612c08565b60405180910390f35b34801561057b57600080fd5b50610584610de8565b6040516105919190612c08565b60405180910390f35b3480156105a657600080fd5b506105af610e12565b6040516105bc9190612b42565b60405180910390f35b3480156105d157600080fd5b506105ec60048036038101906105e79190612e45565b610ea4565b005b3480156105fa57600080fd5b5061061560048036038101906106109190612c4f565b610eba565b005b34801561062357600080fd5b5061063e60048036038101906106399190612fba565b610f40565b005b34801561064c57600080fd5b50610655610f5d565b6040516106629190612c9e565b60405180910390f35b34801561067757600080fd5b50610692600480360381019061068d9190612b9a565b610f63565b60405161069f9190612b42565b60405180910390f35b3480156106b457600080fd5b506106cf60048036038101906106ca919061303d565b610fcc565b6040516106dc9190612a97565b60405180910390f35b3480156106f157600080fd5b5061070c60048036038101906107079190612d0c565b611060565b005b34801561071a57600080fd5b5061073560048036038101906107309190612cb9565b6110e6565b005b6000610742826112da565b9050919050565b606060008054610758906130ac565b80601f0160208091040260200160405190810160405280929190818152602001828054610784906130ac565b80156107d15780601f106107a6576101008083540402835291602001916107d1565b820191906000526020600020905b8154815290600101906020018083116107b457829003601f168201915b5050505050905090565b60006107e682611354565b506107f0826113dc565b9050919050565b6108098282610804611419565b611421565b5050565b6000600880549050905090565b600073ffffffffffffffffffffffffffffffffffffffff168273ffffffffffffffffffffffffffffffffffffffff160361088c5760006040517f64a0ae920000000000000000000000000000000000000000000000000000000081526004016108839190612c08565b60405180910390fd5b60006108a0838361089b611419565b611433565b90508373ffffffffffffffffffffffffffffffffffffffff168173ffffffffffffffffffffffffffffffffffffffff1614610916578382826040517f64283d7b00000000000000000000000000000000000000000000000000000000815260040161090d939291906130dd565b60405180910390fd5b50505050565b600061092783610db0565b821061096c5782826040517fa57d13dc000000000000000000000000000000000000000000000000000000008152600401610963929190613114565b60405180910390fd5b600660008473ffffffffffffffffffffffffffffffffffffffff1673ffffffffffffffffffffffffffffffffffffffff168152602001908152602001600020600083815260200190815260200160002054905092915050565b600d5481565b600d546109d661080d565b10610a16576040517f08c379a0000000000000000000000000000000000000000000000000000000008152600401610a0d906131af565b60405180910390fd5b600c54341015610a5b576040517f08c379a0000000000000000000000000000000000000000000000000000000008152600401610a529061321b565b60405180910390fd5b6000600b6000815480929190610a709061326a565b919050559050610a808282611449565b600e60008373ffffffffffffffffffffffffffffffffffffffff1673ffffffffffffffffffffffffffffffffffffffff1681526020019081526020016000208190806001815401808255809150506001900390600052602060002001600090919091909150555050565b610b0583838360405180602001604052806000815250610f40565b505050565b610b1d600082610b18611419565b611433565b5050565b60608173ffffffffffffffffffffffffffffffffffffffff168273ffffffffffffffffffffffffffffffffffffffff161480610b8857503373ffffffffffffffffffffffffffffffffffffffff168273ffffffffffffffffffffffffffffffffffffffff16145b610bc7576040517f08c379a0000000000000000000000000000000000000000000000000000000008152600401610bbe90613324565b60405180910390fd5b600e60008373ffffffffffffffffffffffffffffffffffffffff1673ffffffffffffffffffffffffffffffffffffffff168152602001908152602001600020805480602002602001604051908101604052809291908181526020018280548015610c5057602002820191906000526020600020905b815481526020019060010190808311610c3c575b50505050509050919050565b6000610c6661080d565b8210610cac576000826040517fa57d13dc000000000000000000000000000000000000000000000000000000008152600401610ca3929190613114565b60405180910390fd5b60088281548110610cc057610cbf613344565b5b90600052602060002001549050919050565b6000600a60009054906101000a900460ff16905090565b6000610cf3610de8565b73ffffffffffffffffffffffffffffffffffffffff163373ffffffffffffffffffffffffffffffffffffffff161480610d5757508173ffffffffffffffffffffffffffffffffffffffff163373ffffffffffffffffffffffffffffffffffffffff16145b610d96576040517f08c379a0000000000000000000000000000000000000000000000000000000008152600401610d8d906133e5565b60405180910390fd5b479050919050565b6000610da982611354565b9050919050565b6000610dbb82611467565b9050919050565b610dca611521565b610dd460006115a8565b565b6000610de182610d9e565b9050919050565b6000600a60019054906101000a900473ffffffffffffffffffffffffffffffffffffffff16905090565b606060018054610e21906130ac565b80601f0160208091040260200160405190810160405280929190818152602001828054610e4d906130ac565b8015610e9a5780601f10610e6f57610100808354040283529160200191610e9a565b820191906000526020600020905b815481529060010190602001808311610e7d57829003601f168201915b5050505050905090565b610eb6610eaf611419565b838361166e565b5050565b803373ffffffffffffffffffffffffffffffffffffffff16610edb82610d9e565b73ffffffffffffffffffffffffffffffffffffffff1614610f31576040517f08c379a0000000000000000000000000000000000000000000000000000000008152600401610f2890613451565b60405180910390fd5b610f3b83836107f7565b505050565b610f4b84848461081a565b610f57848484846117dd565b50505050565b600c5481565b6060610f6e82611354565b506000610f79611994565b90506000815111610f995760405180602001604052806000815250610fc4565b80610fa3846119d1565b604051602001610fb49291906134ad565b6040516020818303038152906040525b915050919050565b6000600560008473ffffffffffffffffffffffffffffffffffffffff1673ffffffffffffffffffffffffffffffffffffffff16815260200190815260200160002060008373ffffffffffffffffffffffffffffffffffffffff1673ffffffffffffffffffffffffffffffffffffffff16815260200190815260200160002060009054906101000a900460ff16905092915050565b611068611521565b600073ffffffffffffffffffffffffffffffffffffffff168173ffffffffffffffffffffffffffffffffffffffff16036110da5760006040517f1e4fbdf70000000000000000000000000000000000000000000000000000000081526004016110d19190612c08565b60405180910390fd5b6110e3816115a8565b50565b803373ffffffffffffffffffffffffffffffffffffffff1661110782610d9e565b73ffffffffffffffffffffffffffffffffffffffff161461115d576040517f08c379a000000000000000000000000000000000000000000000000000000000815260040161115490613451565b60405180910390fd5b611168838584611a9f565b6000600e60008573ffffffffffffffffffffffffffffffffffffffff1673ffffffffffffffffffffffffffffffffffffffff168152602001908152602001600020905060005b818054905081101561126c57838282815481106111ce576111cd613344565b5b9060005260206000200154036112595781600183805490506111f091906134d1565b8154811061120157611200613344565b5b906000526020600020015482828154811061121f5761121e613344565b5b90600052602060002001819055508180548061123e5761123d613505565b5b6001900381819060005260206000200160009055905561126c565b80806112649061326a565b9150506111ae565b50600e60008673ffffffffffffffffffffffffffffffffffffffff1673ffffffffffffffffffffffffffffffffffffffff1681526020019081526020016000208390806001815401808255809150506001900390600052602060002001600090919091909150555050505050565b60007f780e9d63000000000000000000000000000000000000000000000000000000007bffffffffffffffffffffffffffffffffffffffffffffffffffffffff1916827bffffffffffffffffffffffffffffffffffffffffffffffffffffffff1916148061134d575061134c82611c0c565b5b9050919050565b60008061136083611cee565b9050600073ffffffffffffffffffffffffffffffffffffffff168173ffffffffffffffffffffffffffffffffffffffff16036113d357826040517f7e2732890000000000000000000000000000000000000000000000000000000081526004016113ca9190612c9e565b60405180910390fd5b80915050919050565b60006004600083815260200190815260200160002060009054906101000a900473ffffffffffffffffffffffffffffffffffffffff169050919050565b600033905090565b61142e8383836001611d2b565b505050565b6000611440848484611ef0565b90509392505050565b611463828260405180602001604052806000815250611f0e565b5050565b60008073ffffffffffffffffffffffffffffffffffffffff168273ffffffffffffffffffffffffffffffffffffffff16036114da5760006040517f89c62b640000000000000000000000000000000000000000000000000000000081526004016114d19190612c08565b60405180910390fd5b600360008373ffffffffffffffffffffffffffffffffffffffff1673ffffffffffffffffffffffffffffffffffffffff168152602001908152602001600020549050919050565b611529611419565b73ffffffffffffffffffffffffffffffffffffffff16611547610de8565b73ffffffffffffffffffffffffffffffffffffffff16146115a65761156a611419565b6040517f118cdaa700000000000000000000000000000000000000000000000000000000815260040161159d9190612c08565b60405180910390fd5b565b6000600a60019054906101000a900473ffffffffffffffffffffffffffffffffffffffff16905081600a60016101000a81548173ffffffffffffffffffffffffffffffffffffffff021916908373ffffffffffffffffffffffffffffffffffffffff1602179055508173ffffffffffffffffffffffffffffffffffffffff168173ffffffffffffffffffffffffffffffffffffffff167f8be0079c531659141344cd1fd0a4f28419497f9722a3daafe3b4186f6b6457e060405160405180910390a35050565b600073ffffffffffffffffffffffffffffffffffffffff168273ffffffffffffffffffffffffffffffffffffffff16036116df57816040517f5b08ba180000000000000000000000000000000000000000000000000000000081526004016116d69190612c08565b60405180910390fd5b80600560008573ffffffffffffffffffffffffffffffffffffffff1673ffffffffffffffffffffffffffffffffffffffff16815260200190815260200160002060008473ffffffffffffffffffffffffffffffffffffffff1673ffffffffffffffffffffffffffffffffffffffff16815260200190815260200160002060006101000a81548160ff0219169083151502179055508173ffffffffffffffffffffffffffffffffffffffff168373ffffffffffffffffffffffffffffffffffffffff167f17307eab39ab6107e8899845ad3d59bd9653f200f220920489ca2b5937696c31836040516117d09190612a97565b60405180910390a3505050565b60008373ffffffffffffffffffffffffffffffffffffffff163b111561198e578273ffffffffffffffffffffffffffffffffffffffff1663150b7a02611821611419565b8685856040518563ffffffff1660e01b81526004016118439493929190613589565b6020604051808303816000875af192505050801561187f57506040513d601f19601f8201168201806040525081019061187c91906135ea565b60015b611903573d80600081146118af576040519150601f19603f3d011682016040523d82523d6000602084013e6118b4565b606091505b5060008151036118fb57836040517f64a0ae920000000000000000000000000000000000000000000000000000000081526004016118f29190612c08565b60405180910390fd5b805181602001fd5b63150b7a0260e01b7bffffffffffffffffffffffffffffffffffffffffffffffffffffffff1916817bffffffffffffffffffffffffffffffffffffffffffffffffffffffff19161461198c57836040517f64a0ae920000000000000000000000000000000000000000000000000000000081526004016119839190612c08565b60405180910390fd5b505b50505050565b60606040518060400160405280601f81526020017f697066733a2f2f78636c75736976655279646550617373426173655552492f00815250905090565b6060600060016119e084611f2a565b01905060008167ffffffffffffffff8111156119ff576119fe612e8f565b5b6040519080825280601f01601f191660200182016040528015611a315781602001600182028036833780820191505090505b509050600082602001820190505b600115611a94578080600190039150507f3031323334353637383961626364656600000000000000000000000000000000600a86061a8153600a8581611a8857611a87613617565b5b04945060008503611a3f575b819350505050919050565b600073ffffffffffffffffffffffffffffffffffffffff168273ffffffffffffffffffffffffffffffffffffffff1603611b115760006040517f64a0ae92000000000000000000000000000000000000000000000000000000008152600401611b089190612c08565b60405180910390fd5b6000611b1f83836000611433565b9050600073ffffffffffffffffffffffffffffffffffffffff168173ffffffffffffffffffffffffffffffffffffffff1603611b9257816040517f7e273289000000000000000000000000000000000000000000000000000000008152600401611b899190612c9e565b60405180910390fd5b8373ffffffffffffffffffffffffffffffffffffffff168173ffffffffffffffffffffffffffffffffffffffff1614611c06578382826040517f64283d7b000000000000000000000000000000000000000000000000000000008152600401611bfd939291906130dd565b60405180910390fd5b50505050565b60007f80ac58cd000000000000000000000000000000000000000000000000000000007bffffffffffffffffffffffffffffffffffffffffffffffffffffffff1916827bffffffffffffffffffffffffffffffffffffffffffffffffffffffff19161480611cd757507f5b5e139f000000000000000000000000000000000000000000000000000000007bffffffffffffffffffffffffffffffffffffffffffffffffffffffff1916827bffffffffffffffffffffffffffffffffffffffffffffffffffffffff1916145b80611ce75750611ce68261207d565b5b9050919050565b60006002600083815260200190815260200160002060009054906101000a900473ffffffffffffffffffffffffffffffffffffffff169050919050565b8080611d645750600073ffffffffffffffffffffffffffffffffffffffff168273ffffffffffffffffffffffffffffffffffffffff1614155b15611e98576000611d7484611354565b9050600073ffffffffffffffffffffffffffffffffffffffff168373ffffffffffffffffffffffffffffffffffffffff1614158015611ddf57508273ffffffffffffffffffffffffffffffffffffffff168173ffffffffffffffffffffffffffffffffffffffff1614155b8015611df25750611df08184610fcc565b155b15611e3457826040517fa9fbf51f000000000000000000000000000000000000000000000000000000008152600401611e2b9190612c08565b60405180910390fd5b8115611e9657838573ffffffffffffffffffffffffffffffffffffffff168273ffffffffffffffffffffffffffffffffffffffff167f8c5be1e5ebec7d5bd14f71427d1e84f3dd0314c0f7b2291e5b200ac8c7c3b92560405160405180910390a45b505b836004600085815260200190815260200160002060006101000a81548173ffffffffffffffffffffffffffffffffffffffff021916908373ffffffffffffffffffffffffffffffffffffffff16021790555050505050565b6000611efa6120e7565b611f05848484612128565b90509392505050565b611f188383612245565b611f2560008484846117dd565b505050565b600080600090507a184f03e93ff9f4daa797ed6e38ed64bf6a1f0100000000000000008310611f88577a184f03e93ff9f4daa797ed6e38ed64bf6a1f0100000000000000008381611f7e57611f7d613617565b5b0492506040810190505b6d04ee2d6d415b85acef81000000008310611fc5576d04ee2d6d415b85acef81000000008381611fbb57611fba613617565b5b0492506020810190505b662386f26fc100008310611ff457662386f26fc100008381611fea57611fe9613617565b5b0492506010810190505b6305f5e100831061201d576305f5e100838161201357612012613617565b5b0492506008810190505b612710831061204257612710838161203857612037613617565b5b0492506004810190505b60648310612065576064838161205b5761205a613617565b5b0492506002810190505b600a8310612074576001810190505b80915050919050565b60007f01ffc9a7000000000000000000000000000000000000000000000000000000007bffffffffffffffffffffffffffffffffffffffffffffffffffffffff1916827bffffffffffffffffffffffffffffffffffffffffffffffffffffffff1916149050919050565b6120ef610cd2565b15612126576040517fd93c066500000000000000000000000000000000000000000000000000000000815260040160405180910390fd5b565b60008061213685858561233e565b9050600073ffffffffffffffffffffffffffffffffffffffff168173ffffffffffffffffffffffffffffffffffffffff160361217a5761217584612558565b6121b9565b8473ffffffffffffffffffffffffffffffffffffffff168173ffffffffffffffffffffffffffffffffffffffff16146121b8576121b781856125a1565b5b5b600073ffffffffffffffffffffffffffffffffffffffff168573ffffffffffffffffffffffffffffffffffffffff16036121fb576121f684612702565b61223a565b8473ffffffffffffffffffffffffffffffffffffffff168173ffffffffffffffffffffffffffffffffffffffff16146122395761223885856127d3565b5b5b809150509392505050565b600073ffffffffffffffffffffffffffffffffffffffff168273ffffffffffffffffffffffffffffffffffffffff16036122b75760006040517f64a0ae920000000000000000000000000000000000000000000000000000000081526004016122ae9190612c08565b60405180910390fd5b60006122c583836000611433565b9050600073ffffffffffffffffffffffffffffffffffffffff168173ffffffffffffffffffffffffffffffffffffffff16146123395760006040517f73c6ac6e0000000000000000000000000000000000000000000000000000000081526004016123309190612c08565b60405180910390fd5b505050565b60008061234a84611cee565b9050600073ffffffffffffffffffffffffffffffffffffffff168373ffffffffffffffffffffffffffffffffffffffff161461238c5761238b81848661285e565b5b600073ffffffffffffffffffffffffffffffffffffffff168173ffffffffffffffffffffffffffffffffffffffff161461241d576123ce600085600080611d2b565b6001600360008373ffffffffffffffffffffffffffffffffffffffff1673ffffffffffffffffffffffffffffffffffffffff168152602001908152602001600020600082825403925050819055505b600073ffffffffffffffffffffffffffffffffffffffff168573ffffffffffffffffffffffffffffffffffffffff16146124a0576001600360008773ffffffffffffffffffffffffffffffffffffffff1673ffffffffffffffffffffffffffffffffffffffff168152602001908152602001600020600082825401925050819055505b846002600086815260200190815260200160002060006101000a81548173ffffffffffffffffffffffffffffffffffffffff021916908373ffffffffffffffffffffffffffffffffffffffff160217905550838573ffffffffffffffffffffffffffffffffffffffff168273ffffffffffffffffffffffffffffffffffffffff167fddf252ad1be2c89b69c2b068fc378daa952ba7f163c4a11628f55a4df523b3ef60405160405180910390a4809150509392505050565b6008805490506009600083815260200190815260200160002081905550600881908060018154018082558091505060019003906000526020600020016000909190919091505550565b60006125ac83610db0565b9050600060076000848152602001908152602001600020549050818114612691576000600660008673ffffffffffffffffffffffffffffffffffffffff1673ffffffffffffffffffffffffffffffffffffffff168152602001908152602001600020600084815260200190815260200160002054905080600660008773ffffffffffffffffffffffffffffffffffffffff1673ffffffffffffffffffffffffffffffffffffffff168152602001908152602001600020600084815260200190815260200160002081905550816007600083815260200190815260200160002081905550505b6007600084815260200190815260200160002060009055600660008573ffffffffffffffffffffffffffffffffffffffff1673ffffffffffffffffffffffffffffffffffffffff16815260200190815260200160002060008381526020019081526020016000206000905550505050565b6000600160088054905061271691906134d1565b905060006009600084815260200190815260200160002054905060006008838154811061274657612745613344565b5b90600052602060002001549050806008838154811061276857612767613344565b5b9060005260206000200181905550816009600083815260200190815260200160002081905550600960008581526020019081526020016000206000905560088054806127b7576127b6613505565b5b6001900381819060005260206000200160009055905550505050565b600060016127e084610db0565b6127ea91906134d1565b905081600660008573ffffffffffffffffffffffffffffffffffffffff1673ffffffffffffffffffffffffffffffffffffffff168152602001908152602001600020600083815260200190815260200160002081905550806007600084815260200190815260200160002081905550505050565b612869838383612922565b61291d57600073ffffffffffffffffffffffffffffffffffffffff168373ffffffffffffffffffffffffffffffffffffffff16036128de57806040517f7e2732890000000000000000000000000000000000000000000000000000000081526004016128d59190612c9e565b60405180910390fd5b81816040517f177e802f000000000000000000000000000000000000000000000000000000008152600401612914929190613114565b60405180910390fd5b505050565b60008073ffffffffffffffffffffffffffffffffffffffff168373ffffffffffffffffffffffffffffffffffffffff16141580156129da57508273ffffffffffffffffffffffffffffffffffffffff168473ffffffffffffffffffffffffffffffffffffffff16148061299b575061299a8484610fcc565b5b806129d957508273ffffffffffffffffffffffffffffffffffffffff166129c1836113dc565b73ffffffffffffffffffffffffffffffffffffffff16145b5b90509392505050565b6000604051905090565b600080fd5b600080fd5b60007fffffffff0000000000000000000000000000000000000000000000000000000082169050919050565b612a2c816129f7565b8114612a3757600080fd5b50565b600081359050612a4981612a23565b92915050565b600060208284031215612a6557612a646129ed565b5b6000612a7384828501612a3a565b91505092915050565b60008115159050919050565b612a9181612a7c565b82525050565b6000602082019050612aac6000830184612a88565b92915050565b600081519050919050565b600082825260208201905092915050565b60005b83811015612aec578082015181840152602081019050612ad1565b60008484015250505050565b6000601f19601f8301169050919050565b6000612b1482612ab2565b612b1e8185612abd565b9350612b2e818560208601612ace565b612b3781612af8565b840191505092915050565b60006020820190508181036000830152612b5c8184612b09565b905092915050565b6000819050919050565b612b7781612b64565b8114612b8257600080fd5b50565b600081359050612b9481612b6e565b92915050565b600060208284031215612bb057612baf6129ed565b5b6000612bbe84828501612b85565b91505092915050565b600073ffffffffffffffffffffffffffffffffffffffff82169050919050565b6000612bf282612bc7565b9050919050565b612c0281612be7565b82525050565b6000602082019050612c1d6000830184612bf9565b92915050565b612c2c81612be7565b8114612c3757600080fd5b50565b600081359050612c4981612c23565b92915050565b60008060408385031215612c6657612c656129ed565b5b6000612c7485828601612c3a565b9250506020612c8585828601612b85565b9150509250929050565b612c9881612b64565b82525050565b6000602082019050612cb36000830184612c8f565b92915050565b600080600060608486031215612cd257612cd16129ed565b5b6000612ce086828701612c3a565b9350506020612cf186828701612c3a565b9250506040612d0286828701612b85565b9150509250925092565b600060208284031215612d2257612d216129ed565b5b6000612d3084828501612c3a565b91505092915050565b600081519050919050565b600082825260208201905092915050565b6000819050602082019050919050565b612d6e81612b64565b82525050565b6000612d808383612d65565b60208301905092915050565b6000602082019050919050565b6000612da482612d39565b612dae8185612d44565b9350612db983612d55565b8060005b83811015612dea578151612dd18882612d74565b9750612ddc83612d8c565b925050600181019050612dbd565b5085935050505092915050565b60006020820190508181036000830152612e118184612d99565b905092915050565b612e2281612a7c565b8114612e2d57600080fd5b50565b600081359050612e3f81612e19565b92915050565b60008060408385031215612e5c57612e5b6129ed565b5b6000612e6a85828601612c3a565b9250506020612e7b85828601612e30565b9150509250929050565b600080fd5b600080fd5b7f4e487b7100000000000000000000000000000000000000000000000000000000600052604160045260246000fd5b612ec782612af8565b810181811067ffffffffffffffff82111715612ee657612ee5612e8f565b5b80604052505050565b6000612ef96129e3565b9050612f058282612ebe565b919050565b600067ffffffffffffffff821115612f2557612f24612e8f565b5b612f2e82612af8565b9050602081019050919050565b82818337600083830152505050565b6000612f5d612f5884612f0a565b612eef565b905082815260208101848484011115612f7957612f78612e8a565b5b612f84848285612f3b565b509392505050565b600082601f830112612fa157612fa0612e85565b5b8135612fb1848260208601612f4a565b91505092915050565b60008060008060808587031215612fd457612fd36129ed565b5b6000612fe287828801612c3a565b9450506020612ff387828801612c3a565b935050604061300487828801612b85565b925050606085013567ffffffffffffffff811115613025576130246129f2565b5b61303187828801612f8c565b91505092959194509250565b60008060408385031215613054576130536129ed565b5b600061306285828601612c3a565b925050602061307385828601612c3a565b9150509250929050565b7f4e487b7100000000000000000000000000000000000000000000000000000000600052602260045260246000fd5b600060028204905060018216806130c457607f821691505b6020821081036130d7576130d661307d565b5b50919050565b60006060820190506130f26000830186612bf9565b6130ff6020830185612c8f565b61310c6040830184612bf9565b949350505050565b60006040820190506131296000830185612bf9565b6131366020830184612c8f565b9392505050565b7f6578636565646564206d617820737570706c792c2063616e74206d696e74206160008201527f6e796d6f72650000000000000000000000000000000000000000000000000000602082015250565b6000613199602683612abd565b91506131a48261313d565b604082019050919050565b600060208201905081810360008301526131c88161318c565b9050919050565b7f6e6f7420656e6f75676820657468657273000000000000000000000000000000600082015250565b6000613205601183612abd565b9150613210826131cf565b602082019050919050565b60006020820190508181036000830152613234816131f8565b9050919050565b7f4e487b7100000000000000000000000000000000000000000000000000000000600052601160045260246000fd5b600061327582612b64565b91507fffffffffffffffffffffffffffffffffffffffffffffffffffffffffffffffff82036132a7576132a661323b565b5b600182019050919050565b7f4f6e6c7920746865206f776e6572206f7220746865206173736f63696174656460008201527f206163636f756e742063616e20636865636b20746f6b656e2069647300000000602082015250565b600061330e603c83612abd565b9150613319826132b2565b604082019050919050565b6000602082019050818103600083015261333d81613301565b9050919050565b7f4e487b7100000000000000000000000000000000000000000000000000000000600052603260045260246000fd5b7f4f6e6c7920746865206f776e6572206f7220746865206173736f63696174656460008201527f20616464726573732063616e20636865636b207468652062616c616e63652e00602082015250565b60006133cf603f83612abd565b91506133da82613373565b604082019050919050565b600060208201905081810360008301526133fe816133c2565b9050919050565b7f4e6f7420746865206f776e6572206f662074686520746f6b656e000000000000600082015250565b600061343b601a83612abd565b915061344682613405565b602082019050919050565b6000602082019050818103600083015261346a8161342e565b9050919050565b600081905092915050565b600061348782612ab2565b6134918185613471565b93506134a1818560208601612ace565b80840191505092915050565b60006134b9828561347c565b91506134c5828461347c565b91508190509392505050565b60006134dc82612b64565b91506134e783612b64565b92508282039050818111156134ff576134fe61323b565b5b92915050565b7f4e487b7100000000000000000000000000000000000000000000000000000000600052603160045260246000fd5b600081519050919050565b600082825260208201905092915050565b600061355b82613534565b613565818561353f565b9350613575818560208601612ace565b61357e81612af8565b840191505092915050565b600060808201905061359e6000830187612bf9565b6135ab6020830186612bf9565b6135b86040830185612c8f565b81810360608301526135ca8184613550565b905095945050505050565b6000815190506135e481612a23565b92915050565b600060208284031215613600576135ff6129ed565b5b600061360e848285016135d5565b91505092915050565b7f4e487b7100000000000000000000000000000000000000000000000000000000600052601260045260246000fdfea2646970667358221220fd5b9c2482b719bb998ae7337bd2b597d0afb0a98b269516a94b93617da5be9964736f6c63430008140033",
  "immutableReferences": {},
  "source": "// SPDX-License-Identifier: MIT\r\npragma solidity ^0.8.20;\r\n\r\n\r\n\r\nimport \"@openzeppelin/contracts/token/ERC721/ERC721.sol\";\r\nimport \"@openzeppelin/contracts/token/ERC721/extensions/ERC721Enumerable.sol\";\r\nimport \"@openzeppelin/contracts/token/ERC721/extensions/ERC721Pausable.sol\";\r\nimport \"@openzeppelin/contracts/access/Ownable.sol\";\r\nimport \"@openzeppelin/contracts/token/ERC721/extensions/ERC721Burnable.sol\";\r\n\r\ncontract XclusiveRydePass is ERC721, ERC721Enumerable, ERC721Pausable, Ownable, ERC721Burnable {\r\n    uint256 private _nextTokenId;\r\n\r\n    uint256 public MINT_PRICE = 10 wei;\r\n    uint256 public MAX_SUPPLY = 10000;\r\n\r\n    mapping(address=> uint256[]) private tokenOwnerstoIds;\r\n    \r\n\r\n    constructor()\r\n        ERC721(\"XclusiveRydePass\", \"XRP\")\r\n        Ownable(msg.sender)     \r\n    {}\r\n\r\n    function _baseURI() internal pure override returns (string memory) {\r\n        return \"ipfs://xclusiveRydePassBaseURI/\";\r\n    }\r\n    \r\n\r\n    function getTokens(address owner) public view returns (uint256[] memory) {\r\n            require(owner == owner|| owner == msg.sender, \"Only the owner or the associated account can check token ids\");\r\n            return tokenOwnerstoIds[owner];\r\n}\r\n\r\n    function getOwnerOfToken(uint256 tokenId) public view returns (address) {\r\n        return ownerOf(tokenId);\r\n    }\r\n\r\n    function transferToken(address to, address from, uint256 tokenId) public onlyOwnerOf(tokenId) {\r\n        _transfer(from, to, tokenId);\r\n        uint256[] storage ownerTokenIds = tokenOwnerstoIds[from];\r\n        for (uint256 i = 0; i < ownerTokenIds.length; i++) {\r\n            if (ownerTokenIds[i] == tokenId) {\r\n                // Remove the transferred token from the owner's list of tokens\r\n                ownerTokenIds[i] = ownerTokenIds[ownerTokenIds.length - 1];\r\n                ownerTokenIds.pop();\r\n                break;\r\n            }\r\n        }\r\n        tokenOwnerstoIds[to].push(tokenId);\r\n    }\r\n\r\n    function safeMint(address to) public payable   {\r\n        require(totalSupply() < MAX_SUPPLY, \"exceeded max supply, cant mint anymore\");\r\n        require(msg.value>=MINT_PRICE, \"not enough ethers\");\r\n        uint256 tokenId = _nextTokenId++;\r\n        _safeMint(to, tokenId);\r\n        tokenOwnerstoIds[to].push(tokenId);\r\n    }\r\n\r\n    // The following functions are overrides required by Solidity.\r\n\r\n    function checkBalance(address user) public view returns (uint256) {\r\n        \r\n        require(msg.sender == owner() || msg.sender == user, \"Only the owner or the associated address can check the balance.\");\r\n        return address(this).balance;\r\n    }\r\n\r\n    function balanceOf(address account) override(ERC721, IERC721) public view  returns (uint256) {\r\n        return super.balanceOf(account);\r\n    }\r\n\r\n    function _update(address to, uint256 tokenId, address auth)\r\n        internal\r\n        override(ERC721, ERC721Enumerable, ERC721Pausable)\r\n        returns (address)\r\n    {\r\n        return super._update(to, tokenId, auth);\r\n    }\r\n\r\n    function _increaseBalance(address account, uint128 value)\r\n        internal\r\n        override(ERC721, ERC721Enumerable)\r\n    {\r\n        super._increaseBalance(account, value);\r\n    }\r\n\r\n    function supportsInterface(bytes4 interfaceId)\r\n        public\r\n        view\r\n        override(ERC721, ERC721Enumerable)\r\n        returns (bool)\r\n    {\r\n        return super.supportsInterface(interfaceId);\r\n    }\r\n\r\n    modifier onlyOwnerOf(uint256 tokenId) {\r\n        require(ownerOf(tokenId) == msg.sender, \"Not the owner of the token\");\r\n    _;\r\n    }\r\n\r\n\r\n    function approveAddressForToken(address to, uint256 tokenId) public onlyOwnerOf(tokenId) {\r\n        approve(to, tokenId);\r\n    }\r\n\r\n    \r\n}\r\n",
  "sourcePath": "C:\\Users\\dashu\\OneDrive\\Documents\\UB\\BLOCKCHAIN\\project\\blockchain_final_project\\decentralized_cab_booking\\DRSA-contract\\contracts\\XclusiveRydePass.sol",
  "compiler": {
    "name": "solc",
    "version": "0.8.20+commit.a1b79de6.Emscripten.clang"
  },
  "schemaVersion": "3.4.16",
  "updatedAt": "2023-12-02T07:41:19.907Z",
  "devdoc": {
    "errors": {
      "ERC721EnumerableForbiddenBatchMint()": [
        {
          "details": "Batch mint is not allowed."
        }
      ],
      "ERC721IncorrectOwner(address,uint256,address)": [
        {
          "details": "Indicates an error related to the ownership over a particular token. Used in transfers.",
          "params": {
            "owner": "Address of the current owner of a token.",
            "sender": "Address whose tokens are being transferred.",
            "tokenId": "Identifier number of a token."
          }
        }
      ],
      "ERC721InsufficientApproval(address,uint256)": [
        {
          "details": "Indicates a failure with the `operator`s approval. Used in transfers.",
          "params": {
            "operator": "Address that may be allowed to operate on tokens without being their owner.",
            "tokenId": "Identifier number of a token."
          }
        }
      ],
      "ERC721InvalidApprover(address)": [
        {
          "details": "Indicates a failure with the `approver` of a token to be approved. Used in approvals.",
          "params": {
            "approver": "Address initiating an approval operation."
          }
        }
      ],
      "ERC721InvalidOperator(address)": [
        {
          "details": "Indicates a failure with the `operator` to be approved. Used in approvals.",
          "params": {
            "operator": "Address that may be allowed to operate on tokens without being their owner."
          }
        }
      ],
      "ERC721InvalidOwner(address)": [
        {
          "details": "Indicates that an address can't be an owner. For example, `address(0)` is a forbidden owner in EIP-20. Used in balance queries.",
          "params": {
            "owner": "Address of the current owner of a token."
          }
        }
      ],
      "ERC721InvalidReceiver(address)": [
        {
          "details": "Indicates a failure with the token `receiver`. Used in transfers.",
          "params": {
            "receiver": "Address to which tokens are being transferred."
          }
        }
      ],
      "ERC721InvalidSender(address)": [
        {
          "details": "Indicates a failure with the token `sender`. Used in transfers.",
          "params": {
            "sender": "Address whose tokens are being transferred."
          }
        }
      ],
      "ERC721NonexistentToken(uint256)": [
        {
          "details": "Indicates a `tokenId` whose `owner` is the zero address.",
          "params": {
            "tokenId": "Identifier number of a token."
          }
        }
      ],
      "ERC721OutOfBoundsIndex(address,uint256)": [
        {
          "details": "An `owner`'s token query was out of bounds for `index`. NOTE: The owner being `address(0)` indicates a global out of bounds index."
        }
      ],
      "EnforcedPause()": [
        {
          "details": "The operation failed because the contract is paused."
        }
      ],
      "ExpectedPause()": [
        {
          "details": "The operation failed because the contract is not paused."
        }
      ],
      "OwnableInvalidOwner(address)": [
        {
          "details": "The owner is not a valid owner account. (eg. `address(0)`)"
        }
      ],
      "OwnableUnauthorizedAccount(address)": [
        {
          "details": "The caller account is not authorized to perform an operation."
        }
      ]
    },
    "events": {
      "Approval(address,address,uint256)": {
        "details": "Emitted when `owner` enables `approved` to manage the `tokenId` token."
      },
      "ApprovalForAll(address,address,bool)": {
        "details": "Emitted when `owner` enables or disables (`approved`) `operator` to manage all of its assets."
      },
      "Paused(address)": {
        "details": "Emitted when the pause is triggered by `account`."
      },
      "Transfer(address,address,uint256)": {
        "details": "Emitted when `tokenId` token is transferred from `from` to `to`."
      },
      "Unpaused(address)": {
        "details": "Emitted when the pause is lifted by `account`."
      }
    },
    "kind": "dev",
    "methods": {
      "approve(address,uint256)": {
        "details": "See {IERC721-approve}."
      },
      "burn(uint256)": {
        "details": "Burns `tokenId`. See {ERC721-_burn}. Requirements: - The caller must own `tokenId` or be an approved operator."
      },
      "getApproved(uint256)": {
        "details": "See {IERC721-getApproved}."
      },
      "isApprovedForAll(address,address)": {
        "details": "See {IERC721-isApprovedForAll}."
      },
      "name()": {
        "details": "See {IERC721Metadata-name}."
      },
      "owner()": {
        "details": "Returns the address of the current owner."
      },
      "ownerOf(uint256)": {
        "details": "See {IERC721-ownerOf}."
      },
      "paused()": {
        "details": "Returns true if the contract is paused, and false otherwise."
      },
      "renounceOwnership()": {
        "details": "Leaves the contract without owner. It will not be possible to call `onlyOwner` functions. Can only be called by the current owner. NOTE: Renouncing ownership will leave the contract without an owner, thereby disabling any functionality that is only available to the owner."
      },
      "safeTransferFrom(address,address,uint256)": {
        "details": "See {IERC721-safeTransferFrom}."
      },
      "safeTransferFrom(address,address,uint256,bytes)": {
        "details": "See {IERC721-safeTransferFrom}."
      },
      "setApprovalForAll(address,bool)": {
        "details": "See {IERC721-setApprovalForAll}."
      },
      "symbol()": {
        "details": "See {IERC721Metadata-symbol}."
      },
      "tokenByIndex(uint256)": {
        "details": "See {IERC721Enumerable-tokenByIndex}."
      },
      "tokenOfOwnerByIndex(address,uint256)": {
        "details": "See {IERC721Enumerable-tokenOfOwnerByIndex}."
      },
      "tokenURI(uint256)": {
        "details": "See {IERC721Metadata-tokenURI}."
      },
      "totalSupply()": {
        "details": "See {IERC721Enumerable-totalSupply}."
      },
      "transferFrom(address,address,uint256)": {
        "details": "See {IERC721-transferFrom}."
      },
      "transferOwnership(address)": {
        "details": "Transfers ownership of the contract to a new account (`newOwner`). Can only be called by the current owner."
      }
    },
    "version": 1
  },
  "userdoc": {
    "kind": "user",
    "methods": {},
    "version": 1
  }
}